{"contracts/OracleIntegration.sol":{"OracleIntegration":{"abi":[{"inputs":[{"internalType":"address","name":"_projectFactoryAddress","type":"address"}],"stateMutability":"nonpayable","type":"constructor"},{"anonymous":false,"inputs":[{"indexed":true,"internalType":"uint256","name":"projectId","type":"uint256"},{"indexed":false,"internalType":"uint256","name":"milestoneId","type":"uint256"},{"indexed":false,"internalType":"address","name":"raisedBy","type":"address"}],"name":"DisputeRaised","type":"event"},{"anonymous":false,"inputs":[{"indexed":true,"internalType":"uint256","name":"projectId","type":"uint256"},{"indexed":false,"internalType":"uint256","name":"milestoneId","type":"uint256"},{"indexed":false,"internalType":"string","name":"description","type":"string"}],"name":"MilestoneAdded","type":"event"},{"anonymous":false,"inputs":[{"indexed":true,"internalType":"uint256","name":"projectId","type":"uint256"},{"indexed":false,"internalType":"uint256","name":"milestoneId","type":"uint256"},{"indexed":false,"internalType":"enum OracleIntegration.VerificationStatus","name":"status","type":"uint8"}],"name":"MilestoneStatusUpdated","type":"event"},{"anonymous":false,"inputs":[{"indexed":true,"internalType":"uint256","name":"projectId","type":"uint256"},{"indexed":false,"internalType":"uint256","name":"milestoneId","type":"uint256"},{"indexed":false,"internalType":"address","name":"verifier","type":"address"},{"indexed":false,"internalType":"enum OracleIntegration.DataSource","name":"source","type":"uint8"}],"name":"MilestoneVerified","type":"event"},{"anonymous":false,"inputs":[{"indexed":true,"internalType":"bytes32","name":"role","type":"bytes32"},{"indexed":true,"internalType":"bytes32","name":"previousAdminRole","type":"bytes32"},{"indexed":true,"internalType":"bytes32","name":"newAdminRole","type":"bytes32"}],"name":"RoleAdminChanged","type":"event"},{"anonymous":false,"inputs":[{"indexed":true,"internalType":"bytes32","name":"role","type":"bytes32"},{"indexed":true,"internalType":"address","name":"account","type":"address"},{"indexed":true,"internalType":"address","name":"sender","type":"address"}],"name":"RoleGranted","type":"event"},{"anonymous":false,"inputs":[{"indexed":true,"internalType":"bytes32","name":"role","type":"bytes32"},{"indexed":true,"internalType":"address","name":"account","type":"address"},{"indexed":true,"internalType":"address","name":"sender","type":"address"}],"name":"RoleRevoked","type":"event"},{"inputs":[],"name":"DEFAULT_ADMIN_ROLE","outputs":[{"internalType":"bytes32","name":"","type":"bytes32"}],"stateMutability":"view","type":"function"},{"inputs":[],"name":"NGO_AGENT","outputs":[{"internalType":"bytes32","name":"","type":"bytes32"}],"stateMutability":"view","type":"function"},{"inputs":[],"name":"ORACLE_NODE","outputs":[{"internalType":"bytes32","name":"","type":"bytes32"}],"stateMutability":"view","type":"function"},{"inputs":[{"internalType":"uint256","name":"projectId","type":"uint256"},{"internalType":"string","name":"description","type":"string"},{"internalType":"uint256","name":"targetDate","type":"uint256"},{"internalType":"string","name":"ipfsHash","type":"string"}],"name":"addMilestone","outputs":[],"stateMutability":"nonpayable","type":"function"},{"inputs":[{"internalType":"uint256","name":"projectId","type":"uint256"}],"name":"getProjectMilestones","outputs":[{"components":[{"internalType":"uint256","name":"projectId","type":"uint256"},{"internalType":"uint256","name":"milestoneId","type":"uint256"},{"internalType":"string","name":"description","type":"string"},{"internalType":"uint256","name":"targetDate","type":"uint256"},{"internalType":"uint256","name":"completionDate","type":"uint256"},{"internalType":"enum OracleIntegration.VerificationStatus","name":"status","type":"uint8"},{"internalType":"string","name":"ipfsHash","type":"string"},{"internalType":"address","name":"verifiedBy","type":"address"},{"internalType":"enum OracleIntegration.DataSource","name":"source","type":"uint8"}],"internalType":"struct OracleIntegration.Milestone[]","name":"","type":"tuple[]"}],"stateMutability":"view","type":"function"},{"inputs":[{"internalType":"bytes32","name":"role","type":"bytes32"}],"name":"getRoleAdmin","outputs":[{"internalType":"bytes32","name":"","type":"bytes32"}],"stateMutability":"view","type":"function"},{"inputs":[{"internalType":"bytes32","name":"role","type":"bytes32"},{"internalType":"address","name":"account","type":"address"}],"name":"grantRole","outputs":[],"stateMutability":"nonpayable","type":"function"},{"inputs":[{"internalType":"bytes32","name":"role","type":"bytes32"},{"internalType":"address","name":"account","type":"address"}],"name":"hasRole","outputs":[{"internalType":"bool","name":"","type":"bool"}],"stateMutability":"view","type":"function"},{"inputs":[{"internalType":"bytes32","name":"","type":"bytes32"},{"internalType":"uint256","name":"","type":"uint256"}],"name":"milestoneVerifiers","outputs":[{"internalType":"address","name":"","type":"address"}],"stateMutability":"view","type":"function"},{"inputs":[],"name":"projectFactory","outputs":[{"internalType":"contract ProjectFactory","name":"","type":"address"}],"stateMutability":"view","type":"function"},{"inputs":[{"internalType":"uint256","name":"","type":"uint256"},{"internalType":"uint256","name":"","type":"uint256"}],"name":"projectMilestones","outputs":[{"internalType":"uint256","name":"projectId","type":"uint256"},{"internalType":"uint256","name":"milestoneId","type":"uint256"},{"internalType":"string","name":"description","type":"string"},{"internalType":"uint256","name":"targetDate","type":"uint256"},{"internalType":"uint256","name":"completionDate","type":"uint256"},{"internalType":"enum OracleIntegration.VerificationStatus","name":"status","type":"uint8"},{"internalType":"string","name":"ipfsHash","type":"string"},{"internalType":"address","name":"verifiedBy","type":"address"},{"internalType":"enum OracleIntegration.DataSource","name":"source","type":"uint8"}],"stateMutability":"view","type":"function"},{"inputs":[{"internalType":"uint256","name":"projectId","type":"uint256"},{"internalType":"uint256","name":"milestoneId","type":"uint256"}],"name":"raiseDispute","outputs":[],"stateMutability":"nonpayable","type":"function"},{"inputs":[{"internalType":"bytes32","name":"role","type":"bytes32"},{"internalType":"address","name":"account","type":"address"}],"name":"renounceRole","outputs":[],"stateMutability":"nonpayable","type":"function"},{"inputs":[{"internalType":"bytes32","name":"role","type":"bytes32"},{"internalType":"address","name":"account","type":"address"}],"name":"revokeRole","outputs":[],"stateMutability":"nonpayable","type":"function"},{"inputs":[{"internalType":"uint256","name":"_threshold","type":"uint256"}],"name":"setVerificationThreshold","outputs":[],"stateMutability":"nonpayable","type":"function"},{"inputs":[{"internalType":"bytes4","name":"interfaceId","type":"bytes4"}],"name":"supportsInterface","outputs":[{"internalType":"bool","name":"","type":"bool"}],"stateMutability":"view","type":"function"},{"inputs":[],"name":"verificationThreshold","outputs":[{"internalType":"uint256","name":"","type":"uint256"}],"stateMutability":"view","type":"function"},{"inputs":[{"internalType":"uint256","name":"projectId","type":"uint256"},{"internalType":"uint256","name":"milestoneId","type":"uint256"},{"internalType":"bool","name":"isVerified","type":"bool"},{"internalType":"enum OracleIntegration.DataSource","name":"source","type":"uint8"}],"name":"verifyMilestone","outputs":[],"stateMutability":"nonpayable","type":"function"}],"evm":{"bytecode":{"linkReferences":{},"object":"6080604052600280553480156200001557600080fd5b5060405162001d4838038062001d48833981016040819052620000389162000163565b6001600160a01b038116620000935760405162461bcd60e51b815260206004820152601f60248201527f496e76616c69642070726f6a65637420666163746f7279206164647265737300604482015260640160405180910390fd5b600180546001600160a01b0319166001600160a01b038316179055620000bb600033620000c2565b5062000195565b6000828152602081815260408083206001600160a01b038516845290915290205460ff166200015f576000828152602081815260408083206001600160a01b03851684529091529020805460ff191660011790556200011e3390565b6001600160a01b0316816001600160a01b0316837f2f8788117e7eff1d82e926ec794901d17c78024a50270940304540a733656f0d60405160405180910390a45b5050565b6000602082840312156200017657600080fd5b81516001600160a01b03811681146200018e57600080fd5b9392505050565b611ba380620001a56000396000f3fe608060405234801561001057600080fd5b50600436106101165760003560e01c80636cb0adba116100a25780639f686097116100715780639f6860971461029f578063a217fddf146102b2578063a5310ad7146102ba578063d547741f146102cd578063ede0e1c9146102e057600080fd5b80636cb0adba1461022a578063857a4e631461025257806391d148541461027957806397f519741461028c57600080fd5b80632f2ff15d116100e95780632f2ff15d146101a857806336568abe146101bd57806338cc32c4146101d05780633ae94349146101e357806352766d801461020a57600080fd5b806301ffc9a71461011b578063167feb0914610143578063248a9ca31461015a578063293685e11461017d575b600080fd5b61012e61012936600461129f565b6102f3565b60405190151581526020015b60405180910390f35b61014c60025481565b60405190815260200161013a565b61014c6101683660046112c9565b60009081526020819052604090206001015490565b61019061018b3660046112e2565b61032a565b6040516001600160a01b03909116815260200161013a565b6101bb6101b6366004611319565b610362565b005b6101bb6101cb366004611319565b61038c565b6101bb6101de3660046112c9565b61040f565b61014c7fec1a88954037c9d74027ad328a1e8ed885ad51f8b3099c28af41bc1d969eddd981565b61021d6102183660046112c9565b610470565b60405161013a91906113da565b61023d6102383660046112e2565b6106ab565b60405161013a999897969594939291906114d2565b61014c7f514fcc7800d79c75ff6f4063f0cfa39fcafe052d27638688473bac480850116481565b61012e610287366004611319565b61083f565b600154610190906001600160a01b031681565b6101bb6102ad3660046112e2565b610868565b61014c600081565b6101bb6102c8366004611560565b6109cb565b6101bb6102db366004611319565b610c89565b6101bb6102ee36600461169d565b610cae565b60006001600160e01b03198216637965db0b60e01b148061032457506301ffc9a760e01b6001600160e01b03198316145b92915050565b6004602052816000526040600020818154811061034657600080fd5b6000918252602090912001546001600160a01b03169150829050565b60008281526020819052604090206001015461037d81610f9b565b6103878383610fa8565b505050565b6001600160a01b03811633146104015760405162461bcd60e51b815260206004820152602f60248201527f416363657373436f6e74726f6c3a2063616e206f6e6c792072656e6f756e636560448201526e103937b632b9903337b91039b2b63360891b60648201526084015b60405180910390fd5b61040b828261102c565b5050565b600061041a81610f9b565b6000821161046a5760405162461bcd60e51b815260206004820181905260248201527f5468726573686f6c64206d7573742062652067726561746572207468616e203060448201526064016103f8565b50600255565b606060036000838152602001908152602001600020805480602002602001604051908101604052809291908181526020016000905b828210156106a057838290600052602060002090600802016040518061012001604052908160008201548152602001600182015481526020016002820180546104ed90611714565b80601f016020809104026020016040519081016040528092919081815260200182805461051990611714565b80156105665780601f1061053b57610100808354040283529160200191610566565b820191906000526020600020905b81548152906001019060200180831161054957829003601f168201915b5050509183525050600382810154602083015260048301546040830152600583015460609092019160ff16908111156105a1576105a1611399565b60038111156105b2576105b2611399565b81526020016006820180546105c690611714565b80601f01602080910402602001604051908101604052809291908181526020018280546105f290611714565b801561063f5780601f106106145761010080835404028352916020019161063f565b820191906000526020600020905b81548152906001019060200180831161062257829003601f168201915b505050918352505060078201546001600160a01b0381166020830152604090910190600160a01b900460ff16600381111561067c5761067c611399565b600381111561068d5761068d611399565b81525050815260200190600101906104a5565b505050509050919050565b600360205281600052604060002081815481106106c757600080fd5b9060005260206000209060080201600091509150508060000154908060010154908060020180546106f790611714565b80601f016020809104026020016040519081016040528092919081815260200182805461072390611714565b80156107705780601f1061074557610100808354040283529160200191610770565b820191906000526020600020905b81548152906001019060200180831161075357829003601f168201915b5050506003840154600485015460058601546006870180549697939692955060ff9091169350906107a090611714565b80601f01602080910402602001604051908101604052809291908181526020018280546107cc90611714565b80156108195780601f106107ee57610100808354040283529160200191610819565b820191906000526020600020905b8154815290600101906020018083116107fc57829003601f168201915b505050600790930154919250506001600160a01b0381169060ff600160a01b9091041689565b6000918252602082815260408084206001600160a01b0393909316845291905290205460ff1690565b60008281526003602052604090205482106108c05760405162461bcd60e51b8152602060048201526018602482015277135a5b195cdd1bdb9948191bd95cc81b9bdd08195e1a5cdd60421b60448201526064016103f8565b60008281526003602052604081208054839081106108e0576108e061174e565b6000918252602090912060089091020190506001600582015460ff16600381111561090d5761090d611399565b148061093157506002600582015460ff16600381111561092f5761092f611399565b145b61097d5760405162461bcd60e51b815260206004820181905260248201527f43616e6e6f7420646973707574652070656e64696e67206d696c6573746f6e6560448201526064016103f8565b60058101805460ff191660031790556040805183815233602082015284917f83201991c75b30e493678d0543bdbd02d6a194a5a0dda31490a5fe09e9f0a220910160405180910390a2505050565b7fec1a88954037c9d74027ad328a1e8ed885ad51f8b3099c28af41bc1d969eddd96109f581610f9b565b6000858152600360205260409020548510610a4d5760405162461bcd60e51b8152602060048201526018602482015277135a5b195cdd1bdb9948191bd95cc81b9bdd08195e1a5cdd60421b60448201526064016103f8565b6000858152600360205260408120805486908110610a6d57610a6d61174e565b6000918252602082206008909102019150600582015460ff166003811115610a9757610a97611399565b1480610abb57506003600582015460ff166003811115610ab957610ab9611399565b145b610b075760405162461bcd60e51b815260206004820152601b60248201527f4d696c6573746f6e6520616c72656164792070726f636573736564000000000060448201526064016103f8565b604080516020810188905290810186905260009060600160408051601f1981840301815282825280516020918201206000818152600483529283208054600181018255908452919092200180546001600160a01b0319163390811790915590925088917fb84171a5d71e9745a90a1f60974199c4472c6f744e74fb363700c2f9c6b8837b91610b9a918a91908990611764565b60405180910390a260025460008281526004602052604090205410610c805784610bc5576002610bc8565b60015b60058301805460ff19166001836003811115610be657610be6611399565b0217905550426004830155600782018054336001600160a01b03198216811783558692916001600160a81b03191660ff60a01b1990911617600160a01b836003811115610c3557610c35611399565b0217905550600582015460405188917f855d7f62719d90b6dffa5d0c4b7a917b0e8a2fe2521d54486fda68888305e20191610c77918a9160ff90911690611791565b60405180910390a25b50505050505050565b600082815260208190526040902060010154610ca481610f9b565b610387838361102c565b6001546040516024810186905260009182916001600160a01b039091169060440160408051601f198184030181529181526020820180516001600160e01b0316631e1e7e5960e31b17905251610d0491906117ae565b600060405180830381855afa9150503d8060008114610d3f576040519150601f19603f3d011682016040523d82523d6000602084013e610d44565b606091505b509150915081610d965760405162461bcd60e51b815260206004820152601f60248201527f4661696c656420746f2066657463682070726f6a6563742064657461696c730060448201526064016103f8565b600081806020019051810190610dac9190611841565b60208101519091506001600160a01b0316331480610dd05750610dd060003361083f565b610e1c5760405162461bcd60e51b815260206004820152601f60248201527f4e6f7420617574686f72697a656420746f20616464206d696c6573746f6e650060448201526064016103f8565b600087815260036020908152604080832080548251610120810184528c81528085018281529381018c8152606082018c90526080820187905260a0820187905260c082018b905260e082018790526101008201879052600180840185559387529490952085516008830290910190815592519183019190915591519192916002820190610ea990826119b5565b50606082015181600301556080820151816004015560a08201518160050160006101000a81548160ff02191690836003811115610ee857610ee8611399565b021790555060c08201516006820190610f0190826119b5565b5060e08201516007820180546001600160a01b039092166001600160a01b0319831681178255610100850151926001600160a81b03191617600160a01b836003811115610f5057610f50611399565b02179055505050877fe67e4500ba1c5a33e0bb3c97b84e34eb7f637c3da038f433e1d77ba82e221dac8289604051610f89929190611a75565b60405180910390a25050505050505050565b610fa58133611091565b50565b610fb2828261083f565b61040b576000828152602081815260408083206001600160a01b03851684529091529020805460ff19166001179055610fe83390565b6001600160a01b0316816001600160a01b0316837f2f8788117e7eff1d82e926ec794901d17c78024a50270940304540a733656f0d60405160405180910390a45050565b611036828261083f565b1561040b576000828152602081815260408083206001600160a01b0385168085529252808320805460ff1916905551339285917ff6391f5c32d9c69d2a47ea670b442974b53935d1edc7fd64eb21e047a839171b9190a45050565b61109b828261083f565b61040b576110a8816110ea565b6110b38360206110fc565b6040516020016110c4929190611a8e565b60408051601f198184030181529082905262461bcd60e51b82526103f891600401611b03565b60606103246001600160a01b03831660145b6060600061110b836002611b2c565b611116906002611b43565b67ffffffffffffffff81111561112e5761112e6115ae565b6040519080825280601f01601f191660200182016040528015611158576020820181803683370190505b509050600360fc1b816000815181106111735761117361174e565b60200101906001600160f81b031916908160001a905350600f60fb1b816001815181106111a2576111a261174e565b60200101906001600160f81b031916908160001a90535060006111c6846002611b2c565b6111d1906001611b43565b90505b6001811115611249576f181899199a1a9b1b9c1cb0b131b232b360811b85600f16601081106112055761120561174e565b1a60f81b82828151811061121b5761121b61174e565b60200101906001600160f81b031916908160001a90535060049490941c9361124281611b56565b90506111d4565b5083156112985760405162461bcd60e51b815260206004820181905260248201527f537472696e67733a20686578206c656e67746820696e73756666696369656e7460448201526064016103f8565b9392505050565b6000602082840312156112b157600080fd5b81356001600160e01b03198116811461129857600080fd5b6000602082840312156112db57600080fd5b5035919050565b600080604083850312156112f557600080fd5b50508035926020909101359150565b6001600160a01b0381168114610fa557600080fd5b6000806040838503121561132c57600080fd5b82359150602083013561133e81611304565b809150509250929050565b60005b8381101561136457818101518382015260200161134c565b50506000910152565b60008151808452611385816020860160208601611349565b601f01601f19169290920160200192915050565b634e487b7160e01b600052602160045260246000fd5b60048110610fa557634e487b7160e01b600052602160045260246000fd5b6113d6816113af565b9052565b60006020808301818452808551808352604092508286019150828160051b87010184880160005b838110156114c457603f1989840301855281516101208151855288820151898601528782015181898701526114388287018261136d565b9150506060808301518187015250608080830151818701525060a080830151611463828801826113cd565b505060c0808301518683038288015261147c838261136d565b9250505060e08083015161149a828801826001600160a01b03169052565b505061010091820151916114b0868201846113cd565b509588019593505090860190600101611401565b509098975050505050505050565b60006101208b83528a60208401528060408401526114f28184018b61136d565b9050886060840152876080840152611509876113af565b8660a084015282810360c0840152611521818761136d565b6001600160a01b03861660e0850152915061153d9050836113af565b826101008301529a9950505050505050505050565b8015158114610fa557600080fd5b6000806000806080858703121561157657600080fd5b8435935060208501359250604085013561158f81611552565b91506060850135600481106115a357600080fd5b939692955090935050565b634e487b7160e01b600052604160045260246000fd5b604051610160810167ffffffffffffffff811182821017156115e8576115e86115ae565b60405290565b604051601f8201601f1916810167ffffffffffffffff81118282101715611617576116176115ae565b604052919050565b600067ffffffffffffffff821115611639576116396115ae565b50601f01601f191660200190565b600082601f83011261165857600080fd5b813561166b6116668261161f565b6115ee565b81815284602083860101111561168057600080fd5b816020850160208301376000918101602001919091529392505050565b600080600080608085870312156116b357600080fd5b84359350602085013567ffffffffffffffff808211156116d257600080fd5b6116de88838901611647565b94506040870135935060608701359150808211156116fb57600080fd5b5061170887828801611647565b91505092959194509250565b600181811c9082168061172857607f821691505b60208210810361174857634e487b7160e01b600052602260045260246000fd5b50919050565b634e487b7160e01b600052603260045260246000fd5b8381526001600160a01b038316602082015260608101611783836113af565b826040830152949350505050565b828152604081016117a1836113af565b8260208301529392505050565b600082516117c0818460208701611349565b9190910192915050565b80516117d581611304565b919050565b600082601f8301126117eb57600080fd5b81516117f96116668261161f565b81815284602083860101111561180e57600080fd5b61181f826020830160208701611349565b949350505050565b8051600681106117d557600080fd5b80516117d581611552565b60006020828403121561185357600080fd5b815167ffffffffffffffff8082111561186b57600080fd5b90830190610160828603121561188057600080fd5b6118886115c4565b82518152611898602084016117ca565b60208201526040830151828111156118af57600080fd5b6118bb878286016117da565b6040830152506060830151828111156118d357600080fd5b6118df878286016117da565b6060830152506080830151828111156118f757600080fd5b611903878286016117da565b60808301525060a083015160a082015260c083015160c082015260e083015160e0820152610100915081830151828201526101209150611944828401611827565b828201526101409150611958828401611836565b91810191909152949350505050565b601f82111561038757600081815260208120601f850160051c8101602086101561198e5750805b601f850160051c820191505b818110156119ad5782815560010161199a565b505050505050565b815167ffffffffffffffff8111156119cf576119cf6115ae565b6119e3816119dd8454611714565b84611967565b602080601f831160018114611a185760008415611a005750858301515b600019600386901b1c1916600185901b1785556119ad565b600085815260208120601f198616915b82811015611a4757888601518255948401946001909101908401611a28565b5085821015611a655787850151600019600388901b60f8161c191681555b5050505050600190811b01905550565b82815260406020820152600061181f604083018461136d565b7f416363657373436f6e74726f6c3a206163636f756e7420000000000000000000815260008351611ac6816017850160208801611349565b7001034b99036b4b9b9b4b733903937b6329607d1b6017918401918201528351611af7816028840160208801611349565b01602801949350505050565b602081526000611298602083018461136d565b634e487b7160e01b600052601160045260246000fd5b808202811582820484141761032457610324611b16565b8082018082111561032457610324611b16565b600081611b6557611b65611b16565b50600019019056fea2646970667358221220d5141f5136876ce637ec021882542663948d94e1fc679cd76b008bf24b6d366464736f6c63430008140033","opcodes":"PUSH1 0x80 PUSH1 0x40 MSTORE PUSH1 0x2 DUP1 SSTORE CALLVALUE DUP1 ISZERO PUSH3 0x15 JUMPI PUSH1 0x0 DUP1 REVERT JUMPDEST POP PUSH1 0x40 MLOAD PUSH3 0x1D48 CODESIZE SUB DUP1 PUSH3 0x1D48 DUP4 CODECOPY DUP2 ADD PUSH1 0x40 DUP2 SWAP1 MSTORE PUSH3 0x38 SWAP2 PUSH3 0x163 JUMP JUMPDEST PUSH1 0x1 PUSH1 0x1 PUSH1 0xA0 SHL SUB DUP2 AND PUSH3 0x93 JUMPI PUSH1 0x40 MLOAD PUSH3 0x461BCD PUSH1 0xE5 SHL DUP2 MSTORE PUSH1 0x20 PUSH1 0x4 DUP3 ADD MSTORE PUSH1 0x1F PUSH1 0x24 DUP3 ADD MSTORE PUSH32 0x496E76616C69642070726F6A65637420666163746F7279206164647265737300 PUSH1 0x44 DUP3 ADD MSTORE PUSH1 0x64 ADD PUSH1 0x40 MLOAD DUP1 SWAP2 SUB SWAP1 REVERT JUMPDEST PUSH1 0x1 DUP1 SLOAD PUSH1 0x1 PUSH1 0x1 PUSH1 0xA0 SHL SUB NOT AND PUSH1 0x1 PUSH1 0x1 PUSH1 0xA0 SHL SUB DUP4 AND OR SWAP1 SSTORE PUSH3 0xBB PUSH1 0x0 CALLER PUSH3 0xC2 JUMP JUMPDEST POP PUSH3 0x195 JUMP JUMPDEST PUSH1 0x0 DUP3 DUP2 MSTORE PUSH1 0x20 DUP2 DUP2 MSTORE PUSH1 0x40 DUP1 DUP4 KECCAK256 PUSH1 0x1 PUSH1 0x1 PUSH1 0xA0 SHL SUB DUP6 AND DUP5 MSTORE SWAP1 SWAP2 MSTORE SWAP1 KECCAK256 SLOAD PUSH1 0xFF AND PUSH3 0x15F JUMPI PUSH1 0x0 DUP3 DUP2 MSTORE PUSH1 0x20 DUP2 DUP2 MSTORE PUSH1 0x40 DUP1 DUP4 KECCAK256 PUSH1 0x1 PUSH1 0x1 PUSH1 0xA0 SHL SUB DUP6 AND DUP5 MSTORE SWAP1 SWAP2 MSTORE SWAP1 KECCAK256 DUP1 SLOAD PUSH1 0xFF NOT AND PUSH1 0x1 OR SWAP1 SSTORE PUSH3 0x11E CALLER SWAP1 JUMP JUMPDEST PUSH1 0x1 PUSH1 0x1 PUSH1 0xA0 SHL SUB AND DUP2 PUSH1 0x1 PUSH1 0x1 PUSH1 0xA0 SHL SUB AND DUP4 PUSH32 0x2F8788117E7EFF1D82E926EC794901D17C78024A50270940304540A733656F0D PUSH1 0x40 MLOAD PUSH1 0x40 MLOAD DUP1 SWAP2 SUB SWAP1 LOG4 JUMPDEST POP POP JUMP JUMPDEST PUSH1 0x0 PUSH1 0x20 DUP3 DUP5 SUB SLT ISZERO PUSH3 0x176 JUMPI PUSH1 0x0 DUP1 REVERT JUMPDEST DUP2 MLOAD PUSH1 0x1 PUSH1 0x1 PUSH1 0xA0 SHL SUB DUP2 AND DUP2 EQ PUSH3 0x18E JUMPI PUSH1 0x0 DUP1 REVERT JUMPDEST SWAP4 SWAP3 POP POP POP JUMP JUMPDEST PUSH2 0x1BA3 DUP1 PUSH3 0x1A5 PUSH1 0x0 CODECOPY PUSH1 0x0 RETURN INVALID PUSH1 0x80 PUSH1 0x40 MSTORE CALLVALUE DUP1 ISZERO PUSH2 0x10 JUMPI PUSH1 0x0 DUP1 REVERT JUMPDEST POP PUSH1 0x4 CALLDATASIZE LT PUSH2 0x116 JUMPI PUSH1 0x0 CALLDATALOAD PUSH1 0xE0 SHR DUP1 PUSH4 0x6CB0ADBA GT PUSH2 0xA2 JUMPI DUP1 PUSH4 0x9F686097 GT PUSH2 0x71 JUMPI DUP1 PUSH4 0x9F686097 EQ PUSH2 0x29F JUMPI DUP1 PUSH4 0xA217FDDF EQ PUSH2 0x2B2 JUMPI DUP1 PUSH4 0xA5310AD7 EQ PUSH2 0x2BA JUMPI DUP1 PUSH4 0xD547741F EQ PUSH2 0x2CD JUMPI DUP1 PUSH4 0xEDE0E1C9 EQ PUSH2 0x2E0 JUMPI PUSH1 0x0 DUP1 REVERT JUMPDEST DUP1 PUSH4 0x6CB0ADBA EQ PUSH2 0x22A JUMPI DUP1 PUSH4 0x857A4E63 EQ PUSH2 0x252 JUMPI DUP1 PUSH4 0x91D14854 EQ PUSH2 0x279 JUMPI DUP1 PUSH4 0x97F51974 EQ PUSH2 0x28C JUMPI PUSH1 0x0 DUP1 REVERT JUMPDEST DUP1 PUSH4 0x2F2FF15D GT PUSH2 0xE9 JUMPI DUP1 PUSH4 0x2F2FF15D EQ PUSH2 0x1A8 JUMPI DUP1 PUSH4 0x36568ABE EQ PUSH2 0x1BD JUMPI DUP1 PUSH4 0x38CC32C4 EQ PUSH2 0x1D0 JUMPI DUP1 PUSH4 0x3AE94349 EQ PUSH2 0x1E3 JUMPI DUP1 PUSH4 0x52766D80 EQ PUSH2 0x20A JUMPI PUSH1 0x0 DUP1 REVERT JUMPDEST DUP1 PUSH4 0x1FFC9A7 EQ PUSH2 0x11B JUMPI DUP1 PUSH4 0x167FEB09 EQ PUSH2 0x143 JUMPI DUP1 PUSH4 0x248A9CA3 EQ PUSH2 0x15A JUMPI DUP1 PUSH4 0x293685E1 EQ PUSH2 0x17D JUMPI JUMPDEST PUSH1 0x0 DUP1 REVERT JUMPDEST PUSH2 0x12E PUSH2 0x129 CALLDATASIZE PUSH1 0x4 PUSH2 0x129F JUMP JUMPDEST PUSH2 0x2F3 JUMP JUMPDEST PUSH1 0x40 MLOAD SWAP1 ISZERO ISZERO DUP2 MSTORE PUSH1 0x20 ADD JUMPDEST PUSH1 0x40 MLOAD DUP1 SWAP2 SUB SWAP1 RETURN JUMPDEST PUSH2 0x14C PUSH1 0x2 SLOAD DUP2 JUMP JUMPDEST PUSH1 0x40 MLOAD SWAP1 DUP2 MSTORE PUSH1 0x20 ADD PUSH2 0x13A JUMP JUMPDEST PUSH2 0x14C PUSH2 0x168 CALLDATASIZE PUSH1 0x4 PUSH2 0x12C9 JUMP JUMPDEST PUSH1 0x0 SWAP1 DUP2 MSTORE PUSH1 0x20 DUP2 SWAP1 MSTORE PUSH1 0x40 SWAP1 KECCAK256 PUSH1 0x1 ADD SLOAD SWAP1 JUMP JUMPDEST PUSH2 0x190 PUSH2 0x18B CALLDATASIZE PUSH1 0x4 PUSH2 0x12E2 JUMP JUMPDEST PUSH2 0x32A JUMP JUMPDEST PUSH1 0x40 MLOAD PUSH1 0x1 PUSH1 0x1 PUSH1 0xA0 SHL SUB SWAP1 SWAP2 AND DUP2 MSTORE PUSH1 0x20 ADD PUSH2 0x13A JUMP JUMPDEST PUSH2 0x1BB PUSH2 0x1B6 CALLDATASIZE PUSH1 0x4 PUSH2 0x1319 JUMP JUMPDEST PUSH2 0x362 JUMP JUMPDEST STOP JUMPDEST PUSH2 0x1BB PUSH2 0x1CB CALLDATASIZE PUSH1 0x4 PUSH2 0x1319 JUMP JUMPDEST PUSH2 0x38C JUMP JUMPDEST PUSH2 0x1BB PUSH2 0x1DE CALLDATASIZE PUSH1 0x4 PUSH2 0x12C9 JUMP JUMPDEST PUSH2 0x40F JUMP JUMPDEST PUSH2 0x14C PUSH32 0xEC1A88954037C9D74027AD328A1E8ED885AD51F8B3099C28AF41BC1D969EDDD9 DUP2 JUMP JUMPDEST PUSH2 0x21D PUSH2 0x218 CALLDATASIZE PUSH1 0x4 PUSH2 0x12C9 JUMP JUMPDEST PUSH2 0x470 JUMP JUMPDEST PUSH1 0x40 MLOAD PUSH2 0x13A SWAP2 SWAP1 PUSH2 0x13DA JUMP JUMPDEST PUSH2 0x23D PUSH2 0x238 CALLDATASIZE PUSH1 0x4 PUSH2 0x12E2 JUMP JUMPDEST PUSH2 0x6AB JUMP JUMPDEST PUSH1 0x40 MLOAD PUSH2 0x13A SWAP10 SWAP9 SWAP8 SWAP7 SWAP6 SWAP5 SWAP4 SWAP3 SWAP2 SWAP1 PUSH2 0x14D2 JUMP JUMPDEST PUSH2 0x14C PUSH32 0x514FCC7800D79C75FF6F4063F0CFA39FCAFE052D27638688473BAC4808501164 DUP2 JUMP JUMPDEST PUSH2 0x12E PUSH2 0x287 CALLDATASIZE PUSH1 0x4 PUSH2 0x1319 JUMP JUMPDEST PUSH2 0x83F JUMP JUMPDEST PUSH1 0x1 SLOAD PUSH2 0x190 SWAP1 PUSH1 0x1 PUSH1 0x1 PUSH1 0xA0 SHL SUB AND DUP2 JUMP JUMPDEST PUSH2 0x1BB PUSH2 0x2AD CALLDATASIZE PUSH1 0x4 PUSH2 0x12E2 JUMP JUMPDEST PUSH2 0x868 JUMP JUMPDEST PUSH2 0x14C PUSH1 0x0 DUP2 JUMP JUMPDEST PUSH2 0x1BB PUSH2 0x2C8 CALLDATASIZE PUSH1 0x4 PUSH2 0x1560 JUMP JUMPDEST PUSH2 0x9CB JUMP JUMPDEST PUSH2 0x1BB PUSH2 0x2DB CALLDATASIZE PUSH1 0x4 PUSH2 0x1319 JUMP JUMPDEST PUSH2 0xC89 JUMP JUMPDEST PUSH2 0x1BB PUSH2 0x2EE CALLDATASIZE PUSH1 0x4 PUSH2 0x169D JUMP JUMPDEST PUSH2 0xCAE JUMP JUMPDEST PUSH1 0x0 PUSH1 0x1 PUSH1 0x1 PUSH1 0xE0 SHL SUB NOT DUP3 AND PUSH4 0x7965DB0B PUSH1 0xE0 SHL EQ DUP1 PUSH2 0x324 JUMPI POP PUSH4 0x1FFC9A7 PUSH1 0xE0 SHL PUSH1 0x1 PUSH1 0x1 PUSH1 0xE0 SHL SUB NOT DUP4 AND EQ JUMPDEST SWAP3 SWAP2 POP POP JUMP JUMPDEST PUSH1 0x4 PUSH1 0x20 MSTORE DUP2 PUSH1 0x0 MSTORE PUSH1 0x40 PUSH1 0x0 KECCAK256 DUP2 DUP2 SLOAD DUP2 LT PUSH2 0x346 JUMPI PUSH1 0x0 DUP1 REVERT JUMPDEST PUSH1 0x0 SWAP2 DUP3 MSTORE PUSH1 0x20 SWAP1 SWAP2 KECCAK256 ADD SLOAD PUSH1 0x1 PUSH1 0x1 PUSH1 0xA0 SHL SUB AND SWAP2 POP DUP3 SWAP1 POP JUMP JUMPDEST PUSH1 0x0 DUP3 DUP2 MSTORE PUSH1 0x20 DUP2 SWAP1 MSTORE PUSH1 0x40 SWAP1 KECCAK256 PUSH1 0x1 ADD SLOAD PUSH2 0x37D DUP2 PUSH2 0xF9B JUMP JUMPDEST PUSH2 0x387 DUP4 DUP4 PUSH2 0xFA8 JUMP JUMPDEST POP POP POP JUMP JUMPDEST PUSH1 0x1 PUSH1 0x1 PUSH1 0xA0 SHL SUB DUP2 AND CALLER EQ PUSH2 0x401 JUMPI PUSH1 0x40 MLOAD PUSH3 0x461BCD PUSH1 0xE5 SHL DUP2 MSTORE PUSH1 0x20 PUSH1 0x4 DUP3 ADD MSTORE PUSH1 0x2F PUSH1 0x24 DUP3 ADD MSTORE PUSH32 0x416363657373436F6E74726F6C3A2063616E206F6E6C792072656E6F756E6365 PUSH1 0x44 DUP3 ADD MSTORE PUSH15 0x103937B632B9903337B91039B2B633 PUSH1 0x89 SHL PUSH1 0x64 DUP3 ADD MSTORE PUSH1 0x84 ADD JUMPDEST PUSH1 0x40 MLOAD DUP1 SWAP2 SUB SWAP1 REVERT JUMPDEST PUSH2 0x40B DUP3 DUP3 PUSH2 0x102C JUMP JUMPDEST POP POP JUMP JUMPDEST PUSH1 0x0 PUSH2 0x41A DUP2 PUSH2 0xF9B JUMP JUMPDEST PUSH1 0x0 DUP3 GT PUSH2 0x46A JUMPI PUSH1 0x40 MLOAD PUSH3 0x461BCD PUSH1 0xE5 SHL DUP2 MSTORE PUSH1 0x20 PUSH1 0x4 DUP3 ADD DUP2 SWAP1 MSTORE PUSH1 0x24 DUP3 ADD MSTORE PUSH32 0x5468726573686F6C64206D7573742062652067726561746572207468616E2030 PUSH1 0x44 DUP3 ADD MSTORE PUSH1 0x64 ADD PUSH2 0x3F8 JUMP JUMPDEST POP PUSH1 0x2 SSTORE JUMP JUMPDEST PUSH1 0x60 PUSH1 0x3 PUSH1 0x0 DUP4 DUP2 MSTORE PUSH1 0x20 ADD SWAP1 DUP2 MSTORE PUSH1 0x20 ADD PUSH1 0x0 KECCAK256 DUP1 SLOAD DUP1 PUSH1 0x20 MUL PUSH1 0x20 ADD PUSH1 0x40 MLOAD SWAP1 DUP2 ADD PUSH1 0x40 MSTORE DUP1 SWAP3 SWAP2 SWAP1 DUP2 DUP2 MSTORE PUSH1 0x20 ADD PUSH1 0x0 SWAP1 JUMPDEST DUP3 DUP3 LT ISZERO PUSH2 0x6A0 JUMPI DUP4 DUP3 SWAP1 PUSH1 0x0 MSTORE PUSH1 0x20 PUSH1 0x0 KECCAK256 SWAP1 PUSH1 0x8 MUL ADD PUSH1 0x40 MLOAD DUP1 PUSH2 0x120 ADD PUSH1 0x40 MSTORE SWAP1 DUP2 PUSH1 0x0 DUP3 ADD SLOAD DUP2 MSTORE PUSH1 0x20 ADD PUSH1 0x1 DUP3 ADD SLOAD DUP2 MSTORE PUSH1 0x20 ADD PUSH1 0x2 DUP3 ADD DUP1 SLOAD PUSH2 0x4ED SWAP1 PUSH2 0x1714 JUMP JUMPDEST DUP1 PUSH1 0x1F ADD PUSH1 0x20 DUP1 SWAP2 DIV MUL PUSH1 0x20 ADD PUSH1 0x40 MLOAD SWAP1 DUP2 ADD PUSH1 0x40 MSTORE DUP1 SWAP3 SWAP2 SWAP1 DUP2 DUP2 MSTORE PUSH1 0x20 ADD DUP3 DUP1 SLOAD PUSH2 0x519 SWAP1 PUSH2 0x1714 JUMP JUMPDEST DUP1 ISZERO PUSH2 0x566 JUMPI DUP1 PUSH1 0x1F LT PUSH2 0x53B JUMPI PUSH2 0x100 DUP1 DUP4 SLOAD DIV MUL DUP4 MSTORE SWAP2 PUSH1 0x20 ADD SWAP2 PUSH2 0x566 JUMP JUMPDEST DUP3 ADD SWAP2 SWAP1 PUSH1 0x0 MSTORE PUSH1 0x20 PUSH1 0x0 KECCAK256 SWAP1 JUMPDEST DUP2 SLOAD DUP2 MSTORE SWAP1 PUSH1 0x1 ADD SWAP1 PUSH1 0x20 ADD DUP1 DUP4 GT PUSH2 0x549 JUMPI DUP3 SWAP1 SUB PUSH1 0x1F AND DUP3 ADD SWAP2 JUMPDEST POP POP POP SWAP2 DUP4 MSTORE POP POP PUSH1 0x3 DUP3 DUP2 ADD SLOAD PUSH1 0x20 DUP4 ADD MSTORE PUSH1 0x4 DUP4 ADD SLOAD PUSH1 0x40 DUP4 ADD MSTORE PUSH1 0x5 DUP4 ADD SLOAD PUSH1 0x60 SWAP1 SWAP3 ADD SWAP2 PUSH1 0xFF AND SWAP1 DUP2 GT ISZERO PUSH2 0x5A1 JUMPI PUSH2 0x5A1 PUSH2 0x1399 JUMP JUMPDEST PUSH1 0x3 DUP2 GT ISZERO PUSH2 0x5B2 JUMPI PUSH2 0x5B2 PUSH2 0x1399 JUMP JUMPDEST DUP2 MSTORE PUSH1 0x20 ADD PUSH1 0x6 DUP3 ADD DUP1 SLOAD PUSH2 0x5C6 SWAP1 PUSH2 0x1714 JUMP JUMPDEST DUP1 PUSH1 0x1F ADD PUSH1 0x20 DUP1 SWAP2 DIV MUL PUSH1 0x20 ADD PUSH1 0x40 MLOAD SWAP1 DUP2 ADD PUSH1 0x40 MSTORE DUP1 SWAP3 SWAP2 SWAP1 DUP2 DUP2 MSTORE PUSH1 0x20 ADD DUP3 DUP1 SLOAD PUSH2 0x5F2 SWAP1 PUSH2 0x1714 JUMP JUMPDEST DUP1 ISZERO PUSH2 0x63F JUMPI DUP1 PUSH1 0x1F LT PUSH2 0x614 JUMPI PUSH2 0x100 DUP1 DUP4 SLOAD DIV MUL DUP4 MSTORE SWAP2 PUSH1 0x20 ADD SWAP2 PUSH2 0x63F JUMP JUMPDEST DUP3 ADD SWAP2 SWAP1 PUSH1 0x0 MSTORE PUSH1 0x20 PUSH1 0x0 KECCAK256 SWAP1 JUMPDEST DUP2 SLOAD DUP2 MSTORE SWAP1 PUSH1 0x1 ADD SWAP1 PUSH1 0x20 ADD DUP1 DUP4 GT PUSH2 0x622 JUMPI DUP3 SWAP1 SUB PUSH1 0x1F AND DUP3 ADD SWAP2 JUMPDEST POP POP POP SWAP2 DUP4 MSTORE POP POP PUSH1 0x7 DUP3 ADD SLOAD PUSH1 0x1 PUSH1 0x1 PUSH1 0xA0 SHL SUB DUP2 AND PUSH1 0x20 DUP4 ADD MSTORE PUSH1 0x40 SWAP1 SWAP2 ADD SWAP1 PUSH1 0x1 PUSH1 0xA0 SHL SWAP1 DIV PUSH1 0xFF AND PUSH1 0x3 DUP2 GT ISZERO PUSH2 0x67C JUMPI PUSH2 0x67C PUSH2 0x1399 JUMP JUMPDEST PUSH1 0x3 DUP2 GT ISZERO PUSH2 0x68D JUMPI PUSH2 0x68D PUSH2 0x1399 JUMP JUMPDEST DUP2 MSTORE POP POP DUP2 MSTORE PUSH1 0x20 ADD SWAP1 PUSH1 0x1 ADD SWAP1 PUSH2 0x4A5 JUMP JUMPDEST POP POP POP POP SWAP1 POP SWAP2 SWAP1 POP JUMP JUMPDEST PUSH1 0x3 PUSH1 0x20 MSTORE DUP2 PUSH1 0x0 MSTORE PUSH1 0x40 PUSH1 0x0 KECCAK256 DUP2 DUP2 SLOAD DUP2 LT PUSH2 0x6C7 JUMPI PUSH1 0x0 DUP1 REVERT JUMPDEST SWAP1 PUSH1 0x0 MSTORE PUSH1 0x20 PUSH1 0x0 KECCAK256 SWAP1 PUSH1 0x8 MUL ADD PUSH1 0x0 SWAP2 POP SWAP2 POP POP DUP1 PUSH1 0x0 ADD SLOAD SWAP1 DUP1 PUSH1 0x1 ADD SLOAD SWAP1 DUP1 PUSH1 0x2 ADD DUP1 SLOAD PUSH2 0x6F7 SWAP1 PUSH2 0x1714 JUMP JUMPDEST DUP1 PUSH1 0x1F ADD PUSH1 0x20 DUP1 SWAP2 DIV MUL PUSH1 0x20 ADD PUSH1 0x40 MLOAD SWAP1 DUP2 ADD PUSH1 0x40 MSTORE DUP1 SWAP3 SWAP2 SWAP1 DUP2 DUP2 MSTORE PUSH1 0x20 ADD DUP3 DUP1 SLOAD PUSH2 0x723 SWAP1 PUSH2 0x1714 JUMP JUMPDEST DUP1 ISZERO PUSH2 0x770 JUMPI DUP1 PUSH1 0x1F LT PUSH2 0x745 JUMPI PUSH2 0x100 DUP1 DUP4 SLOAD DIV MUL DUP4 MSTORE SWAP2 PUSH1 0x20 ADD SWAP2 PUSH2 0x770 JUMP JUMPDEST DUP3 ADD SWAP2 SWAP1 PUSH1 0x0 MSTORE PUSH1 0x20 PUSH1 0x0 KECCAK256 SWAP1 JUMPDEST DUP2 SLOAD DUP2 MSTORE SWAP1 PUSH1 0x1 ADD SWAP1 PUSH1 0x20 ADD DUP1 DUP4 GT PUSH2 0x753 JUMPI DUP3 SWAP1 SUB PUSH1 0x1F AND DUP3 ADD SWAP2 JUMPDEST POP POP POP PUSH1 0x3 DUP5 ADD SLOAD PUSH1 0x4 DUP6 ADD SLOAD PUSH1 0x5 DUP7 ADD SLOAD PUSH1 0x6 DUP8 ADD DUP1 SLOAD SWAP7 SWAP8 SWAP4 SWAP7 SWAP3 SWAP6 POP PUSH1 0xFF SWAP1 SWAP2 AND SWAP4 POP SWAP1 PUSH2 0x7A0 SWAP1 PUSH2 0x1714 JUMP JUMPDEST DUP1 PUSH1 0x1F ADD PUSH1 0x20 DUP1 SWAP2 DIV MUL PUSH1 0x20 ADD PUSH1 0x40 MLOAD SWAP1 DUP2 ADD PUSH1 0x40 MSTORE DUP1 SWAP3 SWAP2 SWAP1 DUP2 DUP2 MSTORE PUSH1 0x20 ADD DUP3 DUP1 SLOAD PUSH2 0x7CC SWAP1 PUSH2 0x1714 JUMP JUMPDEST DUP1 ISZERO PUSH2 0x819 JUMPI DUP1 PUSH1 0x1F LT PUSH2 0x7EE JUMPI PUSH2 0x100 DUP1 DUP4 SLOAD DIV MUL DUP4 MSTORE SWAP2 PUSH1 0x20 ADD SWAP2 PUSH2 0x819 JUMP JUMPDEST DUP3 ADD SWAP2 SWAP1 PUSH1 0x0 MSTORE PUSH1 0x20 PUSH1 0x0 KECCAK256 SWAP1 JUMPDEST DUP2 SLOAD DUP2 MSTORE SWAP1 PUSH1 0x1 ADD SWAP1 PUSH1 0x20 ADD DUP1 DUP4 GT PUSH2 0x7FC JUMPI DUP3 SWAP1 SUB PUSH1 0x1F AND DUP3 ADD SWAP2 JUMPDEST POP POP POP PUSH1 0x7 SWAP1 SWAP4 ADD SLOAD SWAP2 SWAP3 POP POP PUSH1 0x1 PUSH1 0x1 PUSH1 0xA0 SHL SUB DUP2 AND SWAP1 PUSH1 0xFF PUSH1 0x1 PUSH1 0xA0 SHL SWAP1 SWAP2 DIV AND DUP10 JUMP JUMPDEST PUSH1 0x0 SWAP2 DUP3 MSTORE PUSH1 0x20 DUP3 DUP2 MSTORE PUSH1 0x40 DUP1 DUP5 KECCAK256 PUSH1 0x1 PUSH1 0x1 PUSH1 0xA0 SHL SUB SWAP4 SWAP1 SWAP4 AND DUP5 MSTORE SWAP2 SWAP1 MSTORE SWAP1 KECCAK256 SLOAD PUSH1 0xFF AND SWAP1 JUMP JUMPDEST PUSH1 0x0 DUP3 DUP2 MSTORE PUSH1 0x3 PUSH1 0x20 MSTORE PUSH1 0x40 SWAP1 KECCAK256 SLOAD DUP3 LT PUSH2 0x8C0 JUMPI PUSH1 0x40 MLOAD PUSH3 0x461BCD PUSH1 0xE5 SHL DUP2 MSTORE PUSH1 0x20 PUSH1 0x4 DUP3 ADD MSTORE PUSH1 0x18 PUSH1 0x24 DUP3 ADD MSTORE PUSH24 0x135A5B195CDD1BDB9948191BD95CC81B9BDD08195E1A5CDD PUSH1 0x42 SHL PUSH1 0x44 DUP3 ADD MSTORE PUSH1 0x64 ADD PUSH2 0x3F8 JUMP JUMPDEST PUSH1 0x0 DUP3 DUP2 MSTORE PUSH1 0x3 PUSH1 0x20 MSTORE PUSH1 0x40 DUP2 KECCAK256 DUP1 SLOAD DUP4 SWAP1 DUP2 LT PUSH2 0x8E0 JUMPI PUSH2 0x8E0 PUSH2 0x174E JUMP JUMPDEST PUSH1 0x0 SWAP2 DUP3 MSTORE PUSH1 0x20 SWAP1 SWAP2 KECCAK256 PUSH1 0x8 SWAP1 SWAP2 MUL ADD SWAP1 POP PUSH1 0x1 PUSH1 0x5 DUP3 ADD SLOAD PUSH1 0xFF AND PUSH1 0x3 DUP2 GT ISZERO PUSH2 0x90D JUMPI PUSH2 0x90D PUSH2 0x1399 JUMP JUMPDEST EQ DUP1 PUSH2 0x931 JUMPI POP PUSH1 0x2 PUSH1 0x5 DUP3 ADD SLOAD PUSH1 0xFF AND PUSH1 0x3 DUP2 GT ISZERO PUSH2 0x92F JUMPI PUSH2 0x92F PUSH2 0x1399 JUMP JUMPDEST EQ JUMPDEST PUSH2 0x97D JUMPI PUSH1 0x40 MLOAD PUSH3 0x461BCD PUSH1 0xE5 SHL DUP2 MSTORE PUSH1 0x20 PUSH1 0x4 DUP3 ADD DUP2 SWAP1 MSTORE PUSH1 0x24 DUP3 ADD MSTORE PUSH32 0x43616E6E6F7420646973707574652070656E64696E67206D696C6573746F6E65 PUSH1 0x44 DUP3 ADD MSTORE PUSH1 0x64 ADD PUSH2 0x3F8 JUMP JUMPDEST PUSH1 0x5 DUP2 ADD DUP1 SLOAD PUSH1 0xFF NOT AND PUSH1 0x3 OR SWAP1 SSTORE PUSH1 0x40 DUP1 MLOAD DUP4 DUP2 MSTORE CALLER PUSH1 0x20 DUP3 ADD MSTORE DUP5 SWAP2 PUSH32 0x83201991C75B30E493678D0543BDBD02D6A194A5A0DDA31490A5FE09E9F0A220 SWAP2 ADD PUSH1 0x40 MLOAD DUP1 SWAP2 SUB SWAP1 LOG2 POP POP POP JUMP JUMPDEST PUSH32 0xEC1A88954037C9D74027AD328A1E8ED885AD51F8B3099C28AF41BC1D969EDDD9 PUSH2 0x9F5 DUP2 PUSH2 0xF9B JUMP JUMPDEST PUSH1 0x0 DUP6 DUP2 MSTORE PUSH1 0x3 PUSH1 0x20 MSTORE PUSH1 0x40 SWAP1 KECCAK256 SLOAD DUP6 LT PUSH2 0xA4D JUMPI PUSH1 0x40 MLOAD PUSH3 0x461BCD PUSH1 0xE5 SHL DUP2 MSTORE PUSH1 0x20 PUSH1 0x4 DUP3 ADD MSTORE PUSH1 0x18 PUSH1 0x24 DUP3 ADD MSTORE PUSH24 0x135A5B195CDD1BDB9948191BD95CC81B9BDD08195E1A5CDD PUSH1 0x42 SHL PUSH1 0x44 DUP3 ADD MSTORE PUSH1 0x64 ADD PUSH2 0x3F8 JUMP JUMPDEST PUSH1 0x0 DUP6 DUP2 MSTORE PUSH1 0x3 PUSH1 0x20 MSTORE PUSH1 0x40 DUP2 KECCAK256 DUP1 SLOAD DUP7 SWAP1 DUP2 LT PUSH2 0xA6D JUMPI PUSH2 0xA6D PUSH2 0x174E JUMP JUMPDEST PUSH1 0x0 SWAP2 DUP3 MSTORE PUSH1 0x20 DUP3 KECCAK256 PUSH1 0x8 SWAP1 SWAP2 MUL ADD SWAP2 POP PUSH1 0x5 DUP3 ADD SLOAD PUSH1 0xFF AND PUSH1 0x3 DUP2 GT ISZERO PUSH2 0xA97 JUMPI PUSH2 0xA97 PUSH2 0x1399 JUMP JUMPDEST EQ DUP1 PUSH2 0xABB JUMPI POP PUSH1 0x3 PUSH1 0x5 DUP3 ADD SLOAD PUSH1 0xFF AND PUSH1 0x3 DUP2 GT ISZERO PUSH2 0xAB9 JUMPI PUSH2 0xAB9 PUSH2 0x1399 JUMP JUMPDEST EQ JUMPDEST PUSH2 0xB07 JUMPI PUSH1 0x40 MLOAD PUSH3 0x461BCD PUSH1 0xE5 SHL DUP2 MSTORE PUSH1 0x20 PUSH1 0x4 DUP3 ADD MSTORE PUSH1 0x1B PUSH1 0x24 DUP3 ADD MSTORE PUSH32 0x4D696C6573746F6E6520616C72656164792070726F6365737365640000000000 PUSH1 0x44 DUP3 ADD MSTORE PUSH1 0x64 ADD PUSH2 0x3F8 JUMP JUMPDEST PUSH1 0x40 DUP1 MLOAD PUSH1 0x20 DUP2 ADD DUP9 SWAP1 MSTORE SWAP1 DUP2 ADD DUP7 SWAP1 MSTORE PUSH1 0x0 SWAP1 PUSH1 0x60 ADD PUSH1 0x40 DUP1 MLOAD PUSH1 0x1F NOT DUP2 DUP5 SUB ADD DUP2 MSTORE DUP3 DUP3 MSTORE DUP1 MLOAD PUSH1 0x20 SWAP2 DUP3 ADD KECCAK256 PUSH1 0x0 DUP2 DUP2 MSTORE PUSH1 0x4 DUP4 MSTORE SWAP3 DUP4 KECCAK256 DUP1 SLOAD PUSH1 0x1 DUP2 ADD DUP3 SSTORE SWAP1 DUP5 MSTORE SWAP2 SWAP1 SWAP3 KECCAK256 ADD DUP1 SLOAD PUSH1 0x1 PUSH1 0x1 PUSH1 0xA0 SHL SUB NOT AND CALLER SWAP1 DUP2 OR SWAP1 SWAP2 SSTORE SWAP1 SWAP3 POP DUP9 SWAP2 PUSH32 0xB84171A5D71E9745A90A1F60974199C4472C6F744E74FB363700C2F9C6B8837B SWAP2 PUSH2 0xB9A SWAP2 DUP11 SWAP2 SWAP1 DUP10 SWAP1 PUSH2 0x1764 JUMP JUMPDEST PUSH1 0x40 MLOAD DUP1 SWAP2 SUB SWAP1 LOG2 PUSH1 0x2 SLOAD PUSH1 0x0 DUP3 DUP2 MSTORE PUSH1 0x4 PUSH1 0x20 MSTORE PUSH1 0x40 SWAP1 KECCAK256 SLOAD LT PUSH2 0xC80 JUMPI DUP5 PUSH2 0xBC5 JUMPI PUSH1 0x2 PUSH2 0xBC8 JUMP JUMPDEST PUSH1 0x1 JUMPDEST PUSH1 0x5 DUP4 ADD DUP1 SLOAD PUSH1 0xFF NOT AND PUSH1 0x1 DUP4 PUSH1 0x3 DUP2 GT ISZERO PUSH2 0xBE6 JUMPI PUSH2 0xBE6 PUSH2 0x1399 JUMP JUMPDEST MUL OR SWAP1 SSTORE POP TIMESTAMP PUSH1 0x4 DUP4 ADD SSTORE PUSH1 0x7 DUP3 ADD DUP1 SLOAD CALLER PUSH1 0x1 PUSH1 0x1 PUSH1 0xA0 SHL SUB NOT DUP3 AND DUP2 OR DUP4 SSTORE DUP7 SWAP3 SWAP2 PUSH1 0x1 PUSH1 0x1 PUSH1 0xA8 SHL SUB NOT AND PUSH1 0xFF PUSH1 0xA0 SHL NOT SWAP1 SWAP2 AND OR PUSH1 0x1 PUSH1 0xA0 SHL DUP4 PUSH1 0x3 DUP2 GT ISZERO PUSH2 0xC35 JUMPI PUSH2 0xC35 PUSH2 0x1399 JUMP JUMPDEST MUL OR SWAP1 SSTORE POP PUSH1 0x5 DUP3 ADD SLOAD PUSH1 0x40 MLOAD DUP9 SWAP2 PUSH32 0x855D7F62719D90B6DFFA5D0C4B7A917B0E8A2FE2521D54486FDA68888305E201 SWAP2 PUSH2 0xC77 SWAP2 DUP11 SWAP2 PUSH1 0xFF SWAP1 SWAP2 AND SWAP1 PUSH2 0x1791 JUMP JUMPDEST PUSH1 0x40 MLOAD DUP1 SWAP2 SUB SWAP1 LOG2 JUMPDEST POP POP POP POP POP POP POP JUMP JUMPDEST PUSH1 0x0 DUP3 DUP2 MSTORE PUSH1 0x20 DUP2 SWAP1 MSTORE PUSH1 0x40 SWAP1 KECCAK256 PUSH1 0x1 ADD SLOAD PUSH2 0xCA4 DUP2 PUSH2 0xF9B JUMP JUMPDEST PUSH2 0x387 DUP4 DUP4 PUSH2 0x102C JUMP JUMPDEST PUSH1 0x1 SLOAD PUSH1 0x40 MLOAD PUSH1 0x24 DUP2 ADD DUP7 SWAP1 MSTORE PUSH1 0x0 SWAP2 DUP3 SWAP2 PUSH1 0x1 PUSH1 0x1 PUSH1 0xA0 SHL SUB SWAP1 SWAP2 AND SWAP1 PUSH1 0x44 ADD PUSH1 0x40 DUP1 MLOAD PUSH1 0x1F NOT DUP2 DUP5 SUB ADD DUP2 MSTORE SWAP2 DUP2 MSTORE PUSH1 0x20 DUP3 ADD DUP1 MLOAD PUSH1 0x1 PUSH1 0x1 PUSH1 0xE0 SHL SUB AND PUSH4 0x1E1E7E59 PUSH1 0xE3 SHL OR SWAP1 MSTORE MLOAD PUSH2 0xD04 SWAP2 SWAP1 PUSH2 0x17AE JUMP JUMPDEST PUSH1 0x0 PUSH1 0x40 MLOAD DUP1 DUP4 SUB DUP2 DUP6 GAS STATICCALL SWAP2 POP POP RETURNDATASIZE DUP1 PUSH1 0x0 DUP2 EQ PUSH2 0xD3F JUMPI PUSH1 0x40 MLOAD SWAP2 POP PUSH1 0x1F NOT PUSH1 0x3F RETURNDATASIZE ADD AND DUP3 ADD PUSH1 0x40 MSTORE RETURNDATASIZE DUP3 MSTORE RETURNDATASIZE PUSH1 0x0 PUSH1 0x20 DUP5 ADD RETURNDATACOPY PUSH2 0xD44 JUMP JUMPDEST PUSH1 0x60 SWAP2 POP JUMPDEST POP SWAP2 POP SWAP2 POP DUP2 PUSH2 0xD96 JUMPI PUSH1 0x40 MLOAD PUSH3 0x461BCD PUSH1 0xE5 SHL DUP2 MSTORE PUSH1 0x20 PUSH1 0x4 DUP3 ADD MSTORE PUSH1 0x1F PUSH1 0x24 DUP3 ADD MSTORE PUSH32 0x4661696C656420746F2066657463682070726F6A6563742064657461696C7300 PUSH1 0x44 DUP3 ADD MSTORE PUSH1 0x64 ADD PUSH2 0x3F8 JUMP JUMPDEST PUSH1 0x0 DUP2 DUP1 PUSH1 0x20 ADD SWAP1 MLOAD DUP2 ADD SWAP1 PUSH2 0xDAC SWAP2 SWAP1 PUSH2 0x1841 JUMP JUMPDEST PUSH1 0x20 DUP2 ADD MLOAD SWAP1 SWAP2 POP PUSH1 0x1 PUSH1 0x1 PUSH1 0xA0 SHL SUB AND CALLER EQ DUP1 PUSH2 0xDD0 JUMPI POP PUSH2 0xDD0 PUSH1 0x0 CALLER PUSH2 0x83F JUMP JUMPDEST PUSH2 0xE1C JUMPI PUSH1 0x40 MLOAD PUSH3 0x461BCD PUSH1 0xE5 SHL DUP2 MSTORE PUSH1 0x20 PUSH1 0x4 DUP3 ADD MSTORE PUSH1 0x1F PUSH1 0x24 DUP3 ADD MSTORE PUSH32 0x4E6F7420617574686F72697A656420746F20616464206D696C6573746F6E6500 PUSH1 0x44 DUP3 ADD MSTORE PUSH1 0x64 ADD PUSH2 0x3F8 JUMP JUMPDEST PUSH1 0x0 DUP8 DUP2 MSTORE PUSH1 0x3 PUSH1 0x20 SWAP1 DUP2 MSTORE PUSH1 0x40 DUP1 DUP4 KECCAK256 DUP1 SLOAD DUP3 MLOAD PUSH2 0x120 DUP2 ADD DUP5 MSTORE DUP13 DUP2 MSTORE DUP1 DUP6 ADD DUP3 DUP2 MSTORE SWAP4 DUP2 ADD DUP13 DUP2 MSTORE PUSH1 0x60 DUP3 ADD DUP13 SWAP1 MSTORE PUSH1 0x80 DUP3 ADD DUP8 SWAP1 MSTORE PUSH1 0xA0 DUP3 ADD DUP8 SWAP1 MSTORE PUSH1 0xC0 DUP3 ADD DUP12 SWAP1 MSTORE PUSH1 0xE0 DUP3 ADD DUP8 SWAP1 MSTORE PUSH2 0x100 DUP3 ADD DUP8 SWAP1 MSTORE PUSH1 0x1 DUP1 DUP5 ADD DUP6 SSTORE SWAP4 DUP8 MSTORE SWAP5 SWAP1 SWAP6 KECCAK256 DUP6 MLOAD PUSH1 0x8 DUP4 MUL SWAP1 SWAP2 ADD SWAP1 DUP2 SSTORE SWAP3 MLOAD SWAP2 DUP4 ADD SWAP2 SWAP1 SWAP2 SSTORE SWAP2 MLOAD SWAP2 SWAP3 SWAP2 PUSH1 0x2 DUP3 ADD SWAP1 PUSH2 0xEA9 SWAP1 DUP3 PUSH2 0x19B5 JUMP JUMPDEST POP PUSH1 0x60 DUP3 ADD MLOAD DUP2 PUSH1 0x3 ADD SSTORE PUSH1 0x80 DUP3 ADD MLOAD DUP2 PUSH1 0x4 ADD SSTORE PUSH1 0xA0 DUP3 ADD MLOAD DUP2 PUSH1 0x5 ADD PUSH1 0x0 PUSH2 0x100 EXP DUP2 SLOAD DUP2 PUSH1 0xFF MUL NOT AND SWAP1 DUP4 PUSH1 0x3 DUP2 GT ISZERO PUSH2 0xEE8 JUMPI PUSH2 0xEE8 PUSH2 0x1399 JUMP JUMPDEST MUL OR SWAP1 SSTORE POP PUSH1 0xC0 DUP3 ADD MLOAD PUSH1 0x6 DUP3 ADD SWAP1 PUSH2 0xF01 SWAP1 DUP3 PUSH2 0x19B5 JUMP JUMPDEST POP PUSH1 0xE0 DUP3 ADD MLOAD PUSH1 0x7 DUP3 ADD DUP1 SLOAD PUSH1 0x1 PUSH1 0x1 PUSH1 0xA0 SHL SUB SWAP1 SWAP3 AND PUSH1 0x1 PUSH1 0x1 PUSH1 0xA0 SHL SUB NOT DUP4 AND DUP2 OR DUP3 SSTORE PUSH2 0x100 DUP6 ADD MLOAD SWAP3 PUSH1 0x1 PUSH1 0x1 PUSH1 0xA8 SHL SUB NOT AND OR PUSH1 0x1 PUSH1 0xA0 SHL DUP4 PUSH1 0x3 DUP2 GT ISZERO PUSH2 0xF50 JUMPI PUSH2 0xF50 PUSH2 0x1399 JUMP JUMPDEST MUL OR SWAP1 SSTORE POP POP POP DUP8 PUSH32 0xE67E4500BA1C5A33E0BB3C97B84E34EB7F637C3DA038F433E1D77BA82E221DAC DUP3 DUP10 PUSH1 0x40 MLOAD PUSH2 0xF89 SWAP3 SWAP2 SWAP1 PUSH2 0x1A75 JUMP JUMPDEST PUSH1 0x40 MLOAD DUP1 SWAP2 SUB SWAP1 LOG2 POP POP POP POP POP POP POP POP JUMP JUMPDEST PUSH2 0xFA5 DUP2 CALLER PUSH2 0x1091 JUMP JUMPDEST POP JUMP JUMPDEST PUSH2 0xFB2 DUP3 DUP3 PUSH2 0x83F JUMP JUMPDEST PUSH2 0x40B JUMPI PUSH1 0x0 DUP3 DUP2 MSTORE PUSH1 0x20 DUP2 DUP2 MSTORE PUSH1 0x40 DUP1 DUP4 KECCAK256 PUSH1 0x1 PUSH1 0x1 PUSH1 0xA0 SHL SUB DUP6 AND DUP5 MSTORE SWAP1 SWAP2 MSTORE SWAP1 KECCAK256 DUP1 SLOAD PUSH1 0xFF NOT AND PUSH1 0x1 OR SWAP1 SSTORE PUSH2 0xFE8 CALLER SWAP1 JUMP JUMPDEST PUSH1 0x1 PUSH1 0x1 PUSH1 0xA0 SHL SUB AND DUP2 PUSH1 0x1 PUSH1 0x1 PUSH1 0xA0 SHL SUB AND DUP4 PUSH32 0x2F8788117E7EFF1D82E926EC794901D17C78024A50270940304540A733656F0D PUSH1 0x40 MLOAD PUSH1 0x40 MLOAD DUP1 SWAP2 SUB SWAP1 LOG4 POP POP JUMP JUMPDEST PUSH2 0x1036 DUP3 DUP3 PUSH2 0x83F JUMP JUMPDEST ISZERO PUSH2 0x40B JUMPI PUSH1 0x0 DUP3 DUP2 MSTORE PUSH1 0x20 DUP2 DUP2 MSTORE PUSH1 0x40 DUP1 DUP4 KECCAK256 PUSH1 0x1 PUSH1 0x1 PUSH1 0xA0 SHL SUB DUP6 AND DUP1 DUP6 MSTORE SWAP3 MSTORE DUP1 DUP4 KECCAK256 DUP1 SLOAD PUSH1 0xFF NOT AND SWAP1 SSTORE MLOAD CALLER SWAP3 DUP6 SWAP2 PUSH32 0xF6391F5C32D9C69D2A47EA670B442974B53935D1EDC7FD64EB21E047A839171B SWAP2 SWAP1 LOG4 POP POP JUMP JUMPDEST PUSH2 0x109B DUP3 DUP3 PUSH2 0x83F JUMP JUMPDEST PUSH2 0x40B JUMPI PUSH2 0x10A8 DUP2 PUSH2 0x10EA JUMP JUMPDEST PUSH2 0x10B3 DUP4 PUSH1 0x20 PUSH2 0x10FC JUMP JUMPDEST PUSH1 0x40 MLOAD PUSH1 0x20 ADD PUSH2 0x10C4 SWAP3 SWAP2 SWAP1 PUSH2 0x1A8E JUMP JUMPDEST PUSH1 0x40 DUP1 MLOAD PUSH1 0x1F NOT DUP2 DUP5 SUB ADD DUP2 MSTORE SWAP1 DUP3 SWAP1 MSTORE PUSH3 0x461BCD PUSH1 0xE5 SHL DUP3 MSTORE PUSH2 0x3F8 SWAP2 PUSH1 0x4 ADD PUSH2 0x1B03 JUMP JUMPDEST PUSH1 0x60 PUSH2 0x324 PUSH1 0x1 PUSH1 0x1 PUSH1 0xA0 SHL SUB DUP4 AND PUSH1 0x14 JUMPDEST PUSH1 0x60 PUSH1 0x0 PUSH2 0x110B DUP4 PUSH1 0x2 PUSH2 0x1B2C JUMP JUMPDEST PUSH2 0x1116 SWAP1 PUSH1 0x2 PUSH2 0x1B43 JUMP JUMPDEST PUSH8 0xFFFFFFFFFFFFFFFF DUP2 GT ISZERO PUSH2 0x112E JUMPI PUSH2 0x112E PUSH2 0x15AE JUMP JUMPDEST PUSH1 0x40 MLOAD SWAP1 DUP1 DUP3 MSTORE DUP1 PUSH1 0x1F ADD PUSH1 0x1F NOT AND PUSH1 0x20 ADD DUP3 ADD PUSH1 0x40 MSTORE DUP1 ISZERO PUSH2 0x1158 JUMPI PUSH1 0x20 DUP3 ADD DUP2 DUP1 CALLDATASIZE DUP4 CALLDATACOPY ADD SWAP1 POP JUMPDEST POP SWAP1 POP PUSH1 0x3 PUSH1 0xFC SHL DUP2 PUSH1 0x0 DUP2 MLOAD DUP2 LT PUSH2 0x1173 JUMPI PUSH2 0x1173 PUSH2 0x174E JUMP JUMPDEST PUSH1 0x20 ADD ADD SWAP1 PUSH1 0x1 PUSH1 0x1 PUSH1 0xF8 SHL SUB NOT AND SWAP1 DUP2 PUSH1 0x0 BYTE SWAP1 MSTORE8 POP PUSH1 0xF PUSH1 0xFB SHL DUP2 PUSH1 0x1 DUP2 MLOAD DUP2 LT PUSH2 0x11A2 JUMPI PUSH2 0x11A2 PUSH2 0x174E JUMP JUMPDEST PUSH1 0x20 ADD ADD SWAP1 PUSH1 0x1 PUSH1 0x1 PUSH1 0xF8 SHL SUB NOT AND SWAP1 DUP2 PUSH1 0x0 BYTE SWAP1 MSTORE8 POP PUSH1 0x0 PUSH2 0x11C6 DUP5 PUSH1 0x2 PUSH2 0x1B2C JUMP JUMPDEST PUSH2 0x11D1 SWAP1 PUSH1 0x1 PUSH2 0x1B43 JUMP JUMPDEST SWAP1 POP JUMPDEST PUSH1 0x1 DUP2 GT ISZERO PUSH2 0x1249 JUMPI PUSH16 0x181899199A1A9B1B9C1CB0B131B232B3 PUSH1 0x81 SHL DUP6 PUSH1 0xF AND PUSH1 0x10 DUP2 LT PUSH2 0x1205 JUMPI PUSH2 0x1205 PUSH2 0x174E JUMP JUMPDEST BYTE PUSH1 0xF8 SHL DUP3 DUP3 DUP2 MLOAD DUP2 LT PUSH2 0x121B JUMPI PUSH2 0x121B PUSH2 0x174E JUMP JUMPDEST PUSH1 0x20 ADD ADD SWAP1 PUSH1 0x1 PUSH1 0x1 PUSH1 0xF8 SHL SUB NOT AND SWAP1 DUP2 PUSH1 0x0 BYTE SWAP1 MSTORE8 POP PUSH1 0x4 SWAP5 SWAP1 SWAP5 SHR SWAP4 PUSH2 0x1242 DUP2 PUSH2 0x1B56 JUMP JUMPDEST SWAP1 POP PUSH2 0x11D4 JUMP JUMPDEST POP DUP4 ISZERO PUSH2 0x1298 JUMPI PUSH1 0x40 MLOAD PUSH3 0x461BCD PUSH1 0xE5 SHL DUP2 MSTORE PUSH1 0x20 PUSH1 0x4 DUP3 ADD DUP2 SWAP1 MSTORE PUSH1 0x24 DUP3 ADD MSTORE PUSH32 0x537472696E67733A20686578206C656E67746820696E73756666696369656E74 PUSH1 0x44 DUP3 ADD MSTORE PUSH1 0x64 ADD PUSH2 0x3F8 JUMP JUMPDEST SWAP4 SWAP3 POP POP POP JUMP JUMPDEST PUSH1 0x0 PUSH1 0x20 DUP3 DUP5 SUB SLT ISZERO PUSH2 0x12B1 JUMPI PUSH1 0x0 DUP1 REVERT JUMPDEST DUP2 CALLDATALOAD PUSH1 0x1 PUSH1 0x1 PUSH1 0xE0 SHL SUB NOT DUP2 AND DUP2 EQ PUSH2 0x1298 JUMPI PUSH1 0x0 DUP1 REVERT JUMPDEST PUSH1 0x0 PUSH1 0x20 DUP3 DUP5 SUB SLT ISZERO PUSH2 0x12DB JUMPI PUSH1 0x0 DUP1 REVERT JUMPDEST POP CALLDATALOAD SWAP2 SWAP1 POP JUMP JUMPDEST PUSH1 0x0 DUP1 PUSH1 0x40 DUP4 DUP6 SUB SLT ISZERO PUSH2 0x12F5 JUMPI PUSH1 0x0 DUP1 REVERT JUMPDEST POP POP DUP1 CALLDATALOAD SWAP3 PUSH1 0x20 SWAP1 SWAP2 ADD CALLDATALOAD SWAP2 POP JUMP JUMPDEST PUSH1 0x1 PUSH1 0x1 PUSH1 0xA0 SHL SUB DUP2 AND DUP2 EQ PUSH2 0xFA5 JUMPI PUSH1 0x0 DUP1 REVERT JUMPDEST PUSH1 0x0 DUP1 PUSH1 0x40 DUP4 DUP6 SUB SLT ISZERO PUSH2 0x132C JUMPI PUSH1 0x0 DUP1 REVERT JUMPDEST DUP3 CALLDATALOAD SWAP2 POP PUSH1 0x20 DUP4 ADD CALLDATALOAD PUSH2 0x133E DUP2 PUSH2 0x1304 JUMP JUMPDEST DUP1 SWAP2 POP POP SWAP3 POP SWAP3 SWAP1 POP JUMP JUMPDEST PUSH1 0x0 JUMPDEST DUP4 DUP2 LT ISZERO PUSH2 0x1364 JUMPI DUP2 DUP2 ADD MLOAD DUP4 DUP3 ADD MSTORE PUSH1 0x20 ADD PUSH2 0x134C JUMP JUMPDEST POP POP PUSH1 0x0 SWAP2 ADD MSTORE JUMP JUMPDEST PUSH1 0x0 DUP2 MLOAD DUP1 DUP5 MSTORE PUSH2 0x1385 DUP2 PUSH1 0x20 DUP7 ADD PUSH1 0x20 DUP7 ADD PUSH2 0x1349 JUMP JUMPDEST PUSH1 0x1F ADD PUSH1 0x1F NOT AND SWAP3 SWAP1 SWAP3 ADD PUSH1 0x20 ADD SWAP3 SWAP2 POP POP JUMP JUMPDEST PUSH4 0x4E487B71 PUSH1 0xE0 SHL PUSH1 0x0 MSTORE PUSH1 0x21 PUSH1 0x4 MSTORE PUSH1 0x24 PUSH1 0x0 REVERT JUMPDEST PUSH1 0x4 DUP2 LT PUSH2 0xFA5 JUMPI PUSH4 0x4E487B71 PUSH1 0xE0 SHL PUSH1 0x0 MSTORE PUSH1 0x21 PUSH1 0x4 MSTORE PUSH1 0x24 PUSH1 0x0 REVERT JUMPDEST PUSH2 0x13D6 DUP2 PUSH2 0x13AF JUMP JUMPDEST SWAP1 MSTORE JUMP JUMPDEST PUSH1 0x0 PUSH1 0x20 DUP1 DUP4 ADD DUP2 DUP5 MSTORE DUP1 DUP6 MLOAD DUP1 DUP4 MSTORE PUSH1 0x40 SWAP3 POP DUP3 DUP7 ADD SWAP2 POP DUP3 DUP2 PUSH1 0x5 SHL DUP8 ADD ADD DUP5 DUP9 ADD PUSH1 0x0 JUMPDEST DUP4 DUP2 LT ISZERO PUSH2 0x14C4 JUMPI PUSH1 0x3F NOT DUP10 DUP5 SUB ADD DUP6 MSTORE DUP2 MLOAD PUSH2 0x120 DUP2 MLOAD DUP6 MSTORE DUP9 DUP3 ADD MLOAD DUP10 DUP7 ADD MSTORE DUP8 DUP3 ADD MLOAD DUP2 DUP10 DUP8 ADD MSTORE PUSH2 0x1438 DUP3 DUP8 ADD DUP3 PUSH2 0x136D JUMP JUMPDEST SWAP2 POP POP PUSH1 0x60 DUP1 DUP4 ADD MLOAD DUP2 DUP8 ADD MSTORE POP PUSH1 0x80 DUP1 DUP4 ADD MLOAD DUP2 DUP8 ADD MSTORE POP PUSH1 0xA0 DUP1 DUP4 ADD MLOAD PUSH2 0x1463 DUP3 DUP9 ADD DUP3 PUSH2 0x13CD JUMP JUMPDEST POP POP PUSH1 0xC0 DUP1 DUP4 ADD MLOAD DUP7 DUP4 SUB DUP3 DUP9 ADD MSTORE PUSH2 0x147C DUP4 DUP3 PUSH2 0x136D JUMP JUMPDEST SWAP3 POP POP POP PUSH1 0xE0 DUP1 DUP4 ADD MLOAD PUSH2 0x149A DUP3 DUP9 ADD DUP3 PUSH1 0x1 PUSH1 0x1 PUSH1 0xA0 SHL SUB AND SWAP1 MSTORE JUMP JUMPDEST POP POP PUSH2 0x100 SWAP2 DUP3 ADD MLOAD SWAP2 PUSH2 0x14B0 DUP7 DUP3 ADD DUP5 PUSH2 0x13CD JUMP JUMPDEST POP SWAP6 DUP9 ADD SWAP6 SWAP4 POP POP SWAP1 DUP7 ADD SWAP1 PUSH1 0x1 ADD PUSH2 0x1401 JUMP JUMPDEST POP SWAP1 SWAP9 SWAP8 POP POP POP POP POP POP POP POP JUMP JUMPDEST PUSH1 0x0 PUSH2 0x120 DUP12 DUP4 MSTORE DUP11 PUSH1 0x20 DUP5 ADD MSTORE DUP1 PUSH1 0x40 DUP5 ADD MSTORE PUSH2 0x14F2 DUP2 DUP5 ADD DUP12 PUSH2 0x136D JUMP JUMPDEST SWAP1 POP DUP9 PUSH1 0x60 DUP5 ADD MSTORE DUP8 PUSH1 0x80 DUP5 ADD MSTORE PUSH2 0x1509 DUP8 PUSH2 0x13AF JUMP JUMPDEST DUP7 PUSH1 0xA0 DUP5 ADD MSTORE DUP3 DUP2 SUB PUSH1 0xC0 DUP5 ADD MSTORE PUSH2 0x1521 DUP2 DUP8 PUSH2 0x136D JUMP JUMPDEST PUSH1 0x1 PUSH1 0x1 PUSH1 0xA0 SHL SUB DUP7 AND PUSH1 0xE0 DUP6 ADD MSTORE SWAP2 POP PUSH2 0x153D SWAP1 POP DUP4 PUSH2 0x13AF JUMP JUMPDEST DUP3 PUSH2 0x100 DUP4 ADD MSTORE SWAP11 SWAP10 POP POP POP POP POP POP POP POP POP POP JUMP JUMPDEST DUP1 ISZERO ISZERO DUP2 EQ PUSH2 0xFA5 JUMPI PUSH1 0x0 DUP1 REVERT JUMPDEST PUSH1 0x0 DUP1 PUSH1 0x0 DUP1 PUSH1 0x80 DUP6 DUP8 SUB SLT ISZERO PUSH2 0x1576 JUMPI PUSH1 0x0 DUP1 REVERT JUMPDEST DUP5 CALLDATALOAD SWAP4 POP PUSH1 0x20 DUP6 ADD CALLDATALOAD SWAP3 POP PUSH1 0x40 DUP6 ADD CALLDATALOAD PUSH2 0x158F DUP2 PUSH2 0x1552 JUMP JUMPDEST SWAP2 POP PUSH1 0x60 DUP6 ADD CALLDATALOAD PUSH1 0x4 DUP2 LT PUSH2 0x15A3 JUMPI PUSH1 0x0 DUP1 REVERT JUMPDEST SWAP4 SWAP7 SWAP3 SWAP6 POP SWAP1 SWAP4 POP POP JUMP JUMPDEST PUSH4 0x4E487B71 PUSH1 0xE0 SHL PUSH1 0x0 MSTORE PUSH1 0x41 PUSH1 0x4 MSTORE PUSH1 0x24 PUSH1 0x0 REVERT JUMPDEST PUSH1 0x40 MLOAD PUSH2 0x160 DUP2 ADD PUSH8 0xFFFFFFFFFFFFFFFF DUP2 GT DUP3 DUP3 LT OR ISZERO PUSH2 0x15E8 JUMPI PUSH2 0x15E8 PUSH2 0x15AE JUMP JUMPDEST PUSH1 0x40 MSTORE SWAP1 JUMP JUMPDEST PUSH1 0x40 MLOAD PUSH1 0x1F DUP3 ADD PUSH1 0x1F NOT AND DUP2 ADD PUSH8 0xFFFFFFFFFFFFFFFF DUP2 GT DUP3 DUP3 LT OR ISZERO PUSH2 0x1617 JUMPI PUSH2 0x1617 PUSH2 0x15AE JUMP JUMPDEST PUSH1 0x40 MSTORE SWAP2 SWAP1 POP JUMP JUMPDEST PUSH1 0x0 PUSH8 0xFFFFFFFFFFFFFFFF DUP3 GT ISZERO PUSH2 0x1639 JUMPI PUSH2 0x1639 PUSH2 0x15AE JUMP JUMPDEST POP PUSH1 0x1F ADD PUSH1 0x1F NOT AND PUSH1 0x20 ADD SWAP1 JUMP JUMPDEST PUSH1 0x0 DUP3 PUSH1 0x1F DUP4 ADD SLT PUSH2 0x1658 JUMPI PUSH1 0x0 DUP1 REVERT JUMPDEST DUP2 CALLDATALOAD PUSH2 0x166B PUSH2 0x1666 DUP3 PUSH2 0x161F JUMP JUMPDEST PUSH2 0x15EE JUMP JUMPDEST DUP2 DUP2 MSTORE DUP5 PUSH1 0x20 DUP4 DUP7 ADD ADD GT ISZERO PUSH2 0x1680 JUMPI PUSH1 0x0 DUP1 REVERT JUMPDEST DUP2 PUSH1 0x20 DUP6 ADD PUSH1 0x20 DUP4 ADD CALLDATACOPY PUSH1 0x0 SWAP2 DUP2 ADD PUSH1 0x20 ADD SWAP2 SWAP1 SWAP2 MSTORE SWAP4 SWAP3 POP POP POP JUMP JUMPDEST PUSH1 0x0 DUP1 PUSH1 0x0 DUP1 PUSH1 0x80 DUP6 DUP8 SUB SLT ISZERO PUSH2 0x16B3 JUMPI PUSH1 0x0 DUP1 REVERT JUMPDEST DUP5 CALLDATALOAD SWAP4 POP PUSH1 0x20 DUP6 ADD CALLDATALOAD PUSH8 0xFFFFFFFFFFFFFFFF DUP1 DUP3 GT ISZERO PUSH2 0x16D2 JUMPI PUSH1 0x0 DUP1 REVERT JUMPDEST PUSH2 0x16DE DUP9 DUP4 DUP10 ADD PUSH2 0x1647 JUMP JUMPDEST SWAP5 POP PUSH1 0x40 DUP8 ADD CALLDATALOAD SWAP4 POP PUSH1 0x60 DUP8 ADD CALLDATALOAD SWAP2 POP DUP1 DUP3 GT ISZERO PUSH2 0x16FB JUMPI PUSH1 0x0 DUP1 REVERT JUMPDEST POP PUSH2 0x1708 DUP8 DUP3 DUP9 ADD PUSH2 0x1647 JUMP JUMPDEST SWAP2 POP POP SWAP3 SWAP6 SWAP2 SWAP5 POP SWAP3 POP JUMP JUMPDEST PUSH1 0x1 DUP2 DUP2 SHR SWAP1 DUP3 AND DUP1 PUSH2 0x1728 JUMPI PUSH1 0x7F DUP3 AND SWAP2 POP JUMPDEST PUSH1 0x20 DUP3 LT DUP2 SUB PUSH2 0x1748 JUMPI PUSH4 0x4E487B71 PUSH1 0xE0 SHL PUSH1 0x0 MSTORE PUSH1 0x22 PUSH1 0x4 MSTORE PUSH1 0x24 PUSH1 0x0 REVERT JUMPDEST POP SWAP2 SWAP1 POP JUMP JUMPDEST PUSH4 0x4E487B71 PUSH1 0xE0 SHL PUSH1 0x0 MSTORE PUSH1 0x32 PUSH1 0x4 MSTORE PUSH1 0x24 PUSH1 0x0 REVERT JUMPDEST DUP4 DUP2 MSTORE PUSH1 0x1 PUSH1 0x1 PUSH1 0xA0 SHL SUB DUP4 AND PUSH1 0x20 DUP3 ADD MSTORE PUSH1 0x60 DUP2 ADD PUSH2 0x1783 DUP4 PUSH2 0x13AF JUMP JUMPDEST DUP3 PUSH1 0x40 DUP4 ADD MSTORE SWAP5 SWAP4 POP POP POP POP JUMP JUMPDEST DUP3 DUP2 MSTORE PUSH1 0x40 DUP2 ADD PUSH2 0x17A1 DUP4 PUSH2 0x13AF JUMP JUMPDEST DUP3 PUSH1 0x20 DUP4 ADD MSTORE SWAP4 SWAP3 POP POP POP JUMP JUMPDEST PUSH1 0x0 DUP3 MLOAD PUSH2 0x17C0 DUP2 DUP5 PUSH1 0x20 DUP8 ADD PUSH2 0x1349 JUMP JUMPDEST SWAP2 SWAP1 SWAP2 ADD SWAP3 SWAP2 POP POP JUMP JUMPDEST DUP1 MLOAD PUSH2 0x17D5 DUP2 PUSH2 0x1304 JUMP JUMPDEST SWAP2 SWAP1 POP JUMP JUMPDEST PUSH1 0x0 DUP3 PUSH1 0x1F DUP4 ADD SLT PUSH2 0x17EB JUMPI PUSH1 0x0 DUP1 REVERT JUMPDEST DUP2 MLOAD PUSH2 0x17F9 PUSH2 0x1666 DUP3 PUSH2 0x161F JUMP JUMPDEST DUP2 DUP2 MSTORE DUP5 PUSH1 0x20 DUP4 DUP7 ADD ADD GT ISZERO PUSH2 0x180E JUMPI PUSH1 0x0 DUP1 REVERT JUMPDEST PUSH2 0x181F DUP3 PUSH1 0x20 DUP4 ADD PUSH1 0x20 DUP8 ADD PUSH2 0x1349 JUMP JUMPDEST SWAP5 SWAP4 POP POP POP POP JUMP JUMPDEST DUP1 MLOAD PUSH1 0x6 DUP2 LT PUSH2 0x17D5 JUMPI PUSH1 0x0 DUP1 REVERT JUMPDEST DUP1 MLOAD PUSH2 0x17D5 DUP2 PUSH2 0x1552 JUMP JUMPDEST PUSH1 0x0 PUSH1 0x20 DUP3 DUP5 SUB SLT ISZERO PUSH2 0x1853 JUMPI PUSH1 0x0 DUP1 REVERT JUMPDEST DUP2 MLOAD PUSH8 0xFFFFFFFFFFFFFFFF DUP1 DUP3 GT ISZERO PUSH2 0x186B JUMPI PUSH1 0x0 DUP1 REVERT JUMPDEST SWAP1 DUP4 ADD SWAP1 PUSH2 0x160 DUP3 DUP7 SUB SLT ISZERO PUSH2 0x1880 JUMPI PUSH1 0x0 DUP1 REVERT JUMPDEST PUSH2 0x1888 PUSH2 0x15C4 JUMP JUMPDEST DUP3 MLOAD DUP2 MSTORE PUSH2 0x1898 PUSH1 0x20 DUP5 ADD PUSH2 0x17CA JUMP JUMPDEST PUSH1 0x20 DUP3 ADD MSTORE PUSH1 0x40 DUP4 ADD MLOAD DUP3 DUP2 GT ISZERO PUSH2 0x18AF JUMPI PUSH1 0x0 DUP1 REVERT JUMPDEST PUSH2 0x18BB DUP8 DUP3 DUP7 ADD PUSH2 0x17DA JUMP JUMPDEST PUSH1 0x40 DUP4 ADD MSTORE POP PUSH1 0x60 DUP4 ADD MLOAD DUP3 DUP2 GT ISZERO PUSH2 0x18D3 JUMPI PUSH1 0x0 DUP1 REVERT JUMPDEST PUSH2 0x18DF DUP8 DUP3 DUP7 ADD PUSH2 0x17DA JUMP JUMPDEST PUSH1 0x60 DUP4 ADD MSTORE POP PUSH1 0x80 DUP4 ADD MLOAD DUP3 DUP2 GT ISZERO PUSH2 0x18F7 JUMPI PUSH1 0x0 DUP1 REVERT JUMPDEST PUSH2 0x1903 DUP8 DUP3 DUP7 ADD PUSH2 0x17DA JUMP JUMPDEST PUSH1 0x80 DUP4 ADD MSTORE POP PUSH1 0xA0 DUP4 ADD MLOAD PUSH1 0xA0 DUP3 ADD MSTORE PUSH1 0xC0 DUP4 ADD MLOAD PUSH1 0xC0 DUP3 ADD MSTORE PUSH1 0xE0 DUP4 ADD MLOAD PUSH1 0xE0 DUP3 ADD MSTORE PUSH2 0x100 SWAP2 POP DUP2 DUP4 ADD MLOAD DUP3 DUP3 ADD MSTORE PUSH2 0x120 SWAP2 POP PUSH2 0x1944 DUP3 DUP5 ADD PUSH2 0x1827 JUMP JUMPDEST DUP3 DUP3 ADD MSTORE PUSH2 0x140 SWAP2 POP PUSH2 0x1958 DUP3 DUP5 ADD PUSH2 0x1836 JUMP JUMPDEST SWAP2 DUP2 ADD SWAP2 SWAP1 SWAP2 MSTORE SWAP5 SWAP4 POP POP POP POP JUMP JUMPDEST PUSH1 0x1F DUP3 GT ISZERO PUSH2 0x387 JUMPI PUSH1 0x0 DUP2 DUP2 MSTORE PUSH1 0x20 DUP2 KECCAK256 PUSH1 0x1F DUP6 ADD PUSH1 0x5 SHR DUP2 ADD PUSH1 0x20 DUP7 LT ISZERO PUSH2 0x198E JUMPI POP DUP1 JUMPDEST PUSH1 0x1F DUP6 ADD PUSH1 0x5 SHR DUP3 ADD SWAP2 POP JUMPDEST DUP2 DUP2 LT ISZERO PUSH2 0x19AD JUMPI DUP3 DUP2 SSTORE PUSH1 0x1 ADD PUSH2 0x199A JUMP JUMPDEST POP POP POP POP POP POP JUMP JUMPDEST DUP2 MLOAD PUSH8 0xFFFFFFFFFFFFFFFF DUP2 GT ISZERO PUSH2 0x19CF JUMPI PUSH2 0x19CF PUSH2 0x15AE JUMP JUMPDEST PUSH2 0x19E3 DUP2 PUSH2 0x19DD DUP5 SLOAD PUSH2 0x1714 JUMP JUMPDEST DUP5 PUSH2 0x1967 JUMP JUMPDEST PUSH1 0x20 DUP1 PUSH1 0x1F DUP4 GT PUSH1 0x1 DUP2 EQ PUSH2 0x1A18 JUMPI PUSH1 0x0 DUP5 ISZERO PUSH2 0x1A00 JUMPI POP DUP6 DUP4 ADD MLOAD JUMPDEST PUSH1 0x0 NOT PUSH1 0x3 DUP7 SWAP1 SHL SHR NOT AND PUSH1 0x1 DUP6 SWAP1 SHL OR DUP6 SSTORE PUSH2 0x19AD JUMP JUMPDEST PUSH1 0x0 DUP6 DUP2 MSTORE PUSH1 0x20 DUP2 KECCAK256 PUSH1 0x1F NOT DUP7 AND SWAP2 JUMPDEST DUP3 DUP2 LT ISZERO PUSH2 0x1A47 JUMPI DUP9 DUP7 ADD MLOAD DUP3 SSTORE SWAP5 DUP5 ADD SWAP5 PUSH1 0x1 SWAP1 SWAP2 ADD SWAP1 DUP5 ADD PUSH2 0x1A28 JUMP JUMPDEST POP DUP6 DUP3 LT ISZERO PUSH2 0x1A65 JUMPI DUP8 DUP6 ADD MLOAD PUSH1 0x0 NOT PUSH1 0x3 DUP9 SWAP1 SHL PUSH1 0xF8 AND SHR NOT AND DUP2 SSTORE JUMPDEST POP POP POP POP POP PUSH1 0x1 SWAP1 DUP2 SHL ADD SWAP1 SSTORE POP JUMP JUMPDEST DUP3 DUP2 MSTORE PUSH1 0x40 PUSH1 0x20 DUP3 ADD MSTORE PUSH1 0x0 PUSH2 0x181F PUSH1 0x40 DUP4 ADD DUP5 PUSH2 0x136D JUMP JUMPDEST PUSH32 0x416363657373436F6E74726F6C3A206163636F756E7420000000000000000000 DUP2 MSTORE PUSH1 0x0 DUP4 MLOAD PUSH2 0x1AC6 DUP2 PUSH1 0x17 DUP6 ADD PUSH1 0x20 DUP9 ADD PUSH2 0x1349 JUMP JUMPDEST PUSH17 0x1034B99036B4B9B9B4B733903937B6329 PUSH1 0x7D SHL PUSH1 0x17 SWAP2 DUP5 ADD SWAP2 DUP3 ADD MSTORE DUP4 MLOAD PUSH2 0x1AF7 DUP2 PUSH1 0x28 DUP5 ADD PUSH1 0x20 DUP9 ADD PUSH2 0x1349 JUMP JUMPDEST ADD PUSH1 0x28 ADD SWAP5 SWAP4 POP POP POP POP JUMP JUMPDEST PUSH1 0x20 DUP2 MSTORE PUSH1 0x0 PUSH2 0x1298 PUSH1 0x20 DUP4 ADD DUP5 PUSH2 0x136D JUMP JUMPDEST PUSH4 0x4E487B71 PUSH1 0xE0 SHL PUSH1 0x0 MSTORE PUSH1 0x11 PUSH1 0x4 MSTORE PUSH1 0x24 PUSH1 0x0 REVERT JUMPDEST DUP1 DUP3 MUL DUP2 ISZERO DUP3 DUP3 DIV DUP5 EQ OR PUSH2 0x324 JUMPI PUSH2 0x324 PUSH2 0x1B16 JUMP JUMPDEST DUP1 DUP3 ADD DUP1 DUP3 GT ISZERO PUSH2 0x324 JUMPI PUSH2 0x324 PUSH2 0x1B16 JUMP JUMPDEST PUSH1 0x0 DUP2 PUSH2 0x1B65 JUMPI PUSH2 0x1B65 PUSH2 0x1B16 JUMP JUMPDEST POP PUSH1 0x0 NOT ADD SWAP1 JUMP INVALID LOG2 PUSH5 0x6970667358 0x22 SLT KECCAK256 0xD5 EQ 0x1F MLOAD CALLDATASIZE DUP8 PUSH13 0xE637EC021882542663948D94E1 0xFC PUSH8 0x9CD76B008BF24B6D CALLDATASIZE PUSH5 0x64736F6C63 NUMBER STOP ADDMOD EQ STOP CALLER "},"methodIdentifiers":{"DEFAULT_ADMIN_ROLE()":"a217fddf","NGO_AGENT()":"857a4e63","ORACLE_NODE()":"3ae94349","addMilestone(uint256,string,uint256,string)":"ede0e1c9","getProjectMilestones(uint256)":"52766d80","getRoleAdmin(bytes32)":"248a9ca3","grantRole(bytes32,address)":"2f2ff15d","hasRole(bytes32,address)":"91d14854","milestoneVerifiers(bytes32,uint256)":"293685e1","projectFactory()":"97f51974","projectMilestones(uint256,uint256)":"6cb0adba","raiseDispute(uint256,uint256)":"9f686097","renounceRole(bytes32,address)":"36568abe","revokeRole(bytes32,address)":"d547741f","setVerificationThreshold(uint256)":"38cc32c4","supportsInterface(bytes4)":"01ffc9a7","verificationThreshold()":"167feb09","verifyMilestone(uint256,uint256,bool,uint8)":"a5310ad7"}}}}}