{"contracts/IdentityRegistry.sol":{"IdentityRegistry":{"abi":[{"inputs":[],"stateMutability":"nonpayable","type":"constructor"},{"anonymous":false,"inputs":[{"indexed":true,"internalType":"bytes32","name":"credentialId","type":"bytes32"},{"indexed":true,"internalType":"address","name":"subject","type":"address"},{"indexed":false,"internalType":"enum IdentityRegistry.CredentialType","name":"credType","type":"uint8"},{"indexed":false,"internalType":"address","name":"issuer","type":"address"}],"name":"CredentialIssued","type":"event"},{"anonymous":false,"inputs":[{"indexed":true,"internalType":"bytes32","name":"credentialId","type":"bytes32"},{"indexed":true,"internalType":"address","name":"issuer","type":"address"}],"name":"CredentialRevoked","type":"event"},{"anonymous":false,"inputs":[{"indexed":true,"internalType":"address","name":"did","type":"address"},{"indexed":false,"internalType":"address","name":"owner","type":"address"}],"name":"DIDRegistered","type":"event"},{"anonymous":false,"inputs":[{"indexed":true,"internalType":"bytes32","name":"role","type":"bytes32"},{"indexed":true,"internalType":"bytes32","name":"previousAdminRole","type":"bytes32"},{"indexed":true,"internalType":"bytes32","name":"newAdminRole","type":"bytes32"}],"name":"RoleAdminChanged","type":"event"},{"anonymous":false,"inputs":[{"indexed":true,"internalType":"bytes32","name":"role","type":"bytes32"},{"indexed":true,"internalType":"address","name":"account","type":"address"},{"indexed":true,"internalType":"address","name":"sender","type":"address"}],"name":"RoleGranted","type":"event"},{"anonymous":false,"inputs":[{"indexed":true,"internalType":"bytes32","name":"role","type":"bytes32"},{"indexed":true,"internalType":"address","name":"account","type":"address"},{"indexed":true,"internalType":"address","name":"sender","type":"address"}],"name":"RoleRevoked","type":"event"},{"inputs":[],"name":"DEFAULT_ADMIN_ROLE","outputs":[{"internalType":"bytes32","name":"","type":"bytes32"}],"stateMutability":"view","type":"function"},{"inputs":[],"name":"ISSUER_ROLE","outputs":[{"internalType":"bytes32","name":"","type":"bytes32"}],"stateMutability":"view","type":"function"},{"inputs":[],"name":"VERIFIER_ROLE","outputs":[{"internalType":"bytes32","name":"","type":"bytes32"}],"stateMutability":"view","type":"function"},{"inputs":[{"internalType":"bytes32","name":"","type":"bytes32"}],"name":"credentials","outputs":[{"internalType":"bytes32","name":"id","type":"bytes32"},{"internalType":"address","name":"subject","type":"address"},{"internalType":"enum IdentityRegistry.CredentialType","name":"credType","type":"uint8"},{"internalType":"string","name":"ipfsHash","type":"string"},{"internalType":"address","name":"issuer","type":"address"},{"internalType":"uint256","name":"issuanceDate","type":"uint256"},{"internalType":"uint256","name":"expirationDate","type":"uint256"},{"internalType":"enum IdentityRegistry.CredentialStatus","name":"status","type":"uint8"}],"stateMutability":"view","type":"function"},{"inputs":[{"internalType":"bytes32","name":"credentialId","type":"bytes32"}],"name":"getCredential","outputs":[{"internalType":"bytes32","name":"id","type":"bytes32"},{"internalType":"address","name":"subject","type":"address"},{"internalType":"enum IdentityRegistry.CredentialType","name":"credType","type":"uint8"},{"internalType":"string","name":"ipfsHash","type":"string"},{"internalType":"address","name":"issuer","type":"address"},{"internalType":"uint256","name":"issuanceDate","type":"uint256"},{"internalType":"uint256","name":"expirationDate","type":"uint256"},{"internalType":"enum IdentityRegistry.CredentialStatus","name":"status","type":"uint8"}],"stateMutability":"view","type":"function"},{"inputs":[{"internalType":"address","name":"did","type":"address"}],"name":"getCredentials","outputs":[{"internalType":"bytes32[]","name":"","type":"bytes32[]"}],"stateMutability":"view","type":"function"},{"inputs":[{"internalType":"bytes32","name":"role","type":"bytes32"}],"name":"getRoleAdmin","outputs":[{"internalType":"bytes32","name":"","type":"bytes32"}],"stateMutability":"view","type":"function"},{"inputs":[{"internalType":"bytes32","name":"role","type":"bytes32"},{"internalType":"address","name":"account","type":"address"}],"name":"grantRole","outputs":[],"stateMutability":"nonpayable","type":"function"},{"inputs":[{"internalType":"bytes32","name":"role","type":"bytes32"},{"internalType":"address","name":"account","type":"address"}],"name":"hasRole","outputs":[{"internalType":"bool","name":"","type":"bool"}],"stateMutability":"view","type":"function"},{"inputs":[{"internalType":"address","name":"","type":"address"}],"name":"identities","outputs":[{"internalType":"address","name":"owner","type":"address"},{"internalType":"bool","name":"isActive","type":"bool"}],"stateMutability":"view","type":"function"},{"inputs":[{"internalType":"address","name":"subject","type":"address"},{"internalType":"enum IdentityRegistry.CredentialType","name":"credType","type":"uint8"},{"internalType":"string","name":"ipfsHash","type":"string"},{"internalType":"uint256","name":"validityPeriod","type":"uint256"}],"name":"issueCredential","outputs":[{"internalType":"bytes32","name":"","type":"bytes32"}],"stateMutability":"nonpayable","type":"function"},{"inputs":[],"name":"registerDID","outputs":[],"stateMutability":"nonpayable","type":"function"},{"inputs":[{"internalType":"address","name":"","type":"address"}],"name":"registeredDIDs","outputs":[{"internalType":"bool","name":"","type":"bool"}],"stateMutability":"view","type":"function"},{"inputs":[{"internalType":"bytes32","name":"role","type":"bytes32"},{"internalType":"address","name":"account","type":"address"}],"name":"renounceRole","outputs":[],"stateMutability":"nonpayable","type":"function"},{"inputs":[{"internalType":"bytes32","name":"credentialId","type":"bytes32"}],"name":"revokeCredential","outputs":[],"stateMutability":"nonpayable","type":"function"},{"inputs":[{"internalType":"bytes32","name":"role","type":"bytes32"},{"internalType":"address","name":"account","type":"address"}],"name":"revokeRole","outputs":[],"stateMutability":"nonpayable","type":"function"},{"inputs":[{"internalType":"bytes4","name":"interfaceId","type":"bytes4"}],"name":"supportsInterface","outputs":[{"internalType":"bool","name":"","type":"bool"}],"stateMutability":"view","type":"function"},{"inputs":[{"internalType":"bytes32","name":"credentialId","type":"bytes32"}],"name":"verifyCredential","outputs":[{"internalType":"bool","name":"","type":"bool"}],"stateMutability":"view","type":"function"}],"evm":{"bytecode":{"linkReferences":{},"object":"608060405234801561001057600080fd5b5061001c600033610021565b6100c0565b6000828152602081815260408083206001600160a01b038516845290915290205460ff166100bc576000828152602081815260408083206001600160a01b03851684529091529020805460ff1916600117905561007b3390565b6001600160a01b0316816001600160a01b0316837f2f8788117e7eff1d82e926ec794901d17c78024a50270940304540a733656f0d60405160405180910390a45b5050565b6113de806100cf6000396000f3fe608060405234801561001057600080fd5b50600436106101165760003560e01c8063a217fddf116100a2578063d547741f11610071578063d547741f14610271578063d8ab19f814610284578063e7705db6146102a7578063f653b81e146102ce578063f6a9900b1461032257600080fd5b8063a217fddf14610230578063b76c8ead14610238578063ca6eec781461024b578063d1be48831461025e57600080fd5b806336568abe116100e957806336568abe146101b05780634dbf87cc146101c357806382aefa24146101d657806384270608146101fd57806391d148541461021d57600080fd5b806301ffc9a71461011b578063248a9ca314610143578063299d0348146101745780632f2ff15d1461019b575b600080fd5b61012e610129366004610e0e565b61032a565b60405190151581526020015b60405180910390f35b610166610151366004610e38565b60009081526020819052604090206001015490565b60405190815260200161013a565b610187610182366004610e38565b610361565b60405161013a989796959493929190610ecb565b6101ae6101a9366004610f5b565b61044c565b005b6101ae6101be366004610f5b565b610476565b61012e6101d1366004610e38565b6104f9565b6101667f114e74f6ea3bd819998f78687bfcb11b140da08e9b7d222fa9c1f1ba1f2aa12281565b61021061020b366004610f87565b610538565b60405161013a9190610fa2565b61012e61022b366004610f5b565b6105a7565b610166600081565b610166610246366004610ffc565b6105d0565b6101ae610259366004610e38565b6107cc565b61018761026c366004610e38565b61090b565b6101ae61027f366004610f5b565b610a18565b61012e610292366004610f87565b60036020526000908152604090205460ff1681565b6101667f0ce23c3e399818cfee81a7ab0880f714e53d7672b08df0fa62f2843416e1ea0981565b6103036102dc366004610f87565b6001602052600090815260409020546001600160a01b03811690600160a01b900460ff1682565b604080516001600160a01b03909316835290151560208301520161013a565b6101ae610a3d565b60006001600160e01b03198216637965db0b60e01b148061035b57506301ffc9a760e01b6001600160e01b03198316145b92915050565b600260208190526000918252604090912080546001820154928201805491936001600160a01b03811693600160a01b90910460ff16929091906103a3906110dc565b80601f01602080910402602001604051908101604052809291908181526020018280546103cf906110dc565b801561041c5780601f106103f15761010080835404028352916020019161041c565b820191906000526020600020905b8154815290600101906020018083116103ff57829003601f168201915b5050505060038301546004840154600585015460069095015493946001600160a01b039092169390925060ff1688565b60008281526020819052604090206001015461046781610b11565b6104718383610b1e565b505050565b6001600160a01b03811633146104eb5760405162461bcd60e51b815260206004820152602f60248201527f416363657373436f6e74726f6c3a2063616e206f6e6c792072656e6f756e636560448201526e103937b632b9903337b91039b2b63360891b60648201526084015b60405180910390fd5b6104f58282610ba2565b5050565b600081815260026020526040812081600682015460ff16600281111561052157610521610e51565b1480156105315750428160050154115b9392505050565b6001600160a01b03811660009081526001602081815260409283902090910180548351818402810184019094528084526060939283018282801561059b57602002820191906000526020600020905b815481526020019060010190808311610587575b50505050509050919050565b6000918252602082815260408084206001600160a01b0393909316845291905290205460ff1690565b60007f114e74f6ea3bd819998f78687bfcb11b140da08e9b7d222fa9c1f1ba1f2aa1226105fc81610b11565b6001600160a01b03861660009081526003602052604090205460ff166106645760405162461bcd60e51b815260206004820152601a60248201527f5375626a65637420444944206e6f74207265676973746572656400000000000060448201526064016104e2565b6000868642873360405160200161067f959493929190611116565b60408051601f1981840301815291815281516020928301206000818152600290935291208181556001810180546001600160a01b038b166001600160a01b0319821681178355939450919289926001600160a81b03191617600160a01b8360048111156106ee576106ee610e51565b02179055506002810161070187826111cd565b506003810180546001600160a01b0319163317905542600482018190556107299086906112a3565b600582015560068101805460ff199081169091556001600160a01b03891660008181526001602081815260408084208084018054808601825590865283862001899055888552600281019092529283902080549095169091179093555184907fc3d56e67fe5742e168d3c2ba5c1fbc7a83f2efbea1548ba92304ce09cc859c1f906107b7908c9033906112b6565b60405180910390a35090979650505050505050565b7f114e74f6ea3bd819998f78687bfcb11b140da08e9b7d222fa9c1f1ba1f2aa1226107f681610b11565b600082815260026020526040902060038101546001600160a01b0316331461086a5760405162461bcd60e51b815260206004820152602160248201527f4e6f742074686520697373756572206f6620746869732063726564656e7469616044820152601b60fa1b60648201526084016104e2565b6000600682015460ff16600281111561088557610885610e51565b146108ca5760405162461bcd60e51b815260206004820152601560248201527443726564656e7469616c206e6f742061637469766560581b60448201526064016104e2565b60068101805460ff19166001179055604051339084907fd3196f598a360c115a1de20d5a58021203793f1bf1a08efe55ee14545779606d90600090a3505050565b600081815260026020819052604082208054600182015460038301546004840154600585015460068601549686018054899889986060988a98899889988998949793966001600160a01b038085169760ff600160a01b90960486169794909116949293921690859061097c906110dc565b80601f01602080910402602001604051908101604052809291908181526020018280546109a8906110dc565b80156109f55780601f106109ca576101008083540402835291602001916109f5565b820191906000526020600020905b8154815290600101906020018083116109d857829003601f168201915b505050505094509850985098509850985098509850985050919395975091939597565b600082815260208190526040902060010154610a3381610b11565b6104718383610ba2565b3360009081526003602052604090205460ff1615610a965760405162461bcd60e51b815260206004820152601660248201527511125108185b1c9958591e481c9959da5cdd195c995960521b60448201526064016104e2565b3360008181526001602081815260408084208054600160a01b6001600160a81b031990911660ff60a01b198816171781556003835293819020805460ff191690931790925590518381529192917f39bd36ee3d8d2421de0dca1341dee108c31829926315e099953a700898203627910160405180910390a250565b610b1b8133610c07565b50565b610b2882826105a7565b6104f5576000828152602081815260408083206001600160a01b03851684529091529020805460ff19166001179055610b5e3390565b6001600160a01b0316816001600160a01b0316837f2f8788117e7eff1d82e926ec794901d17c78024a50270940304540a733656f0d60405160405180910390a45050565b610bac82826105a7565b156104f5576000828152602081815260408083206001600160a01b0385168085529252808320805460ff1916905551339285917ff6391f5c32d9c69d2a47ea670b442974b53935d1edc7fd64eb21e047a839171b9190a45050565b610c1182826105a7565b6104f557610c1e81610c60565b610c29836020610c72565b604051602001610c3a9291906112dc565b60408051601f198184030181529082905262461bcd60e51b82526104e291600401611351565b606061035b6001600160a01b03831660145b60606000610c81836002611364565b610c8c9060026112a3565b67ffffffffffffffff811115610ca457610ca4610fe6565b6040519080825280601f01601f191660200182016040528015610cce576020820181803683370190505b509050600360fc1b81600081518110610ce957610ce961137b565b60200101906001600160f81b031916908160001a905350600f60fb1b81600181518110610d1857610d1861137b565b60200101906001600160f81b031916908160001a9053506000610d3c846002611364565b610d479060016112a3565b90505b6001811115610dbf576f181899199a1a9b1b9c1cb0b131b232b360811b85600f1660108110610d7b57610d7b61137b565b1a60f81b828281518110610d9157610d9161137b565b60200101906001600160f81b031916908160001a90535060049490941c93610db881611391565b9050610d4a565b5083156105315760405162461bcd60e51b815260206004820181905260248201527f537472696e67733a20686578206c656e67746820696e73756666696369656e7460448201526064016104e2565b600060208284031215610e2057600080fd5b81356001600160e01b03198116811461053157600080fd5b600060208284031215610e4a57600080fd5b5035919050565b634e487b7160e01b600052602160045260246000fd5b60058110610e7757610e77610e51565b9052565b60005b83811015610e96578181015183820152602001610e7e565b50506000910152565b60008151808452610eb7816020860160208601610e7b565b601f01601f19169290920160200192915050565b8881526001600160a01b03888116602083015260009061010090610ef2604085018b610e67565b816060850152610f048285018a610e9f565b9250808816608085015250508460a08301528360c083015260038310610f2c57610f2c610e51565b8260e08301529998505050505050505050565b80356001600160a01b0381168114610f5657600080fd5b919050565b60008060408385031215610f6e57600080fd5b82359150610f7e60208401610f3f565b90509250929050565b600060208284031215610f9957600080fd5b61053182610f3f565b6020808252825182820181905260009190848201906040850190845b81811015610fda57835183529284019291840191600101610fbe565b50909695505050505050565b634e487b7160e01b600052604160045260246000fd5b6000806000806080858703121561101257600080fd5b61101b85610f3f565b935060208501356005811061102f57600080fd5b9250604085013567ffffffffffffffff8082111561104c57600080fd5b818701915087601f83011261106057600080fd5b81358181111561107257611072610fe6565b604051601f8201601f19908116603f0116810190838211818310171561109a5761109a610fe6565b816040528281528a60208487010111156110b357600080fd5b826020860160208301376000928101602001929092525095989497509495606001359450505050565b600181811c908216806110f057607f821691505b60208210810361111057634e487b7160e01b600052602260045260246000fd5b50919050565b60006bffffffffffffffffffffffff19808860601b1683526005871061113e5761113e610e51565b8660f81b60148401528560158401528451611160816035860160208901610e7b565b60609490941b1691909201603581019190915260490195945050505050565b601f82111561047157600081815260208120601f850160051c810160208610156111a65750805b601f850160051c820191505b818110156111c5578281556001016111b2565b505050505050565b815167ffffffffffffffff8111156111e7576111e7610fe6565b6111fb816111f584546110dc565b8461117f565b602080601f83116001811461123057600084156112185750858301515b600019600386901b1c1916600185901b1785556111c5565b600085815260208120601f198616915b8281101561125f57888601518255948401946001909101908401611240565b508582101561127d5787850151600019600388901b60f8161c191681555b5050505050600190811b01905550565b634e487b7160e01b600052601160045260246000fd5b8082018082111561035b5761035b61128d565b604081016112c48285610e67565b6001600160a01b039290921660209190910152919050565b7f416363657373436f6e74726f6c3a206163636f756e7420000000000000000000815260008351611314816017850160208801610e7b565b7001034b99036b4b9b9b4b733903937b6329607d1b6017918401918201528351611345816028840160208801610e7b565b01602801949350505050565b6020815260006105316020830184610e9f565b808202811582820484141761035b5761035b61128d565b634e487b7160e01b600052603260045260246000fd5b6000816113a0576113a061128d565b50600019019056fea2646970667358221220a2345a06cf20672456b596c2768b1b27584d75138513329e1e854ad9e5e2abab64736f6c63430008140033","opcodes":"PUSH1 0x80 PUSH1 0x40 MSTORE CALLVALUE DUP1 ISZERO PUSH2 0x10 JUMPI PUSH1 0x0 DUP1 REVERT JUMPDEST POP PUSH2 0x1C PUSH1 0x0 CALLER PUSH2 0x21 JUMP JUMPDEST PUSH2 0xC0 JUMP JUMPDEST PUSH1 0x0 DUP3 DUP2 MSTORE PUSH1 0x20 DUP2 DUP2 MSTORE PUSH1 0x40 DUP1 DUP4 KECCAK256 PUSH1 0x1 PUSH1 0x1 PUSH1 0xA0 SHL SUB DUP6 AND DUP5 MSTORE SWAP1 SWAP2 MSTORE SWAP1 KECCAK256 SLOAD PUSH1 0xFF AND PUSH2 0xBC JUMPI PUSH1 0x0 DUP3 DUP2 MSTORE PUSH1 0x20 DUP2 DUP2 MSTORE PUSH1 0x40 DUP1 DUP4 KECCAK256 PUSH1 0x1 PUSH1 0x1 PUSH1 0xA0 SHL SUB DUP6 AND DUP5 MSTORE SWAP1 SWAP2 MSTORE SWAP1 KECCAK256 DUP1 SLOAD PUSH1 0xFF NOT AND PUSH1 0x1 OR SWAP1 SSTORE PUSH2 0x7B CALLER SWAP1 JUMP JUMPDEST PUSH1 0x1 PUSH1 0x1 PUSH1 0xA0 SHL SUB AND DUP2 PUSH1 0x1 PUSH1 0x1 PUSH1 0xA0 SHL SUB AND DUP4 PUSH32 0x2F8788117E7EFF1D82E926EC794901D17C78024A50270940304540A733656F0D PUSH1 0x40 MLOAD PUSH1 0x40 MLOAD DUP1 SWAP2 SUB SWAP1 LOG4 JUMPDEST POP POP JUMP JUMPDEST PUSH2 0x13DE DUP1 PUSH2 0xCF PUSH1 0x0 CODECOPY PUSH1 0x0 RETURN INVALID PUSH1 0x80 PUSH1 0x40 MSTORE CALLVALUE DUP1 ISZERO PUSH2 0x10 JUMPI PUSH1 0x0 DUP1 REVERT JUMPDEST POP PUSH1 0x4 CALLDATASIZE LT PUSH2 0x116 JUMPI PUSH1 0x0 CALLDATALOAD PUSH1 0xE0 SHR DUP1 PUSH4 0xA217FDDF GT PUSH2 0xA2 JUMPI DUP1 PUSH4 0xD547741F GT PUSH2 0x71 JUMPI DUP1 PUSH4 0xD547741F EQ PUSH2 0x271 JUMPI DUP1 PUSH4 0xD8AB19F8 EQ PUSH2 0x284 JUMPI DUP1 PUSH4 0xE7705DB6 EQ PUSH2 0x2A7 JUMPI DUP1 PUSH4 0xF653B81E EQ PUSH2 0x2CE JUMPI DUP1 PUSH4 0xF6A9900B EQ PUSH2 0x322 JUMPI PUSH1 0x0 DUP1 REVERT JUMPDEST DUP1 PUSH4 0xA217FDDF EQ PUSH2 0x230 JUMPI DUP1 PUSH4 0xB76C8EAD EQ PUSH2 0x238 JUMPI DUP1 PUSH4 0xCA6EEC78 EQ PUSH2 0x24B JUMPI DUP1 PUSH4 0xD1BE4883 EQ PUSH2 0x25E JUMPI PUSH1 0x0 DUP1 REVERT JUMPDEST DUP1 PUSH4 0x36568ABE GT PUSH2 0xE9 JUMPI DUP1 PUSH4 0x36568ABE EQ PUSH2 0x1B0 JUMPI DUP1 PUSH4 0x4DBF87CC EQ PUSH2 0x1C3 JUMPI DUP1 PUSH4 0x82AEFA24 EQ PUSH2 0x1D6 JUMPI DUP1 PUSH4 0x84270608 EQ PUSH2 0x1FD JUMPI DUP1 PUSH4 0x91D14854 EQ PUSH2 0x21D JUMPI PUSH1 0x0 DUP1 REVERT JUMPDEST DUP1 PUSH4 0x1FFC9A7 EQ PUSH2 0x11B JUMPI DUP1 PUSH4 0x248A9CA3 EQ PUSH2 0x143 JUMPI DUP1 PUSH4 0x299D0348 EQ PUSH2 0x174 JUMPI DUP1 PUSH4 0x2F2FF15D EQ PUSH2 0x19B JUMPI JUMPDEST PUSH1 0x0 DUP1 REVERT JUMPDEST PUSH2 0x12E PUSH2 0x129 CALLDATASIZE PUSH1 0x4 PUSH2 0xE0E JUMP JUMPDEST PUSH2 0x32A JUMP JUMPDEST PUSH1 0x40 MLOAD SWAP1 ISZERO ISZERO DUP2 MSTORE PUSH1 0x20 ADD JUMPDEST PUSH1 0x40 MLOAD DUP1 SWAP2 SUB SWAP1 RETURN JUMPDEST PUSH2 0x166 PUSH2 0x151 CALLDATASIZE PUSH1 0x4 PUSH2 0xE38 JUMP JUMPDEST PUSH1 0x0 SWAP1 DUP2 MSTORE PUSH1 0x20 DUP2 SWAP1 MSTORE PUSH1 0x40 SWAP1 KECCAK256 PUSH1 0x1 ADD SLOAD SWAP1 JUMP JUMPDEST PUSH1 0x40 MLOAD SWAP1 DUP2 MSTORE PUSH1 0x20 ADD PUSH2 0x13A JUMP JUMPDEST PUSH2 0x187 PUSH2 0x182 CALLDATASIZE PUSH1 0x4 PUSH2 0xE38 JUMP JUMPDEST PUSH2 0x361 JUMP JUMPDEST PUSH1 0x40 MLOAD PUSH2 0x13A SWAP9 SWAP8 SWAP7 SWAP6 SWAP5 SWAP4 SWAP3 SWAP2 SWAP1 PUSH2 0xECB JUMP JUMPDEST PUSH2 0x1AE PUSH2 0x1A9 CALLDATASIZE PUSH1 0x4 PUSH2 0xF5B JUMP JUMPDEST PUSH2 0x44C JUMP JUMPDEST STOP JUMPDEST PUSH2 0x1AE PUSH2 0x1BE CALLDATASIZE PUSH1 0x4 PUSH2 0xF5B JUMP JUMPDEST PUSH2 0x476 JUMP JUMPDEST PUSH2 0x12E PUSH2 0x1D1 CALLDATASIZE PUSH1 0x4 PUSH2 0xE38 JUMP JUMPDEST PUSH2 0x4F9 JUMP JUMPDEST PUSH2 0x166 PUSH32 0x114E74F6EA3BD819998F78687BFCB11B140DA08E9B7D222FA9C1F1BA1F2AA122 DUP2 JUMP JUMPDEST PUSH2 0x210 PUSH2 0x20B CALLDATASIZE PUSH1 0x4 PUSH2 0xF87 JUMP JUMPDEST PUSH2 0x538 JUMP JUMPDEST PUSH1 0x40 MLOAD PUSH2 0x13A SWAP2 SWAP1 PUSH2 0xFA2 JUMP JUMPDEST PUSH2 0x12E PUSH2 0x22B CALLDATASIZE PUSH1 0x4 PUSH2 0xF5B JUMP JUMPDEST PUSH2 0x5A7 JUMP JUMPDEST PUSH2 0x166 PUSH1 0x0 DUP2 JUMP JUMPDEST PUSH2 0x166 PUSH2 0x246 CALLDATASIZE PUSH1 0x4 PUSH2 0xFFC JUMP JUMPDEST PUSH2 0x5D0 JUMP JUMPDEST PUSH2 0x1AE PUSH2 0x259 CALLDATASIZE PUSH1 0x4 PUSH2 0xE38 JUMP JUMPDEST PUSH2 0x7CC JUMP JUMPDEST PUSH2 0x187 PUSH2 0x26C CALLDATASIZE PUSH1 0x4 PUSH2 0xE38 JUMP JUMPDEST PUSH2 0x90B JUMP JUMPDEST PUSH2 0x1AE PUSH2 0x27F CALLDATASIZE PUSH1 0x4 PUSH2 0xF5B JUMP JUMPDEST PUSH2 0xA18 JUMP JUMPDEST PUSH2 0x12E PUSH2 0x292 CALLDATASIZE PUSH1 0x4 PUSH2 0xF87 JUMP JUMPDEST PUSH1 0x3 PUSH1 0x20 MSTORE PUSH1 0x0 SWAP1 DUP2 MSTORE PUSH1 0x40 SWAP1 KECCAK256 SLOAD PUSH1 0xFF AND DUP2 JUMP JUMPDEST PUSH2 0x166 PUSH32 0xCE23C3E399818CFEE81A7AB0880F714E53D7672B08DF0FA62F2843416E1EA09 DUP2 JUMP JUMPDEST PUSH2 0x303 PUSH2 0x2DC CALLDATASIZE PUSH1 0x4 PUSH2 0xF87 JUMP JUMPDEST PUSH1 0x1 PUSH1 0x20 MSTORE PUSH1 0x0 SWAP1 DUP2 MSTORE PUSH1 0x40 SWAP1 KECCAK256 SLOAD PUSH1 0x1 PUSH1 0x1 PUSH1 0xA0 SHL SUB DUP2 AND SWAP1 PUSH1 0x1 PUSH1 0xA0 SHL SWAP1 DIV PUSH1 0xFF AND DUP3 JUMP JUMPDEST PUSH1 0x40 DUP1 MLOAD PUSH1 0x1 PUSH1 0x1 PUSH1 0xA0 SHL SUB SWAP1 SWAP4 AND DUP4 MSTORE SWAP1 ISZERO ISZERO PUSH1 0x20 DUP4 ADD MSTORE ADD PUSH2 0x13A JUMP JUMPDEST PUSH2 0x1AE PUSH2 0xA3D JUMP JUMPDEST PUSH1 0x0 PUSH1 0x1 PUSH1 0x1 PUSH1 0xE0 SHL SUB NOT DUP3 AND PUSH4 0x7965DB0B PUSH1 0xE0 SHL EQ DUP1 PUSH2 0x35B JUMPI POP PUSH4 0x1FFC9A7 PUSH1 0xE0 SHL PUSH1 0x1 PUSH1 0x1 PUSH1 0xE0 SHL SUB NOT DUP4 AND EQ JUMPDEST SWAP3 SWAP2 POP POP JUMP JUMPDEST PUSH1 0x2 PUSH1 0x20 DUP2 SWAP1 MSTORE PUSH1 0x0 SWAP2 DUP3 MSTORE PUSH1 0x40 SWAP1 SWAP2 KECCAK256 DUP1 SLOAD PUSH1 0x1 DUP3 ADD SLOAD SWAP3 DUP3 ADD DUP1 SLOAD SWAP2 SWAP4 PUSH1 0x1 PUSH1 0x1 PUSH1 0xA0 SHL SUB DUP2 AND SWAP4 PUSH1 0x1 PUSH1 0xA0 SHL SWAP1 SWAP2 DIV PUSH1 0xFF AND SWAP3 SWAP1 SWAP2 SWAP1 PUSH2 0x3A3 SWAP1 PUSH2 0x10DC JUMP JUMPDEST DUP1 PUSH1 0x1F ADD PUSH1 0x20 DUP1 SWAP2 DIV MUL PUSH1 0x20 ADD PUSH1 0x40 MLOAD SWAP1 DUP2 ADD PUSH1 0x40 MSTORE DUP1 SWAP3 SWAP2 SWAP1 DUP2 DUP2 MSTORE PUSH1 0x20 ADD DUP3 DUP1 SLOAD PUSH2 0x3CF SWAP1 PUSH2 0x10DC JUMP JUMPDEST DUP1 ISZERO PUSH2 0x41C JUMPI DUP1 PUSH1 0x1F LT PUSH2 0x3F1 JUMPI PUSH2 0x100 DUP1 DUP4 SLOAD DIV MUL DUP4 MSTORE SWAP2 PUSH1 0x20 ADD SWAP2 PUSH2 0x41C JUMP JUMPDEST DUP3 ADD SWAP2 SWAP1 PUSH1 0x0 MSTORE PUSH1 0x20 PUSH1 0x0 KECCAK256 SWAP1 JUMPDEST DUP2 SLOAD DUP2 MSTORE SWAP1 PUSH1 0x1 ADD SWAP1 PUSH1 0x20 ADD DUP1 DUP4 GT PUSH2 0x3FF JUMPI DUP3 SWAP1 SUB PUSH1 0x1F AND DUP3 ADD SWAP2 JUMPDEST POP POP POP POP PUSH1 0x3 DUP4 ADD SLOAD PUSH1 0x4 DUP5 ADD SLOAD PUSH1 0x5 DUP6 ADD SLOAD PUSH1 0x6 SWAP1 SWAP6 ADD SLOAD SWAP4 SWAP5 PUSH1 0x1 PUSH1 0x1 PUSH1 0xA0 SHL SUB SWAP1 SWAP3 AND SWAP4 SWAP1 SWAP3 POP PUSH1 0xFF AND DUP9 JUMP JUMPDEST PUSH1 0x0 DUP3 DUP2 MSTORE PUSH1 0x20 DUP2 SWAP1 MSTORE PUSH1 0x40 SWAP1 KECCAK256 PUSH1 0x1 ADD SLOAD PUSH2 0x467 DUP2 PUSH2 0xB11 JUMP JUMPDEST PUSH2 0x471 DUP4 DUP4 PUSH2 0xB1E JUMP JUMPDEST POP POP POP JUMP JUMPDEST PUSH1 0x1 PUSH1 0x1 PUSH1 0xA0 SHL SUB DUP2 AND CALLER EQ PUSH2 0x4EB JUMPI PUSH1 0x40 MLOAD PUSH3 0x461BCD PUSH1 0xE5 SHL DUP2 MSTORE PUSH1 0x20 PUSH1 0x4 DUP3 ADD MSTORE PUSH1 0x2F PUSH1 0x24 DUP3 ADD MSTORE PUSH32 0x416363657373436F6E74726F6C3A2063616E206F6E6C792072656E6F756E6365 PUSH1 0x44 DUP3 ADD MSTORE PUSH15 0x103937B632B9903337B91039B2B633 PUSH1 0x89 SHL PUSH1 0x64 DUP3 ADD MSTORE PUSH1 0x84 ADD JUMPDEST PUSH1 0x40 MLOAD DUP1 SWAP2 SUB SWAP1 REVERT JUMPDEST PUSH2 0x4F5 DUP3 DUP3 PUSH2 0xBA2 JUMP JUMPDEST POP POP JUMP JUMPDEST PUSH1 0x0 DUP2 DUP2 MSTORE PUSH1 0x2 PUSH1 0x20 MSTORE PUSH1 0x40 DUP2 KECCAK256 DUP2 PUSH1 0x6 DUP3 ADD SLOAD PUSH1 0xFF AND PUSH1 0x2 DUP2 GT ISZERO PUSH2 0x521 JUMPI PUSH2 0x521 PUSH2 0xE51 JUMP JUMPDEST EQ DUP1 ISZERO PUSH2 0x531 JUMPI POP TIMESTAMP DUP2 PUSH1 0x5 ADD SLOAD GT JUMPDEST SWAP4 SWAP3 POP POP POP JUMP JUMPDEST PUSH1 0x1 PUSH1 0x1 PUSH1 0xA0 SHL SUB DUP2 AND PUSH1 0x0 SWAP1 DUP2 MSTORE PUSH1 0x1 PUSH1 0x20 DUP2 DUP2 MSTORE PUSH1 0x40 SWAP3 DUP4 SWAP1 KECCAK256 SWAP1 SWAP2 ADD DUP1 SLOAD DUP4 MLOAD DUP2 DUP5 MUL DUP2 ADD DUP5 ADD SWAP1 SWAP5 MSTORE DUP1 DUP5 MSTORE PUSH1 0x60 SWAP4 SWAP3 DUP4 ADD DUP3 DUP3 DUP1 ISZERO PUSH2 0x59B JUMPI PUSH1 0x20 MUL DUP3 ADD SWAP2 SWAP1 PUSH1 0x0 MSTORE PUSH1 0x20 PUSH1 0x0 KECCAK256 SWAP1 JUMPDEST DUP2 SLOAD DUP2 MSTORE PUSH1 0x20 ADD SWAP1 PUSH1 0x1 ADD SWAP1 DUP1 DUP4 GT PUSH2 0x587 JUMPI JUMPDEST POP POP POP POP POP SWAP1 POP SWAP2 SWAP1 POP JUMP JUMPDEST PUSH1 0x0 SWAP2 DUP3 MSTORE PUSH1 0x20 DUP3 DUP2 MSTORE PUSH1 0x40 DUP1 DUP5 KECCAK256 PUSH1 0x1 PUSH1 0x1 PUSH1 0xA0 SHL SUB SWAP4 SWAP1 SWAP4 AND DUP5 MSTORE SWAP2 SWAP1 MSTORE SWAP1 KECCAK256 SLOAD PUSH1 0xFF AND SWAP1 JUMP JUMPDEST PUSH1 0x0 PUSH32 0x114E74F6EA3BD819998F78687BFCB11B140DA08E9B7D222FA9C1F1BA1F2AA122 PUSH2 0x5FC DUP2 PUSH2 0xB11 JUMP JUMPDEST PUSH1 0x1 PUSH1 0x1 PUSH1 0xA0 SHL SUB DUP7 AND PUSH1 0x0 SWAP1 DUP2 MSTORE PUSH1 0x3 PUSH1 0x20 MSTORE PUSH1 0x40 SWAP1 KECCAK256 SLOAD PUSH1 0xFF AND PUSH2 0x664 JUMPI PUSH1 0x40 MLOAD PUSH3 0x461BCD PUSH1 0xE5 SHL DUP2 MSTORE PUSH1 0x20 PUSH1 0x4 DUP3 ADD MSTORE PUSH1 0x1A PUSH1 0x24 DUP3 ADD MSTORE PUSH32 0x5375626A65637420444944206E6F742072656769737465726564000000000000 PUSH1 0x44 DUP3 ADD MSTORE PUSH1 0x64 ADD PUSH2 0x4E2 JUMP JUMPDEST PUSH1 0x0 DUP7 DUP7 TIMESTAMP DUP8 CALLER PUSH1 0x40 MLOAD PUSH1 0x20 ADD PUSH2 0x67F SWAP6 SWAP5 SWAP4 SWAP3 SWAP2 SWAP1 PUSH2 0x1116 JUMP JUMPDEST PUSH1 0x40 DUP1 MLOAD PUSH1 0x1F NOT DUP2 DUP5 SUB ADD DUP2 MSTORE SWAP2 DUP2 MSTORE DUP2 MLOAD PUSH1 0x20 SWAP3 DUP4 ADD KECCAK256 PUSH1 0x0 DUP2 DUP2 MSTORE PUSH1 0x2 SWAP1 SWAP4 MSTORE SWAP2 KECCAK256 DUP2 DUP2 SSTORE PUSH1 0x1 DUP2 ADD DUP1 SLOAD PUSH1 0x1 PUSH1 0x1 PUSH1 0xA0 SHL SUB DUP12 AND PUSH1 0x1 PUSH1 0x1 PUSH1 0xA0 SHL SUB NOT DUP3 AND DUP2 OR DUP4 SSTORE SWAP4 SWAP5 POP SWAP2 SWAP3 DUP10 SWAP3 PUSH1 0x1 PUSH1 0x1 PUSH1 0xA8 SHL SUB NOT AND OR PUSH1 0x1 PUSH1 0xA0 SHL DUP4 PUSH1 0x4 DUP2 GT ISZERO PUSH2 0x6EE JUMPI PUSH2 0x6EE PUSH2 0xE51 JUMP JUMPDEST MUL OR SWAP1 SSTORE POP PUSH1 0x2 DUP2 ADD PUSH2 0x701 DUP8 DUP3 PUSH2 0x11CD JUMP JUMPDEST POP PUSH1 0x3 DUP2 ADD DUP1 SLOAD PUSH1 0x1 PUSH1 0x1 PUSH1 0xA0 SHL SUB NOT AND CALLER OR SWAP1 SSTORE TIMESTAMP PUSH1 0x4 DUP3 ADD DUP2 SWAP1 SSTORE PUSH2 0x729 SWAP1 DUP7 SWAP1 PUSH2 0x12A3 JUMP JUMPDEST PUSH1 0x5 DUP3 ADD SSTORE PUSH1 0x6 DUP2 ADD DUP1 SLOAD PUSH1 0xFF NOT SWAP1 DUP2 AND SWAP1 SWAP2 SSTORE PUSH1 0x1 PUSH1 0x1 PUSH1 0xA0 SHL SUB DUP10 AND PUSH1 0x0 DUP2 DUP2 MSTORE PUSH1 0x1 PUSH1 0x20 DUP2 DUP2 MSTORE PUSH1 0x40 DUP1 DUP5 KECCAK256 DUP1 DUP5 ADD DUP1 SLOAD DUP1 DUP7 ADD DUP3 SSTORE SWAP1 DUP7 MSTORE DUP4 DUP7 KECCAK256 ADD DUP10 SWAP1 SSTORE DUP9 DUP6 MSTORE PUSH1 0x2 DUP2 ADD SWAP1 SWAP3 MSTORE SWAP3 DUP4 SWAP1 KECCAK256 DUP1 SLOAD SWAP1 SWAP6 AND SWAP1 SWAP2 OR SWAP1 SWAP4 SSTORE MLOAD DUP5 SWAP1 PUSH32 0xC3D56E67FE5742E168D3C2BA5C1FBC7A83F2EFBEA1548BA92304CE09CC859C1F SWAP1 PUSH2 0x7B7 SWAP1 DUP13 SWAP1 CALLER SWAP1 PUSH2 0x12B6 JUMP JUMPDEST PUSH1 0x40 MLOAD DUP1 SWAP2 SUB SWAP1 LOG3 POP SWAP1 SWAP8 SWAP7 POP POP POP POP POP POP POP JUMP JUMPDEST PUSH32 0x114E74F6EA3BD819998F78687BFCB11B140DA08E9B7D222FA9C1F1BA1F2AA122 PUSH2 0x7F6 DUP2 PUSH2 0xB11 JUMP JUMPDEST PUSH1 0x0 DUP3 DUP2 MSTORE PUSH1 0x2 PUSH1 0x20 MSTORE PUSH1 0x40 SWAP1 KECCAK256 PUSH1 0x3 DUP2 ADD SLOAD PUSH1 0x1 PUSH1 0x1 PUSH1 0xA0 SHL SUB AND CALLER EQ PUSH2 0x86A JUMPI PUSH1 0x40 MLOAD PUSH3 0x461BCD PUSH1 0xE5 SHL DUP2 MSTORE PUSH1 0x20 PUSH1 0x4 DUP3 ADD MSTORE PUSH1 0x21 PUSH1 0x24 DUP3 ADD MSTORE PUSH32 0x4E6F742074686520697373756572206F6620746869732063726564656E746961 PUSH1 0x44 DUP3 ADD MSTORE PUSH1 0x1B PUSH1 0xFA SHL PUSH1 0x64 DUP3 ADD MSTORE PUSH1 0x84 ADD PUSH2 0x4E2 JUMP JUMPDEST PUSH1 0x0 PUSH1 0x6 DUP3 ADD SLOAD PUSH1 0xFF AND PUSH1 0x2 DUP2 GT ISZERO PUSH2 0x885 JUMPI PUSH2 0x885 PUSH2 0xE51 JUMP JUMPDEST EQ PUSH2 0x8CA JUMPI PUSH1 0x40 MLOAD PUSH3 0x461BCD PUSH1 0xE5 SHL DUP2 MSTORE PUSH1 0x20 PUSH1 0x4 DUP3 ADD MSTORE PUSH1 0x15 PUSH1 0x24 DUP3 ADD MSTORE PUSH21 0x43726564656E7469616C206E6F7420616374697665 PUSH1 0x58 SHL PUSH1 0x44 DUP3 ADD MSTORE PUSH1 0x64 ADD PUSH2 0x4E2 JUMP JUMPDEST PUSH1 0x6 DUP2 ADD DUP1 SLOAD PUSH1 0xFF NOT AND PUSH1 0x1 OR SWAP1 SSTORE PUSH1 0x40 MLOAD CALLER SWAP1 DUP5 SWAP1 PUSH32 0xD3196F598A360C115A1DE20D5A58021203793F1BF1A08EFE55EE14545779606D SWAP1 PUSH1 0x0 SWAP1 LOG3 POP POP POP JUMP JUMPDEST PUSH1 0x0 DUP2 DUP2 MSTORE PUSH1 0x2 PUSH1 0x20 DUP2 SWAP1 MSTORE PUSH1 0x40 DUP3 KECCAK256 DUP1 SLOAD PUSH1 0x1 DUP3 ADD SLOAD PUSH1 0x3 DUP4 ADD SLOAD PUSH1 0x4 DUP5 ADD SLOAD PUSH1 0x5 DUP6 ADD SLOAD PUSH1 0x6 DUP7 ADD SLOAD SWAP7 DUP7 ADD DUP1 SLOAD DUP10 SWAP9 DUP10 SWAP9 PUSH1 0x60 SWAP9 DUP11 SWAP9 DUP10 SWAP9 DUP10 SWAP9 DUP10 SWAP9 SWAP5 SWAP8 SWAP4 SWAP7 PUSH1 0x1 PUSH1 0x1 PUSH1 0xA0 SHL SUB DUP1 DUP6 AND SWAP8 PUSH1 0xFF PUSH1 0x1 PUSH1 0xA0 SHL SWAP1 SWAP7 DIV DUP7 AND SWAP8 SWAP5 SWAP1 SWAP2 AND SWAP5 SWAP3 SWAP4 SWAP3 AND SWAP1 DUP6 SWAP1 PUSH2 0x97C SWAP1 PUSH2 0x10DC JUMP JUMPDEST DUP1 PUSH1 0x1F ADD PUSH1 0x20 DUP1 SWAP2 DIV MUL PUSH1 0x20 ADD PUSH1 0x40 MLOAD SWAP1 DUP2 ADD PUSH1 0x40 MSTORE DUP1 SWAP3 SWAP2 SWAP1 DUP2 DUP2 MSTORE PUSH1 0x20 ADD DUP3 DUP1 SLOAD PUSH2 0x9A8 SWAP1 PUSH2 0x10DC JUMP JUMPDEST DUP1 ISZERO PUSH2 0x9F5 JUMPI DUP1 PUSH1 0x1F LT PUSH2 0x9CA JUMPI PUSH2 0x100 DUP1 DUP4 SLOAD DIV MUL DUP4 MSTORE SWAP2 PUSH1 0x20 ADD SWAP2 PUSH2 0x9F5 JUMP JUMPDEST DUP3 ADD SWAP2 SWAP1 PUSH1 0x0 MSTORE PUSH1 0x20 PUSH1 0x0 KECCAK256 SWAP1 JUMPDEST DUP2 SLOAD DUP2 MSTORE SWAP1 PUSH1 0x1 ADD SWAP1 PUSH1 0x20 ADD DUP1 DUP4 GT PUSH2 0x9D8 JUMPI DUP3 SWAP1 SUB PUSH1 0x1F AND DUP3 ADD SWAP2 JUMPDEST POP POP POP POP POP SWAP5 POP SWAP9 POP SWAP9 POP SWAP9 POP SWAP9 POP SWAP9 POP SWAP9 POP SWAP9 POP SWAP9 POP POP SWAP2 SWAP4 SWAP6 SWAP8 POP SWAP2 SWAP4 SWAP6 SWAP8 JUMP JUMPDEST PUSH1 0x0 DUP3 DUP2 MSTORE PUSH1 0x20 DUP2 SWAP1 MSTORE PUSH1 0x40 SWAP1 KECCAK256 PUSH1 0x1 ADD SLOAD PUSH2 0xA33 DUP2 PUSH2 0xB11 JUMP JUMPDEST PUSH2 0x471 DUP4 DUP4 PUSH2 0xBA2 JUMP JUMPDEST CALLER PUSH1 0x0 SWAP1 DUP2 MSTORE PUSH1 0x3 PUSH1 0x20 MSTORE PUSH1 0x40 SWAP1 KECCAK256 SLOAD PUSH1 0xFF AND ISZERO PUSH2 0xA96 JUMPI PUSH1 0x40 MLOAD PUSH3 0x461BCD PUSH1 0xE5 SHL DUP2 MSTORE PUSH1 0x20 PUSH1 0x4 DUP3 ADD MSTORE PUSH1 0x16 PUSH1 0x24 DUP3 ADD MSTORE PUSH22 0x11125108185B1C9958591E481C9959DA5CDD195C9959 PUSH1 0x52 SHL PUSH1 0x44 DUP3 ADD MSTORE PUSH1 0x64 ADD PUSH2 0x4E2 JUMP JUMPDEST CALLER PUSH1 0x0 DUP2 DUP2 MSTORE PUSH1 0x1 PUSH1 0x20 DUP2 DUP2 MSTORE PUSH1 0x40 DUP1 DUP5 KECCAK256 DUP1 SLOAD PUSH1 0x1 PUSH1 0xA0 SHL PUSH1 0x1 PUSH1 0x1 PUSH1 0xA8 SHL SUB NOT SWAP1 SWAP2 AND PUSH1 0xFF PUSH1 0xA0 SHL NOT DUP9 AND OR OR DUP2 SSTORE PUSH1 0x3 DUP4 MSTORE SWAP4 DUP2 SWAP1 KECCAK256 DUP1 SLOAD PUSH1 0xFF NOT AND SWAP1 SWAP4 OR SWAP1 SWAP3 SSTORE SWAP1 MLOAD DUP4 DUP2 MSTORE SWAP2 SWAP3 SWAP2 PUSH32 0x39BD36EE3D8D2421DE0DCA1341DEE108C31829926315E099953A700898203627 SWAP2 ADD PUSH1 0x40 MLOAD DUP1 SWAP2 SUB SWAP1 LOG2 POP JUMP JUMPDEST PUSH2 0xB1B DUP2 CALLER PUSH2 0xC07 JUMP JUMPDEST POP JUMP JUMPDEST PUSH2 0xB28 DUP3 DUP3 PUSH2 0x5A7 JUMP JUMPDEST PUSH2 0x4F5 JUMPI PUSH1 0x0 DUP3 DUP2 MSTORE PUSH1 0x20 DUP2 DUP2 MSTORE PUSH1 0x40 DUP1 DUP4 KECCAK256 PUSH1 0x1 PUSH1 0x1 PUSH1 0xA0 SHL SUB DUP6 AND DUP5 MSTORE SWAP1 SWAP2 MSTORE SWAP1 KECCAK256 DUP1 SLOAD PUSH1 0xFF NOT AND PUSH1 0x1 OR SWAP1 SSTORE PUSH2 0xB5E CALLER SWAP1 JUMP JUMPDEST PUSH1 0x1 PUSH1 0x1 PUSH1 0xA0 SHL SUB AND DUP2 PUSH1 0x1 PUSH1 0x1 PUSH1 0xA0 SHL SUB AND DUP4 PUSH32 0x2F8788117E7EFF1D82E926EC794901D17C78024A50270940304540A733656F0D PUSH1 0x40 MLOAD PUSH1 0x40 MLOAD DUP1 SWAP2 SUB SWAP1 LOG4 POP POP JUMP JUMPDEST PUSH2 0xBAC DUP3 DUP3 PUSH2 0x5A7 JUMP JUMPDEST ISZERO PUSH2 0x4F5 JUMPI PUSH1 0x0 DUP3 DUP2 MSTORE PUSH1 0x20 DUP2 DUP2 MSTORE PUSH1 0x40 DUP1 DUP4 KECCAK256 PUSH1 0x1 PUSH1 0x1 PUSH1 0xA0 SHL SUB DUP6 AND DUP1 DUP6 MSTORE SWAP3 MSTORE DUP1 DUP4 KECCAK256 DUP1 SLOAD PUSH1 0xFF NOT AND SWAP1 SSTORE MLOAD CALLER SWAP3 DUP6 SWAP2 PUSH32 0xF6391F5C32D9C69D2A47EA670B442974B53935D1EDC7FD64EB21E047A839171B SWAP2 SWAP1 LOG4 POP POP JUMP JUMPDEST PUSH2 0xC11 DUP3 DUP3 PUSH2 0x5A7 JUMP JUMPDEST PUSH2 0x4F5 JUMPI PUSH2 0xC1E DUP2 PUSH2 0xC60 JUMP JUMPDEST PUSH2 0xC29 DUP4 PUSH1 0x20 PUSH2 0xC72 JUMP JUMPDEST PUSH1 0x40 MLOAD PUSH1 0x20 ADD PUSH2 0xC3A SWAP3 SWAP2 SWAP1 PUSH2 0x12DC JUMP JUMPDEST PUSH1 0x40 DUP1 MLOAD PUSH1 0x1F NOT DUP2 DUP5 SUB ADD DUP2 MSTORE SWAP1 DUP3 SWAP1 MSTORE PUSH3 0x461BCD PUSH1 0xE5 SHL DUP3 MSTORE PUSH2 0x4E2 SWAP2 PUSH1 0x4 ADD PUSH2 0x1351 JUMP JUMPDEST PUSH1 0x60 PUSH2 0x35B PUSH1 0x1 PUSH1 0x1 PUSH1 0xA0 SHL SUB DUP4 AND PUSH1 0x14 JUMPDEST PUSH1 0x60 PUSH1 0x0 PUSH2 0xC81 DUP4 PUSH1 0x2 PUSH2 0x1364 JUMP JUMPDEST PUSH2 0xC8C SWAP1 PUSH1 0x2 PUSH2 0x12A3 JUMP JUMPDEST PUSH8 0xFFFFFFFFFFFFFFFF DUP2 GT ISZERO PUSH2 0xCA4 JUMPI PUSH2 0xCA4 PUSH2 0xFE6 JUMP JUMPDEST PUSH1 0x40 MLOAD SWAP1 DUP1 DUP3 MSTORE DUP1 PUSH1 0x1F ADD PUSH1 0x1F NOT AND PUSH1 0x20 ADD DUP3 ADD PUSH1 0x40 MSTORE DUP1 ISZERO PUSH2 0xCCE JUMPI PUSH1 0x20 DUP3 ADD DUP2 DUP1 CALLDATASIZE DUP4 CALLDATACOPY ADD SWAP1 POP JUMPDEST POP SWAP1 POP PUSH1 0x3 PUSH1 0xFC SHL DUP2 PUSH1 0x0 DUP2 MLOAD DUP2 LT PUSH2 0xCE9 JUMPI PUSH2 0xCE9 PUSH2 0x137B JUMP JUMPDEST PUSH1 0x20 ADD ADD SWAP1 PUSH1 0x1 PUSH1 0x1 PUSH1 0xF8 SHL SUB NOT AND SWAP1 DUP2 PUSH1 0x0 BYTE SWAP1 MSTORE8 POP PUSH1 0xF PUSH1 0xFB SHL DUP2 PUSH1 0x1 DUP2 MLOAD DUP2 LT PUSH2 0xD18 JUMPI PUSH2 0xD18 PUSH2 0x137B JUMP JUMPDEST PUSH1 0x20 ADD ADD SWAP1 PUSH1 0x1 PUSH1 0x1 PUSH1 0xF8 SHL SUB NOT AND SWAP1 DUP2 PUSH1 0x0 BYTE SWAP1 MSTORE8 POP PUSH1 0x0 PUSH2 0xD3C DUP5 PUSH1 0x2 PUSH2 0x1364 JUMP JUMPDEST PUSH2 0xD47 SWAP1 PUSH1 0x1 PUSH2 0x12A3 JUMP JUMPDEST SWAP1 POP JUMPDEST PUSH1 0x1 DUP2 GT ISZERO PUSH2 0xDBF JUMPI PUSH16 0x181899199A1A9B1B9C1CB0B131B232B3 PUSH1 0x81 SHL DUP6 PUSH1 0xF AND PUSH1 0x10 DUP2 LT PUSH2 0xD7B JUMPI PUSH2 0xD7B PUSH2 0x137B JUMP JUMPDEST BYTE PUSH1 0xF8 SHL DUP3 DUP3 DUP2 MLOAD DUP2 LT PUSH2 0xD91 JUMPI PUSH2 0xD91 PUSH2 0x137B JUMP JUMPDEST PUSH1 0x20 ADD ADD SWAP1 PUSH1 0x1 PUSH1 0x1 PUSH1 0xF8 SHL SUB NOT AND SWAP1 DUP2 PUSH1 0x0 BYTE SWAP1 MSTORE8 POP PUSH1 0x4 SWAP5 SWAP1 SWAP5 SHR SWAP4 PUSH2 0xDB8 DUP2 PUSH2 0x1391 JUMP JUMPDEST SWAP1 POP PUSH2 0xD4A JUMP JUMPDEST POP DUP4 ISZERO PUSH2 0x531 JUMPI PUSH1 0x40 MLOAD PUSH3 0x461BCD PUSH1 0xE5 SHL DUP2 MSTORE PUSH1 0x20 PUSH1 0x4 DUP3 ADD DUP2 SWAP1 MSTORE PUSH1 0x24 DUP3 ADD MSTORE PUSH32 0x537472696E67733A20686578206C656E67746820696E73756666696369656E74 PUSH1 0x44 DUP3 ADD MSTORE PUSH1 0x64 ADD PUSH2 0x4E2 JUMP JUMPDEST PUSH1 0x0 PUSH1 0x20 DUP3 DUP5 SUB SLT ISZERO PUSH2 0xE20 JUMPI PUSH1 0x0 DUP1 REVERT JUMPDEST DUP2 CALLDATALOAD PUSH1 0x1 PUSH1 0x1 PUSH1 0xE0 SHL SUB NOT DUP2 AND DUP2 EQ PUSH2 0x531 JUMPI PUSH1 0x0 DUP1 REVERT JUMPDEST PUSH1 0x0 PUSH1 0x20 DUP3 DUP5 SUB SLT ISZERO PUSH2 0xE4A JUMPI PUSH1 0x0 DUP1 REVERT JUMPDEST POP CALLDATALOAD SWAP2 SWAP1 POP JUMP JUMPDEST PUSH4 0x4E487B71 PUSH1 0xE0 SHL PUSH1 0x0 MSTORE PUSH1 0x21 PUSH1 0x4 MSTORE PUSH1 0x24 PUSH1 0x0 REVERT JUMPDEST PUSH1 0x5 DUP2 LT PUSH2 0xE77 JUMPI PUSH2 0xE77 PUSH2 0xE51 JUMP JUMPDEST SWAP1 MSTORE JUMP JUMPDEST PUSH1 0x0 JUMPDEST DUP4 DUP2 LT ISZERO PUSH2 0xE96 JUMPI DUP2 DUP2 ADD MLOAD DUP4 DUP3 ADD MSTORE PUSH1 0x20 ADD PUSH2 0xE7E JUMP JUMPDEST POP POP PUSH1 0x0 SWAP2 ADD MSTORE JUMP JUMPDEST PUSH1 0x0 DUP2 MLOAD DUP1 DUP5 MSTORE PUSH2 0xEB7 DUP2 PUSH1 0x20 DUP7 ADD PUSH1 0x20 DUP7 ADD PUSH2 0xE7B JUMP JUMPDEST PUSH1 0x1F ADD PUSH1 0x1F NOT AND SWAP3 SWAP1 SWAP3 ADD PUSH1 0x20 ADD SWAP3 SWAP2 POP POP JUMP JUMPDEST DUP9 DUP2 MSTORE PUSH1 0x1 PUSH1 0x1 PUSH1 0xA0 SHL SUB DUP9 DUP2 AND PUSH1 0x20 DUP4 ADD MSTORE PUSH1 0x0 SWAP1 PUSH2 0x100 SWAP1 PUSH2 0xEF2 PUSH1 0x40 DUP6 ADD DUP12 PUSH2 0xE67 JUMP JUMPDEST DUP2 PUSH1 0x60 DUP6 ADD MSTORE PUSH2 0xF04 DUP3 DUP6 ADD DUP11 PUSH2 0xE9F JUMP JUMPDEST SWAP3 POP DUP1 DUP9 AND PUSH1 0x80 DUP6 ADD MSTORE POP POP DUP5 PUSH1 0xA0 DUP4 ADD MSTORE DUP4 PUSH1 0xC0 DUP4 ADD MSTORE PUSH1 0x3 DUP4 LT PUSH2 0xF2C JUMPI PUSH2 0xF2C PUSH2 0xE51 JUMP JUMPDEST DUP3 PUSH1 0xE0 DUP4 ADD MSTORE SWAP10 SWAP9 POP POP POP POP POP POP POP POP POP JUMP JUMPDEST DUP1 CALLDATALOAD PUSH1 0x1 PUSH1 0x1 PUSH1 0xA0 SHL SUB DUP2 AND DUP2 EQ PUSH2 0xF56 JUMPI PUSH1 0x0 DUP1 REVERT JUMPDEST SWAP2 SWAP1 POP JUMP JUMPDEST PUSH1 0x0 DUP1 PUSH1 0x40 DUP4 DUP6 SUB SLT ISZERO PUSH2 0xF6E JUMPI PUSH1 0x0 DUP1 REVERT JUMPDEST DUP3 CALLDATALOAD SWAP2 POP PUSH2 0xF7E PUSH1 0x20 DUP5 ADD PUSH2 0xF3F JUMP JUMPDEST SWAP1 POP SWAP3 POP SWAP3 SWAP1 POP JUMP JUMPDEST PUSH1 0x0 PUSH1 0x20 DUP3 DUP5 SUB SLT ISZERO PUSH2 0xF99 JUMPI PUSH1 0x0 DUP1 REVERT JUMPDEST PUSH2 0x531 DUP3 PUSH2 0xF3F JUMP JUMPDEST PUSH1 0x20 DUP1 DUP3 MSTORE DUP3 MLOAD DUP3 DUP3 ADD DUP2 SWAP1 MSTORE PUSH1 0x0 SWAP2 SWAP1 DUP5 DUP3 ADD SWAP1 PUSH1 0x40 DUP6 ADD SWAP1 DUP5 JUMPDEST DUP2 DUP2 LT ISZERO PUSH2 0xFDA JUMPI DUP4 MLOAD DUP4 MSTORE SWAP3 DUP5 ADD SWAP3 SWAP2 DUP5 ADD SWAP2 PUSH1 0x1 ADD PUSH2 0xFBE JUMP JUMPDEST POP SWAP1 SWAP7 SWAP6 POP POP POP POP POP POP JUMP JUMPDEST PUSH4 0x4E487B71 PUSH1 0xE0 SHL PUSH1 0x0 MSTORE PUSH1 0x41 PUSH1 0x4 MSTORE PUSH1 0x24 PUSH1 0x0 REVERT JUMPDEST PUSH1 0x0 DUP1 PUSH1 0x0 DUP1 PUSH1 0x80 DUP6 DUP8 SUB SLT ISZERO PUSH2 0x1012 JUMPI PUSH1 0x0 DUP1 REVERT JUMPDEST PUSH2 0x101B DUP6 PUSH2 0xF3F JUMP JUMPDEST SWAP4 POP PUSH1 0x20 DUP6 ADD CALLDATALOAD PUSH1 0x5 DUP2 LT PUSH2 0x102F JUMPI PUSH1 0x0 DUP1 REVERT JUMPDEST SWAP3 POP PUSH1 0x40 DUP6 ADD CALLDATALOAD PUSH8 0xFFFFFFFFFFFFFFFF DUP1 DUP3 GT ISZERO PUSH2 0x104C JUMPI PUSH1 0x0 DUP1 REVERT JUMPDEST DUP2 DUP8 ADD SWAP2 POP DUP8 PUSH1 0x1F DUP4 ADD SLT PUSH2 0x1060 JUMPI PUSH1 0x0 DUP1 REVERT JUMPDEST DUP2 CALLDATALOAD DUP2 DUP2 GT ISZERO PUSH2 0x1072 JUMPI PUSH2 0x1072 PUSH2 0xFE6 JUMP JUMPDEST PUSH1 0x40 MLOAD PUSH1 0x1F DUP3 ADD PUSH1 0x1F NOT SWAP1 DUP2 AND PUSH1 0x3F ADD AND DUP2 ADD SWAP1 DUP4 DUP3 GT DUP2 DUP4 LT OR ISZERO PUSH2 0x109A JUMPI PUSH2 0x109A PUSH2 0xFE6 JUMP JUMPDEST DUP2 PUSH1 0x40 MSTORE DUP3 DUP2 MSTORE DUP11 PUSH1 0x20 DUP5 DUP8 ADD ADD GT ISZERO PUSH2 0x10B3 JUMPI PUSH1 0x0 DUP1 REVERT JUMPDEST DUP3 PUSH1 0x20 DUP7 ADD PUSH1 0x20 DUP4 ADD CALLDATACOPY PUSH1 0x0 SWAP3 DUP2 ADD PUSH1 0x20 ADD SWAP3 SWAP1 SWAP3 MSTORE POP SWAP6 SWAP9 SWAP5 SWAP8 POP SWAP5 SWAP6 PUSH1 0x60 ADD CALLDATALOAD SWAP5 POP POP POP POP JUMP JUMPDEST PUSH1 0x1 DUP2 DUP2 SHR SWAP1 DUP3 AND DUP1 PUSH2 0x10F0 JUMPI PUSH1 0x7F DUP3 AND SWAP2 POP JUMPDEST PUSH1 0x20 DUP3 LT DUP2 SUB PUSH2 0x1110 JUMPI PUSH4 0x4E487B71 PUSH1 0xE0 SHL PUSH1 0x0 MSTORE PUSH1 0x22 PUSH1 0x4 MSTORE PUSH1 0x24 PUSH1 0x0 REVERT JUMPDEST POP SWAP2 SWAP1 POP JUMP JUMPDEST PUSH1 0x0 PUSH12 0xFFFFFFFFFFFFFFFFFFFFFFFF NOT DUP1 DUP9 PUSH1 0x60 SHL AND DUP4 MSTORE PUSH1 0x5 DUP8 LT PUSH2 0x113E JUMPI PUSH2 0x113E PUSH2 0xE51 JUMP JUMPDEST DUP7 PUSH1 0xF8 SHL PUSH1 0x14 DUP5 ADD MSTORE DUP6 PUSH1 0x15 DUP5 ADD MSTORE DUP5 MLOAD PUSH2 0x1160 DUP2 PUSH1 0x35 DUP7 ADD PUSH1 0x20 DUP10 ADD PUSH2 0xE7B JUMP JUMPDEST PUSH1 0x60 SWAP5 SWAP1 SWAP5 SHL AND SWAP2 SWAP1 SWAP3 ADD PUSH1 0x35 DUP2 ADD SWAP2 SWAP1 SWAP2 MSTORE PUSH1 0x49 ADD SWAP6 SWAP5 POP POP POP POP POP JUMP JUMPDEST PUSH1 0x1F DUP3 GT ISZERO PUSH2 0x471 JUMPI PUSH1 0x0 DUP2 DUP2 MSTORE PUSH1 0x20 DUP2 KECCAK256 PUSH1 0x1F DUP6 ADD PUSH1 0x5 SHR DUP2 ADD PUSH1 0x20 DUP7 LT ISZERO PUSH2 0x11A6 JUMPI POP DUP1 JUMPDEST PUSH1 0x1F DUP6 ADD PUSH1 0x5 SHR DUP3 ADD SWAP2 POP JUMPDEST DUP2 DUP2 LT ISZERO PUSH2 0x11C5 JUMPI DUP3 DUP2 SSTORE PUSH1 0x1 ADD PUSH2 0x11B2 JUMP JUMPDEST POP POP POP POP POP POP JUMP JUMPDEST DUP2 MLOAD PUSH8 0xFFFFFFFFFFFFFFFF DUP2 GT ISZERO PUSH2 0x11E7 JUMPI PUSH2 0x11E7 PUSH2 0xFE6 JUMP JUMPDEST PUSH2 0x11FB DUP2 PUSH2 0x11F5 DUP5 SLOAD PUSH2 0x10DC JUMP JUMPDEST DUP5 PUSH2 0x117F JUMP JUMPDEST PUSH1 0x20 DUP1 PUSH1 0x1F DUP4 GT PUSH1 0x1 DUP2 EQ PUSH2 0x1230 JUMPI PUSH1 0x0 DUP5 ISZERO PUSH2 0x1218 JUMPI POP DUP6 DUP4 ADD MLOAD JUMPDEST PUSH1 0x0 NOT PUSH1 0x3 DUP7 SWAP1 SHL SHR NOT AND PUSH1 0x1 DUP6 SWAP1 SHL OR DUP6 SSTORE PUSH2 0x11C5 JUMP JUMPDEST PUSH1 0x0 DUP6 DUP2 MSTORE PUSH1 0x20 DUP2 KECCAK256 PUSH1 0x1F NOT DUP7 AND SWAP2 JUMPDEST DUP3 DUP2 LT ISZERO PUSH2 0x125F JUMPI DUP9 DUP7 ADD MLOAD DUP3 SSTORE SWAP5 DUP5 ADD SWAP5 PUSH1 0x1 SWAP1 SWAP2 ADD SWAP1 DUP5 ADD PUSH2 0x1240 JUMP JUMPDEST POP DUP6 DUP3 LT ISZERO PUSH2 0x127D JUMPI DUP8 DUP6 ADD MLOAD PUSH1 0x0 NOT PUSH1 0x3 DUP9 SWAP1 SHL PUSH1 0xF8 AND SHR NOT AND DUP2 SSTORE JUMPDEST POP POP POP POP POP PUSH1 0x1 SWAP1 DUP2 SHL ADD SWAP1 SSTORE POP JUMP JUMPDEST PUSH4 0x4E487B71 PUSH1 0xE0 SHL PUSH1 0x0 MSTORE PUSH1 0x11 PUSH1 0x4 MSTORE PUSH1 0x24 PUSH1 0x0 REVERT JUMPDEST DUP1 DUP3 ADD DUP1 DUP3 GT ISZERO PUSH2 0x35B JUMPI PUSH2 0x35B PUSH2 0x128D JUMP JUMPDEST PUSH1 0x40 DUP2 ADD PUSH2 0x12C4 DUP3 DUP6 PUSH2 0xE67 JUMP JUMPDEST PUSH1 0x1 PUSH1 0x1 PUSH1 0xA0 SHL SUB SWAP3 SWAP1 SWAP3 AND PUSH1 0x20 SWAP2 SWAP1 SWAP2 ADD MSTORE SWAP2 SWAP1 POP JUMP JUMPDEST PUSH32 0x416363657373436F6E74726F6C3A206163636F756E7420000000000000000000 DUP2 MSTORE PUSH1 0x0 DUP4 MLOAD PUSH2 0x1314 DUP2 PUSH1 0x17 DUP6 ADD PUSH1 0x20 DUP9 ADD PUSH2 0xE7B JUMP JUMPDEST PUSH17 0x1034B99036B4B9B9B4B733903937B6329 PUSH1 0x7D SHL PUSH1 0x17 SWAP2 DUP5 ADD SWAP2 DUP3 ADD MSTORE DUP4 MLOAD PUSH2 0x1345 DUP2 PUSH1 0x28 DUP5 ADD PUSH1 0x20 DUP9 ADD PUSH2 0xE7B JUMP JUMPDEST ADD PUSH1 0x28 ADD SWAP5 SWAP4 POP POP POP POP JUMP JUMPDEST PUSH1 0x20 DUP2 MSTORE PUSH1 0x0 PUSH2 0x531 PUSH1 0x20 DUP4 ADD DUP5 PUSH2 0xE9F JUMP JUMPDEST DUP1 DUP3 MUL DUP2 ISZERO DUP3 DUP3 DIV DUP5 EQ OR PUSH2 0x35B JUMPI PUSH2 0x35B PUSH2 0x128D JUMP JUMPDEST PUSH4 0x4E487B71 PUSH1 0xE0 SHL PUSH1 0x0 MSTORE PUSH1 0x32 PUSH1 0x4 MSTORE PUSH1 0x24 PUSH1 0x0 REVERT JUMPDEST PUSH1 0x0 DUP2 PUSH2 0x13A0 JUMPI PUSH2 0x13A0 PUSH2 0x128D JUMP JUMPDEST POP PUSH1 0x0 NOT ADD SWAP1 JUMP INVALID LOG2 PUSH5 0x6970667358 0x22 SLT KECCAK256 LOG2 CALLVALUE GAS MOD 0xCF KECCAK256 PUSH8 0x2456B596C2768B1B 0x27 PC 0x4D PUSH22 0x138513329E1E854AD9E5E2ABAB64736F6C6343000814 STOP CALLER "},"methodIdentifiers":{"DEFAULT_ADMIN_ROLE()":"a217fddf","ISSUER_ROLE()":"82aefa24","VERIFIER_ROLE()":"e7705db6","credentials(bytes32)":"299d0348","getCredential(bytes32)":"d1be4883","getCredentials(address)":"84270608","getRoleAdmin(bytes32)":"248a9ca3","grantRole(bytes32,address)":"2f2ff15d","hasRole(bytes32,address)":"91d14854","identities(address)":"f653b81e","issueCredential(address,uint8,string,uint256)":"b76c8ead","registerDID()":"f6a9900b","registeredDIDs(address)":"d8ab19f8","renounceRole(bytes32,address)":"36568abe","revokeCredential(bytes32)":"ca6eec78","revokeRole(bytes32,address)":"d547741f","supportsInterface(bytes4)":"01ffc9a7","verifyCredential(bytes32)":"4dbf87cc"}}}}}