{
  "_format": "hh-sol-artifact-1",
  "contractName": "InvestmentManager",
  "sourceName": "contracts/InvestmentManager.sol",
  "abi": [
    {
      "inputs": [
        {
          "internalType": "address",
          "name": "_projectFactoryAddress",
          "type": "address"
        },
        {
          "internalType": "address payable",
          "name": "_usdcAddress",
          "type": "address"
        }
      ],
      "stateMutability": "nonpayable",
      "type": "constructor"
    },
    {
      "anonymous": false,
      "inputs": [
        {
          "indexed": true,
          "internalType": "uint256",
          "name": "projectId",
          "type": "uint256"
        },
        {
          "indexed": false,
          "internalType": "uint256",
          "name": "amount",
          "type": "uint256"
        },
        {
          "indexed": false,
          "internalType": "address",
          "name": "farmer",
          "type": "address"
        }
      ],
      "name": "FundsReleasedToFarmer",
      "type": "event"
    },
    {
      "anonymous": false,
      "inputs": [
        {
          "indexed": true,
          "internalType": "address",
          "name": "investor",
          "type": "address"
        },
        {
          "indexed": true,
          "internalType": "uint256",
          "name": "projectId",
          "type": "uint256"
        },
        {
          "indexed": false,
          "internalType": "uint256",
          "name": "amountUSDC",
          "type": "uint256"
        },
        {
          "indexed": false,
          "internalType": "uint256",
          "name": "amountBDT",
          "type": "uint256"
        }
      ],
      "name": "Invested",
      "type": "event"
    },
    {
      "anonymous": false,
      "inputs": [
        {
          "indexed": true,
          "internalType": "uint256",
          "name": "projectId",
          "type": "uint256"
        },
        {
          "indexed": false,
          "internalType": "uint256",
          "name": "totalAmount",
          "type": "uint256"
        },
        {
          "indexed": false,
          "internalType": "address",
          "name": "farmer",
          "type": "address"
        }
      ],
      "name": "LoanRepaid",
      "type": "event"
    },
    {
      "anonymous": false,
      "inputs": [
        {
          "indexed": false,
          "internalType": "uint256",
          "name": "projectId",
          "type": "uint256"
        },
        {
          "indexed": false,
          "internalType": "uint256",
          "name": "feeUSDC",
          "type": "uint256"
        }
      ],
      "name": "PlatformFeeCollected",
      "type": "event"
    },
    {
      "anonymous": false,
      "inputs": [
        {
          "indexed": true,
          "internalType": "uint256",
          "name": "projectId",
          "type": "uint256"
        },
        {
          "indexed": false,
          "internalType": "uint256",
          "name": "amountOwed",
          "type": "uint256"
        }
      ],
      "name": "ProjectDefaulted",
      "type": "event"
    },
    {
      "anonymous": false,
      "inputs": [
        {
          "indexed": true,
          "internalType": "bytes32",
          "name": "role",
          "type": "bytes32"
        },
        {
          "indexed": true,
          "internalType": "bytes32",
          "name": "previousAdminRole",
          "type": "bytes32"
        },
        {
          "indexed": true,
          "internalType": "bytes32",
          "name": "newAdminRole",
          "type": "bytes32"
        }
      ],
      "name": "RoleAdminChanged",
      "type": "event"
    },
    {
      "anonymous": false,
      "inputs": [
        {
          "indexed": true,
          "internalType": "bytes32",
          "name": "role",
          "type": "bytes32"
        },
        {
          "indexed": true,
          "internalType": "address",
          "name": "account",
          "type": "address"
        },
        {
          "indexed": true,
          "internalType": "address",
          "name": "sender",
          "type": "address"
        }
      ],
      "name": "RoleGranted",
      "type": "event"
    },
    {
      "anonymous": false,
      "inputs": [
        {
          "indexed": true,
          "internalType": "bytes32",
          "name": "role",
          "type": "bytes32"
        },
        {
          "indexed": true,
          "internalType": "address",
          "name": "account",
          "type": "address"
        },
        {
          "indexed": true,
          "internalType": "address",
          "name": "sender",
          "type": "address"
        }
      ],
      "name": "RoleRevoked",
      "type": "event"
    },
    {
      "anonymous": false,
      "inputs": [
        {
          "indexed": true,
          "internalType": "address",
          "name": "investor",
          "type": "address"
        },
        {
          "indexed": true,
          "internalType": "uint256",
          "name": "projectId",
          "type": "uint256"
        },
        {
          "indexed": false,
          "internalType": "uint256",
          "name": "amountUSDC",
          "type": "uint256"
        }
      ],
      "name": "Withdrawn",
      "type": "event"
    },
    {
      "anonymous": false,
      "inputs": [
        {
          "indexed": true,
          "internalType": "address",
          "name": "investor",
          "type": "address"
        },
        {
          "indexed": false,
          "internalType": "uint256",
          "name": "amount",
          "type": "uint256"
        }
      ],
      "name": "YieldClaimed",
      "type": "event"
    },
    {
      "anonymous": false,
      "inputs": [
        {
          "indexed": true,
          "internalType": "uint256",
          "name": "projectId",
          "type": "uint256"
        },
        {
          "indexed": false,
          "internalType": "uint256",
          "name": "totalYield",
          "type": "uint256"
        },
        {
          "indexed": false,
          "internalType": "uint256",
          "name": "investorCount",
          "type": "uint256"
        }
      ],
      "name": "YieldDistributed",
      "type": "event"
    },
    {
      "inputs": [],
      "name": "ANNUAL_YIELD_RATE",
      "outputs": [
        {
          "internalType": "uint256",
          "name": "",
          "type": "uint256"
        }
      ],
      "stateMutability": "view",
      "type": "function"
    },
    {
      "inputs": [],
      "name": "DEFAULT_ADMIN_ROLE",
      "outputs": [
        {
          "internalType": "bytes32",
          "name": "",
          "type": "bytes32"
        }
      ],
      "stateMutability": "view",
      "type": "function"
    },
    {
      "inputs": [],
      "name": "FARMER_ROLE",
      "outputs": [
        {
          "internalType": "bytes32",
          "name": "",
          "type": "bytes32"
        }
      ],
      "stateMutability": "view",
      "type": "function"
    },
    {
      "inputs": [],
      "name": "INVESTOR_ROLE",
      "outputs": [
        {
          "internalType": "bytes32",
          "name": "",
          "type": "bytes32"
        }
      ],
      "stateMutability": "view",
      "type": "function"
    },
    {
      "inputs": [],
      "name": "MIN_INVESTMENT_USDC",
      "outputs": [
        {
          "internalType": "uint256",
          "name": "",
          "type": "uint256"
        }
      ],
      "stateMutability": "view",
      "type": "function"
    },
    {
      "inputs": [],
      "name": "PLATFORM_FEE_PERCENT",
      "outputs": [
        {
          "internalType": "uint256",
          "name": "",
          "type": "uint256"
        }
      ],
      "stateMutability": "view",
      "type": "function"
    },
    {
      "inputs": [],
      "name": "PROJECT_MANAGER_ROLE",
      "outputs": [
        {
          "internalType": "bytes32",
          "name": "",
          "type": "bytes32"
        }
      ],
      "stateMutability": "view",
      "type": "function"
    },
    {
      "inputs": [],
      "name": "REPAYMENT_GRACE_PERIOD",
      "outputs": [
        {
          "internalType": "uint256",
          "name": "",
          "type": "uint256"
        }
      ],
      "stateMutability": "view",
      "type": "function"
    },
    {
      "inputs": [],
      "name": "USDC",
      "outputs": [
        {
          "internalType": "contract IERC20",
          "name": "",
          "type": "address"
        }
      ],
      "stateMutability": "view",
      "type": "function"
    },
    {
      "inputs": [
        {
          "internalType": "uint256",
          "name": "amountUSDC",
          "type": "uint256"
        },
        {
          "internalType": "uint256",
          "name": "durationDays",
          "type": "uint256"
        }
      ],
      "name": "calculateExpectedReturn",
      "outputs": [
        {
          "internalType": "uint256",
          "name": "",
          "type": "uint256"
        }
      ],
      "stateMutability": "pure",
      "type": "function"
    },
    {
      "inputs": [],
      "name": "claimYield",
      "outputs": [],
      "stateMutability": "nonpayable",
      "type": "function"
    },
    {
      "inputs": [
        {
          "internalType": "uint256",
          "name": "amountUSDC",
          "type": "uint256"
        }
      ],
      "name": "emergencyWithdraw",
      "outputs": [],
      "stateMutability": "nonpayable",
      "type": "function"
    },
    {
      "inputs": [
        {
          "internalType": "uint256",
          "name": "amountUSDC",
          "type": "uint256"
        }
      ],
      "name": "getApprovalData",
      "outputs": [
        {
          "internalType": "address",
          "name": "",
          "type": "address"
        },
        {
          "internalType": "bytes",
          "name": "",
          "type": "bytes"
        }
      ],
      "stateMutability": "view",
      "type": "function"
    },
    {
      "inputs": [
        {
          "internalType": "address",
          "name": "investor",
          "type": "address"
        }
      ],
      "name": "getClaimableYield",
      "outputs": [
        {
          "internalType": "uint256",
          "name": "claimableAmount",
          "type": "uint256"
        }
      ],
      "stateMutability": "view",
      "type": "function"
    },
    {
      "inputs": [],
      "name": "getContractBalance",
      "outputs": [
        {
          "internalType": "uint256",
          "name": "",
          "type": "uint256"
        }
      ],
      "stateMutability": "view",
      "type": "function"
    },
    {
      "inputs": [],
      "name": "getContractETHBalance",
      "outputs": [
        {
          "internalType": "uint256",
          "name": "",
          "type": "uint256"
        }
      ],
      "stateMutability": "view",
      "type": "function"
    },
    {
      "inputs": [
        {
          "internalType": "address",
          "name": "investor",
          "type": "address"
        },
        {
          "internalType": "uint256",
          "name": "projectId",
          "type": "uint256"
        }
      ],
      "name": "getInvestmentShare",
      "outputs": [
        {
          "internalType": "uint256",
          "name": "",
          "type": "uint256"
        }
      ],
      "stateMutability": "view",
      "type": "function"
    },
    {
      "inputs": [
        {
          "internalType": "address",
          "name": "investor",
          "type": "address"
        },
        {
          "internalType": "uint256",
          "name": "projectId",
          "type": "uint256"
        }
      ],
      "name": "getInvestorProjectDetails",
      "outputs": [
        {
          "internalType": "uint256",
          "name": "amountUSDC",
          "type": "uint256"
        },
        {
          "internalType": "uint256",
          "name": "amountBDT",
          "type": "uint256"
        },
        {
          "internalType": "uint256",
          "name": "expectedReturnUSDC",
          "type": "uint256"
        },
        {
          "internalType": "uint256",
          "name": "actualReturnUSDC",
          "type": "uint256"
        },
        {
          "internalType": "bool",
          "name": "yieldClaimed",
          "type": "bool"
        },
        {
          "internalType": "bool",
          "name": "projectCompleted_",
          "type": "bool"
        }
      ],
      "stateMutability": "view",
      "type": "function"
    },
    {
      "inputs": [
        {
          "internalType": "address",
          "name": "investor",
          "type": "address"
        }
      ],
      "name": "getInvestorProjects",
      "outputs": [
        {
          "internalType": "uint256[]",
          "name": "",
          "type": "uint256[]"
        }
      ],
      "stateMutability": "view",
      "type": "function"
    },
    {
      "inputs": [
        {
          "internalType": "uint256",
          "name": "projectId",
          "type": "uint256"
        }
      ],
      "name": "getProjectFundingBDT",
      "outputs": [
        {
          "internalType": "uint256",
          "name": "",
          "type": "uint256"
        }
      ],
      "stateMutability": "view",
      "type": "function"
    },
    {
      "inputs": [
        {
          "internalType": "uint256",
          "name": "projectId",
          "type": "uint256"
        }
      ],
      "name": "getProjectFundingUSDC",
      "outputs": [
        {
          "internalType": "uint256",
          "name": "",
          "type": "uint256"
        }
      ],
      "stateMutability": "view",
      "type": "function"
    },
    {
      "inputs": [
        {
          "internalType": "uint256",
          "name": "projectId",
          "type": "uint256"
        }
      ],
      "name": "getProjectInvestments",
      "outputs": [
        {
          "components": [
            {
              "internalType": "address",
              "name": "investor",
              "type": "address"
            },
            {
              "internalType": "uint256",
              "name": "projectId",
              "type": "uint256"
            },
            {
              "internalType": "uint256",
              "name": "amountUSDC",
              "type": "uint256"
            },
            {
              "internalType": "uint256",
              "name": "timestamp",
              "type": "uint256"
            },
            {
              "internalType": "bool",
              "name": "claimed",
              "type": "bool"
            },
            {
              "internalType": "uint256",
              "name": "expectedReturnUSDC",
              "type": "uint256"
            },
            {
              "internalType": "uint256",
              "name": "actualReturnUSDC",
              "type": "uint256"
            }
          ],
          "internalType": "struct InvestmentManager.Investment[]",
          "name": "",
          "type": "tuple[]"
        }
      ],
      "stateMutability": "view",
      "type": "function"
    },
    {
      "inputs": [
        {
          "internalType": "uint256",
          "name": "projectId",
          "type": "uint256"
        }
      ],
      "name": "getProjectYieldInfo",
      "outputs": [
        {
          "internalType": "bool",
          "name": "isCompleted",
          "type": "bool"
        },
        {
          "internalType": "uint256",
          "name": "principalAmount",
          "type": "uint256"
        },
        {
          "internalType": "uint256",
          "name": "yieldAmount",
          "type": "uint256"
        },
        {
          "internalType": "uint256",
          "name": "totalRepayment",
          "type": "uint256"
        },
        {
          "internalType": "bool",
          "name": "isFullyRepaid",
          "type": "bool"
        },
        {
          "internalType": "uint256",
          "name": "repaymentDeadline",
          "type": "uint256"
        },
        {
          "internalType": "address",
          "name": "farmer",
          "type": "address"
        }
      ],
      "stateMutability": "view",
      "type": "function"
    },
    {
      "inputs": [
        {
          "internalType": "uint256",
          "name": "projectId",
          "type": "uint256"
        }
      ],
      "name": "getRequiredRepayment",
      "outputs": [
        {
          "internalType": "uint256",
          "name": "",
          "type": "uint256"
        }
      ],
      "stateMutability": "view",
      "type": "function"
    },
    {
      "inputs": [
        {
          "internalType": "bytes32",
          "name": "role",
          "type": "bytes32"
        }
      ],
      "name": "getRoleAdmin",
      "outputs": [
        {
          "internalType": "bytes32",
          "name": "",
          "type": "bytes32"
        }
      ],
      "stateMutability": "view",
      "type": "function"
    },
    {
      "inputs": [
        {
          "internalType": "bytes32",
          "name": "role",
          "type": "bytes32"
        },
        {
          "internalType": "address",
          "name": "account",
          "type": "address"
        }
      ],
      "name": "grantRole",
      "outputs": [],
      "stateMutability": "nonpayable",
      "type": "function"
    },
    {
      "inputs": [
        {
          "internalType": "bytes32",
          "name": "role",
          "type": "bytes32"
        },
        {
          "internalType": "address",
          "name": "account",
          "type": "address"
        }
      ],
      "name": "hasRole",
      "outputs": [
        {
          "internalType": "bool",
          "name": "",
          "type": "bool"
        }
      ],
      "stateMutability": "view",
      "type": "function"
    },
    {
      "inputs": [
        {
          "internalType": "uint256",
          "name": "projectId",
          "type": "uint256"
        },
        {
          "internalType": "uint256",
          "name": "amountUSDC",
          "type": "uint256"
        }
      ],
      "name": "invest",
      "outputs": [],
      "stateMutability": "nonpayable",
      "type": "function"
    },
    {
      "inputs": [
        {
          "internalType": "address",
          "name": "",
          "type": "address"
        },
        {
          "internalType": "uint256",
          "name": "",
          "type": "uint256"
        }
      ],
      "name": "investorProjectAmount",
      "outputs": [
        {
          "internalType": "uint256",
          "name": "",
          "type": "uint256"
        }
      ],
      "stateMutability": "view",
      "type": "function"
    },
    {
      "inputs": [
        {
          "internalType": "address",
          "name": "",
          "type": "address"
        },
        {
          "internalType": "uint256",
          "name": "",
          "type": "uint256"
        }
      ],
      "name": "investorProjects",
      "outputs": [
        {
          "internalType": "uint256",
          "name": "",
          "type": "uint256"
        }
      ],
      "stateMutability": "view",
      "type": "function"
    },
    {
      "inputs": [
        {
          "internalType": "uint256",
          "name": "projectId",
          "type": "uint256"
        }
      ],
      "name": "markProjectDefaulted",
      "outputs": [],
      "stateMutability": "nonpayable",
      "type": "function"
    },
    {
      "inputs": [
        {
          "internalType": "address",
          "name": "",
          "type": "address"
        }
      ],
      "name": "pendingYields",
      "outputs": [
        {
          "internalType": "uint256",
          "name": "",
          "type": "uint256"
        }
      ],
      "stateMutability": "view",
      "type": "function"
    },
    {
      "inputs": [
        {
          "internalType": "uint256",
          "name": "",
          "type": "uint256"
        }
      ],
      "name": "projectCompleted",
      "outputs": [
        {
          "internalType": "bool",
          "name": "",
          "type": "bool"
        }
      ],
      "stateMutability": "view",
      "type": "function"
    },
    {
      "inputs": [],
      "name": "projectFactory",
      "outputs": [
        {
          "internalType": "contract ProjectFactory",
          "name": "",
          "type": "address"
        }
      ],
      "stateMutability": "view",
      "type": "function"
    },
    {
      "inputs": [
        {
          "internalType": "uint256",
          "name": "",
          "type": "uint256"
        }
      ],
      "name": "projectFunding",
      "outputs": [
        {
          "internalType": "uint256",
          "name": "",
          "type": "uint256"
        }
      ],
      "stateMutability": "view",
      "type": "function"
    },
    {
      "inputs": [
        {
          "internalType": "uint256",
          "name": "",
          "type": "uint256"
        },
        {
          "internalType": "uint256",
          "name": "",
          "type": "uint256"
        }
      ],
      "name": "projectInvestments",
      "outputs": [
        {
          "internalType": "address",
          "name": "investor",
          "type": "address"
        },
        {
          "internalType": "uint256",
          "name": "projectId",
          "type": "uint256"
        },
        {
          "internalType": "uint256",
          "name": "amountUSDC",
          "type": "uint256"
        },
        {
          "internalType": "uint256",
          "name": "timestamp",
          "type": "uint256"
        },
        {
          "internalType": "bool",
          "name": "claimed",
          "type": "bool"
        },
        {
          "internalType": "uint256",
          "name": "expectedReturnUSDC",
          "type": "uint256"
        },
        {
          "internalType": "uint256",
          "name": "actualReturnUSDC",
          "type": "uint256"
        }
      ],
      "stateMutability": "view",
      "type": "function"
    },
    {
      "inputs": [
        {
          "internalType": "uint256",
          "name": "",
          "type": "uint256"
        }
      ],
      "name": "projectLoans",
      "outputs": [
        {
          "internalType": "uint256",
          "name": "principalAmount",
          "type": "uint256"
        },
        {
          "internalType": "uint256",
          "name": "yieldAmount",
          "type": "uint256"
        },
        {
          "internalType": "uint256",
          "name": "totalRepayment",
          "type": "uint256"
        },
        {
          "internalType": "uint256",
          "name": "repaidAmount",
          "type": "uint256"
        },
        {
          "internalType": "bool",
          "name": "isFullyRepaid",
          "type": "bool"
        },
        {
          "internalType": "uint256",
          "name": "repaymentDeadline",
          "type": "uint256"
        },
        {
          "internalType": "address",
          "name": "farmer",
          "type": "address"
        }
      ],
      "stateMutability": "view",
      "type": "function"
    },
    {
      "inputs": [
        {
          "internalType": "uint256",
          "name": "",
          "type": "uint256"
        }
      ],
      "name": "projectRepaymentAmount",
      "outputs": [
        {
          "internalType": "uint256",
          "name": "",
          "type": "uint256"
        }
      ],
      "stateMutability": "view",
      "type": "function"
    },
    {
      "inputs": [
        {
          "internalType": "uint256",
          "name": "projectId",
          "type": "uint256"
        },
        {
          "internalType": "uint256",
          "name": "amountUSDC",
          "type": "uint256"
        },
        {
          "internalType": "address",
          "name": "farmer",
          "type": "address"
        }
      ],
      "name": "releaseFundsToFarmer",
      "outputs": [],
      "stateMutability": "nonpayable",
      "type": "function"
    },
    {
      "inputs": [
        {
          "internalType": "bytes32",
          "name": "role",
          "type": "bytes32"
        },
        {
          "internalType": "address",
          "name": "account",
          "type": "address"
        }
      ],
      "name": "renounceRole",
      "outputs": [],
      "stateMutability": "nonpayable",
      "type": "function"
    },
    {
      "inputs": [
        {
          "internalType": "uint256",
          "name": "projectId",
          "type": "uint256"
        }
      ],
      "name": "repayLoan",
      "outputs": [],
      "stateMutability": "payable",
      "type": "function"
    },
    {
      "inputs": [
        {
          "internalType": "bytes32",
          "name": "role",
          "type": "bytes32"
        },
        {
          "internalType": "address",
          "name": "account",
          "type": "address"
        }
      ],
      "name": "revokeRole",
      "outputs": [],
      "stateMutability": "nonpayable",
      "type": "function"
    },
    {
      "inputs": [
        {
          "internalType": "bytes4",
          "name": "interfaceId",
          "type": "bytes4"
        }
      ],
      "name": "supportsInterface",
      "outputs": [
        {
          "internalType": "bool",
          "name": "",
          "type": "bool"
        }
      ],
      "stateMutability": "view",
      "type": "function"
    },
    {
      "stateMutability": "payable",
      "type": "receive"
    }
  ],
  "bytecode": "0x60a06040523480156200001157600080fd5b506040516200346e3803806200346e8339810160408190526200003491620001e0565b600180556001600160a01b038216620000945760405162461bcd60e51b815260206004820152601f60248201527f496e76616c69642070726f6a65637420666163746f727920616464726573730060448201526064015b60405180910390fd5b6001600160a01b038116620000ec5760405162461bcd60e51b815260206004820152601460248201527f496e76616c69642055534443206164647265737300000000000000000000000060448201526064016200008b565b600280546001600160a01b0319166001600160a01b038481169190911790915581166080526200011e60003362000126565b50506200021f565b6000828152602081815260408083206001600160a01b038516845290915290205460ff16620001c3576000828152602081815260408083206001600160a01b03851684529091529020805460ff19166001179055620001823390565b6001600160a01b0316816001600160a01b0316837f2f8788117e7eff1d82e926ec794901d17c78024a50270940304540a733656f0d60405160405180910390a45b5050565b6001600160a01b0381168114620001dd57600080fd5b50565b60008060408385031215620001f457600080fd5b82516200020181620001c7565b60208401519092506200021481620001c7565b809150509250929050565b6080516132026200026c600039600081816106700152818161089001528181610e4001528181610f0e01528181610f7b015281816111b20152818161180d0152611a8901526132026000f3fe6080604052600436106102605760003560e01c806391d1485411610144578063d3def507116100b6578063ec797fc21161007a578063ec797fc2146109a7578063eda1ce6f146109dd578063f394397014610a0a578063f63edecf14610a3e578063f95229a814610a8f578063feacac2d14610aaf57600080fd5b8063d3def5071461091a578063d547741f14610930578063d87aa64314610950578063e628cf2714610970578063ea91f23a1461099057600080fd5b8063a284135b11610108578063a284135b146107d7578063a39fbd6a14610804578063ab7b1c8914610824578063ac1b6b0114610837578063b64ffb05146108c0578063c92e3ac0146108ed57600080fd5b806391d14854146106bd578063973f0024146106dd57806397c357e81461078257806397f51974146107a2578063a217fddf146107c257600080fd5b8063406cf229116101dd57806375607db8116101a157806375607db8146105a257806376082a5e146105d257806378b30be814610606578063828516a71461062657806389a302711461065e5780638c89a0ad146106aa57600080fd5b8063406cf229146105235780635312ea8e14610538578063560d52d4146105585780635ea61aa91461056d5780636f9fb98a1461058d57600080fd5b80632f2ff15d116102245780632f2ff15d1461036057806336568abe1461038257806337433196146103a25780633a1339cf146103cf5780633e5f8a191461043057600080fd5b806301ffc9a71461026c5780630e8f6695146102a1578063196468b7146102cf578063248a9ca3146102fc57806329c76a731461032c57600080fd5b3661026757005b600080fd5b34801561027857600080fd5b5061028c610287366004612b4c565b610ac6565b60405190151581526020015b60405180910390f35b3480156102ad57600080fd5b506102c16102bc366004612b8b565b610afd565b604051908152602001610298565b3480156102db57600080fd5b506102c16102ea366004612bb7565b60066020526000908152604090205481565b34801561030857600080fd5b506102c1610317366004612bb7565b60009081526020819052604090206001015490565b34801561033857600080fd5b506102c17fa88d484f5aeb539ab60f9bd084e23511bc356a4f715a255e909643bb69ddcb4181565b34801561036c57600080fd5b5061038061037b366004612bd0565b610b61565b005b34801561038e57600080fd5b5061038061039d366004612bd0565b610b8b565b3480156103ae57600080fd5b506103c26103bd366004612c00565b610c0e565b6040516102989190612c1d565b3480156103db57600080fd5b506103ef6103ea366004612c61565b610c7a565b604080516001600160a01b03909816885260208801969096529486019390935260608501919091521515608084015260a083015260c082015260e001610298565b34801561043c57600080fd5b506104e161044b366004612bb7565b6000818152600760209081526040808320815160e081018352815481526001820154818501908152600283015482850190815260038401546060840152600484015460ff908116151560808501908152600586015460a086019081526006909601546001600160a01b031660c0860190815299895260089097529490962054915190519551945192519651919093169692959192565b60408051971515885260208801969096529486019390935260608501919091521515608084015260a08301526001600160a01b031660c082015260e001610298565b34801561052f57600080fd5b50610380610ce4565b34801561054457600080fd5b50610380610553366004612bb7565b610e1e565b34801561056457600080fd5b506102c1609681565b34801561057957600080fd5b506102c1610588366004612c61565b610f35565b34801561059957600080fd5b506102c1610f63565b3480156105ae57600080fd5b5061028c6105bd366004612bb7565b60086020526000908152604090205460ff1681565b3480156105de57600080fd5b506102c17fb165298935924f540e4181c03493a5d686c54a0aaeb3f6216de85b7ffbba773881565b34801561061257600080fd5b506102c1610621366004612bb7565b610ff3565b34801561063257600080fd5b506102c1610641366004612b8b565b600560209081526000928352604080842090915290825290205481565b34801561066a57600080fd5b506106927f000000000000000000000000000000000000000000000000000000000000000081565b6040516001600160a01b039091168152602001610298565b3480156106b657600080fd5b50476102c1565b3480156106c957600080fd5b5061028c6106d8366004612bd0565b611075565b3480156106e957600080fd5b506107426106f8366004612bb7565b6007602052600090815260409020805460018201546002830154600384015460048501546005860154600690960154949593949293919260ff90911691906001600160a01b031687565b6040805197885260208801969096529486019390935260608501919091521515608084015260a08301526001600160a01b031660c082015260e001610298565b34801561078e57600080fd5b5061038061079d366004612c83565b61109e565b3480156107ae57600080fd5b50600254610692906001600160a01b031681565b3480156107ce57600080fd5b506102c1600081565b3480156107e357600080fd5b506107f76107f2366004612bb7565b611222565b6040516102989190612cbc565b34801561081057600080fd5b5061038061081f366004612bb7565b6112e2565b610380610832366004612bb7565b61149c565b34801561084357600080fd5b506108b2610852366004612bb7565b604080513060248201526044808201939093528151808203909301835260640190526020810180516001600160e01b031663095ea7b360e01b1790527f000000000000000000000000000000000000000000000000000000000000000091565b604051610298929190612d99565b3480156108cc57600080fd5b506102c16108db366004612bb7565b60009081526006602052604090205490565b3480156108f957600080fd5b506102c1610908366004612c00565b600a6020526000908152604090205481565b34801561092657600080fd5b506102c16104b081565b34801561093c57600080fd5b5061038061094b366004612bd0565b61174c565b34801561095c57600080fd5b5061038061096b366004612c61565b611771565b34801561097c57600080fd5b506102c161098b366004612bb7565b611e52565b34801561099c57600080fd5b506102c162278d0081565b3480156109b357600080fd5b506102c16109c2366004612c00565b6001600160a01b03166000908152600a602052604090205490565b3480156109e957600080fd5b506102c16109f8366004612bb7565b60096020526000908152604090205481565b348015610a1657600080fd5b506102c17f7c6181838a71a779e445600d4c6ecbe16bacf2b3c5bda69c29fada66d1b645d181565b348015610a4a57600080fd5b50610a5e610a59366004612b8b565b611f78565b60408051968752602087019590955293850192909252606084015215156080830152151560a082015260c001610298565b348015610a9b57600080fd5b506102c1610aaa366004612b8b565b6121a5565b348015610abb57600080fd5b506102c16298968081565b60006001600160e01b03198216637965db0b60e01b1480610af757506301ffc9a760e01b6001600160e01b03198316145b92915050565b600081815260066020526040812054808203610b1d576000915050610af7565b6001600160a01b038416600090815260056020908152604080832086845290915290205481610b4e82612710612dd3565b610b589190612dea565b95945050505050565b600082815260208190526040902060010154610b7c816121d6565b610b8683836121e0565b505050565b6001600160a01b0381163314610c005760405162461bcd60e51b815260206004820152602f60248201527f416363657373436f6e74726f6c3a2063616e206f6e6c792072656e6f756e636560448201526e103937b632b9903337b91039b2b63360891b60648201526084015b60405180910390fd5b610c0a8282612264565b5050565b6001600160a01b038116600090815260046020908152604091829020805483518184028101840190945280845260609392830182828015610c6e57602002820191906000526020600020905b815481526020019060010190808311610c5a575b50505050509050919050565b60036020528160005260406000208181548110610c9657600080fd5b600091825260209091206007909102018054600182015460028301546003840154600485015460058601546006909601546001600160a01b0390951697509295509093909260ff9092169187565b610cec6122c9565b336000908152600a602052604090205480610d3d5760405162461bcd60e51b81526020600482015260116024820152704e6f207969656c6420746f20636c61696d60781b6044820152606401610bf7565b336000818152600a60205260408082208290555190919083908381818185875af1925050503d8060008114610d8e576040519150601f19603f3d011682016040523d82523d6000602084013e610d93565b606091505b5050905080610ddc5760405162461bcd60e51b8152602060048201526015602482015274165a595b19081d1c985b9cd9995c8819985a5b1959605a1b6044820152606401610bf7565b60405182815233907fc04825ba3f383b602255d2a13065a68e325c65c9e0ed5d031ea2b06f641873af9060200160405180910390a25050610e1c60018055565b565b6000610e29816121d6565b6040516370a0823160e01b815230600482015282907f00000000000000000000000000000000000000000000000000000000000000006001600160a01b0316906370a0823190602401602060405180830381865afa158015610e8f573d6000803e3d6000fd5b505050506040513d601f19601f82011682018060405250810190610eb39190612e0c565b1015610f015760405162461bcd60e51b815260206004820152601d60248201527f496e73756666696369656e7420636f6e74726163742062616c616e63650000006044820152606401610bf7565b610c0a6001600160a01b037f0000000000000000000000000000000000000000000000000000000000000000163384612322565b60006237b1d082610f486104b086612dd3565b610f529190612dd3565b610f5c9190612dea565b9392505050565b6040516370a0823160e01b81523060048201526000907f00000000000000000000000000000000000000000000000000000000000000006001600160a01b0316906370a0823190602401602060405180830381865afa158015610fca573d6000803e3d6000fd5b505050506040513d601f19601f82011682018060405250810190610fee9190612e0c565b905090565b6002546000828152600660205260408082205490516395b304af60e01b815291926001600160a01b0316916395b304af916110349160040190815260200190565b602060405180830381865afa158015611051573d6000803e3d6000fd5b505050506040513d601f19601f82011682018060405250810190610af79190612e0c565b6000918252602082815260408084206001600160a01b0393909316845291905290205460ff1690565b7fa88d484f5aeb539ab60f9bd084e23511bc356a4f715a255e909643bb69ddcb416110c8816121d6565b6000848152600660205260409020548311156111265760405162461bcd60e51b815260206004820152601a60248201527f496e73756666696369656e742070726f6a6563742066756e64730000000000006044820152606401610bf7565b60008481526008602052604090205460ff16156111815760405162461bcd60e51b8152602060048201526019602482015278141c9bda9958dd08185b1c9958591e4818dbdb5c1b195d1959603a1b6044820152606401610bf7565b6000848152600660205260408120805485929061119f908490612e25565b909155506111d990506001600160a01b037f0000000000000000000000000000000000000000000000000000000000000000168385612322565b604080518481526001600160a01b038416602082015285917f71912138f7c86b14e70c66f5c8b9795f65533f767a78eacb07700959ce3a9d3a910160405180910390a250505050565b606060036000838152602001908152602001600020805480602002602001604051908101604052809291908181526020016000905b828210156112d75760008481526020908190206040805160e0810182526007860290920180546001600160a01b031683526001808201548486015260028201549284019290925260038101546060840152600481015460ff1615156080840152600581015460a08401526006015460c08301529083529092019101611257565b505050509050919050565b7fa88d484f5aeb539ab60f9bd084e23511bc356a4f715a255e909643bb69ddcb4161130c816121d6565b600082815260076020908152604091829020825160e081018452815480825260018301549382019390935260028201549381019390935260038101546060840152600481015460ff1615156080840152600581015460a0840152600601546001600160a01b031660c08301526113b55760405162461bcd60e51b815260206004820152600e60248201526d4e6f206c6f616e2065786973747360901b6044820152606401610bf7565b8060800151156113fd5760405162461bcd60e51b8152602060048201526013602482015272131bd85b88185b1c9958591e481c995c185a59606a1b6044820152606401610bf7565b8060a0015142116114505760405162461bcd60e51b815260206004820152601d60248201527f52657061796d656e7420646561646c696e65206e6f74207061737365640000006044820152606401610bf7565b827f89a0efee16e1b6aa75224b3a93898305e6daa19095f5c373b3f1f35613a033aa826020015183600001516114869190612e38565b60405190815260200160405180910390a2505050565b6114a46122c9565b600081815260076020526040902080546115005760405162461bcd60e51b815260206004820152601f60248201527f4e6f206c6f616e2065786973747320666f7220746869732070726f6a656374006044820152606401610bf7565b600481015460ff16156115555760405162461bcd60e51b815260206004820152601960248201527f4c6f616e20616c72656164792066756c6c7920726570616964000000000000006044820152606401610bf7565b600254604051631e1e7e5960e31b8152600481018490526000916001600160a01b03169063f0f3f2c890602401600060405180830381865afa15801561159f573d6000803e3d6000fd5b505050506040513d6000823e601f3d908101601f191682016040526115c79190810190612f38565b60208101519091506001600160a01b031633146116265760405162461bcd60e51b815260206004820152601d60248201527f4f6e6c792070726f6a656374206661726d65722063616e2072657061790000006044820152606401610bf7565b600061163182612385565b90506000611643846000015483610f35565b905060008185600001546116579190612e38565b9050803410156116a95760405162461bcd60e51b815260206004820152601d60248201527f496e73756666696369656e742072657061796d656e7420616d6f756e740000006044820152606401610bf7565b600180860183905560028601829055346003870181905560048701805460ff199081168417909155600089815260086020908152604080832080549094169095179092556009909152919091205561170186836123bc565b6040805134815233602082015287917fd1ccc1c5fd5d69d83162252c3a24405040a797f39b7da75119292819eb352d79910160405180910390a2505050505061174960018055565b50565b600082815260208190526040902060010154611767816121d6565b610b868383612264565b6117796122c9565b7fb165298935924f540e4181c03493a5d686c54a0aaeb3f6216de85b7ffbba77386117a3816121d6565b629896808210156117f65760405162461bcd60e51b815260206004820152601860248201527f496e766573746d656e742062656c6f77206d696e696d756d00000000000000006044820152606401610bf7565b6040516370a0823160e01b815233600482015282907f00000000000000000000000000000000000000000000000000000000000000006001600160a01b0316906370a0823190602401602060405180830381865afa15801561185c573d6000803e3d6000fd5b505050506040513d601f19601f820116820180604052508101906118809190612e0c565b10156118ce5760405162461bcd60e51b815260206004820152601960248201527f496e73756666696369656e7420555344432062616c616e6365000000000000006044820152606401610bf7565b600254604051631e1e7e5960e31b8152600481018590526000916001600160a01b03169063f0f3f2c890602401600060405180830381865afa158015611918573d6000803e3d6000fd5b505050506040513d6000823e601f3d908101601f191682016040526119409190810190612f38565b90506001816101400151600581111561195b5761195b6130b1565b146119b45760405162461bcd60e51b8152602060048201526024808201527f50726f6a656374206e6f7420617661696c61626c6520666f7220696e766573746044820152631b595b9d60e21b6064820152608401610bf7565b60c08101516000858152600660205260409020546119d3908590612e38565b1115611a215760405162461bcd60e51b815260206004820152601960248201527f496e766573746d656e74206578636565647320746172676574000000000000006044820152606401610bf7565b60008481526008602052604090205460ff1615611a7c5760405162461bcd60e51b8152602060048201526019602482015278141c9bda9958dd08185b1c9958591e4818dbdb5c1b195d1959603a1b6044820152606401610bf7565b611ab16001600160a01b037f00000000000000000000000000000000000000000000000000000000000000001633308661259f565b6000612710611ac1609686612dd3565b611acb9190612dea565b90506000611ad98286612e25565b905080600660008881526020019081526020016000206000828254611afe9190612e38565b9091555060009050611b0f846125dd565b90506000611b1d8383610f35565b905060006040518060e00160405280336001600160a01b031681526020018a815260200185815260200142815260200160001515815260200183815260200160008152509050600360008a815260200190815260200160002081908060018154018082558091505060019003906000526020600020906007020160009091909190915060008201518160000160006101000a8154816001600160a01b0302191690836001600160a01b0316021790555060208201518160010155604082015181600201556060820151816003015560808201518160040160006101000a81548160ff02191690831515021790555060a0820151816005015560c08201518160060155505060056000336001600160a01b03166001600160a01b0316815260200190815260200160002060008a815260200190815260200160002054600003611c8257336000908152600460209081526040822080546001810182559083529120018990555b3360009081526005602090815260408083208c845290915281208054869290611cac908490612e38565b90915550506000898152600760205260408120549003611cd057611cd08987612613565b60008981526007602052604081208054869290611cee908490612e38565b9091555050600254604051631d66396960e21b8152600481018b9052602481018690526001600160a01b0390911690637598e5a490604401600060405180830381600087803b158015611d4057600080fd5b505af1158015611d54573d6000803e3d6000fd5b50506002546040516395b304af60e01b8152600481018c9052600093506001600160a01b0390911691506395b304af90602401602060405180830381865afa158015611da4573d6000803e3d6000fd5b505050506040513d601f19601f82011682018060405250810190611dc89190612e0c565b604080518b8152602081018390529192508b9133917f9bce88ff835d9d8831ccf5c7e04a2533f68510314393b3a54f990dea62e7134e910160405180910390a3604080518b8152602081018890527fa8341f104131cae3e9965326a01662a1e0dc3dc60c8d099fefa4578ef8f6f9ae910160405180910390a15050505050505050610c0a60018055565b6000818152600760209081526040808320815160e081018352815480825260018301549482019490945260028201549281019290925260038101546060830152600481015460ff1615156080830152600581015460a0830152600601546001600160a01b031660c0820152908203611ecd5750600092915050565b600254604051631e1e7e5960e31b8152600481018590526000916001600160a01b03169063f0f3f2c890602401600060405180830381865afa158015611f17573d6000803e3d6000fd5b505050506040513d6000823e601f3d908101601f19168201604052611f3f9190810190612f38565b90506000611f4c82612385565b90506000611f5e846000015183610f35565b8451909150611f6e908290612e38565b9695505050505050565b6001600160a01b0382811660009081526005602090815260408083208584529091528082205460025491516395b304af60e01b8152600481018290529093839283928392839216906395b304af90602401602060405180830381865afa158015611fe6573d6000803e3d6000fd5b505050506040513d601f19601f8201168201806040525081019061200a9190612e0c565b600088815260086020908152604080832054600383528184208054835181860281018601909452808452959a5060ff90911695509293909291849084015b828210156120c85760008481526020908190206040805160e0810182526007860290920180546001600160a01b031683526001808201548486015260028201549284019290925260038101546060840152600481015460ff1615156080840152600581015460a08401526006015460c08301529083529092019101612048565b50505050905060005b815181101561219957896001600160a01b03168282815181106120f6576120f66130c7565b6020026020010151600001516001600160a01b03160361218757818181518110612122576121226130c7565b602002602001015160a00151866121399190612e38565b955081818151811061214d5761214d6130c7565b602002602001015160c00151856121649190612e38565b9450818181518110612178576121786130c7565b60200260200101516080015193505b80612191816130dd565b9150506120d1565b50509295509295509295565b600460205281600052604060002081815481106121c157600080fd5b90600052602060002001600091509150505481565b61174981336126e0565b6121ea8282611075565b610c0a576000828152602081815260408083206001600160a01b03851684529091529020805460ff191660011790556122203390565b6001600160a01b0316816001600160a01b0316837f2f8788117e7eff1d82e926ec794901d17c78024a50270940304540a733656f0d60405160405180910390a45050565b61226e8282611075565b15610c0a576000828152602081815260408083206001600160a01b0385168085529252808320805460ff1916905551339285917ff6391f5c32d9c69d2a47ea670b442974b53935d1edc7fd64eb21e047a839171b9190a45050565b60026001540361231b5760405162461bcd60e51b815260206004820152601f60248201527f5265656e7472616e637947756172643a207265656e7472616e742063616c6c006044820152606401610bf7565b6002600155565b6040516001600160a01b038316602482015260448101829052610b8690849063a9059cbb60e01b906064015b60408051601f198184030181529190526020810180516001600160e01b03166001600160e01b031990931692909217909152612739565b60008161010001514211156123b35762015180826101000151426123a99190612e25565b610af79190612dea565b610af7826125dd565b600082815260036020908152604080832060079092528220549091805b835481101561255c578381815481106123f4576123f46130c7565b600091825260209091206004600790920201015460ff1661254a5760008386868481548110612425576124256130c7565b9060005260206000209060070201600201546124419190612dd3565b61244b9190612dea565b9050600081868481548110612462576124626130c7565b90600052602060002090600702016002015461247e9190612e38565b905081868481548110612493576124936130c7565b90600052602060002090600702016006018190555060018684815481106124bc576124bc6130c7565b906000526020600020906007020160040160006101000a81548160ff02191690831515021790555080600a60008886815481106124fb576124fb6130c7565b600091825260208083206007909202909101546001600160a01b0316835282019290925260400181208054909190612534908490612e38565b90915550849050612544816130dd565b94505050505b80612554816130dd565b9150506123d9565b50604080518581526020810183905286917ff571bb88b0ec5dc25398fc62c69d5970d50ea313a0a6596b0ca7f0197d37383f910160405180910390a25050505050565b6040516001600160a01b03808516602483015283166044820152606481018290526125d79085906323b872dd60e01b9060840161234e565b50505050565b6000816101000151826101200151111561260b57620151808261010001518361012001516123a99190612e25565b50605a919050565b6040518060e001604052806000815260200160008152602001600081526020016000815260200160001515815260200162278d008361012001516126579190612e38565b81526020928301516001600160a01b03908116918401919091526000938452600783526040938490208251815592820151600184015592810151600283015560608101516003830155608081015160048301805460ff191691151591909117905560a0810151600583015560c00151600690910180546001600160a01b03191691909216179055565b6126ea8282611075565b610c0a576126f78161280e565b612702836020612820565b6040516020016127139291906130f6565b60408051601f198184030181529082905262461bcd60e51b8252610bf79160040161316b565b600061278e826040518060400160405280602081526020017f5361666545524332303a206c6f772d6c6576656c2063616c6c206661696c6564815250856001600160a01b03166129bc9092919063ffffffff16565b90508051600014806127af5750808060200190518101906127af919061317e565b610b865760405162461bcd60e51b815260206004820152602a60248201527f5361666545524332303a204552433230206f7065726174696f6e20646964206e6044820152691bdd081cdd58d8d9595960b21b6064820152608401610bf7565b6060610af76001600160a01b03831660145b6060600061282f836002612dd3565b61283a906002612e38565b67ffffffffffffffff81111561285257612852612e4b565b6040519080825280601f01601f19166020018201604052801561287c576020820181803683370190505b509050600360fc1b81600081518110612897576128976130c7565b60200101906001600160f81b031916908160001a905350600f60fb1b816001815181106128c6576128c66130c7565b60200101906001600160f81b031916908160001a90535060006128ea846002612dd3565b6128f5906001612e38565b90505b600181111561296d576f181899199a1a9b1b9c1cb0b131b232b360811b85600f1660108110612929576129296130c7565b1a60f81b82828151811061293f5761293f6130c7565b60200101906001600160f81b031916908160001a90535060049490941c9361296681613199565b90506128f8565b508315610f5c5760405162461bcd60e51b815260206004820181905260248201527f537472696e67733a20686578206c656e67746820696e73756666696369656e746044820152606401610bf7565b60606129cb84846000856129d3565b949350505050565b606082471015612a345760405162461bcd60e51b815260206004820152602660248201527f416464726573733a20696e73756666696369656e742062616c616e636520666f6044820152651c8818d85b1b60d21b6064820152608401610bf7565b600080866001600160a01b03168587604051612a5091906131b0565b60006040518083038185875af1925050503d8060008114612a8d576040519150601f19603f3d011682016040523d82523d6000602084013e612a92565b606091505b5091509150612aa387838387612aae565b979650505050505050565b60608315612b1d578251600003612b16576001600160a01b0385163b612b165760405162461bcd60e51b815260206004820152601d60248201527f416464726573733a2063616c6c20746f206e6f6e2d636f6e74726163740000006044820152606401610bf7565b50816129cb565b6129cb8383815115612b325781518083602001fd5b8060405162461bcd60e51b8152600401610bf7919061316b565b600060208284031215612b5e57600080fd5b81356001600160e01b031981168114610f5c57600080fd5b6001600160a01b038116811461174957600080fd5b60008060408385031215612b9e57600080fd5b8235612ba981612b76565b946020939093013593505050565b600060208284031215612bc957600080fd5b5035919050565b60008060408385031215612be357600080fd5b823591506020830135612bf581612b76565b809150509250929050565b600060208284031215612c1257600080fd5b8135610f5c81612b76565b6020808252825182820181905260009190848201906040850190845b81811015612c5557835183529284019291840191600101612c39565b50909695505050505050565b60008060408385031215612c7457600080fd5b50508035926020909101359150565b600080600060608486031215612c9857600080fd5b83359250602084013591506040840135612cb181612b76565b809150509250925092565b602080825282518282018190526000919060409081850190868401855b82811015612d3c57815180516001600160a01b03168552868101518786015285810151868601526060808201519086015260808082015115159086015260a0808201519086015260c0908101519085015260e09093019290850190600101612cd9565b5091979650505050505050565b60005b83811015612d64578181015183820152602001612d4c565b50506000910152565b60008151808452612d85816020860160208601612d49565b601f01601f19169290920160200192915050565b6001600160a01b03831681526040602082018190526000906129cb90830184612d6d565b634e487b7160e01b600052601160045260246000fd5b8082028115828204841417610af757610af7612dbd565b600082612e0757634e487b7160e01b600052601260045260246000fd5b500490565b600060208284031215612e1e57600080fd5b5051919050565b81810381811115610af757610af7612dbd565b80820180821115610af757610af7612dbd565b634e487b7160e01b600052604160045260246000fd5b6040516101c0810167ffffffffffffffff81118282101715612e8557612e85612e4b565b60405290565b8051612e9681612b76565b919050565b600082601f830112612eac57600080fd5b815167ffffffffffffffff80821115612ec757612ec7612e4b565b604051601f8301601f19908116603f01168101908282118183101715612eef57612eef612e4b565b81604052838152866020858801011115612f0857600080fd5b611f6e846020830160208901612d49565b805160068110612e9657600080fd5b80518015158114612e9657600080fd5b600060208284031215612f4a57600080fd5b815167ffffffffffffffff80821115612f6257600080fd5b908301906101c08286031215612f7757600080fd5b612f7f612e61565b82518152612f8f60208401612e8b565b6020820152604083015182811115612fa657600080fd5b612fb287828601612e9b565b604083015250606083015182811115612fca57600080fd5b612fd687828601612e9b565b606083015250608083015182811115612fee57600080fd5b612ffa87828601612e9b565b60808301525060a083015160a082015260c083015160c082015260e083015160e0820152610100808401518183015250610120808401518183015250610140613044818501612f19565b90820152610160613056848201612f28565b90820152610180838101518381111561306e57600080fd5b61307a88828701612e9b565b8284015250506101a0808401518381111561309457600080fd5b6130a088828701612e9b565b918301919091525095945050505050565b634e487b7160e01b600052602160045260246000fd5b634e487b7160e01b600052603260045260246000fd5b6000600182016130ef576130ef612dbd565b5060010190565b7f416363657373436f6e74726f6c3a206163636f756e742000000000000000000081526000835161312e816017850160208801612d49565b7001034b99036b4b9b9b4b733903937b6329607d1b601791840191820152835161315f816028840160208801612d49565b01602801949350505050565b602081526000610f5c6020830184612d6d565b60006020828403121561319057600080fd5b610f5c82612f28565b6000816131a8576131a8612dbd565b506000190190565b600082516131c2818460208701612d49565b919091019291505056fea26469706673582212200b13633fffdb124666949ed1262e6d31e549686cf2bbc6e0acc2f2d80c848a5d64736f6c63430008140033",
  "linkReferences": {},
  "deployedLinkReferences": {}
}