{
  "_format": "hh-sol-artifact-1",
  "contractName": "InvestmentManager",
  "sourceName": "contracts/InvestmentManager.sol",
  "abi": [
    {
      "inputs": [
        {
          "internalType": "address",
          "name": "_projectFactoryAddress",
          "type": "address"
        },
        {
          "internalType": "address",
          "name": "_usdcAddress",
          "type": "address"
        }
      ],
      "stateMutability": "nonpayable",
      "type": "constructor"
    },
    {
      "anonymous": false,
      "inputs": [
        {
          "indexed": true,
          "internalType": "address",
          "name": "investor",
          "type": "address"
        },
        {
          "indexed": true,
          "internalType": "uint256",
          "name": "projectId",
          "type": "uint256"
        },
        {
          "indexed": false,
          "internalType": "uint256",
          "name": "amountUSDC",
          "type": "uint256"
        },
        {
          "indexed": false,
          "internalType": "uint256",
          "name": "amountBDT",
          "type": "uint256"
        }
      ],
      "name": "Invested",
      "type": "event"
    },
    {
      "anonymous": false,
      "inputs": [
        {
          "indexed": false,
          "internalType": "uint256",
          "name": "projectId",
          "type": "uint256"
        },
        {
          "indexed": false,
          "internalType": "uint256",
          "name": "feeUSDC",
          "type": "uint256"
        }
      ],
      "name": "PlatformFeeCollected",
      "type": "event"
    },
    {
      "anonymous": false,
      "inputs": [
        {
          "indexed": true,
          "internalType": "bytes32",
          "name": "role",
          "type": "bytes32"
        },
        {
          "indexed": true,
          "internalType": "bytes32",
          "name": "previousAdminRole",
          "type": "bytes32"
        },
        {
          "indexed": true,
          "internalType": "bytes32",
          "name": "newAdminRole",
          "type": "bytes32"
        }
      ],
      "name": "RoleAdminChanged",
      "type": "event"
    },
    {
      "anonymous": false,
      "inputs": [
        {
          "indexed": true,
          "internalType": "bytes32",
          "name": "role",
          "type": "bytes32"
        },
        {
          "indexed": true,
          "internalType": "address",
          "name": "account",
          "type": "address"
        },
        {
          "indexed": true,
          "internalType": "address",
          "name": "sender",
          "type": "address"
        }
      ],
      "name": "RoleGranted",
      "type": "event"
    },
    {
      "anonymous": false,
      "inputs": [
        {
          "indexed": true,
          "internalType": "bytes32",
          "name": "role",
          "type": "bytes32"
        },
        {
          "indexed": true,
          "internalType": "address",
          "name": "account",
          "type": "address"
        },
        {
          "indexed": true,
          "internalType": "address",
          "name": "sender",
          "type": "address"
        }
      ],
      "name": "RoleRevoked",
      "type": "event"
    },
    {
      "anonymous": false,
      "inputs": [
        {
          "indexed": true,
          "internalType": "address",
          "name": "investor",
          "type": "address"
        },
        {
          "indexed": true,
          "internalType": "uint256",
          "name": "projectId",
          "type": "uint256"
        },
        {
          "indexed": false,
          "internalType": "uint256",
          "name": "amountUSDC",
          "type": "uint256"
        }
      ],
      "name": "Withdrawn",
      "type": "event"
    },
    {
      "inputs": [],
      "name": "DEFAULT_ADMIN_ROLE",
      "outputs": [
        {
          "internalType": "bytes32",
          "name": "",
          "type": "bytes32"
        }
      ],
      "stateMutability": "view",
      "type": "function"
    },
    {
      "inputs": [],
      "name": "INVESTOR_ROLE",
      "outputs": [
        {
          "internalType": "bytes32",
          "name": "",
          "type": "bytes32"
        }
      ],
      "stateMutability": "view",
      "type": "function"
    },
    {
      "inputs": [],
      "name": "MIN_INVESTMENT_USDC",
      "outputs": [
        {
          "internalType": "uint256",
          "name": "",
          "type": "uint256"
        }
      ],
      "stateMutability": "view",
      "type": "function"
    },
    {
      "inputs": [],
      "name": "PLATFORM_FEE_PERCENT",
      "outputs": [
        {
          "internalType": "uint256",
          "name": "",
          "type": "uint256"
        }
      ],
      "stateMutability": "view",
      "type": "function"
    },
    {
      "inputs": [],
      "name": "PROJECT_MANAGER_ROLE",
      "outputs": [
        {
          "internalType": "bytes32",
          "name": "",
          "type": "bytes32"
        }
      ],
      "stateMutability": "view",
      "type": "function"
    },
    {
      "inputs": [],
      "name": "USDC",
      "outputs": [
        {
          "internalType": "contract IERC20",
          "name": "",
          "type": "address"
        }
      ],
      "stateMutability": "view",
      "type": "function"
    },
    {
      "inputs": [
        {
          "internalType": "uint256",
          "name": "amountUSDC",
          "type": "uint256"
        },
        {
          "internalType": "uint256",
          "name": "durationDays",
          "type": "uint256"
        }
      ],
      "name": "calculateExpectedReturn",
      "outputs": [
        {
          "internalType": "uint256",
          "name": "",
          "type": "uint256"
        }
      ],
      "stateMutability": "pure",
      "type": "function"
    },
    {
      "inputs": [
        {
          "internalType": "uint256",
          "name": "amountUSDC",
          "type": "uint256"
        }
      ],
      "name": "emergencyWithdraw",
      "outputs": [],
      "stateMutability": "nonpayable",
      "type": "function"
    },
    {
      "inputs": [
        {
          "internalType": "uint256",
          "name": "amountUSDC",
          "type": "uint256"
        }
      ],
      "name": "getApprovalData",
      "outputs": [
        {
          "internalType": "address",
          "name": "",
          "type": "address"
        },
        {
          "internalType": "bytes",
          "name": "",
          "type": "bytes"
        }
      ],
      "stateMutability": "view",
      "type": "function"
    },
    {
      "inputs": [],
      "name": "getContractBalance",
      "outputs": [
        {
          "internalType": "uint256",
          "name": "",
          "type": "uint256"
        }
      ],
      "stateMutability": "view",
      "type": "function"
    },
    {
      "inputs": [
        {
          "internalType": "address",
          "name": "investor",
          "type": "address"
        },
        {
          "internalType": "uint256",
          "name": "projectId",
          "type": "uint256"
        }
      ],
      "name": "getInvestmentShare",
      "outputs": [
        {
          "internalType": "uint256",
          "name": "",
          "type": "uint256"
        }
      ],
      "stateMutability": "view",
      "type": "function"
    },
    {
      "inputs": [
        {
          "internalType": "address",
          "name": "investor",
          "type": "address"
        },
        {
          "internalType": "uint256",
          "name": "projectId",
          "type": "uint256"
        }
      ],
      "name": "getInvestorProjectDetails",
      "outputs": [
        {
          "internalType": "uint256",
          "name": "amountUSDC",
          "type": "uint256"
        },
        {
          "internalType": "uint256",
          "name": "amountBDT",
          "type": "uint256"
        },
        {
          "internalType": "uint256",
          "name": "expectedReturnUSDC",
          "type": "uint256"
        }
      ],
      "stateMutability": "view",
      "type": "function"
    },
    {
      "inputs": [
        {
          "internalType": "address",
          "name": "investor",
          "type": "address"
        }
      ],
      "name": "getInvestorProjects",
      "outputs": [
        {
          "internalType": "uint256[]",
          "name": "",
          "type": "uint256[]"
        }
      ],
      "stateMutability": "view",
      "type": "function"
    },
    {
      "inputs": [
        {
          "internalType": "uint256",
          "name": "projectId",
          "type": "uint256"
        }
      ],
      "name": "getProjectFundingBDT",
      "outputs": [
        {
          "internalType": "uint256",
          "name": "",
          "type": "uint256"
        }
      ],
      "stateMutability": "view",
      "type": "function"
    },
    {
      "inputs": [
        {
          "internalType": "uint256",
          "name": "projectId",
          "type": "uint256"
        }
      ],
      "name": "getProjectFundingUSDC",
      "outputs": [
        {
          "internalType": "uint256",
          "name": "",
          "type": "uint256"
        }
      ],
      "stateMutability": "view",
      "type": "function"
    },
    {
      "inputs": [
        {
          "internalType": "uint256",
          "name": "projectId",
          "type": "uint256"
        }
      ],
      "name": "getProjectInvestments",
      "outputs": [
        {
          "components": [
            {
              "internalType": "address",
              "name": "investor",
              "type": "address"
            },
            {
              "internalType": "uint256",
              "name": "projectId",
              "type": "uint256"
            },
            {
              "internalType": "uint256",
              "name": "amountUSDC",
              "type": "uint256"
            },
            {
              "internalType": "uint256",
              "name": "timestamp",
              "type": "uint256"
            },
            {
              "internalType": "bool",
              "name": "claimed",
              "type": "bool"
            },
            {
              "internalType": "uint256",
              "name": "expectedReturnUSDC",
              "type": "uint256"
            }
          ],
          "internalType": "struct InvestmentManager.Investment[]",
          "name": "",
          "type": "tuple[]"
        }
      ],
      "stateMutability": "view",
      "type": "function"
    },
    {
      "inputs": [
        {
          "internalType": "bytes32",
          "name": "role",
          "type": "bytes32"
        }
      ],
      "name": "getRoleAdmin",
      "outputs": [
        {
          "internalType": "bytes32",
          "name": "",
          "type": "bytes32"
        }
      ],
      "stateMutability": "view",
      "type": "function"
    },
    {
      "inputs": [
        {
          "internalType": "bytes32",
          "name": "role",
          "type": "bytes32"
        },
        {
          "internalType": "address",
          "name": "account",
          "type": "address"
        }
      ],
      "name": "grantRole",
      "outputs": [],
      "stateMutability": "nonpayable",
      "type": "function"
    },
    {
      "inputs": [
        {
          "internalType": "bytes32",
          "name": "role",
          "type": "bytes32"
        },
        {
          "internalType": "address",
          "name": "account",
          "type": "address"
        }
      ],
      "name": "hasRole",
      "outputs": [
        {
          "internalType": "bool",
          "name": "",
          "type": "bool"
        }
      ],
      "stateMutability": "view",
      "type": "function"
    },
    {
      "inputs": [
        {
          "internalType": "uint256",
          "name": "projectId",
          "type": "uint256"
        },
        {
          "internalType": "uint256",
          "name": "amountUSDC",
          "type": "uint256"
        }
      ],
      "name": "invest",
      "outputs": [],
      "stateMutability": "nonpayable",
      "type": "function"
    },
    {
      "inputs": [
        {
          "internalType": "address",
          "name": "",
          "type": "address"
        },
        {
          "internalType": "uint256",
          "name": "",
          "type": "uint256"
        }
      ],
      "name": "investorProjectAmount",
      "outputs": [
        {
          "internalType": "uint256",
          "name": "",
          "type": "uint256"
        }
      ],
      "stateMutability": "view",
      "type": "function"
    },
    {
      "inputs": [
        {
          "internalType": "address",
          "name": "",
          "type": "address"
        },
        {
          "internalType": "uint256",
          "name": "",
          "type": "uint256"
        }
      ],
      "name": "investorProjects",
      "outputs": [
        {
          "internalType": "uint256",
          "name": "",
          "type": "uint256"
        }
      ],
      "stateMutability": "view",
      "type": "function"
    },
    {
      "inputs": [],
      "name": "projectFactory",
      "outputs": [
        {
          "internalType": "contract ProjectFactory",
          "name": "",
          "type": "address"
        }
      ],
      "stateMutability": "view",
      "type": "function"
    },
    {
      "inputs": [
        {
          "internalType": "uint256",
          "name": "",
          "type": "uint256"
        }
      ],
      "name": "projectFunding",
      "outputs": [
        {
          "internalType": "uint256",
          "name": "",
          "type": "uint256"
        }
      ],
      "stateMutability": "view",
      "type": "function"
    },
    {
      "inputs": [
        {
          "internalType": "uint256",
          "name": "",
          "type": "uint256"
        },
        {
          "internalType": "uint256",
          "name": "",
          "type": "uint256"
        }
      ],
      "name": "projectInvestments",
      "outputs": [
        {
          "internalType": "address",
          "name": "investor",
          "type": "address"
        },
        {
          "internalType": "uint256",
          "name": "projectId",
          "type": "uint256"
        },
        {
          "internalType": "uint256",
          "name": "amountUSDC",
          "type": "uint256"
        },
        {
          "internalType": "uint256",
          "name": "timestamp",
          "type": "uint256"
        },
        {
          "internalType": "bool",
          "name": "claimed",
          "type": "bool"
        },
        {
          "internalType": "uint256",
          "name": "expectedReturnUSDC",
          "type": "uint256"
        }
      ],
      "stateMutability": "view",
      "type": "function"
    },
    {
      "inputs": [
        {
          "internalType": "uint256",
          "name": "projectId",
          "type": "uint256"
        },
        {
          "internalType": "uint256",
          "name": "amountUSDC",
          "type": "uint256"
        },
        {
          "internalType": "address",
          "name": "farmer",
          "type": "address"
        }
      ],
      "name": "releaseFundsToFarmer",
      "outputs": [],
      "stateMutability": "nonpayable",
      "type": "function"
    },
    {
      "inputs": [
        {
          "internalType": "bytes32",
          "name": "role",
          "type": "bytes32"
        },
        {
          "internalType": "address",
          "name": "account",
          "type": "address"
        }
      ],
      "name": "renounceRole",
      "outputs": [],
      "stateMutability": "nonpayable",
      "type": "function"
    },
    {
      "inputs": [
        {
          "internalType": "bytes32",
          "name": "role",
          "type": "bytes32"
        },
        {
          "internalType": "address",
          "name": "account",
          "type": "address"
        }
      ],
      "name": "revokeRole",
      "outputs": [],
      "stateMutability": "nonpayable",
      "type": "function"
    },
    {
      "inputs": [
        {
          "internalType": "bytes4",
          "name": "interfaceId",
          "type": "bytes4"
        }
      ],
      "name": "supportsInterface",
      "outputs": [
        {
          "internalType": "bool",
          "name": "",
          "type": "bool"
        }
      ],
      "stateMutability": "view",
      "type": "function"
    }
  ],
  "bytecode": "0x60a06040523480156200001157600080fd5b50604051620022ec380380620022ec8339810160408190526200003491620001e4565b600180556001600160a01b038216620000945760405162461bcd60e51b815260206004820152601f60248201527f496e76616c69642070726f6a65637420666163746f727920616464726573730060448201526064015b60405180910390fd5b6001600160a01b038116620000ec5760405162461bcd60e51b815260206004820152601460248201527f496e76616c69642055534443206164647265737300000000000000000000000060448201526064016200008b565b600280546001600160a01b0319166001600160a01b038481169190911790915581166080526200011e60003362000126565b50506200021c565b6000828152602081815260408083206001600160a01b038516845290915290205460ff16620001c3576000828152602081815260408083206001600160a01b03851684529091529020805460ff19166001179055620001823390565b6001600160a01b0316816001600160a01b0316837f2f8788117e7eff1d82e926ec794901d17c78024a50270940304540a733656f0d60405160405180910390a45b5050565b80516001600160a01b0381168114620001df57600080fd5b919050565b60008060408385031215620001f857600080fd5b6200020383620001c7565b91506200021360208401620001c7565b90509250929050565b60805161208362000269600039600081816103bb015281816104a20152818161079d0152818161086b015281816108da01528181610ab601528181610c5a0152610e7b01526120836000f3fe608060405234801561001057600080fd5b50600436106101cf5760003560e01c806378b30be811610104578063a284135b116100a2578063d87aa64311610071578063d87aa64314610505578063f63edecf14610518578063f95229a814610546578063feacac2d1461055957600080fd5b8063a284135b14610436578063ac1b6b0114610456578063b64ffb05146104d2578063d547741f146104f257600080fd5b806391d14854116100de57806391d14854146103f557806397c357e81461040857806397f519741461041b578063a217fddf1461042e57600080fd5b806378b30be814610378578063828516a71461038b57806389a30271146103b657600080fd5b80633743319611610171578063560d52d41161014b578063560d52d41461032e5780635ea61aa9146103365780636f9fb98a1461034957806376082a5e1461035157600080fd5b806337433196146102af5780633a1339cf146102cf5780635312ea8e1461031b57600080fd5b8063248a9ca3116101ad578063248a9ca31461023d57806329c76a73146102605780632f2ff15d1461028757806336568abe1461029c57600080fd5b806301ffc9a7146101d45780630e8f6695146101fc578063196468b71461021d575b600080fd5b6101e76101e23660046119cd565b610563565b60405190151581526020015b60405180910390f35b61020f61020a366004611a0c565b61059a565b6040519081526020016101f3565b61020f61022b366004611a38565b60066020526000908152604090205481565b61020f61024b366004611a38565b60009081526020819052604090206001015490565b61020f7fa88d484f5aeb539ab60f9bd084e23511bc356a4f715a255e909643bb69ddcb4181565b61029a610295366004611a51565b6105fe565b005b61029a6102aa366004611a51565b610628565b6102c26102bd366004611a81565b6106ab565b6040516101f39190611a9e565b6102e26102dd366004611ae2565b610717565b604080516001600160a01b03909716875260208701959095529385019290925260608401521515608083015260a082015260c0016101f3565b61029a610329366004611a38565b61077b565b61020f609681565b61020f610344366004611ae2565b610892565b61020f6108c2565b61020f7fb165298935924f540e4181c03493a5d686c54a0aaeb3f6216de85b7ffbba773881565b61020f610386366004611a38565b610952565b61020f610399366004611a0c565b600560209081526000928352604080842090915290825290205481565b6103dd7f000000000000000000000000000000000000000000000000000000000000000081565b6040516001600160a01b0390911681526020016101f3565b6101e7610403366004611a51565b6109d4565b61029a610416366004611b04565b6109fd565b6002546103dd906001600160a01b031681565b61020f600081565b610449610444366004611a38565b610ae3565b6040516101f39190611b3d565b6104c4610464366004611a38565b604080513060248201526044808201939093528151808203909301835260640190526020810180516001600160e01b031663095ea7b360e01b1790527f000000000000000000000000000000000000000000000000000000000000000091565b6040516101f3929190611c10565b61020f6104e0366004611a38565b60009081526006602052604090205490565b61029a610500366004611a51565b610b99565b61029a610513366004611ae2565b610bbe565b61052b610526366004611a0c565b6111e4565b604080519384526020840192909252908201526060016101f3565b61020f610554366004611a0c565b6113ac565b61020f6298968081565b60006001600160e01b03198216637965db0b60e01b148061059457506301ffc9a760e01b6001600160e01b03198316145b92915050565b6000818152600660205260408120548082036105ba576000915050610594565b6001600160a01b0384166000908152600560209081526040808320868452909152902054816105eb82612710611c4a565b6105f59190611c61565b95945050505050565b600082815260208190526040902060010154610619816113dd565b61062383836113ea565b505050565b6001600160a01b038116331461069d5760405162461bcd60e51b815260206004820152602f60248201527f416363657373436f6e74726f6c3a2063616e206f6e6c792072656e6f756e636560448201526e103937b632b9903337b91039b2b63360891b60648201526084015b60405180910390fd5b6106a7828261146e565b5050565b6001600160a01b03811660009081526004602090815260409182902080548351818402810184019094528084526060939283018282801561070b57602002820191906000526020600020905b8154815260200190600101908083116106f7575b50505050509050919050565b6003602052816000526040600020818154811061073357600080fd5b60009182526020909120600690910201805460018201546002830154600384015460048501546005909501546001600160a01b03909416965091945092909160ff9091169086565b6000610786816113dd565b6040516370a0823160e01b815230600482015282907f00000000000000000000000000000000000000000000000000000000000000006001600160a01b0316906370a0823190602401602060405180830381865afa1580156107ec573d6000803e3d6000fd5b505050506040513d601f19601f820116820180604052508101906108109190611c83565b101561085e5760405162461bcd60e51b815260206004820152601d60248201527f496e73756666696369656e7420636f6e74726163742062616c616e63650000006044820152606401610694565b6106a76001600160a01b037f00000000000000000000000000000000000000000000000000000000000000001633846114d3565b60006104b06237b1d0836108a68387611c4a565b6108b09190611c4a565b6108ba9190611c61565b949350505050565b6040516370a0823160e01b81523060048201526000907f00000000000000000000000000000000000000000000000000000000000000006001600160a01b0316906370a0823190602401602060405180830381865afa158015610929573d6000803e3d6000fd5b505050506040513d601f19601f8201168201806040525081019061094d9190611c83565b905090565b6002546000828152600660205260408082205490516395b304af60e01b815291926001600160a01b0316916395b304af916109939160040190815260200190565b602060405180830381865afa1580156109b0573d6000803e3d6000fd5b505050506040513d601f19601f820116820180604052508101906105949190611c83565b6000918252602082815260408084206001600160a01b0393909316845291905290205460ff1690565b7fa88d484f5aeb539ab60f9bd084e23511bc356a4f715a255e909643bb69ddcb41610a27816113dd565b600084815260066020526040902054831115610a855760405162461bcd60e51b815260206004820152601a60248201527f496e73756666696369656e742070726f6a6563742066756e64730000000000006044820152606401610694565b60008481526006602052604081208054859290610aa3908490611c9c565b90915550610add90506001600160a01b037f00000000000000000000000000000000000000000000000000000000000000001683856114d3565b50505050565b606060036000838152602001908152602001600020805480602002602001604051908101604052809291908181526020016000905b82821015610b8e5760008481526020908190206040805160c0810182526006860290920180546001600160a01b031683526001808201548486015260028201549284019290925260038101546060840152600481015460ff16151560808401526005015460a08301529083529092019101610b18565b505050509050919050565b600082815260208190526040902060010154610bb4816113dd565b610623838361146e565b610bc6611536565b7fb165298935924f540e4181c03493a5d686c54a0aaeb3f6216de85b7ffbba7738610bf0816113dd565b62989680821015610c435760405162461bcd60e51b815260206004820152601860248201527f496e766573746d656e742062656c6f77206d696e696d756d00000000000000006044820152606401610694565b6040516370a0823160e01b815233600482015282907f00000000000000000000000000000000000000000000000000000000000000006001600160a01b0316906370a0823190602401602060405180830381865afa158015610ca9573d6000803e3d6000fd5b505050506040513d601f19601f82011682018060405250810190610ccd9190611c83565b1015610d1b5760405162461bcd60e51b815260206004820152601960248201527f496e73756666696369656e7420555344432062616c616e6365000000000000006044820152606401610694565b600254604051631e1e7e5960e31b8152600481018590526000916001600160a01b03169063f0f3f2c890602401600060405180830381865afa158015610d65573d6000803e3d6000fd5b505050506040513d6000823e601f3d908101601f19168201604052610d8d9190810190611da6565b905060018161014001516005811115610da857610da8611f1f565b14610e015760405162461bcd60e51b8152602060048201526024808201527f50726f6a656374206e6f7420617661696c61626c6520666f7220696e766573746044820152631b595b9d60e21b6064820152608401610694565b60c0810151600085815260066020526040902054610e20908590611f35565b1115610e6e5760405162461bcd60e51b815260206004820152601960248201527f496e766573746d656e74206578636565647320746172676574000000000000006044820152606401610694565b610ea36001600160a01b037f00000000000000000000000000000000000000000000000000000000000000001633308661158f565b6000612710610eb3609686611c4a565b610ebd9190611c61565b90506000610ecb8286611c9c565b905080600660008881526020019081526020016000206000828254610ef09190611f35565b9091555060009050610f0382605a610892565b905060006040518060c00160405280336001600160a01b031681526020018981526020018481526020014281526020016000151581526020018381525090506003600089815260200190815260200160002081908060018154018082558091505060019003906000526020600020906006020160009091909190915060008201518160000160006101000a8154816001600160a01b0302191690836001600160a01b0316021790555060208201518160010155604082015181600201556060820151816003015560808201518160040160006101000a81548160ff02191690831515021790555060a08201518160050155505060056000336001600160a01b03166001600160a01b0316815260200190815260200160002060008981526020019081526020016000205460000361105757336000908152600460209081526040822080546001810182559083529120018890555b3360009081526005602090815260408083208b845290915281208054859290611081908490611f35565b9091555050600254604051631d66396960e21b8152600481018a9052602481018590526001600160a01b0390911690637598e5a490604401600060405180830381600087803b1580156110d357600080fd5b505af11580156110e7573d6000803e3d6000fd5b50506002546040516395b304af60e01b8152600481018b9052600093506001600160a01b0390911691506395b304af90602401602060405180830381865afa158015611137573d6000803e3d6000fd5b505050506040513d601f19601f8201168201806040525081019061115b9190611c83565b604080518a8152602081018390529192508a9133917f9bce88ff835d9d8831ccf5c7e04a2533f68510314393b3a54f990dea62e7134e910160405180910390a3604080518a8152602081018790527fa8341f104131cae3e9965326a01662a1e0dc3dc60c8d099fefa4578ef8f6f9ae910160405180910390a1505050505050506106a760018055565b6001600160a01b0382811660009081526005602090815260408083208584529091528082205460025491516395b304af60e01b8152600481018290529093839216906395b304af90602401602060405180830381865afa15801561124c573d6000803e3d6000fd5b505050506040513d601f19601f820116820180604052508101906112709190611c83565b9150600060036000868152602001908152602001600020805480602002602001604051908101604052809291908181526020016000905b8282101561131d5760008481526020908190206040805160c0810182526006860290920180546001600160a01b031683526001808201548486015260028201549284019290925260038101546060840152600481015460ff16151560808401526005015460a083015290835290920191016112a7565b50505050905060005b81518110156113a357866001600160a01b031682828151811061134b5761134b611f48565b6020026020010151600001516001600160a01b0316036113915781818151811061137757611377611f48565b602002602001015160a001518361138e9190611f35565b92505b8061139b81611f5e565b915050611326565b50509250925092565b600460205281600052604060002081815481106113c857600080fd5b90600052602060002001600091509150505481565b6113e781336115c7565b50565b6113f482826109d4565b6106a7576000828152602081815260408083206001600160a01b03851684529091529020805460ff1916600117905561142a3390565b6001600160a01b0316816001600160a01b0316837f2f8788117e7eff1d82e926ec794901d17c78024a50270940304540a733656f0d60405160405180910390a45050565b61147882826109d4565b156106a7576000828152602081815260408083206001600160a01b0385168085529252808320805460ff1916905551339285917ff6391f5c32d9c69d2a47ea670b442974b53935d1edc7fd64eb21e047a839171b9190a45050565b6040516001600160a01b03831660248201526044810182905261062390849063a9059cbb60e01b906064015b60408051601f198184030181529190526020810180516001600160e01b03166001600160e01b031990931692909217909152611620565b6002600154036115885760405162461bcd60e51b815260206004820152601f60248201527f5265656e7472616e637947756172643a207265656e7472616e742063616c6c006044820152606401610694565b6002600155565b6040516001600160a01b0380851660248301528316604482015260648101829052610add9085906323b872dd60e01b906084016114ff565b6115d182826109d4565b6106a7576115de816116f5565b6115e9836020611707565b6040516020016115fa929190611f77565b60408051601f198184030181529082905262461bcd60e51b825261069491600401611fec565b6000611675826040518060400160405280602081526020017f5361666545524332303a206c6f772d6c6576656c2063616c6c206661696c6564815250856001600160a01b03166118aa9092919063ffffffff16565b90508051600014806116965750808060200190518101906116969190611fff565b6106235760405162461bcd60e51b815260206004820152602a60248201527f5361666545524332303a204552433230206f7065726174696f6e20646964206e6044820152691bdd081cdd58d8d9595960b21b6064820152608401610694565b60606105946001600160a01b03831660145b60606000611716836002611c4a565b611721906002611f35565b67ffffffffffffffff81111561173957611739611caf565b6040519080825280601f01601f191660200182016040528015611763576020820181803683370190505b509050600360fc1b8160008151811061177e5761177e611f48565b60200101906001600160f81b031916908160001a905350600f60fb1b816001815181106117ad576117ad611f48565b60200101906001600160f81b031916908160001a90535060006117d1846002611c4a565b6117dc906001611f35565b90505b6001811115611854576f181899199a1a9b1b9c1cb0b131b232b360811b85600f166010811061181057611810611f48565b1a60f81b82828151811061182657611826611f48565b60200101906001600160f81b031916908160001a90535060049490941c9361184d8161201a565b90506117df565b5083156118a35760405162461bcd60e51b815260206004820181905260248201527f537472696e67733a20686578206c656e67746820696e73756666696369656e746044820152606401610694565b9392505050565b60606108ba848460008585600080866001600160a01b031685876040516118d19190612031565b60006040518083038185875af1925050503d806000811461190e576040519150601f19603f3d011682016040523d82523d6000602084013e611913565b606091505b50915091506119248783838761192f565b979650505050505050565b6060831561199e578251600003611997576001600160a01b0385163b6119975760405162461bcd60e51b815260206004820152601d60248201527f416464726573733a2063616c6c20746f206e6f6e2d636f6e74726163740000006044820152606401610694565b50816108ba565b6108ba83838151156119b35781518083602001fd5b8060405162461bcd60e51b81526004016106949190611fec565b6000602082840312156119df57600080fd5b81356001600160e01b0319811681146118a357600080fd5b6001600160a01b03811681146113e757600080fd5b60008060408385031215611a1f57600080fd5b8235611a2a816119f7565b946020939093013593505050565b600060208284031215611a4a57600080fd5b5035919050565b60008060408385031215611a6457600080fd5b823591506020830135611a76816119f7565b809150509250929050565b600060208284031215611a9357600080fd5b81356118a3816119f7565b6020808252825182820181905260009190848201906040850190845b81811015611ad657835183529284019291840191600101611aba565b50909695505050505050565b60008060408385031215611af557600080fd5b50508035926020909101359150565b600080600060608486031215611b1957600080fd5b83359250602084013591506040840135611b32816119f7565b809150509250925092565b602080825282518282018190526000919060409081850190868401855b82811015611bb357815180516001600160a01b03168552868101518786015285810151868601526060808201519086015260808082015115159086015260a0908101519085015260c09093019290850190600101611b5a565b5091979650505050505050565b60005b83811015611bdb578181015183820152602001611bc3565b50506000910152565b60008151808452611bfc816020860160208601611bc0565b601f01601f19169290920160200192915050565b6001600160a01b03831681526040602082018190526000906108ba90830184611be4565b634e487b7160e01b600052601160045260246000fd5b808202811582820484141761059457610594611c34565b600082611c7e57634e487b7160e01b600052601260045260246000fd5b500490565b600060208284031215611c9557600080fd5b5051919050565b8181038181111561059457610594611c34565b634e487b7160e01b600052604160045260246000fd5b6040516101c0810167ffffffffffffffff81118282101715611ce957611ce9611caf565b60405290565b8051611cfa816119f7565b919050565b600082601f830112611d1057600080fd5b815167ffffffffffffffff80821115611d2b57611d2b611caf565b604051601f8301601f19908116603f01168101908282118183101715611d5357611d53611caf565b81604052838152866020858801011115611d6c57600080fd5b611d7d846020830160208901611bc0565b9695505050505050565b805160068110611cfa57600080fd5b80518015158114611cfa57600080fd5b600060208284031215611db857600080fd5b815167ffffffffffffffff80821115611dd057600080fd5b908301906101c08286031215611de557600080fd5b611ded611cc5565b82518152611dfd60208401611cef565b6020820152604083015182811115611e1457600080fd5b611e2087828601611cff565b604083015250606083015182811115611e3857600080fd5b611e4487828601611cff565b606083015250608083015182811115611e5c57600080fd5b611e6887828601611cff565b60808301525060a083015160a082015260c083015160c082015260e083015160e0820152610100808401518183015250610120808401518183015250610140611eb2818501611d87565b90820152610160611ec4848201611d96565b908201526101808381015183811115611edc57600080fd5b611ee888828701611cff565b8284015250506101a08084015183811115611f0257600080fd5b611f0e88828701611cff565b918301919091525095945050505050565b634e487b7160e01b600052602160045260246000fd5b8082018082111561059457610594611c34565b634e487b7160e01b600052603260045260246000fd5b600060018201611f7057611f70611c34565b5060010190565b7f416363657373436f6e74726f6c3a206163636f756e7420000000000000000000815260008351611faf816017850160208801611bc0565b7001034b99036b4b9b9b4b733903937b6329607d1b6017918401918201528351611fe0816028840160208801611bc0565b01602801949350505050565b6020815260006118a36020830184611be4565b60006020828403121561201157600080fd5b6118a382611d96565b60008161202957612029611c34565b506000190190565b60008251612043818460208701611bc0565b919091019291505056fea2646970667358221220e953bb7b0aa9ed697eb33c606b6c02d89b1991ace17e3111d98c996263300c4164736f6c63430008140033",
  "linkReferences": {},
  "deployedLinkReferences": {}
}