{
  "_format": "hh-sol-artifact-1",
  "contractName": "InvestmentManager",
  "sourceName": "contracts/InvestmentManager.sol",
  "abi": [
    {
      "inputs": [
        {
          "internalType": "address",
          "name": "_projectFactoryAddress",
          "type": "address"
        }
      ],
      "stateMutability": "nonpayable",
      "type": "constructor"
    },
    {
      "anonymous": false,
      "inputs": [
        {
          "indexed": true,
          "internalType": "address",
          "name": "investor",
          "type": "address"
        },
        {
          "indexed": true,
          "internalType": "uint256",
          "name": "projectId",
          "type": "uint256"
        },
        {
          "indexed": false,
          "internalType": "uint256",
          "name": "amount",
          "type": "uint256"
        }
      ],
      "name": "Invested",
      "type": "event"
    },
    {
      "anonymous": false,
      "inputs": [
        {
          "indexed": true,
          "internalType": "bytes32",
          "name": "role",
          "type": "bytes32"
        },
        {
          "indexed": true,
          "internalType": "bytes32",
          "name": "previousAdminRole",
          "type": "bytes32"
        },
        {
          "indexed": true,
          "internalType": "bytes32",
          "name": "newAdminRole",
          "type": "bytes32"
        }
      ],
      "name": "RoleAdminChanged",
      "type": "event"
    },
    {
      "anonymous": false,
      "inputs": [
        {
          "indexed": true,
          "internalType": "bytes32",
          "name": "role",
          "type": "bytes32"
        },
        {
          "indexed": true,
          "internalType": "address",
          "name": "account",
          "type": "address"
        },
        {
          "indexed": true,
          "internalType": "address",
          "name": "sender",
          "type": "address"
        }
      ],
      "name": "RoleGranted",
      "type": "event"
    },
    {
      "anonymous": false,
      "inputs": [
        {
          "indexed": true,
          "internalType": "bytes32",
          "name": "role",
          "type": "bytes32"
        },
        {
          "indexed": true,
          "internalType": "address",
          "name": "account",
          "type": "address"
        },
        {
          "indexed": true,
          "internalType": "address",
          "name": "sender",
          "type": "address"
        }
      ],
      "name": "RoleRevoked",
      "type": "event"
    },
    {
      "anonymous": false,
      "inputs": [
        {
          "indexed": true,
          "internalType": "address",
          "name": "investor",
          "type": "address"
        },
        {
          "indexed": true,
          "internalType": "uint256",
          "name": "projectId",
          "type": "uint256"
        },
        {
          "indexed": false,
          "internalType": "uint256",
          "name": "amount",
          "type": "uint256"
        }
      ],
      "name": "Withdrawn",
      "type": "event"
    },
    {
      "inputs": [],
      "name": "DEFAULT_ADMIN_ROLE",
      "outputs": [
        {
          "internalType": "bytes32",
          "name": "",
          "type": "bytes32"
        }
      ],
      "stateMutability": "view",
      "type": "function"
    },
    {
      "inputs": [],
      "name": "INVESTOR_ROLE",
      "outputs": [
        {
          "internalType": "bytes32",
          "name": "",
          "type": "bytes32"
        }
      ],
      "stateMutability": "view",
      "type": "function"
    },
    {
      "inputs": [
        {
          "internalType": "address",
          "name": "investor",
          "type": "address"
        },
        {
          "internalType": "uint256",
          "name": "projectId",
          "type": "uint256"
        }
      ],
      "name": "getInvestorProjectInvestment",
      "outputs": [
        {
          "internalType": "uint256",
          "name": "",
          "type": "uint256"
        }
      ],
      "stateMutability": "view",
      "type": "function"
    },
    {
      "inputs": [
        {
          "internalType": "address",
          "name": "investor",
          "type": "address"
        }
      ],
      "name": "getInvestorProjects",
      "outputs": [
        {
          "internalType": "uint256[]",
          "name": "",
          "type": "uint256[]"
        }
      ],
      "stateMutability": "view",
      "type": "function"
    },
    {
      "inputs": [
        {
          "internalType": "uint256",
          "name": "projectId",
          "type": "uint256"
        }
      ],
      "name": "getProjectInvestments",
      "outputs": [
        {
          "components": [
            {
              "internalType": "address",
              "name": "investor",
              "type": "address"
            },
            {
              "internalType": "uint256",
              "name": "projectId",
              "type": "uint256"
            },
            {
              "internalType": "uint256",
              "name": "amount",
              "type": "uint256"
            },
            {
              "internalType": "uint256",
              "name": "timestamp",
              "type": "uint256"
            },
            {
              "internalType": "bool",
              "name": "claimed",
              "type": "bool"
            }
          ],
          "internalType": "struct InvestmentManager.Investment[]",
          "name": "",
          "type": "tuple[]"
        }
      ],
      "stateMutability": "view",
      "type": "function"
    },
    {
      "inputs": [
        {
          "internalType": "bytes32",
          "name": "role",
          "type": "bytes32"
        }
      ],
      "name": "getRoleAdmin",
      "outputs": [
        {
          "internalType": "bytes32",
          "name": "",
          "type": "bytes32"
        }
      ],
      "stateMutability": "view",
      "type": "function"
    },
    {
      "inputs": [
        {
          "internalType": "bytes32",
          "name": "role",
          "type": "bytes32"
        },
        {
          "internalType": "address",
          "name": "account",
          "type": "address"
        }
      ],
      "name": "grantRole",
      "outputs": [],
      "stateMutability": "nonpayable",
      "type": "function"
    },
    {
      "inputs": [
        {
          "internalType": "bytes32",
          "name": "role",
          "type": "bytes32"
        },
        {
          "internalType": "address",
          "name": "account",
          "type": "address"
        }
      ],
      "name": "hasRole",
      "outputs": [
        {
          "internalType": "bool",
          "name": "",
          "type": "bool"
        }
      ],
      "stateMutability": "view",
      "type": "function"
    },
    {
      "inputs": [
        {
          "internalType": "uint256",
          "name": "projectId",
          "type": "uint256"
        }
      ],
      "name": "invest",
      "outputs": [],
      "stateMutability": "payable",
      "type": "function"
    },
    {
      "inputs": [
        {
          "internalType": "address",
          "name": "",
          "type": "address"
        },
        {
          "internalType": "uint256",
          "name": "",
          "type": "uint256"
        }
      ],
      "name": "investorProjectAmount",
      "outputs": [
        {
          "internalType": "uint256",
          "name": "",
          "type": "uint256"
        }
      ],
      "stateMutability": "view",
      "type": "function"
    },
    {
      "inputs": [
        {
          "internalType": "address",
          "name": "",
          "type": "address"
        },
        {
          "internalType": "uint256",
          "name": "",
          "type": "uint256"
        }
      ],
      "name": "investorProjects",
      "outputs": [
        {
          "internalType": "uint256",
          "name": "",
          "type": "uint256"
        }
      ],
      "stateMutability": "view",
      "type": "function"
    },
    {
      "inputs": [],
      "name": "projectFactory",
      "outputs": [
        {
          "internalType": "contract ProjectFactory",
          "name": "",
          "type": "address"
        }
      ],
      "stateMutability": "view",
      "type": "function"
    },
    {
      "inputs": [
        {
          "internalType": "uint256",
          "name": "",
          "type": "uint256"
        },
        {
          "internalType": "uint256",
          "name": "",
          "type": "uint256"
        }
      ],
      "name": "projectInvestments",
      "outputs": [
        {
          "internalType": "address",
          "name": "investor",
          "type": "address"
        },
        {
          "internalType": "uint256",
          "name": "projectId",
          "type": "uint256"
        },
        {
          "internalType": "uint256",
          "name": "amount",
          "type": "uint256"
        },
        {
          "internalType": "uint256",
          "name": "timestamp",
          "type": "uint256"
        },
        {
          "internalType": "bool",
          "name": "claimed",
          "type": "bool"
        }
      ],
      "stateMutability": "view",
      "type": "function"
    },
    {
      "inputs": [
        {
          "internalType": "bytes32",
          "name": "role",
          "type": "bytes32"
        },
        {
          "internalType": "address",
          "name": "account",
          "type": "address"
        }
      ],
      "name": "renounceRole",
      "outputs": [],
      "stateMutability": "nonpayable",
      "type": "function"
    },
    {
      "inputs": [
        {
          "internalType": "bytes32",
          "name": "role",
          "type": "bytes32"
        },
        {
          "internalType": "address",
          "name": "account",
          "type": "address"
        }
      ],
      "name": "revokeRole",
      "outputs": [],
      "stateMutability": "nonpayable",
      "type": "function"
    },
    {
      "inputs": [
        {
          "internalType": "bytes4",
          "name": "interfaceId",
          "type": "bytes4"
        }
      ],
      "name": "supportsInterface",
      "outputs": [
        {
          "internalType": "bool",
          "name": "",
          "type": "bool"
        }
      ],
      "stateMutability": "view",
      "type": "function"
    }
  ],
  "bytecode": "0x608060405234801561001057600080fd5b506040516114ce3803806114ce83398101604081905261002f91610158565b600180556001600160a01b03811661008d5760405162461bcd60e51b815260206004820152601f60248201527f496e76616c69642070726f6a65637420666163746f7279206164647265737300604482015260640160405180910390fd5b600280546001600160a01b0319166001600160a01b0383161790556100b36000336100b9565b50610188565b6000828152602081815260408083206001600160a01b038516845290915290205460ff16610154576000828152602081815260408083206001600160a01b03851684529091529020805460ff191660011790556101133390565b6001600160a01b0316816001600160a01b0316837f2f8788117e7eff1d82e926ec794901d17c78024a50270940304540a733656f0d60405160405180910390a45b5050565b60006020828403121561016a57600080fd5b81516001600160a01b038116811461018157600080fd5b9392505050565b611337806101976000396000f3fe6080604052600436106100f35760003560e01c806376082a5e1161008a578063a217fddf11610059578063a217fddf14610348578063a284135b1461035d578063d547741f1461038a578063f95229a8146103aa57600080fd5b806376082a5e14610284578063828516a7146102b857806391d14854146102f057806397f519741461031057600080fd5b806336568abe116100c657806336568abe146101a057806337433196146101c05780633a1339cf146101ed57806367dea6b61461024157600080fd5b806301ffc9a7146100f8578063248a9ca31461012d5780632afcf4801461016b5780632f2ff15d14610180575b600080fd5b34801561010457600080fd5b50610118610113366004610dc9565b6103ca565b60405190151581526020015b60405180910390f35b34801561013957600080fd5b5061015d610148366004610df3565b60009081526020819052604090206001015490565b604051908152602001610124565b61017e610179366004610df3565b610401565b005b34801561018c57600080fd5b5061017e61019b366004610e21565b6107d5565b3480156101ac57600080fd5b5061017e6101bb366004610e21565b6107ff565b3480156101cc57600080fd5b506101e06101db366004610e51565b61087d565b6040516101249190610e6e565b3480156101f957600080fd5b5061020d610208366004610eb2565b6108e9565b604080516001600160a01b03909616865260208601949094529284019190915260608301521515608082015260a001610124565b34801561024d57600080fd5b5061015d61025c366004610ed4565b6001600160a01b03919091166000908152600560209081526040808320938352929052205490565b34801561029057600080fd5b5061015d7fb165298935924f540e4181c03493a5d686c54a0aaeb3f6216de85b7ffbba773881565b3480156102c457600080fd5b5061015d6102d3366004610ed4565b600560209081526000928352604080842090915290825290205481565b3480156102fc57600080fd5b5061011861030b366004610e21565b610944565b34801561031c57600080fd5b50600254610330906001600160a01b031681565b6040516001600160a01b039091168152602001610124565b34801561035457600080fd5b5061015d600081565b34801561036957600080fd5b5061037d610378366004610df3565b61096d565b6040516101249190610f00565b34801561039657600080fd5b5061017e6103a5366004610e21565b610a19565b3480156103b657600080fd5b5061015d6103c5366004610ed4565b610a3e565b60006001600160e01b03198216637965db0b60e01b14806103fb57506301ffc9a760e01b6001600160e01b03198316145b92915050565b610409610a6f565b7fb165298935924f540e4181c03493a5d686c54a0aaeb3f6216de85b7ffbba773861043381610ac8565b600034116104995760405162461bcd60e51b815260206004820152602860248201527f496e766573746d656e7420616d6f756e74206d75737420626520677265617465604482015267072207468616e20360c41b60648201526084015b60405180910390fd5b6002546040516024810184905260009182916001600160a01b039091169060440160408051601f198184030181529181526020820180516001600160e01b0316631e1e7e5960e31b179052516104ef9190610f9d565b600060405180830381855afa9150503d806000811461052a576040519150601f19603f3d011682016040523d82523d6000602084013e61052f565b606091505b5091509150816105815760405162461bcd60e51b815260206004820152601f60248201527f4661696c656420746f2066657463682070726f6a6563742064657461696c73006044820152606401610490565b60008180602001905181019061059791906110b0565b9050600181610120015160058111156105b2576105b26111d6565b1461060b5760405162461bcd60e51b8152602060048201526024808201527f50726f6a656374206e6f7420617661696c61626c6520666f7220696e766573746044820152631b595b9d60e21b6064820152608401610490565b8060a00151348260c001516106209190611202565b111561066e5760405162461bcd60e51b815260206004820181905260248201527f496e766573746d656e7420657863656564732074617267657420616d6f756e746044820152606401610490565b348160c0018181516106809190611202565b9052506040805160a0810182523380825260208083018981523484860190815242606086019081526000608087018181528d825260038087528983208054600180820183559185528885208b51600592830290910180546001600160a01b0319166001600160a01b039092169190911781559751918801919091559451600287015592519285019290925590516004909301805460ff19169315159390931790925592815291815283822089835290529182205490910361075e57336000908152600460209081526040822080546001810182559083529120018690555b33600090815260056020908152604080832089845290915281208054349290610788908490611202565b9091555050604051348152869033907f9e9d071824fd57d062ca63fd8b786d8da48a6807eebbcb2d83f9e8d21398e28c9060200160405180910390a350505050506107d260018055565b50565b6000828152602081905260409020600101546107f081610ac8565b6107fa8383610ad2565b505050565b6001600160a01b038116331461086f5760405162461bcd60e51b815260206004820152602f60248201527f416363657373436f6e74726f6c3a2063616e206f6e6c792072656e6f756e636560448201526e103937b632b9903337b91039b2b63360891b6064820152608401610490565b6108798282610b56565b5050565b6001600160a01b0381166000908152600460209081526040918290208054835181840281018401909452808452606093928301828280156108dd57602002820191906000526020600020905b8154815260200190600101908083116108c9575b50505050509050919050565b6003602052816000526040600020818154811061090557600080fd5b6000918252602090912060059091020180546001820154600283015460038401546004909401546001600160a01b039093169550909350919060ff1685565b6000918252602082815260408084206001600160a01b0393909316845291905290205460ff1690565b606060036000838152602001908152602001600020805480602002602001604051908101604052809291908181526020016000905b82821015610a0e5760008481526020908190206040805160a0810182526005860290920180546001600160a01b0316835260018082015484860152600282015492840192909252600381015460608401526004015460ff161515608083015290835290920191016109a2565b505050509050919050565b600082815260208190526040902060010154610a3481610ac8565b6107fa8383610b56565b60046020528160005260406000208181548110610a5a57600080fd5b90600052602060002001600091509150505481565b600260015403610ac15760405162461bcd60e51b815260206004820152601f60248201527f5265656e7472616e637947756172643a207265656e7472616e742063616c6c006044820152606401610490565b6002600155565b6107d28133610bbb565b610adc8282610944565b610879576000828152602081815260408083206001600160a01b03851684529091529020805460ff19166001179055610b123390565b6001600160a01b0316816001600160a01b0316837f2f8788117e7eff1d82e926ec794901d17c78024a50270940304540a733656f0d60405160405180910390a45050565b610b608282610944565b15610879576000828152602081815260408083206001600160a01b0385168085529252808320805460ff1916905551339285917ff6391f5c32d9c69d2a47ea670b442974b53935d1edc7fd64eb21e047a839171b9190a45050565b610bc58282610944565b61087957610bd281610c14565b610bdd836020610c26565b604051602001610bee929190611215565b60408051601f198184030181529082905262461bcd60e51b82526104909160040161128a565b60606103fb6001600160a01b03831660145b60606000610c358360026112bd565b610c40906002611202565b67ffffffffffffffff811115610c5857610c58610fb9565b6040519080825280601f01601f191660200182016040528015610c82576020820181803683370190505b509050600360fc1b81600081518110610c9d57610c9d6112d4565b60200101906001600160f81b031916908160001a905350600f60fb1b81600181518110610ccc57610ccc6112d4565b60200101906001600160f81b031916908160001a9053506000610cf08460026112bd565b610cfb906001611202565b90505b6001811115610d73576f181899199a1a9b1b9c1cb0b131b232b360811b85600f1660108110610d2f57610d2f6112d4565b1a60f81b828281518110610d4557610d456112d4565b60200101906001600160f81b031916908160001a90535060049490941c93610d6c816112ea565b9050610cfe565b508315610dc25760405162461bcd60e51b815260206004820181905260248201527f537472696e67733a20686578206c656e67746820696e73756666696369656e746044820152606401610490565b9392505050565b600060208284031215610ddb57600080fd5b81356001600160e01b031981168114610dc257600080fd5b600060208284031215610e0557600080fd5b5035919050565b6001600160a01b03811681146107d257600080fd5b60008060408385031215610e3457600080fd5b823591506020830135610e4681610e0c565b809150509250929050565b600060208284031215610e6357600080fd5b8135610dc281610e0c565b6020808252825182820181905260009190848201906040850190845b81811015610ea657835183529284019291840191600101610e8a565b50909695505050505050565b60008060408385031215610ec557600080fd5b50508035926020909101359150565b60008060408385031215610ee757600080fd5b8235610ef281610e0c565b946020939093013593505050565b602080825282518282018190526000919060409081850190868401855b82811015610f6c57815180516001600160a01b03168552868101518786015285810151868601526060808201519086015260809081015115159085015260a09093019290850190600101610f1d565b5091979650505050505050565b60005b83811015610f94578181015183820152602001610f7c565b50506000910152565b60008251610faf818460208701610f79565b9190910192915050565b634e487b7160e01b600052604160045260246000fd5b604051610160810167ffffffffffffffff81118282101715610ff357610ff3610fb9565b60405290565b805161100481610e0c565b919050565b600082601f83011261101a57600080fd5b815167ffffffffffffffff8082111561103557611035610fb9565b604051601f8301601f19908116603f0116810190828211818310171561105d5761105d610fb9565b8160405283815286602085880101111561107657600080fd5b611087846020830160208901610f79565b9695505050505050565b80516006811061100457600080fd5b8051801515811461100457600080fd5b6000602082840312156110c257600080fd5b815167ffffffffffffffff808211156110da57600080fd5b9083019061016082860312156110ef57600080fd5b6110f7610fcf565b8251815261110760208401610ff9565b602082015260408301518281111561111e57600080fd5b61112a87828601611009565b60408301525060608301518281111561114257600080fd5b61114e87828601611009565b60608301525060808301518281111561116657600080fd5b61117287828601611009565b60808301525060a083015160a082015260c083015160c082015260e083015160e08201526101009150818301518282015261012091506111b3828401611091565b8282015261014091506111c78284016110a0565b91810191909152949350505050565b634e487b7160e01b600052602160045260246000fd5b634e487b7160e01b600052601160045260246000fd5b808201808211156103fb576103fb6111ec565b7f416363657373436f6e74726f6c3a206163636f756e742000000000000000000081526000835161124d816017850160208801610f79565b7001034b99036b4b9b9b4b733903937b6329607d1b601791840191820152835161127e816028840160208801610f79565b01602801949350505050565b60208152600082518060208401526112a9816040850160208701610f79565b601f01601f19169190910160400192915050565b80820281158282048414176103fb576103fb6111ec565b634e487b7160e01b600052603260045260246000fd5b6000816112f9576112f96111ec565b50600019019056fea2646970667358221220db4ddde0a52b199717f03f1aaf017b039e1cad3cef56f3c7fd50bc878b092a3e64736f6c63430008140033",
  "linkReferences": {},
  "deployedLinkReferences": {}
}