{
  "_format": "hh-sol-artifact-1",
  "contractName": "GovernanceModule",
  "sourceName": "contracts/GovernanceModule.sol",
  "abi": [
    {
      "inputs": [],
      "stateMutability": "nonpayable",
      "type": "constructor"
    },
    {
      "anonymous": false,
      "inputs": [
        {
          "indexed": true,
          "internalType": "uint256",
          "name": "proposalId",
          "type": "uint256"
        },
        {
          "indexed": true,
          "internalType": "address",
          "name": "proposer",
          "type": "address"
        },
        {
          "indexed": false,
          "internalType": "string",
          "name": "description",
          "type": "string"
        },
        {
          "indexed": false,
          "internalType": "uint256",
          "name": "startBlock",
          "type": "uint256"
        },
        {
          "indexed": false,
          "internalType": "uint256",
          "name": "endBlock",
          "type": "uint256"
        },
        {
          "indexed": false,
          "internalType": "string",
          "name": "ipfsHash",
          "type": "string"
        }
      ],
      "name": "ProposalCreated",
      "type": "event"
    },
    {
      "anonymous": false,
      "inputs": [
        {
          "indexed": true,
          "internalType": "uint256",
          "name": "proposalId",
          "type": "uint256"
        }
      ],
      "name": "ProposalExecuted",
      "type": "event"
    },
    {
      "anonymous": false,
      "inputs": [
        {
          "indexed": true,
          "internalType": "bytes32",
          "name": "role",
          "type": "bytes32"
        },
        {
          "indexed": true,
          "internalType": "bytes32",
          "name": "previousAdminRole",
          "type": "bytes32"
        },
        {
          "indexed": true,
          "internalType": "bytes32",
          "name": "newAdminRole",
          "type": "bytes32"
        }
      ],
      "name": "RoleAdminChanged",
      "type": "event"
    },
    {
      "anonymous": false,
      "inputs": [
        {
          "indexed": true,
          "internalType": "bytes32",
          "name": "role",
          "type": "bytes32"
        },
        {
          "indexed": true,
          "internalType": "address",
          "name": "account",
          "type": "address"
        },
        {
          "indexed": true,
          "internalType": "address",
          "name": "sender",
          "type": "address"
        }
      ],
      "name": "RoleGranted",
      "type": "event"
    },
    {
      "anonymous": false,
      "inputs": [
        {
          "indexed": true,
          "internalType": "bytes32",
          "name": "role",
          "type": "bytes32"
        },
        {
          "indexed": true,
          "internalType": "address",
          "name": "account",
          "type": "address"
        },
        {
          "indexed": true,
          "internalType": "address",
          "name": "sender",
          "type": "address"
        }
      ],
      "name": "RoleRevoked",
      "type": "event"
    },
    {
      "anonymous": false,
      "inputs": [
        {
          "indexed": true,
          "internalType": "address",
          "name": "voter",
          "type": "address"
        },
        {
          "indexed": true,
          "internalType": "uint256",
          "name": "proposalId",
          "type": "uint256"
        },
        {
          "indexed": false,
          "internalType": "enum GovernanceModule.VoteType",
          "name": "support",
          "type": "uint8"
        },
        {
          "indexed": false,
          "internalType": "uint256",
          "name": "votes",
          "type": "uint256"
        }
      ],
      "name": "VoteCast",
      "type": "event"
    },
    {
      "inputs": [],
      "name": "DEFAULT_ADMIN_ROLE",
      "outputs": [
        {
          "internalType": "bytes32",
          "name": "",
          "type": "bytes32"
        }
      ],
      "stateMutability": "view",
      "type": "function"
    },
    {
      "inputs": [],
      "name": "GOVERNOR_ROLE",
      "outputs": [
        {
          "internalType": "bytes32",
          "name": "",
          "type": "bytes32"
        }
      ],
      "stateMutability": "view",
      "type": "function"
    },
    {
      "inputs": [
        {
          "internalType": "uint256",
          "name": "proposalId",
          "type": "uint256"
        },
        {
          "internalType": "enum GovernanceModule.VoteType",
          "name": "support",
          "type": "uint8"
        }
      ],
      "name": "castVote",
      "outputs": [],
      "stateMutability": "nonpayable",
      "type": "function"
    },
    {
      "inputs": [
        {
          "internalType": "uint256",
          "name": "proposalId",
          "type": "uint256"
        }
      ],
      "name": "executeProposal",
      "outputs": [],
      "stateMutability": "nonpayable",
      "type": "function"
    },
    {
      "inputs": [
        {
          "internalType": "bytes32",
          "name": "role",
          "type": "bytes32"
        }
      ],
      "name": "getRoleAdmin",
      "outputs": [
        {
          "internalType": "bytes32",
          "name": "",
          "type": "bytes32"
        }
      ],
      "stateMutability": "view",
      "type": "function"
    },
    {
      "inputs": [
        {
          "internalType": "bytes32",
          "name": "role",
          "type": "bytes32"
        },
        {
          "internalType": "address",
          "name": "account",
          "type": "address"
        }
      ],
      "name": "grantRole",
      "outputs": [],
      "stateMutability": "nonpayable",
      "type": "function"
    },
    {
      "inputs": [
        {
          "internalType": "bytes32",
          "name": "role",
          "type": "bytes32"
        },
        {
          "internalType": "address",
          "name": "account",
          "type": "address"
        }
      ],
      "name": "hasRole",
      "outputs": [
        {
          "internalType": "bool",
          "name": "",
          "type": "bool"
        }
      ],
      "stateMutability": "view",
      "type": "function"
    },
    {
      "inputs": [
        {
          "internalType": "address",
          "name": "",
          "type": "address"
        },
        {
          "internalType": "uint256",
          "name": "",
          "type": "uint256"
        }
      ],
      "name": "hasVoted",
      "outputs": [
        {
          "internalType": "bool",
          "name": "",
          "type": "bool"
        }
      ],
      "stateMutability": "view",
      "type": "function"
    },
    {
      "inputs": [],
      "name": "proposalThreshold",
      "outputs": [
        {
          "internalType": "uint256",
          "name": "",
          "type": "uint256"
        }
      ],
      "stateMutability": "view",
      "type": "function"
    },
    {
      "inputs": [
        {
          "internalType": "uint256",
          "name": "",
          "type": "uint256"
        }
      ],
      "name": "proposals",
      "outputs": [
        {
          "internalType": "uint256",
          "name": "id",
          "type": "uint256"
        },
        {
          "internalType": "address",
          "name": "proposer",
          "type": "address"
        },
        {
          "internalType": "string",
          "name": "description",
          "type": "string"
        },
        {
          "internalType": "uint256",
          "name": "startBlock",
          "type": "uint256"
        },
        {
          "internalType": "uint256",
          "name": "endBlock",
          "type": "uint256"
        },
        {
          "internalType": "uint256",
          "name": "forVotes",
          "type": "uint256"
        },
        {
          "internalType": "uint256",
          "name": "againstVotes",
          "type": "uint256"
        },
        {
          "internalType": "uint256",
          "name": "abstainVotes",
          "type": "uint256"
        },
        {
          "internalType": "bool",
          "name": "executed",
          "type": "bool"
        },
        {
          "internalType": "string",
          "name": "ipfsHash",
          "type": "string"
        }
      ],
      "stateMutability": "view",
      "type": "function"
    },
    {
      "inputs": [
        {
          "internalType": "string",
          "name": "description",
          "type": "string"
        },
        {
          "internalType": "string",
          "name": "ipfsHash",
          "type": "string"
        }
      ],
      "name": "propose",
      "outputs": [
        {
          "internalType": "uint256",
          "name": "",
          "type": "uint256"
        }
      ],
      "stateMutability": "nonpayable",
      "type": "function"
    },
    {
      "inputs": [
        {
          "internalType": "bytes32",
          "name": "role",
          "type": "bytes32"
        },
        {
          "internalType": "address",
          "name": "account",
          "type": "address"
        }
      ],
      "name": "renounceRole",
      "outputs": [],
      "stateMutability": "nonpayable",
      "type": "function"
    },
    {
      "inputs": [
        {
          "internalType": "bytes32",
          "name": "role",
          "type": "bytes32"
        },
        {
          "internalType": "address",
          "name": "account",
          "type": "address"
        }
      ],
      "name": "revokeRole",
      "outputs": [],
      "stateMutability": "nonpayable",
      "type": "function"
    },
    {
      "inputs": [
        {
          "internalType": "uint256",
          "name": "_votingDelay",
          "type": "uint256"
        },
        {
          "internalType": "uint256",
          "name": "_votingPeriod",
          "type": "uint256"
        },
        {
          "internalType": "uint256",
          "name": "_proposalThreshold",
          "type": "uint256"
        }
      ],
      "name": "setVotingParameters",
      "outputs": [],
      "stateMutability": "nonpayable",
      "type": "function"
    },
    {
      "inputs": [
        {
          "internalType": "address",
          "name": "account",
          "type": "address"
        },
        {
          "internalType": "uint256",
          "name": "power",
          "type": "uint256"
        }
      ],
      "name": "setVotingPower",
      "outputs": [],
      "stateMutability": "nonpayable",
      "type": "function"
    },
    {
      "inputs": [
        {
          "internalType": "uint256",
          "name": "proposalId",
          "type": "uint256"
        }
      ],
      "name": "state",
      "outputs": [
        {
          "internalType": "enum GovernanceModule.ProposalStatus",
          "name": "",
          "type": "uint8"
        }
      ],
      "stateMutability": "view",
      "type": "function"
    },
    {
      "inputs": [
        {
          "internalType": "bytes4",
          "name": "interfaceId",
          "type": "bytes4"
        }
      ],
      "name": "supportsInterface",
      "outputs": [
        {
          "internalType": "bool",
          "name": "",
          "type": "bool"
        }
      ],
      "stateMutability": "view",
      "type": "function"
    },
    {
      "inputs": [],
      "name": "votingDelay",
      "outputs": [
        {
          "internalType": "uint256",
          "name": "",
          "type": "uint256"
        }
      ],
      "stateMutability": "view",
      "type": "function"
    },
    {
      "inputs": [],
      "name": "votingPeriod",
      "outputs": [
        {
          "internalType": "uint256",
          "name": "",
          "type": "uint256"
        }
      ],
      "stateMutability": "view",
      "type": "function"
    },
    {
      "inputs": [
        {
          "internalType": "address",
          "name": "",
          "type": "address"
        }
      ],
      "name": "votingPower",
      "outputs": [
        {
          "internalType": "uint256",
          "name": "",
          "type": "uint256"
        }
      ],
      "stateMutability": "view",
      "type": "function"
    }
  ],
  "bytecode": "0x608060405260016005556103e8600655600160075534801561002057600080fd5b5061002c60003361005b565b6100567f7935bd0ae54bc31f548c14dba4d37c5c64b3f8ca900cb468fb8abd54d5894f553361005b565b6100fa565b6000828152602081815260408083206001600160a01b038516845290915290205460ff166100f6576000828152602081815260408083206001600160a01b03851684529091529020805460ff191660011790556100b53390565b6001600160a01b0316816001600160a01b0316837f2f8788117e7eff1d82e926ec794901d17c78024a50270940304540a733656f0d60405160405180910390a45b5050565b6114f9806101096000396000f3fe608060405234801561001057600080fd5b506004361061012c5760003560e01c80633e4f49e6116100ad578063a217fddf11610071578063a217fddf146102b1578063b58131b0146102b9578063c07473f6146102c2578063ccc57490146102e2578063d547741f1461030957600080fd5b80633e4f49e61461022a578063425458251461024a578063555f186014610278578063567813881461028b57806391d148541461029e57600080fd5b8063248a9ca3116100f4578063248a9ca3146101c5578063274b91a9146101e85780632f2ff15d146101fb57806336568abe1461020e5780633932abb11461022157600080fd5b8063013cf08b1461013157806301ffc9a71461016357806302a251a3146101865780630d61b5191461019d5780631c4afc57146101b2575b600080fd5b61014461013f366004610ecc565b61031c565b60405161015a9a99989796959493929190610f35565b60405180910390f35b610176610171366004610fad565b610491565b604051901515815260200161015a565b61018f60065481565b60405190815260200161015a565b6101b06101ab366004610ecc565b6104c8565b005b61018f6101c036600461107a565b610636565b61018f6101d3366004610ecc565b60009081526020819052604090206001015490565b6101b06101f63660046110fa565b6107a2565b6101b0610209366004611124565b6107ca565b6101b061021c366004611124565b6107f4565b61018f60055481565b61023d610238366004610ecc565b610872565b60405161015a9190611166565b6101766102583660046110fa565b600460209081526000928352604080842090915290825290205460ff1681565b6101b0610286366004611180565b61090f565b6101b06102993660046111ac565b610929565b6101766102ac366004611124565b610b6e565b61018f600081565b61018f60075481565b61018f6102d03660046111e0565b60036020526000908152604090205481565b61018f7f7935bd0ae54bc31f548c14dba4d37c5c64b3f8ca900cb468fb8abd54d5894f5581565b6101b0610317366004611124565b610b97565b600260208190526000918252604090912080546001820154928201805491936001600160a01b0316929161034f906111fb565b80601f016020809104026020016040519081016040528092919081815260200182805461037b906111fb565b80156103c85780601f1061039d576101008083540402835291602001916103c8565b820191906000526020600020905b8154815290600101906020018083116103ab57829003601f168201915b5050505050908060030154908060040154908060050154908060060154908060070154908060080160009054906101000a900460ff169080600901805461040e906111fb565b80601f016020809104026020016040519081016040528092919081815260200182805461043a906111fb565b80156104875780601f1061045c57610100808354040283529160200191610487565b820191906000526020600020905b81548152906001019060200180831161046a57829003601f168201915b505050505090508a565b60006001600160e01b03198216637965db0b60e01b14806104c257506301ffc9a760e01b6001600160e01b03198316145b92915050565b6000818152600260205260409020805482146104ff5760405162461bcd60e51b81526004016104f69061122f565b60405180910390fd5b806004015443116105525760405162461bcd60e51b815260206004820152601760248201527f566f74696e6720706572696f64206e6f7420656e64656400000000000000000060448201526064016104f6565b600881015460ff16156105a75760405162461bcd60e51b815260206004820152601960248201527f50726f706f73616c20616c72656164792065786563757465640000000000000060448201526064016104f6565b6006810154600582015411806105f75760405162461bcd60e51b815260206004820152601560248201527450726f706f73616c20646964206e6f74207061737360581b60448201526064016104f6565b60088201805460ff1916600117905560405183907f712ae1383f79ac853f8d882153778e0260ef8f03b504e2866e0593e04d2b291f90600090a2505050565b60007f7935bd0ae54bc31f548c14dba4d37c5c64b3f8ca900cb468fb8abd54d5894f5561066281610bbc565b6007543360009081526003602052604090205410156106c35760405162461bcd60e51b815260206004820152601960248201527f496e73756666696369656e7420766f74696e6720706f7765720000000000000060448201526064016104f6565b6106d1600180546001019055565b60006106dc60015490565b60008181526002602081905260409091208281556001810180546001600160a01b03191633179055919250810161071387826112b4565b50600554610722904390610bc9565b6003820155600654610735904390610bc9565b60048201556009810161074886826112b4565b50336001600160a01b0316827f974e545bb31a5286811f562fea8eddda715091d4599313dfccd594c0c337642788846003015485600401548a6040516107919493929190611374565b60405180910390a350949350505050565b60006107ad81610bbc565b506001600160a01b03909116600090815260036020526040902055565b6000828152602081905260409020600101546107e581610bbc565b6107ef8383610bdc565b505050565b6001600160a01b03811633146108645760405162461bcd60e51b815260206004820152602f60248201527f416363657373436f6e74726f6c3a2063616e206f6e6c792072656e6f756e636560448201526e103937b632b9903337b91039b2b63360891b60648201526084016104f6565b61086e8282610c60565b5050565b60008161087e60015490565b101561089c5760405162461bcd60e51b81526004016104f69061122f565b6000828152600260205260409020600881015460ff16156108c05750600392915050565b806003015443116108d45750600092915050565b806004015443116108e85750600192915050565b80600601548160050154116109005750600492915050565b50600292915050565b50919050565b600061091a81610bbc565b50600592909255600655600755565b336000908152600360205260409020546109775760405162461bcd60e51b815260206004820152600f60248201526e2737903b37ba34b733903837bbb2b960891b60448201526064016104f6565b33600090815260046020908152604080832085845290915290205460ff16156109d25760405162461bcd60e51b815260206004820152600d60248201526c105b1c9958591e481d9bdd1959609a1b60448201526064016104f6565b600082815260026020526040902080548314610a005760405162461bcd60e51b81526004016104f69061122f565b80600301544310158015610a18575080600401544311155b610a645760405162461bcd60e51b815260206004820152601860248201527f566f74696e6720706572696f64206e6f7420616374697665000000000000000060448201526064016104f6565b336000908152600360205260409020546001836002811115610a8857610a88611150565b03610aa6576005820154610a9c9082610bc9565b6005830155610b06565b6000836002811115610aba57610aba611150565b03610ad8576006820154610ace9082610bc9565b6006830155610b06565b6002836002811115610aec57610aec611150565b03610b06576007820154610b009082610bc9565b60078301555b33600081815260046020908152604080832088845290915290819020805460ff19166001179055518591907f2c9deb38f462962eadbd85a9d3a4120503ee091f1582eaaa10aa8c6797651d2990610b6090879086906113b0565b60405180910390a350505050565b6000918252602082815260408084206001600160a01b0393909316845291905290205460ff1690565b600082815260208190526040902060010154610bb281610bbc565b6107ef8383610c60565b610bc68133610cc5565b50565b6000610bd582846113e4565b9392505050565b610be68282610b6e565b61086e576000828152602081815260408083206001600160a01b03851684529091529020805460ff19166001179055610c1c3390565b6001600160a01b0316816001600160a01b0316837f2f8788117e7eff1d82e926ec794901d17c78024a50270940304540a733656f0d60405160405180910390a45050565b610c6a8282610b6e565b1561086e576000828152602081815260408083206001600160a01b0385168085529252808320805460ff1916905551339285917ff6391f5c32d9c69d2a47ea670b442974b53935d1edc7fd64eb21e047a839171b9190a45050565b610ccf8282610b6e565b61086e57610cdc81610d1e565b610ce7836020610d30565b604051602001610cf89291906113f7565b60408051601f198184030181529082905262461bcd60e51b82526104f69160040161146c565b60606104c26001600160a01b03831660145b60606000610d3f83600261147f565b610d4a9060026113e4565b67ffffffffffffffff811115610d6257610d62610fd7565b6040519080825280601f01601f191660200182016040528015610d8c576020820181803683370190505b509050600360fc1b81600081518110610da757610da7611496565b60200101906001600160f81b031916908160001a905350600f60fb1b81600181518110610dd657610dd6611496565b60200101906001600160f81b031916908160001a9053506000610dfa84600261147f565b610e059060016113e4565b90505b6001811115610e7d576f181899199a1a9b1b9c1cb0b131b232b360811b85600f1660108110610e3957610e39611496565b1a60f81b828281518110610e4f57610e4f611496565b60200101906001600160f81b031916908160001a90535060049490941c93610e76816114ac565b9050610e08565b508315610bd55760405162461bcd60e51b815260206004820181905260248201527f537472696e67733a20686578206c656e67746820696e73756666696369656e7460448201526064016104f6565b600060208284031215610ede57600080fd5b5035919050565b60005b83811015610f00578181015183820152602001610ee8565b50506000910152565b60008151808452610f21816020860160208601610ee5565b601f01601f19169290920160200192915050565b8a81526001600160a01b038a16602082015261014060408201819052600090610f608382018c610f09565b90508960608401528860808401528760a08401528660c08401528560e0840152841515610100840152828103610120840152610f9c8185610f09565b9d9c50505050505050505050505050565b600060208284031215610fbf57600080fd5b81356001600160e01b031981168114610bd557600080fd5b634e487b7160e01b600052604160045260246000fd5b600082601f830112610ffe57600080fd5b813567ffffffffffffffff8082111561101957611019610fd7565b604051601f8301601f19908116603f0116810190828211818310171561104157611041610fd7565b8160405283815286602085880101111561105a57600080fd5b836020870160208301376000602085830101528094505050505092915050565b6000806040838503121561108d57600080fd5b823567ffffffffffffffff808211156110a557600080fd5b6110b186838701610fed565b935060208501359150808211156110c757600080fd5b506110d485828601610fed565b9150509250929050565b80356001600160a01b03811681146110f557600080fd5b919050565b6000806040838503121561110d57600080fd5b611116836110de565b946020939093013593505050565b6000806040838503121561113757600080fd5b82359150611147602084016110de565b90509250929050565b634e487b7160e01b600052602160045260246000fd5b602081016005831061117a5761117a611150565b91905290565b60008060006060848603121561119557600080fd5b505081359360208301359350604090920135919050565b600080604083850312156111bf57600080fd5b823591506020830135600381106111d557600080fd5b809150509250929050565b6000602082840312156111f257600080fd5b610bd5826110de565b600181811c9082168061120f57607f821691505b60208210810361090957634e487b7160e01b600052602260045260246000fd5b60208082526017908201527f50726f706f73616c20646f6573206e6f74206578697374000000000000000000604082015260600190565b601f8211156107ef57600081815260208120601f850160051c8101602086101561128d5750805b601f850160051c820191505b818110156112ac57828155600101611299565b505050505050565b815167ffffffffffffffff8111156112ce576112ce610fd7565b6112e2816112dc84546111fb565b84611266565b602080601f83116001811461131757600084156112ff5750858301515b600019600386901b1c1916600185901b1785556112ac565b600085815260208120601f198616915b8281101561134657888601518255948401946001909101908401611327565b50858210156113645787850151600019600388901b60f8161c191681555b5050505050600190811b01905550565b6080815260006113876080830187610f09565b85602084015284604084015282810360608401526113a58185610f09565b979650505050505050565b60408101600384106113c4576113c4611150565b9281526020015290565b634e487b7160e01b600052601160045260246000fd5b808201808211156104c2576104c26113ce565b7f416363657373436f6e74726f6c3a206163636f756e742000000000000000000081526000835161142f816017850160208801610ee5565b7001034b99036b4b9b9b4b733903937b6329607d1b6017918401918201528351611460816028840160208801610ee5565b01602801949350505050565b602081526000610bd56020830184610f09565b80820281158282048414176104c2576104c26113ce565b634e487b7160e01b600052603260045260246000fd5b6000816114bb576114bb6113ce565b50600019019056fea26469706673582212208b86550108124011d57b380977ac944ed118facbeb058fc856d9110fdd56d9ed64736f6c63430008140033",
  "linkReferences": {},
  "deployedLinkReferences": {}
}