{
  "_format": "hh-sol-artifact-1",
  "contractName": "OracleIntegration",
  "sourceName": "contracts/OracleIntegration.sol",
  "abi": [
    {
      "inputs": [
        {
          "internalType": "address",
          "name": "_projectFactoryAddress",
          "type": "address"
        }
      ],
      "stateMutability": "nonpayable",
      "type": "constructor"
    },
    {
      "anonymous": false,
      "inputs": [
        {
          "indexed": true,
          "internalType": "uint256",
          "name": "projectId",
          "type": "uint256"
        },
        {
          "indexed": false,
          "internalType": "uint256",
          "name": "milestoneId",
          "type": "uint256"
        },
        {
          "indexed": false,
          "internalType": "address",
          "name": "raisedBy",
          "type": "address"
        }
      ],
      "name": "DisputeRaised",
      "type": "event"
    },
    {
      "anonymous": false,
      "inputs": [
        {
          "indexed": true,
          "internalType": "uint256",
          "name": "projectId",
          "type": "uint256"
        },
        {
          "indexed": false,
          "internalType": "uint256",
          "name": "milestoneId",
          "type": "uint256"
        },
        {
          "indexed": false,
          "internalType": "string",
          "name": "description",
          "type": "string"
        }
      ],
      "name": "MilestoneAdded",
      "type": "event"
    },
    {
      "anonymous": false,
      "inputs": [
        {
          "indexed": true,
          "internalType": "uint256",
          "name": "projectId",
          "type": "uint256"
        },
        {
          "indexed": false,
          "internalType": "uint256",
          "name": "milestoneId",
          "type": "uint256"
        },
        {
          "indexed": false,
          "internalType": "enum OracleIntegration.VerificationStatus",
          "name": "status",
          "type": "uint8"
        }
      ],
      "name": "MilestoneStatusUpdated",
      "type": "event"
    },
    {
      "anonymous": false,
      "inputs": [
        {
          "indexed": true,
          "internalType": "uint256",
          "name": "projectId",
          "type": "uint256"
        },
        {
          "indexed": false,
          "internalType": "uint256",
          "name": "milestoneId",
          "type": "uint256"
        },
        {
          "indexed": false,
          "internalType": "address",
          "name": "verifier",
          "type": "address"
        },
        {
          "indexed": false,
          "internalType": "enum OracleIntegration.DataSource",
          "name": "source",
          "type": "uint8"
        }
      ],
      "name": "MilestoneVerified",
      "type": "event"
    },
    {
      "anonymous": false,
      "inputs": [
        {
          "indexed": true,
          "internalType": "bytes32",
          "name": "role",
          "type": "bytes32"
        },
        {
          "indexed": true,
          "internalType": "bytes32",
          "name": "previousAdminRole",
          "type": "bytes32"
        },
        {
          "indexed": true,
          "internalType": "bytes32",
          "name": "newAdminRole",
          "type": "bytes32"
        }
      ],
      "name": "RoleAdminChanged",
      "type": "event"
    },
    {
      "anonymous": false,
      "inputs": [
        {
          "indexed": true,
          "internalType": "bytes32",
          "name": "role",
          "type": "bytes32"
        },
        {
          "indexed": true,
          "internalType": "address",
          "name": "account",
          "type": "address"
        },
        {
          "indexed": true,
          "internalType": "address",
          "name": "sender",
          "type": "address"
        }
      ],
      "name": "RoleGranted",
      "type": "event"
    },
    {
      "anonymous": false,
      "inputs": [
        {
          "indexed": true,
          "internalType": "bytes32",
          "name": "role",
          "type": "bytes32"
        },
        {
          "indexed": true,
          "internalType": "address",
          "name": "account",
          "type": "address"
        },
        {
          "indexed": true,
          "internalType": "address",
          "name": "sender",
          "type": "address"
        }
      ],
      "name": "RoleRevoked",
      "type": "event"
    },
    {
      "inputs": [],
      "name": "DEFAULT_ADMIN_ROLE",
      "outputs": [
        {
          "internalType": "bytes32",
          "name": "",
          "type": "bytes32"
        }
      ],
      "stateMutability": "view",
      "type": "function"
    },
    {
      "inputs": [],
      "name": "NGO_AGENT",
      "outputs": [
        {
          "internalType": "bytes32",
          "name": "",
          "type": "bytes32"
        }
      ],
      "stateMutability": "view",
      "type": "function"
    },
    {
      "inputs": [],
      "name": "ORACLE_NODE",
      "outputs": [
        {
          "internalType": "bytes32",
          "name": "",
          "type": "bytes32"
        }
      ],
      "stateMutability": "view",
      "type": "function"
    },
    {
      "inputs": [
        {
          "internalType": "uint256",
          "name": "projectId",
          "type": "uint256"
        },
        {
          "internalType": "string",
          "name": "description",
          "type": "string"
        },
        {
          "internalType": "uint256",
          "name": "targetDate",
          "type": "uint256"
        },
        {
          "internalType": "string",
          "name": "ipfsHash",
          "type": "string"
        }
      ],
      "name": "addMilestone",
      "outputs": [],
      "stateMutability": "nonpayable",
      "type": "function"
    },
    {
      "inputs": [
        {
          "internalType": "uint256",
          "name": "projectId",
          "type": "uint256"
        }
      ],
      "name": "getProjectMilestones",
      "outputs": [
        {
          "components": [
            {
              "internalType": "uint256",
              "name": "projectId",
              "type": "uint256"
            },
            {
              "internalType": "uint256",
              "name": "milestoneId",
              "type": "uint256"
            },
            {
              "internalType": "string",
              "name": "description",
              "type": "string"
            },
            {
              "internalType": "uint256",
              "name": "targetDate",
              "type": "uint256"
            },
            {
              "internalType": "uint256",
              "name": "completionDate",
              "type": "uint256"
            },
            {
              "internalType": "enum OracleIntegration.VerificationStatus",
              "name": "status",
              "type": "uint8"
            },
            {
              "internalType": "string",
              "name": "ipfsHash",
              "type": "string"
            },
            {
              "internalType": "address",
              "name": "verifiedBy",
              "type": "address"
            },
            {
              "internalType": "enum OracleIntegration.DataSource",
              "name": "source",
              "type": "uint8"
            }
          ],
          "internalType": "struct OracleIntegration.Milestone[]",
          "name": "",
          "type": "tuple[]"
        }
      ],
      "stateMutability": "view",
      "type": "function"
    },
    {
      "inputs": [
        {
          "internalType": "bytes32",
          "name": "role",
          "type": "bytes32"
        }
      ],
      "name": "getRoleAdmin",
      "outputs": [
        {
          "internalType": "bytes32",
          "name": "",
          "type": "bytes32"
        }
      ],
      "stateMutability": "view",
      "type": "function"
    },
    {
      "inputs": [
        {
          "internalType": "bytes32",
          "name": "role",
          "type": "bytes32"
        },
        {
          "internalType": "address",
          "name": "account",
          "type": "address"
        }
      ],
      "name": "grantRole",
      "outputs": [],
      "stateMutability": "nonpayable",
      "type": "function"
    },
    {
      "inputs": [
        {
          "internalType": "bytes32",
          "name": "role",
          "type": "bytes32"
        },
        {
          "internalType": "address",
          "name": "account",
          "type": "address"
        }
      ],
      "name": "hasRole",
      "outputs": [
        {
          "internalType": "bool",
          "name": "",
          "type": "bool"
        }
      ],
      "stateMutability": "view",
      "type": "function"
    },
    {
      "inputs": [
        {
          "internalType": "bytes32",
          "name": "",
          "type": "bytes32"
        },
        {
          "internalType": "uint256",
          "name": "",
          "type": "uint256"
        }
      ],
      "name": "milestoneVerifiers",
      "outputs": [
        {
          "internalType": "address",
          "name": "",
          "type": "address"
        }
      ],
      "stateMutability": "view",
      "type": "function"
    },
    {
      "inputs": [],
      "name": "projectFactory",
      "outputs": [
        {
          "internalType": "contract ProjectFactory",
          "name": "",
          "type": "address"
        }
      ],
      "stateMutability": "view",
      "type": "function"
    },
    {
      "inputs": [
        {
          "internalType": "uint256",
          "name": "",
          "type": "uint256"
        },
        {
          "internalType": "uint256",
          "name": "",
          "type": "uint256"
        }
      ],
      "name": "projectMilestones",
      "outputs": [
        {
          "internalType": "uint256",
          "name": "projectId",
          "type": "uint256"
        },
        {
          "internalType": "uint256",
          "name": "milestoneId",
          "type": "uint256"
        },
        {
          "internalType": "string",
          "name": "description",
          "type": "string"
        },
        {
          "internalType": "uint256",
          "name": "targetDate",
          "type": "uint256"
        },
        {
          "internalType": "uint256",
          "name": "completionDate",
          "type": "uint256"
        },
        {
          "internalType": "enum OracleIntegration.VerificationStatus",
          "name": "status",
          "type": "uint8"
        },
        {
          "internalType": "string",
          "name": "ipfsHash",
          "type": "string"
        },
        {
          "internalType": "address",
          "name": "verifiedBy",
          "type": "address"
        },
        {
          "internalType": "enum OracleIntegration.DataSource",
          "name": "source",
          "type": "uint8"
        }
      ],
      "stateMutability": "view",
      "type": "function"
    },
    {
      "inputs": [
        {
          "internalType": "uint256",
          "name": "projectId",
          "type": "uint256"
        },
        {
          "internalType": "uint256",
          "name": "milestoneId",
          "type": "uint256"
        }
      ],
      "name": "raiseDispute",
      "outputs": [],
      "stateMutability": "nonpayable",
      "type": "function"
    },
    {
      "inputs": [
        {
          "internalType": "bytes32",
          "name": "role",
          "type": "bytes32"
        },
        {
          "internalType": "address",
          "name": "account",
          "type": "address"
        }
      ],
      "name": "renounceRole",
      "outputs": [],
      "stateMutability": "nonpayable",
      "type": "function"
    },
    {
      "inputs": [
        {
          "internalType": "bytes32",
          "name": "role",
          "type": "bytes32"
        },
        {
          "internalType": "address",
          "name": "account",
          "type": "address"
        }
      ],
      "name": "revokeRole",
      "outputs": [],
      "stateMutability": "nonpayable",
      "type": "function"
    },
    {
      "inputs": [
        {
          "internalType": "uint256",
          "name": "_threshold",
          "type": "uint256"
        }
      ],
      "name": "setVerificationThreshold",
      "outputs": [],
      "stateMutability": "nonpayable",
      "type": "function"
    },
    {
      "inputs": [
        {
          "internalType": "bytes4",
          "name": "interfaceId",
          "type": "bytes4"
        }
      ],
      "name": "supportsInterface",
      "outputs": [
        {
          "internalType": "bool",
          "name": "",
          "type": "bool"
        }
      ],
      "stateMutability": "view",
      "type": "function"
    },
    {
      "inputs": [],
      "name": "verificationThreshold",
      "outputs": [
        {
          "internalType": "uint256",
          "name": "",
          "type": "uint256"
        }
      ],
      "stateMutability": "view",
      "type": "function"
    },
    {
      "inputs": [
        {
          "internalType": "uint256",
          "name": "projectId",
          "type": "uint256"
        },
        {
          "internalType": "uint256",
          "name": "milestoneId",
          "type": "uint256"
        },
        {
          "internalType": "bool",
          "name": "isVerified",
          "type": "bool"
        },
        {
          "internalType": "enum OracleIntegration.DataSource",
          "name": "source",
          "type": "uint8"
        }
      ],
      "name": "verifyMilestone",
      "outputs": [],
      "stateMutability": "nonpayable",
      "type": "function"
    }
  ],
  "bytecode": "0x6080604052600280553480156200001557600080fd5b5060405162001d4838038062001d48833981016040819052620000389162000163565b6001600160a01b038116620000935760405162461bcd60e51b815260206004820152601f60248201527f496e76616c69642070726f6a65637420666163746f7279206164647265737300604482015260640160405180910390fd5b600180546001600160a01b0319166001600160a01b038316179055620000bb600033620000c2565b5062000195565b6000828152602081815260408083206001600160a01b038516845290915290205460ff166200015f576000828152602081815260408083206001600160a01b03851684529091529020805460ff191660011790556200011e3390565b6001600160a01b0316816001600160a01b0316837f2f8788117e7eff1d82e926ec794901d17c78024a50270940304540a733656f0d60405160405180910390a45b5050565b6000602082840312156200017657600080fd5b81516001600160a01b03811681146200018e57600080fd5b9392505050565b611ba380620001a56000396000f3fe608060405234801561001057600080fd5b50600436106101165760003560e01c80636cb0adba116100a25780639f686097116100715780639f6860971461029f578063a217fddf146102b2578063a5310ad7146102ba578063d547741f146102cd578063ede0e1c9146102e057600080fd5b80636cb0adba1461022a578063857a4e631461025257806391d148541461027957806397f519741461028c57600080fd5b80632f2ff15d116100e95780632f2ff15d146101a857806336568abe146101bd57806338cc32c4146101d05780633ae94349146101e357806352766d801461020a57600080fd5b806301ffc9a71461011b578063167feb0914610143578063248a9ca31461015a578063293685e11461017d575b600080fd5b61012e61012936600461129f565b6102f3565b60405190151581526020015b60405180910390f35b61014c60025481565b60405190815260200161013a565b61014c6101683660046112c9565b60009081526020819052604090206001015490565b61019061018b3660046112e2565b61032a565b6040516001600160a01b03909116815260200161013a565b6101bb6101b6366004611319565b610362565b005b6101bb6101cb366004611319565b61038c565b6101bb6101de3660046112c9565b61040f565b61014c7fec1a88954037c9d74027ad328a1e8ed885ad51f8b3099c28af41bc1d969eddd981565b61021d6102183660046112c9565b610470565b60405161013a91906113da565b61023d6102383660046112e2565b6106ab565b60405161013a999897969594939291906114d2565b61014c7f514fcc7800d79c75ff6f4063f0cfa39fcafe052d27638688473bac480850116481565b61012e610287366004611319565b61083f565b600154610190906001600160a01b031681565b6101bb6102ad3660046112e2565b610868565b61014c600081565b6101bb6102c8366004611560565b6109cb565b6101bb6102db366004611319565b610c89565b6101bb6102ee36600461169d565b610cae565b60006001600160e01b03198216637965db0b60e01b148061032457506301ffc9a760e01b6001600160e01b03198316145b92915050565b6004602052816000526040600020818154811061034657600080fd5b6000918252602090912001546001600160a01b03169150829050565b60008281526020819052604090206001015461037d81610f9b565b6103878383610fa8565b505050565b6001600160a01b03811633146104015760405162461bcd60e51b815260206004820152602f60248201527f416363657373436f6e74726f6c3a2063616e206f6e6c792072656e6f756e636560448201526e103937b632b9903337b91039b2b63360891b60648201526084015b60405180910390fd5b61040b828261102c565b5050565b600061041a81610f9b565b6000821161046a5760405162461bcd60e51b815260206004820181905260248201527f5468726573686f6c64206d7573742062652067726561746572207468616e203060448201526064016103f8565b50600255565b606060036000838152602001908152602001600020805480602002602001604051908101604052809291908181526020016000905b828210156106a057838290600052602060002090600802016040518061012001604052908160008201548152602001600182015481526020016002820180546104ed90611714565b80601f016020809104026020016040519081016040528092919081815260200182805461051990611714565b80156105665780601f1061053b57610100808354040283529160200191610566565b820191906000526020600020905b81548152906001019060200180831161054957829003601f168201915b5050509183525050600382810154602083015260048301546040830152600583015460609092019160ff16908111156105a1576105a1611399565b60038111156105b2576105b2611399565b81526020016006820180546105c690611714565b80601f01602080910402602001604051908101604052809291908181526020018280546105f290611714565b801561063f5780601f106106145761010080835404028352916020019161063f565b820191906000526020600020905b81548152906001019060200180831161062257829003601f168201915b505050918352505060078201546001600160a01b0381166020830152604090910190600160a01b900460ff16600381111561067c5761067c611399565b600381111561068d5761068d611399565b81525050815260200190600101906104a5565b505050509050919050565b600360205281600052604060002081815481106106c757600080fd5b9060005260206000209060080201600091509150508060000154908060010154908060020180546106f790611714565b80601f016020809104026020016040519081016040528092919081815260200182805461072390611714565b80156107705780601f1061074557610100808354040283529160200191610770565b820191906000526020600020905b81548152906001019060200180831161075357829003601f168201915b5050506003840154600485015460058601546006870180549697939692955060ff9091169350906107a090611714565b80601f01602080910402602001604051908101604052809291908181526020018280546107cc90611714565b80156108195780601f106107ee57610100808354040283529160200191610819565b820191906000526020600020905b8154815290600101906020018083116107fc57829003601f168201915b505050600790930154919250506001600160a01b0381169060ff600160a01b9091041689565b6000918252602082815260408084206001600160a01b0393909316845291905290205460ff1690565b60008281526003602052604090205482106108c05760405162461bcd60e51b8152602060048201526018602482015277135a5b195cdd1bdb9948191bd95cc81b9bdd08195e1a5cdd60421b60448201526064016103f8565b60008281526003602052604081208054839081106108e0576108e061174e565b6000918252602090912060089091020190506001600582015460ff16600381111561090d5761090d611399565b148061093157506002600582015460ff16600381111561092f5761092f611399565b145b61097d5760405162461bcd60e51b815260206004820181905260248201527f43616e6e6f7420646973707574652070656e64696e67206d696c6573746f6e6560448201526064016103f8565b60058101805460ff191660031790556040805183815233602082015284917f83201991c75b30e493678d0543bdbd02d6a194a5a0dda31490a5fe09e9f0a220910160405180910390a2505050565b7fec1a88954037c9d74027ad328a1e8ed885ad51f8b3099c28af41bc1d969eddd96109f581610f9b565b6000858152600360205260409020548510610a4d5760405162461bcd60e51b8152602060048201526018602482015277135a5b195cdd1bdb9948191bd95cc81b9bdd08195e1a5cdd60421b60448201526064016103f8565b6000858152600360205260408120805486908110610a6d57610a6d61174e565b6000918252602082206008909102019150600582015460ff166003811115610a9757610a97611399565b1480610abb57506003600582015460ff166003811115610ab957610ab9611399565b145b610b075760405162461bcd60e51b815260206004820152601b60248201527f4d696c6573746f6e6520616c72656164792070726f636573736564000000000060448201526064016103f8565b604080516020810188905290810186905260009060600160408051601f1981840301815282825280516020918201206000818152600483529283208054600181018255908452919092200180546001600160a01b0319163390811790915590925088917fb84171a5d71e9745a90a1f60974199c4472c6f744e74fb363700c2f9c6b8837b91610b9a918a91908990611764565b60405180910390a260025460008281526004602052604090205410610c805784610bc5576002610bc8565b60015b60058301805460ff19166001836003811115610be657610be6611399565b0217905550426004830155600782018054336001600160a01b03198216811783558692916001600160a81b03191660ff60a01b1990911617600160a01b836003811115610c3557610c35611399565b0217905550600582015460405188917f855d7f62719d90b6dffa5d0c4b7a917b0e8a2fe2521d54486fda68888305e20191610c77918a9160ff90911690611791565b60405180910390a25b50505050505050565b600082815260208190526040902060010154610ca481610f9b565b610387838361102c565b6001546040516024810186905260009182916001600160a01b039091169060440160408051601f198184030181529181526020820180516001600160e01b0316631e1e7e5960e31b17905251610d0491906117ae565b600060405180830381855afa9150503d8060008114610d3f576040519150601f19603f3d011682016040523d82523d6000602084013e610d44565b606091505b509150915081610d965760405162461bcd60e51b815260206004820152601f60248201527f4661696c656420746f2066657463682070726f6a6563742064657461696c730060448201526064016103f8565b600081806020019051810190610dac9190611841565b60208101519091506001600160a01b0316331480610dd05750610dd060003361083f565b610e1c5760405162461bcd60e51b815260206004820152601f60248201527f4e6f7420617574686f72697a656420746f20616464206d696c6573746f6e650060448201526064016103f8565b600087815260036020908152604080832080548251610120810184528c81528085018281529381018c8152606082018c90526080820187905260a0820187905260c082018b905260e082018790526101008201879052600180840185559387529490952085516008830290910190815592519183019190915591519192916002820190610ea990826119b5565b50606082015181600301556080820151816004015560a08201518160050160006101000a81548160ff02191690836003811115610ee857610ee8611399565b021790555060c08201516006820190610f0190826119b5565b5060e08201516007820180546001600160a01b039092166001600160a01b0319831681178255610100850151926001600160a81b03191617600160a01b836003811115610f5057610f50611399565b02179055505050877fe67e4500ba1c5a33e0bb3c97b84e34eb7f637c3da038f433e1d77ba82e221dac8289604051610f89929190611a75565b60405180910390a25050505050505050565b610fa58133611091565b50565b610fb2828261083f565b61040b576000828152602081815260408083206001600160a01b03851684529091529020805460ff19166001179055610fe83390565b6001600160a01b0316816001600160a01b0316837f2f8788117e7eff1d82e926ec794901d17c78024a50270940304540a733656f0d60405160405180910390a45050565b611036828261083f565b1561040b576000828152602081815260408083206001600160a01b0385168085529252808320805460ff1916905551339285917ff6391f5c32d9c69d2a47ea670b442974b53935d1edc7fd64eb21e047a839171b9190a45050565b61109b828261083f565b61040b576110a8816110ea565b6110b38360206110fc565b6040516020016110c4929190611a8e565b60408051601f198184030181529082905262461bcd60e51b82526103f891600401611b03565b60606103246001600160a01b03831660145b6060600061110b836002611b2c565b611116906002611b43565b67ffffffffffffffff81111561112e5761112e6115ae565b6040519080825280601f01601f191660200182016040528015611158576020820181803683370190505b509050600360fc1b816000815181106111735761117361174e565b60200101906001600160f81b031916908160001a905350600f60fb1b816001815181106111a2576111a261174e565b60200101906001600160f81b031916908160001a90535060006111c6846002611b2c565b6111d1906001611b43565b90505b6001811115611249576f181899199a1a9b1b9c1cb0b131b232b360811b85600f16601081106112055761120561174e565b1a60f81b82828151811061121b5761121b61174e565b60200101906001600160f81b031916908160001a90535060049490941c9361124281611b56565b90506111d4565b5083156112985760405162461bcd60e51b815260206004820181905260248201527f537472696e67733a20686578206c656e67746820696e73756666696369656e7460448201526064016103f8565b9392505050565b6000602082840312156112b157600080fd5b81356001600160e01b03198116811461129857600080fd5b6000602082840312156112db57600080fd5b5035919050565b600080604083850312156112f557600080fd5b50508035926020909101359150565b6001600160a01b0381168114610fa557600080fd5b6000806040838503121561132c57600080fd5b82359150602083013561133e81611304565b809150509250929050565b60005b8381101561136457818101518382015260200161134c565b50506000910152565b60008151808452611385816020860160208601611349565b601f01601f19169290920160200192915050565b634e487b7160e01b600052602160045260246000fd5b60048110610fa557634e487b7160e01b600052602160045260246000fd5b6113d6816113af565b9052565b60006020808301818452808551808352604092508286019150828160051b87010184880160005b838110156114c457603f1989840301855281516101208151855288820151898601528782015181898701526114388287018261136d565b9150506060808301518187015250608080830151818701525060a080830151611463828801826113cd565b505060c0808301518683038288015261147c838261136d565b9250505060e08083015161149a828801826001600160a01b03169052565b505061010091820151916114b0868201846113cd565b509588019593505090860190600101611401565b509098975050505050505050565b60006101208b83528a60208401528060408401526114f28184018b61136d565b9050886060840152876080840152611509876113af565b8660a084015282810360c0840152611521818761136d565b6001600160a01b03861660e0850152915061153d9050836113af565b826101008301529a9950505050505050505050565b8015158114610fa557600080fd5b6000806000806080858703121561157657600080fd5b8435935060208501359250604085013561158f81611552565b91506060850135600481106115a357600080fd5b939692955090935050565b634e487b7160e01b600052604160045260246000fd5b604051610160810167ffffffffffffffff811182821017156115e8576115e86115ae565b60405290565b604051601f8201601f1916810167ffffffffffffffff81118282101715611617576116176115ae565b604052919050565b600067ffffffffffffffff821115611639576116396115ae565b50601f01601f191660200190565b600082601f83011261165857600080fd5b813561166b6116668261161f565b6115ee565b81815284602083860101111561168057600080fd5b816020850160208301376000918101602001919091529392505050565b600080600080608085870312156116b357600080fd5b84359350602085013567ffffffffffffffff808211156116d257600080fd5b6116de88838901611647565b94506040870135935060608701359150808211156116fb57600080fd5b5061170887828801611647565b91505092959194509250565b600181811c9082168061172857607f821691505b60208210810361174857634e487b7160e01b600052602260045260246000fd5b50919050565b634e487b7160e01b600052603260045260246000fd5b8381526001600160a01b038316602082015260608101611783836113af565b826040830152949350505050565b828152604081016117a1836113af565b8260208301529392505050565b600082516117c0818460208701611349565b9190910192915050565b80516117d581611304565b919050565b600082601f8301126117eb57600080fd5b81516117f96116668261161f565b81815284602083860101111561180e57600080fd5b61181f826020830160208701611349565b949350505050565b8051600681106117d557600080fd5b80516117d581611552565b60006020828403121561185357600080fd5b815167ffffffffffffffff8082111561186b57600080fd5b90830190610160828603121561188057600080fd5b6118886115c4565b82518152611898602084016117ca565b60208201526040830151828111156118af57600080fd5b6118bb878286016117da565b6040830152506060830151828111156118d357600080fd5b6118df878286016117da565b6060830152506080830151828111156118f757600080fd5b611903878286016117da565b60808301525060a083015160a082015260c083015160c082015260e083015160e0820152610100915081830151828201526101209150611944828401611827565b828201526101409150611958828401611836565b91810191909152949350505050565b601f82111561038757600081815260208120601f850160051c8101602086101561198e5750805b601f850160051c820191505b818110156119ad5782815560010161199a565b505050505050565b815167ffffffffffffffff8111156119cf576119cf6115ae565b6119e3816119dd8454611714565b84611967565b602080601f831160018114611a185760008415611a005750858301515b600019600386901b1c1916600185901b1785556119ad565b600085815260208120601f198616915b82811015611a4757888601518255948401946001909101908401611a28565b5085821015611a655787850151600019600388901b60f8161c191681555b5050505050600190811b01905550565b82815260406020820152600061181f604083018461136d565b7f416363657373436f6e74726f6c3a206163636f756e7420000000000000000000815260008351611ac6816017850160208801611349565b7001034b99036b4b9b9b4b733903937b6329607d1b6017918401918201528351611af7816028840160208801611349565b01602801949350505050565b602081526000611298602083018461136d565b634e487b7160e01b600052601160045260246000fd5b808202811582820484141761032457610324611b16565b8082018082111561032457610324611b16565b600081611b6557611b65611b16565b50600019019056fea2646970667358221220d5141f5136876ce637ec021882542663948d94e1fc679cd76b008bf24b6d366464736f6c63430008140033",
  "linkReferences": {},
  "deployedLinkReferences": {}
}