{
  "_format": "hh-sol-artifact-1",
  "contractName": "YieldDistributor",
  "sourceName": "contracts/YieldDistributor.sol",
  "abi": [
    {
      "inputs": [
        {
          "internalType": "address",
          "name": "_projectFactoryAddress",
          "type": "address"
        },
        {
          "internalType": "address",
          "name": "_investmentManagerAddress",
          "type": "address"
        }
      ],
      "stateMutability": "nonpayable",
      "type": "constructor"
    },
    {
      "anonymous": false,
      "inputs": [
        {
          "indexed": true,
          "internalType": "uint256",
          "name": "projectId",
          "type": "uint256"
        },
        {
          "indexed": false,
          "internalType": "uint256",
          "name": "amount",
          "type": "uint256"
        },
        {
          "indexed": false,
          "internalType": "bytes32",
          "name": "merkleRoot",
          "type": "bytes32"
        }
      ],
      "name": "DistributionCreated",
      "type": "event"
    },
    {
      "anonymous": false,
      "inputs": [
        {
          "indexed": true,
          "internalType": "bytes32",
          "name": "role",
          "type": "bytes32"
        },
        {
          "indexed": true,
          "internalType": "bytes32",
          "name": "previousAdminRole",
          "type": "bytes32"
        },
        {
          "indexed": true,
          "internalType": "bytes32",
          "name": "newAdminRole",
          "type": "bytes32"
        }
      ],
      "name": "RoleAdminChanged",
      "type": "event"
    },
    {
      "anonymous": false,
      "inputs": [
        {
          "indexed": true,
          "internalType": "bytes32",
          "name": "role",
          "type": "bytes32"
        },
        {
          "indexed": true,
          "internalType": "address",
          "name": "account",
          "type": "address"
        },
        {
          "indexed": true,
          "internalType": "address",
          "name": "sender",
          "type": "address"
        }
      ],
      "name": "RoleGranted",
      "type": "event"
    },
    {
      "anonymous": false,
      "inputs": [
        {
          "indexed": true,
          "internalType": "bytes32",
          "name": "role",
          "type": "bytes32"
        },
        {
          "indexed": true,
          "internalType": "address",
          "name": "account",
          "type": "address"
        },
        {
          "indexed": true,
          "internalType": "address",
          "name": "sender",
          "type": "address"
        }
      ],
      "name": "RoleRevoked",
      "type": "event"
    },
    {
      "anonymous": false,
      "inputs": [
        {
          "indexed": true,
          "internalType": "address",
          "name": "investor",
          "type": "address"
        },
        {
          "indexed": true,
          "internalType": "uint256",
          "name": "projectId",
          "type": "uint256"
        },
        {
          "indexed": false,
          "internalType": "uint256",
          "name": "amount",
          "type": "uint256"
        }
      ],
      "name": "YieldClaimed",
      "type": "event"
    },
    {
      "inputs": [],
      "name": "DEFAULT_ADMIN_ROLE",
      "outputs": [
        {
          "internalType": "bytes32",
          "name": "",
          "type": "bytes32"
        }
      ],
      "stateMutability": "view",
      "type": "function"
    },
    {
      "inputs": [],
      "name": "YIELD_MANAGER",
      "outputs": [
        {
          "internalType": "bytes32",
          "name": "",
          "type": "bytes32"
        }
      ],
      "stateMutability": "view",
      "type": "function"
    },
    {
      "inputs": [
        {
          "internalType": "uint256",
          "name": "projectId",
          "type": "uint256"
        },
        {
          "internalType": "uint256",
          "name": "distributionIndex",
          "type": "uint256"
        },
        {
          "internalType": "uint256",
          "name": "amount",
          "type": "uint256"
        },
        {
          "internalType": "bytes32[]",
          "name": "merkleProof",
          "type": "bytes32[]"
        }
      ],
      "name": "claimYield",
      "outputs": [],
      "stateMutability": "nonpayable",
      "type": "function"
    },
    {
      "inputs": [
        {
          "internalType": "bytes32",
          "name": "",
          "type": "bytes32"
        }
      ],
      "name": "claimed",
      "outputs": [
        {
          "internalType": "bool",
          "name": "",
          "type": "bool"
        }
      ],
      "stateMutability": "view",
      "type": "function"
    },
    {
      "inputs": [
        {
          "internalType": "uint256",
          "name": "projectId",
          "type": "uint256"
        },
        {
          "internalType": "uint256",
          "name": "totalAmount",
          "type": "uint256"
        },
        {
          "internalType": "bytes32",
          "name": "merkleRoot",
          "type": "bytes32"
        },
        {
          "internalType": "string",
          "name": "ipfsHash",
          "type": "string"
        }
      ],
      "name": "createDistribution",
      "outputs": [],
      "stateMutability": "nonpayable",
      "type": "function"
    },
    {
      "inputs": [
        {
          "internalType": "uint256",
          "name": "projectId",
          "type": "uint256"
        }
      ],
      "name": "getProjectDistributions",
      "outputs": [
        {
          "components": [
            {
              "internalType": "uint256",
              "name": "projectId",
              "type": "uint256"
            },
            {
              "internalType": "uint256",
              "name": "totalAmount",
              "type": "uint256"
            },
            {
              "internalType": "uint256",
              "name": "timestamp",
              "type": "uint256"
            },
            {
              "internalType": "bytes32",
              "name": "merkleRoot",
              "type": "bytes32"
            },
            {
              "internalType": "string",
              "name": "ipfsHash",
              "type": "string"
            }
          ],
          "internalType": "struct YieldDistributor.Distribution[]",
          "name": "",
          "type": "tuple[]"
        }
      ],
      "stateMutability": "view",
      "type": "function"
    },
    {
      "inputs": [
        {
          "internalType": "bytes32",
          "name": "role",
          "type": "bytes32"
        }
      ],
      "name": "getRoleAdmin",
      "outputs": [
        {
          "internalType": "bytes32",
          "name": "",
          "type": "bytes32"
        }
      ],
      "stateMutability": "view",
      "type": "function"
    },
    {
      "inputs": [
        {
          "internalType": "bytes32",
          "name": "role",
          "type": "bytes32"
        },
        {
          "internalType": "address",
          "name": "account",
          "type": "address"
        }
      ],
      "name": "grantRole",
      "outputs": [],
      "stateMutability": "nonpayable",
      "type": "function"
    },
    {
      "inputs": [
        {
          "internalType": "bytes32",
          "name": "role",
          "type": "bytes32"
        },
        {
          "internalType": "address",
          "name": "account",
          "type": "address"
        }
      ],
      "name": "hasRole",
      "outputs": [
        {
          "internalType": "bool",
          "name": "",
          "type": "bool"
        }
      ],
      "stateMutability": "view",
      "type": "function"
    },
    {
      "inputs": [],
      "name": "investmentManager",
      "outputs": [
        {
          "internalType": "contract InvestmentManager",
          "name": "",
          "type": "address"
        }
      ],
      "stateMutability": "view",
      "type": "function"
    },
    {
      "inputs": [
        {
          "internalType": "bytes32",
          "name": "merkleRoot",
          "type": "bytes32"
        },
        {
          "internalType": "address",
          "name": "account",
          "type": "address"
        }
      ],
      "name": "isClaimed",
      "outputs": [
        {
          "internalType": "bool",
          "name": "",
          "type": "bool"
        }
      ],
      "stateMutability": "view",
      "type": "function"
    },
    {
      "inputs": [
        {
          "internalType": "uint256",
          "name": "",
          "type": "uint256"
        },
        {
          "internalType": "uint256",
          "name": "",
          "type": "uint256"
        }
      ],
      "name": "projectDistributions",
      "outputs": [
        {
          "internalType": "uint256",
          "name": "projectId",
          "type": "uint256"
        },
        {
          "internalType": "uint256",
          "name": "totalAmount",
          "type": "uint256"
        },
        {
          "internalType": "uint256",
          "name": "timestamp",
          "type": "uint256"
        },
        {
          "internalType": "bytes32",
          "name": "merkleRoot",
          "type": "bytes32"
        },
        {
          "internalType": "string",
          "name": "ipfsHash",
          "type": "string"
        }
      ],
      "stateMutability": "view",
      "type": "function"
    },
    {
      "inputs": [],
      "name": "projectFactory",
      "outputs": [
        {
          "internalType": "contract ProjectFactory",
          "name": "",
          "type": "address"
        }
      ],
      "stateMutability": "view",
      "type": "function"
    },
    {
      "inputs": [
        {
          "internalType": "bytes32",
          "name": "role",
          "type": "bytes32"
        },
        {
          "internalType": "address",
          "name": "account",
          "type": "address"
        }
      ],
      "name": "renounceRole",
      "outputs": [],
      "stateMutability": "nonpayable",
      "type": "function"
    },
    {
      "inputs": [
        {
          "internalType": "bytes32",
          "name": "role",
          "type": "bytes32"
        },
        {
          "internalType": "address",
          "name": "account",
          "type": "address"
        }
      ],
      "name": "revokeRole",
      "outputs": [],
      "stateMutability": "nonpayable",
      "type": "function"
    },
    {
      "inputs": [
        {
          "internalType": "bytes4",
          "name": "interfaceId",
          "type": "bytes4"
        }
      ],
      "name": "supportsInterface",
      "outputs": [
        {
          "internalType": "bool",
          "name": "",
          "type": "bool"
        }
      ],
      "stateMutability": "view",
      "type": "function"
    },
    {
      "stateMutability": "payable",
      "type": "receive"
    }
  ],
  "bytecode": "0x60806040523480156200001157600080fd5b5060405162001bb738038062001bb7833981016040819052620000349162000226565b600180556001600160a01b038216620000945760405162461bcd60e51b815260206004820152601f60248201527f496e76616c69642070726f6a65637420666163746f727920616464726573730060448201526064015b60405180910390fd5b6001600160a01b038116620000f75760405162461bcd60e51b815260206004820152602260248201527f496e76616c696420696e766573746d656e74206d616e61676572206164647265604482015261737360f01b60648201526084016200008b565b600280546001600160a01b038085166001600160a01b03199283161790925560038054928416929091169190911790556200013460003362000168565b620001607f477cd016ab68b5322f0906f1362c1c0e38bba59e8b574a174552129f6c0310c63362000168565b50506200025e565b6000828152602081815260408083206001600160a01b038516845290915290205460ff1662000205576000828152602081815260408083206001600160a01b03851684529091529020805460ff19166001179055620001c43390565b6001600160a01b0316816001600160a01b0316837f2f8788117e7eff1d82e926ec794901d17c78024a50270940304540a733656f0d60405160405180910390a45b5050565b80516001600160a01b03811681146200022157600080fd5b919050565b600080604083850312156200023a57600080fd5b620002458362000209565b9150620002556020840162000209565b90509250929050565b611949806200026e6000396000f3fe6080604052600436106100f75760003560e01c806384ef71fb1161008a578063be0780a911610059578063be0780a9146102f7578063cc3c0f0614610317578063d547741f14610347578063dbdb8e621461036757600080fd5b806384ef71fb1461028257806391d14854146102a257806397f51974146102c2578063a217fddf146102e257600080fd5b80632f2ff15d116100c65780632f2ff15d146101d757806336568abe146101f95780634b31bb10146102195780634eeeb8ed1461025157600080fd5b806301ffc9a71461010357806315aa61d414610138578063219ebb9c14610165578063248a9ca3146101a757600080fd5b366100fe57005b600080fd5b34801561010f57600080fd5b5061012361011e36600461110b565b610387565b60405190151581526020015b60405180910390f35b34801561014457600080fd5b50610158610153366004611135565b6103be565b60405161012f919061119e565b34801561017157600080fd5b506101997f477cd016ab68b5322f0906f1362c1c0e38bba59e8b574a174552129f6c0310c681565b60405190815260200161012f565b3480156101b357600080fd5b506101996101c2366004611135565b60009081526020819052604090206001015490565b3480156101e357600080fd5b506101f76101f2366004611248565b6104ea565b005b34801561020557600080fd5b506101f7610214366004611248565b610514565b34801561022557600080fd5b50600354610239906001600160a01b031681565b6040516001600160a01b03909116815260200161012f565b34801561025d57600080fd5b5061027161026c366004611278565b610597565b60405161012f95949392919061129a565b34801561028e57600080fd5b5061012361029d366004611248565b610672565b3480156102ae57600080fd5b506101236102bd366004611248565b6106ce565b3480156102ce57600080fd5b50600254610239906001600160a01b031681565b3480156102ee57600080fd5b50610199600081565b34801561030357600080fd5b506101f7610312366004611369565b6106f7565b34801561032357600080fd5b50610123610332366004611135565b60056020526000908152604090205460ff1681565b34801561035357600080fd5b506101f7610362366004611248565b610a1f565b34801561037357600080fd5b506101f7610382366004611406565b610a44565b60006001600160e01b03198216637965db0b60e01b14806103b857506301ffc9a760e01b6001600160e01b03198316145b92915050565b606060046000838152602001908152602001600020805480602002602001604051908101604052809291908181526020016000905b828210156104df57838290600052602060002090600502016040518060a00160405290816000820154815260200160018201548152602001600282015481526020016003820154815260200160048201805461044e90611496565b80601f016020809104026020016040519081016040528092919081815260200182805461047a90611496565b80156104c75780601f1061049c576101008083540402835291602001916104c7565b820191906000526020600020905b8154815290600101906020018083116104aa57829003601f168201915b505050505081525050815260200190600101906103f3565b505050509050919050565b60008281526020819052604090206001015461050581610d1c565b61050f8383610d29565b505050565b6001600160a01b03811633146105895760405162461bcd60e51b815260206004820152602f60248201527f416363657373436f6e74726f6c3a2063616e206f6e6c792072656e6f756e636560448201526e103937b632b9903337b91039b2b63360891b60648201526084015b60405180910390fd5b6105938282610dad565b5050565b600460205281600052604060002081815481106105b357600080fd5b9060005260206000209060050201600091509150508060000154908060010154908060020154908060030154908060040180546105ef90611496565b80601f016020809104026020016040519081016040528092919081815260200182805461061b90611496565b80156106685780601f1061063d57610100808354040283529160200191610668565b820191906000526020600020905b81548152906001019060200180831161064b57829003601f168201915b5050505050905085565b600080838360405160200161069e92919091825260601b6001600160601b031916602082015260340190565b60408051808303601f1901815291815281516020928301206000908152600590925290205460ff16949350505050565b6000918252602082815260408084206001600160a01b0393909316845291905290205460ff1690565b7f477cd016ab68b5322f0906f1362c1c0e38bba59e8b574a174552129f6c0310c661072181610d1c565b610729610e12565b600084116107795760405162461bcd60e51b815260206004820152601d60248201527f416d6f756e74206d7573742062652067726561746572207468616e20300000006044820152606401610580565b60008390036107c05760405162461bcd60e51b8152602060048201526013602482015272125b9d985b1a59081b595c9adb19481c9bdbdd606a1b6044820152606401610580565b6002546040516024810187905260009182916001600160a01b039091169060440160408051601f198184030181529181526020820180516001600160e01b0316631e1e7e5960e31b1790525161081691906114d0565b600060405180830381855afa9150503d8060008114610851576040519150601f19603f3d011682016040523d82523d6000602084013e610856565b606091505b5091509150816108a85760405162461bcd60e51b815260206004820152601f60248201527f4661696c656420746f2066657463682070726f6a6563742064657461696c73006044820152606401610580565b6000818060200190518101906108be9190611568565b9050600381610140015160058111156108d9576108d96116e1565b14806108fb5750600481610140015160058111156108f9576108f96116e1565b145b6109555760405162461bcd60e51b815260206004820152602560248201527f50726f6a656374206e6f7420656c696769626c6520666f7220646973747269626044820152643aba34b7b760d91b6064820152608401610580565b6000888152600460208181526040808420815160a0810183528d81528084018d815242938201938452606082018d8152608083018d8152845460018181018755958a5296909820835160059097020195865590519285019290925591516002840155516003830155925190918201906109ce9082611745565b505060408051898152602081018990528a92507fcfea9121ca42ad03d6251b38dd9565f096a39e32aa5e5c8ac844ca844d087565910160405180910390a2505050610a1860018055565b5050505050565b600082815260208190526040902060010154610a3a81610d1c565b61050f8383610dad565b610a4c610e12565b6000858152600460205260409020548410610aa95760405162461bcd60e51b815260206004820152601a60248201527f496e76616c696420646973747269627574696f6e20696e6465780000000000006044820152606401610580565b6000858152600460205260408120805486908110610ac957610ac9611805565b9060005260206000209060050201905060003385604051602001610b0692919060609290921b6001600160601b0319168252601482015260340190565b604051602081830303815290604052805190602001209050610b5f848480806020026020016040519081016040528093929190818152602001838360200280828437600092019190915250505050600384015483610e6b565b610b9b5760405162461bcd60e51b815260206004820152600d60248201526c24b73b30b634b210383937b7b360991b6044820152606401610580565b6000826003015433604051602001610bca92919091825260601b6001600160601b031916602082015260340190565b60408051601f1981840301815291815281516020928301206000818152600590935291205490915060ff1615610c345760405162461bcd60e51b815260206004820152600f60248201526e105b1c9958591e4818db185a5b5959608a1b6044820152606401610580565b600081815260056020526040808220805460ff1916600117905551339088908381818185875af1925050503d8060008114610c8b576040519150601f19603f3d011682016040523d82523d6000602084013e610c90565b606091505b5050905080610cd85760405162461bcd60e51b815260206004820152601460248201527311985a5b1959081d1bc81cd95b99081e5a595b1960621b6044820152606401610580565b604051878152899033907f10d8dedfc0745b8c25ba10b06e304138b251c18dcaadf2d71c7f3214719dc4d19060200160405180910390a350505050610a1860018055565b610d268133610e81565b50565b610d3382826106ce565b610593576000828152602081815260408083206001600160a01b03851684529091529020805460ff19166001179055610d693390565b6001600160a01b0316816001600160a01b0316837f2f8788117e7eff1d82e926ec794901d17c78024a50270940304540a733656f0d60405160405180910390a45050565b610db782826106ce565b15610593576000828152602081815260408083206001600160a01b0385168085529252808320805460ff1916905551339285917ff6391f5c32d9c69d2a47ea670b442974b53935d1edc7fd64eb21e047a839171b9190a45050565b600260015403610e645760405162461bcd60e51b815260206004820152601f60248201527f5265656e7472616e637947756172643a207265656e7472616e742063616c6c006044820152606401610580565b6002600155565b600082610e788584610eda565b14949350505050565b610e8b82826106ce565b61059357610e9881610f27565b610ea3836020610f39565b604051602001610eb492919061181b565b60408051601f198184030181529082905262461bcd60e51b825261058091600401611890565b600081815b8451811015610f1f57610f0b82868381518110610efe57610efe611805565b60200260200101516110dc565b915080610f17816118b9565b915050610edf565b509392505050565b60606103b86001600160a01b03831660145b60606000610f488360026118d2565b610f539060026118e9565b67ffffffffffffffff811115610f6b57610f6b6112d0565b6040519080825280601f01601f191660200182016040528015610f95576020820181803683370190505b509050600360fc1b81600081518110610fb057610fb0611805565b60200101906001600160f81b031916908160001a905350600f60fb1b81600181518110610fdf57610fdf611805565b60200101906001600160f81b031916908160001a90535060006110038460026118d2565b61100e9060016118e9565b90505b6001811115611086576f181899199a1a9b1b9c1cb0b131b232b360811b85600f166010811061104257611042611805565b1a60f81b82828151811061105857611058611805565b60200101906001600160f81b031916908160001a90535060049490941c9361107f816118fc565b9050611011565b5083156110d55760405162461bcd60e51b815260206004820181905260248201527f537472696e67733a20686578206c656e67746820696e73756666696369656e746044820152606401610580565b9392505050565b60008183106110f85760008281526020849052604090206110d5565b60008381526020839052604090206110d5565b60006020828403121561111d57600080fd5b81356001600160e01b0319811681146110d557600080fd5b60006020828403121561114757600080fd5b5035919050565b60005b83811015611169578181015183820152602001611151565b50506000910152565b6000815180845261118a81602086016020860161114e565b601f01601f19169290920160200192915050565b60006020808301818452808551808352604092508286019150828160051b87010184880160005b8381101561122557888303603f19018552815180518452878101518885015286810151878501526060808201519085015260809081015160a09185018290529061121181860183611172565b9689019694505050908601906001016111c5565b509098975050505050505050565b6001600160a01b0381168114610d2657600080fd5b6000806040838503121561125b57600080fd5b82359150602083013561126d81611233565b809150509250929050565b6000806040838503121561128b57600080fd5b50508035926020909101359150565b85815284602082015283604082015282606082015260a0608082015260006112c560a0830184611172565b979650505050505050565b634e487b7160e01b600052604160045260246000fd5b6040516101c0810167ffffffffffffffff8111828210171561130a5761130a6112d0565b60405290565b604051601f8201601f1916810167ffffffffffffffff81118282101715611339576113396112d0565b604052919050565b600067ffffffffffffffff82111561135b5761135b6112d0565b50601f01601f191660200190565b6000806000806080858703121561137f57600080fd5b843593506020850135925060408501359150606085013567ffffffffffffffff8111156113ab57600080fd5b8501601f810187136113bc57600080fd5b80356113cf6113ca82611341565b611310565b8181528860208385010111156113e457600080fd5b8160208401602083013760006020838301015280935050505092959194509250565b60008060008060006080868803121561141e57600080fd5b853594506020860135935060408601359250606086013567ffffffffffffffff8082111561144b57600080fd5b818801915088601f83011261145f57600080fd5b81358181111561146e57600080fd5b8960208260051b850101111561148357600080fd5b9699959850939650602001949392505050565b600181811c908216806114aa57607f821691505b6020821081036114ca57634e487b7160e01b600052602260045260246000fd5b50919050565b600082516114e281846020870161114e565b9190910192915050565b80516114f781611233565b919050565b600082601f83011261150d57600080fd5b815161151b6113ca82611341565b81815284602083860101111561153057600080fd5b61154182602083016020870161114e565b949350505050565b8051600681106114f757600080fd5b805180151581146114f757600080fd5b60006020828403121561157a57600080fd5b815167ffffffffffffffff8082111561159257600080fd5b908301906101c082860312156115a757600080fd5b6115af6112e6565b825181526115bf602084016114ec565b60208201526040830151828111156115d657600080fd5b6115e2878286016114fc565b6040830152506060830151828111156115fa57600080fd5b611606878286016114fc565b60608301525060808301518281111561161e57600080fd5b61162a878286016114fc565b60808301525060a083015160a082015260c083015160c082015260e083015160e0820152610100808401518183015250610120808401518183015250610140611674818501611549565b90820152610160611686848201611558565b90820152610180838101518381111561169e57600080fd5b6116aa888287016114fc565b8284015250506101a080840151838111156116c457600080fd5b6116d0888287016114fc565b918301919091525095945050505050565b634e487b7160e01b600052602160045260246000fd5b601f82111561050f57600081815260208120601f850160051c8101602086101561171e5750805b601f850160051c820191505b8181101561173d5782815560010161172a565b505050505050565b815167ffffffffffffffff81111561175f5761175f6112d0565b6117738161176d8454611496565b846116f7565b602080601f8311600181146117a857600084156117905750858301515b600019600386901b1c1916600185901b17855561173d565b600085815260208120601f198616915b828110156117d7578886015182559484019460019091019084016117b8565b50858210156117f55787850151600019600388901b60f8161c191681555b5050505050600190811b01905550565b634e487b7160e01b600052603260045260246000fd5b7f416363657373436f6e74726f6c3a206163636f756e742000000000000000000081526000835161185381601785016020880161114e565b7001034b99036b4b9b9b4b733903937b6329607d1b601791840191820152835161188481602884016020880161114e565b01602801949350505050565b6020815260006110d56020830184611172565b634e487b7160e01b600052601160045260246000fd5b6000600182016118cb576118cb6118a3565b5060010190565b80820281158282048414176103b8576103b86118a3565b808201808211156103b8576103b86118a3565b60008161190b5761190b6118a3565b50600019019056fea26469706673582212207c093d2f889fb034d76729b8c98d61154b1c21479120b3615cc6fc264844256264736f6c63430008140033",
  "linkReferences": {},
  "deployedLinkReferences": {}
}