{
  "_format": "hh-sol-artifact-1",
  "contractName": "IdentityRegistry",
  "sourceName": "contracts/IdentityRegistry.sol",
  "abi": [
    {
      "inputs": [],
      "stateMutability": "nonpayable",
      "type": "constructor"
    },
    {
      "anonymous": false,
      "inputs": [
        {
          "indexed": true,
          "internalType": "bytes32",
          "name": "credentialId",
          "type": "bytes32"
        },
        {
          "indexed": true,
          "internalType": "address",
          "name": "subject",
          "type": "address"
        },
        {
          "indexed": false,
          "internalType": "enum IdentityRegistry.CredentialType",
          "name": "credType",
          "type": "uint8"
        },
        {
          "indexed": false,
          "internalType": "address",
          "name": "issuer",
          "type": "address"
        }
      ],
      "name": "CredentialIssued",
      "type": "event"
    },
    {
      "anonymous": false,
      "inputs": [
        {
          "indexed": true,
          "internalType": "bytes32",
          "name": "credentialId",
          "type": "bytes32"
        },
        {
          "indexed": true,
          "internalType": "address",
          "name": "issuer",
          "type": "address"
        }
      ],
      "name": "CredentialRevoked",
      "type": "event"
    },
    {
      "anonymous": false,
      "inputs": [
        {
          "indexed": true,
          "internalType": "address",
          "name": "did",
          "type": "address"
        },
        {
          "indexed": false,
          "internalType": "address",
          "name": "owner",
          "type": "address"
        }
      ],
      "name": "DIDRegistered",
      "type": "event"
    },
    {
      "anonymous": false,
      "inputs": [
        {
          "indexed": true,
          "internalType": "bytes32",
          "name": "role",
          "type": "bytes32"
        },
        {
          "indexed": true,
          "internalType": "bytes32",
          "name": "previousAdminRole",
          "type": "bytes32"
        },
        {
          "indexed": true,
          "internalType": "bytes32",
          "name": "newAdminRole",
          "type": "bytes32"
        }
      ],
      "name": "RoleAdminChanged",
      "type": "event"
    },
    {
      "anonymous": false,
      "inputs": [
        {
          "indexed": true,
          "internalType": "bytes32",
          "name": "role",
          "type": "bytes32"
        },
        {
          "indexed": true,
          "internalType": "address",
          "name": "account",
          "type": "address"
        },
        {
          "indexed": true,
          "internalType": "address",
          "name": "sender",
          "type": "address"
        }
      ],
      "name": "RoleGranted",
      "type": "event"
    },
    {
      "anonymous": false,
      "inputs": [
        {
          "indexed": true,
          "internalType": "bytes32",
          "name": "role",
          "type": "bytes32"
        },
        {
          "indexed": true,
          "internalType": "address",
          "name": "account",
          "type": "address"
        },
        {
          "indexed": true,
          "internalType": "address",
          "name": "sender",
          "type": "address"
        }
      ],
      "name": "RoleRevoked",
      "type": "event"
    },
    {
      "inputs": [],
      "name": "DEFAULT_ADMIN_ROLE",
      "outputs": [
        {
          "internalType": "bytes32",
          "name": "",
          "type": "bytes32"
        }
      ],
      "stateMutability": "view",
      "type": "function"
    },
    {
      "inputs": [],
      "name": "ISSUER_ROLE",
      "outputs": [
        {
          "internalType": "bytes32",
          "name": "",
          "type": "bytes32"
        }
      ],
      "stateMutability": "view",
      "type": "function"
    },
    {
      "inputs": [],
      "name": "VERIFIER_ROLE",
      "outputs": [
        {
          "internalType": "bytes32",
          "name": "",
          "type": "bytes32"
        }
      ],
      "stateMutability": "view",
      "type": "function"
    },
    {
      "inputs": [
        {
          "internalType": "bytes32",
          "name": "",
          "type": "bytes32"
        }
      ],
      "name": "credentials",
      "outputs": [
        {
          "internalType": "bytes32",
          "name": "id",
          "type": "bytes32"
        },
        {
          "internalType": "address",
          "name": "subject",
          "type": "address"
        },
        {
          "internalType": "enum IdentityRegistry.CredentialType",
          "name": "credType",
          "type": "uint8"
        },
        {
          "internalType": "string",
          "name": "ipfsHash",
          "type": "string"
        },
        {
          "internalType": "address",
          "name": "issuer",
          "type": "address"
        },
        {
          "internalType": "uint256",
          "name": "issuanceDate",
          "type": "uint256"
        },
        {
          "internalType": "uint256",
          "name": "expirationDate",
          "type": "uint256"
        },
        {
          "internalType": "enum IdentityRegistry.CredentialStatus",
          "name": "status",
          "type": "uint8"
        }
      ],
      "stateMutability": "view",
      "type": "function"
    },
    {
      "inputs": [
        {
          "internalType": "bytes32",
          "name": "credentialId",
          "type": "bytes32"
        }
      ],
      "name": "getCredential",
      "outputs": [
        {
          "internalType": "bytes32",
          "name": "id",
          "type": "bytes32"
        },
        {
          "internalType": "address",
          "name": "subject",
          "type": "address"
        },
        {
          "internalType": "enum IdentityRegistry.CredentialType",
          "name": "credType",
          "type": "uint8"
        },
        {
          "internalType": "string",
          "name": "ipfsHash",
          "type": "string"
        },
        {
          "internalType": "address",
          "name": "issuer",
          "type": "address"
        },
        {
          "internalType": "uint256",
          "name": "issuanceDate",
          "type": "uint256"
        },
        {
          "internalType": "uint256",
          "name": "expirationDate",
          "type": "uint256"
        },
        {
          "internalType": "enum IdentityRegistry.CredentialStatus",
          "name": "status",
          "type": "uint8"
        }
      ],
      "stateMutability": "view",
      "type": "function"
    },
    {
      "inputs": [
        {
          "internalType": "address",
          "name": "did",
          "type": "address"
        }
      ],
      "name": "getCredentials",
      "outputs": [
        {
          "internalType": "bytes32[]",
          "name": "",
          "type": "bytes32[]"
        }
      ],
      "stateMutability": "view",
      "type": "function"
    },
    {
      "inputs": [
        {
          "internalType": "bytes32",
          "name": "role",
          "type": "bytes32"
        }
      ],
      "name": "getRoleAdmin",
      "outputs": [
        {
          "internalType": "bytes32",
          "name": "",
          "type": "bytes32"
        }
      ],
      "stateMutability": "view",
      "type": "function"
    },
    {
      "inputs": [
        {
          "internalType": "bytes32",
          "name": "role",
          "type": "bytes32"
        },
        {
          "internalType": "address",
          "name": "account",
          "type": "address"
        }
      ],
      "name": "grantRole",
      "outputs": [],
      "stateMutability": "nonpayable",
      "type": "function"
    },
    {
      "inputs": [
        {
          "internalType": "bytes32",
          "name": "role",
          "type": "bytes32"
        },
        {
          "internalType": "address",
          "name": "account",
          "type": "address"
        }
      ],
      "name": "hasRole",
      "outputs": [
        {
          "internalType": "bool",
          "name": "",
          "type": "bool"
        }
      ],
      "stateMutability": "view",
      "type": "function"
    },
    {
      "inputs": [
        {
          "internalType": "address",
          "name": "",
          "type": "address"
        }
      ],
      "name": "identities",
      "outputs": [
        {
          "internalType": "address",
          "name": "owner",
          "type": "address"
        },
        {
          "internalType": "bool",
          "name": "isActive",
          "type": "bool"
        }
      ],
      "stateMutability": "view",
      "type": "function"
    },
    {
      "inputs": [
        {
          "internalType": "address",
          "name": "subject",
          "type": "address"
        },
        {
          "internalType": "enum IdentityRegistry.CredentialType",
          "name": "credType",
          "type": "uint8"
        },
        {
          "internalType": "string",
          "name": "ipfsHash",
          "type": "string"
        },
        {
          "internalType": "uint256",
          "name": "validityPeriod",
          "type": "uint256"
        }
      ],
      "name": "issueCredential",
      "outputs": [
        {
          "internalType": "bytes32",
          "name": "",
          "type": "bytes32"
        }
      ],
      "stateMutability": "nonpayable",
      "type": "function"
    },
    {
      "inputs": [],
      "name": "registerDID",
      "outputs": [],
      "stateMutability": "nonpayable",
      "type": "function"
    },
    {
      "inputs": [
        {
          "internalType": "address",
          "name": "",
          "type": "address"
        }
      ],
      "name": "registeredDIDs",
      "outputs": [
        {
          "internalType": "bool",
          "name": "",
          "type": "bool"
        }
      ],
      "stateMutability": "view",
      "type": "function"
    },
    {
      "inputs": [
        {
          "internalType": "bytes32",
          "name": "role",
          "type": "bytes32"
        },
        {
          "internalType": "address",
          "name": "account",
          "type": "address"
        }
      ],
      "name": "renounceRole",
      "outputs": [],
      "stateMutability": "nonpayable",
      "type": "function"
    },
    {
      "inputs": [
        {
          "internalType": "bytes32",
          "name": "credentialId",
          "type": "bytes32"
        }
      ],
      "name": "revokeCredential",
      "outputs": [],
      "stateMutability": "nonpayable",
      "type": "function"
    },
    {
      "inputs": [
        {
          "internalType": "bytes32",
          "name": "role",
          "type": "bytes32"
        },
        {
          "internalType": "address",
          "name": "account",
          "type": "address"
        }
      ],
      "name": "revokeRole",
      "outputs": [],
      "stateMutability": "nonpayable",
      "type": "function"
    },
    {
      "inputs": [
        {
          "internalType": "bytes4",
          "name": "interfaceId",
          "type": "bytes4"
        }
      ],
      "name": "supportsInterface",
      "outputs": [
        {
          "internalType": "bool",
          "name": "",
          "type": "bool"
        }
      ],
      "stateMutability": "view",
      "type": "function"
    },
    {
      "inputs": [
        {
          "internalType": "bytes32",
          "name": "credentialId",
          "type": "bytes32"
        }
      ],
      "name": "verifyCredential",
      "outputs": [
        {
          "internalType": "bool",
          "name": "",
          "type": "bool"
        }
      ],
      "stateMutability": "view",
      "type": "function"
    }
  ],
  "bytecode": "0x608060405234801561001057600080fd5b5061001c600033610021565b6100c0565b6000828152602081815260408083206001600160a01b038516845290915290205460ff166100bc576000828152602081815260408083206001600160a01b03851684529091529020805460ff1916600117905561007b3390565b6001600160a01b0316816001600160a01b0316837f2f8788117e7eff1d82e926ec794901d17c78024a50270940304540a733656f0d60405160405180910390a45b5050565b6113de806100cf6000396000f3fe608060405234801561001057600080fd5b50600436106101165760003560e01c8063a217fddf116100a2578063d547741f11610071578063d547741f14610271578063d8ab19f814610284578063e7705db6146102a7578063f653b81e146102ce578063f6a9900b1461032257600080fd5b8063a217fddf14610230578063b76c8ead14610238578063ca6eec781461024b578063d1be48831461025e57600080fd5b806336568abe116100e957806336568abe146101b05780634dbf87cc146101c357806382aefa24146101d657806384270608146101fd57806391d148541461021d57600080fd5b806301ffc9a71461011b578063248a9ca314610143578063299d0348146101745780632f2ff15d1461019b575b600080fd5b61012e610129366004610e0e565b61032a565b60405190151581526020015b60405180910390f35b610166610151366004610e38565b60009081526020819052604090206001015490565b60405190815260200161013a565b610187610182366004610e38565b610361565b60405161013a989796959493929190610ecb565b6101ae6101a9366004610f5b565b61044c565b005b6101ae6101be366004610f5b565b610476565b61012e6101d1366004610e38565b6104f9565b6101667f114e74f6ea3bd819998f78687bfcb11b140da08e9b7d222fa9c1f1ba1f2aa12281565b61021061020b366004610f87565b610538565b60405161013a9190610fa2565b61012e61022b366004610f5b565b6105a7565b610166600081565b610166610246366004610ffc565b6105d0565b6101ae610259366004610e38565b6107cc565b61018761026c366004610e38565b61090b565b6101ae61027f366004610f5b565b610a18565b61012e610292366004610f87565b60036020526000908152604090205460ff1681565b6101667f0ce23c3e399818cfee81a7ab0880f714e53d7672b08df0fa62f2843416e1ea0981565b6103036102dc366004610f87565b6001602052600090815260409020546001600160a01b03811690600160a01b900460ff1682565b604080516001600160a01b03909316835290151560208301520161013a565b6101ae610a3d565b60006001600160e01b03198216637965db0b60e01b148061035b57506301ffc9a760e01b6001600160e01b03198316145b92915050565b600260208190526000918252604090912080546001820154928201805491936001600160a01b03811693600160a01b90910460ff16929091906103a3906110dc565b80601f01602080910402602001604051908101604052809291908181526020018280546103cf906110dc565b801561041c5780601f106103f15761010080835404028352916020019161041c565b820191906000526020600020905b8154815290600101906020018083116103ff57829003601f168201915b5050505060038301546004840154600585015460069095015493946001600160a01b039092169390925060ff1688565b60008281526020819052604090206001015461046781610b11565b6104718383610b1e565b505050565b6001600160a01b03811633146104eb5760405162461bcd60e51b815260206004820152602f60248201527f416363657373436f6e74726f6c3a2063616e206f6e6c792072656e6f756e636560448201526e103937b632b9903337b91039b2b63360891b60648201526084015b60405180910390fd5b6104f58282610ba2565b5050565b600081815260026020526040812081600682015460ff16600281111561052157610521610e51565b1480156105315750428160050154115b9392505050565b6001600160a01b03811660009081526001602081815260409283902090910180548351818402810184019094528084526060939283018282801561059b57602002820191906000526020600020905b815481526020019060010190808311610587575b50505050509050919050565b6000918252602082815260408084206001600160a01b0393909316845291905290205460ff1690565b60007f114e74f6ea3bd819998f78687bfcb11b140da08e9b7d222fa9c1f1ba1f2aa1226105fc81610b11565b6001600160a01b03861660009081526003602052604090205460ff166106645760405162461bcd60e51b815260206004820152601a60248201527f5375626a65637420444944206e6f74207265676973746572656400000000000060448201526064016104e2565b6000868642873360405160200161067f959493929190611116565b60408051601f1981840301815291815281516020928301206000818152600290935291208181556001810180546001600160a01b038b166001600160a01b0319821681178355939450919289926001600160a81b03191617600160a01b8360048111156106ee576106ee610e51565b02179055506002810161070187826111cd565b506003810180546001600160a01b0319163317905542600482018190556107299086906112a3565b600582015560068101805460ff199081169091556001600160a01b03891660008181526001602081815260408084208084018054808601825590865283862001899055888552600281019092529283902080549095169091179093555184907fc3d56e67fe5742e168d3c2ba5c1fbc7a83f2efbea1548ba92304ce09cc859c1f906107b7908c9033906112b6565b60405180910390a35090979650505050505050565b7f114e74f6ea3bd819998f78687bfcb11b140da08e9b7d222fa9c1f1ba1f2aa1226107f681610b11565b600082815260026020526040902060038101546001600160a01b0316331461086a5760405162461bcd60e51b815260206004820152602160248201527f4e6f742074686520697373756572206f6620746869732063726564656e7469616044820152601b60fa1b60648201526084016104e2565b6000600682015460ff16600281111561088557610885610e51565b146108ca5760405162461bcd60e51b815260206004820152601560248201527443726564656e7469616c206e6f742061637469766560581b60448201526064016104e2565b60068101805460ff19166001179055604051339084907fd3196f598a360c115a1de20d5a58021203793f1bf1a08efe55ee14545779606d90600090a3505050565b600081815260026020819052604082208054600182015460038301546004840154600585015460068601549686018054899889986060988a98899889988998949793966001600160a01b038085169760ff600160a01b90960486169794909116949293921690859061097c906110dc565b80601f01602080910402602001604051908101604052809291908181526020018280546109a8906110dc565b80156109f55780601f106109ca576101008083540402835291602001916109f5565b820191906000526020600020905b8154815290600101906020018083116109d857829003601f168201915b505050505094509850985098509850985098509850985050919395975091939597565b600082815260208190526040902060010154610a3381610b11565b6104718383610ba2565b3360009081526003602052604090205460ff1615610a965760405162461bcd60e51b815260206004820152601660248201527511125108185b1c9958591e481c9959da5cdd195c995960521b60448201526064016104e2565b3360008181526001602081815260408084208054600160a01b6001600160a81b031990911660ff60a01b198816171781556003835293819020805460ff191690931790925590518381529192917f39bd36ee3d8d2421de0dca1341dee108c31829926315e099953a700898203627910160405180910390a250565b610b1b8133610c07565b50565b610b2882826105a7565b6104f5576000828152602081815260408083206001600160a01b03851684529091529020805460ff19166001179055610b5e3390565b6001600160a01b0316816001600160a01b0316837f2f8788117e7eff1d82e926ec794901d17c78024a50270940304540a733656f0d60405160405180910390a45050565b610bac82826105a7565b156104f5576000828152602081815260408083206001600160a01b0385168085529252808320805460ff1916905551339285917ff6391f5c32d9c69d2a47ea670b442974b53935d1edc7fd64eb21e047a839171b9190a45050565b610c1182826105a7565b6104f557610c1e81610c60565b610c29836020610c72565b604051602001610c3a9291906112dc565b60408051601f198184030181529082905262461bcd60e51b82526104e291600401611351565b606061035b6001600160a01b03831660145b60606000610c81836002611364565b610c8c9060026112a3565b67ffffffffffffffff811115610ca457610ca4610fe6565b6040519080825280601f01601f191660200182016040528015610cce576020820181803683370190505b509050600360fc1b81600081518110610ce957610ce961137b565b60200101906001600160f81b031916908160001a905350600f60fb1b81600181518110610d1857610d1861137b565b60200101906001600160f81b031916908160001a9053506000610d3c846002611364565b610d479060016112a3565b90505b6001811115610dbf576f181899199a1a9b1b9c1cb0b131b232b360811b85600f1660108110610d7b57610d7b61137b565b1a60f81b828281518110610d9157610d9161137b565b60200101906001600160f81b031916908160001a90535060049490941c93610db881611391565b9050610d4a565b5083156105315760405162461bcd60e51b815260206004820181905260248201527f537472696e67733a20686578206c656e67746820696e73756666696369656e7460448201526064016104e2565b600060208284031215610e2057600080fd5b81356001600160e01b03198116811461053157600080fd5b600060208284031215610e4a57600080fd5b5035919050565b634e487b7160e01b600052602160045260246000fd5b60058110610e7757610e77610e51565b9052565b60005b83811015610e96578181015183820152602001610e7e565b50506000910152565b60008151808452610eb7816020860160208601610e7b565b601f01601f19169290920160200192915050565b8881526001600160a01b03888116602083015260009061010090610ef2604085018b610e67565b816060850152610f048285018a610e9f565b9250808816608085015250508460a08301528360c083015260038310610f2c57610f2c610e51565b8260e08301529998505050505050505050565b80356001600160a01b0381168114610f5657600080fd5b919050565b60008060408385031215610f6e57600080fd5b82359150610f7e60208401610f3f565b90509250929050565b600060208284031215610f9957600080fd5b61053182610f3f565b6020808252825182820181905260009190848201906040850190845b81811015610fda57835183529284019291840191600101610fbe565b50909695505050505050565b634e487b7160e01b600052604160045260246000fd5b6000806000806080858703121561101257600080fd5b61101b85610f3f565b935060208501356005811061102f57600080fd5b9250604085013567ffffffffffffffff8082111561104c57600080fd5b818701915087601f83011261106057600080fd5b81358181111561107257611072610fe6565b604051601f8201601f19908116603f0116810190838211818310171561109a5761109a610fe6565b816040528281528a60208487010111156110b357600080fd5b826020860160208301376000928101602001929092525095989497509495606001359450505050565b600181811c908216806110f057607f821691505b60208210810361111057634e487b7160e01b600052602260045260246000fd5b50919050565b60006bffffffffffffffffffffffff19808860601b1683526005871061113e5761113e610e51565b8660f81b60148401528560158401528451611160816035860160208901610e7b565b60609490941b1691909201603581019190915260490195945050505050565b601f82111561047157600081815260208120601f850160051c810160208610156111a65750805b601f850160051c820191505b818110156111c5578281556001016111b2565b505050505050565b815167ffffffffffffffff8111156111e7576111e7610fe6565b6111fb816111f584546110dc565b8461117f565b602080601f83116001811461123057600084156112185750858301515b600019600386901b1c1916600185901b1785556111c5565b600085815260208120601f198616915b8281101561125f57888601518255948401946001909101908401611240565b508582101561127d5787850151600019600388901b60f8161c191681555b5050505050600190811b01905550565b634e487b7160e01b600052601160045260246000fd5b8082018082111561035b5761035b61128d565b604081016112c48285610e67565b6001600160a01b039290921660209190910152919050565b7f416363657373436f6e74726f6c3a206163636f756e7420000000000000000000815260008351611314816017850160208801610e7b565b7001034b99036b4b9b9b4b733903937b6329607d1b6017918401918201528351611345816028840160208801610e7b565b01602801949350505050565b6020815260006105316020830184610e9f565b808202811582820484141761035b5761035b61128d565b634e487b7160e01b600052603260045260246000fd5b6000816113a0576113a061128d565b50600019019056fea2646970667358221220a2345a06cf20672456b596c2768b1b27584d75138513329e1e854ad9e5e2abab64736f6c63430008140033",
  "linkReferences": {},
  "deployedLinkReferences": {}
}