{
  "_format": "hh-sol-artifact-1",
  "contractName": "ProjectFactory",
  "sourceName": "contracts/ProjectFactory.sol",
  "abi": [
    {
      "inputs": [],
      "stateMutability": "nonpayable",
      "type": "constructor"
    },
    {
      "anonymous": false,
      "inputs": [
        {
          "indexed": true,
          "internalType": "uint256",
          "name": "projectId",
          "type": "uint256"
        },
        {
          "indexed": true,
          "internalType": "address",
          "name": "farmer",
          "type": "address"
        },
        {
          "indexed": false,
          "internalType": "string",
          "name": "ipfsHash",
          "type": "string"
        }
      ],
      "name": "ProjectCreated",
      "type": "event"
    },
    {
      "anonymous": false,
      "inputs": [
        {
          "indexed": true,
          "internalType": "uint256",
          "name": "projectId",
          "type": "uint256"
        },
        {
          "indexed": false,
          "internalType": "uint256",
          "name": "amount",
          "type": "uint256"
        }
      ],
      "name": "ProjectFunded",
      "type": "event"
    },
    {
      "anonymous": false,
      "inputs": [
        {
          "indexed": true,
          "internalType": "uint256",
          "name": "projectId",
          "type": "uint256"
        },
        {
          "indexed": true,
          "internalType": "address",
          "name": "validator",
          "type": "address"
        },
        {
          "indexed": false,
          "internalType": "bool",
          "name": "isApproved",
          "type": "bool"
        }
      ],
      "name": "ProjectVerified",
      "type": "event"
    },
    {
      "anonymous": false,
      "inputs": [
        {
          "indexed": true,
          "internalType": "bytes32",
          "name": "role",
          "type": "bytes32"
        },
        {
          "indexed": true,
          "internalType": "bytes32",
          "name": "previousAdminRole",
          "type": "bytes32"
        },
        {
          "indexed": true,
          "internalType": "bytes32",
          "name": "newAdminRole",
          "type": "bytes32"
        }
      ],
      "name": "RoleAdminChanged",
      "type": "event"
    },
    {
      "anonymous": false,
      "inputs": [
        {
          "indexed": true,
          "internalType": "bytes32",
          "name": "role",
          "type": "bytes32"
        },
        {
          "indexed": true,
          "internalType": "address",
          "name": "account",
          "type": "address"
        },
        {
          "indexed": true,
          "internalType": "address",
          "name": "sender",
          "type": "address"
        }
      ],
      "name": "RoleGranted",
      "type": "event"
    },
    {
      "anonymous": false,
      "inputs": [
        {
          "indexed": true,
          "internalType": "bytes32",
          "name": "role",
          "type": "bytes32"
        },
        {
          "indexed": true,
          "internalType": "address",
          "name": "account",
          "type": "address"
        },
        {
          "indexed": true,
          "internalType": "address",
          "name": "sender",
          "type": "address"
        }
      ],
      "name": "RoleRevoked",
      "type": "event"
    },
    {
      "inputs": [],
      "name": "DEFAULT_ADMIN_ROLE",
      "outputs": [
        {
          "internalType": "bytes32",
          "name": "",
          "type": "bytes32"
        }
      ],
      "stateMutability": "view",
      "type": "function"
    },
    {
      "inputs": [],
      "name": "FARMER_ROLE",
      "outputs": [
        {
          "internalType": "bytes32",
          "name": "",
          "type": "bytes32"
        }
      ],
      "stateMutability": "view",
      "type": "function"
    },
    {
      "inputs": [],
      "name": "VALIDATOR_ROLE",
      "outputs": [
        {
          "internalType": "bytes32",
          "name": "",
          "type": "bytes32"
        }
      ],
      "stateMutability": "view",
      "type": "function"
    },
    {
      "inputs": [
        {
          "internalType": "string",
          "name": "title",
          "type": "string"
        },
        {
          "internalType": "string",
          "name": "description",
          "type": "string"
        },
        {
          "internalType": "string",
          "name": "ipfsHash",
          "type": "string"
        },
        {
          "internalType": "uint256",
          "name": "targetAmount",
          "type": "uint256"
        },
        {
          "internalType": "uint256",
          "name": "durationInDays",
          "type": "uint256"
        }
      ],
      "name": "createProject",
      "outputs": [],
      "stateMutability": "nonpayable",
      "type": "function"
    },
    {
      "inputs": [
        {
          "internalType": "address",
          "name": "",
          "type": "address"
        },
        {
          "internalType": "uint256",
          "name": "",
          "type": "uint256"
        }
      ],
      "name": "farmerProjects",
      "outputs": [
        {
          "internalType": "uint256",
          "name": "",
          "type": "uint256"
        }
      ],
      "stateMutability": "view",
      "type": "function"
    },
    {
      "inputs": [
        {
          "internalType": "uint256",
          "name": "projectId",
          "type": "uint256"
        }
      ],
      "name": "getProject",
      "outputs": [
        {
          "components": [
            {
              "internalType": "uint256",
              "name": "id",
              "type": "uint256"
            },
            {
              "internalType": "address",
              "name": "farmer",
              "type": "address"
            },
            {
              "internalType": "string",
              "name": "title",
              "type": "string"
            },
            {
              "internalType": "string",
              "name": "description",
              "type": "string"
            },
            {
              "internalType": "string",
              "name": "ipfsHash",
              "type": "string"
            },
            {
              "internalType": "uint256",
              "name": "targetAmount",
              "type": "uint256"
            },
            {
              "internalType": "uint256",
              "name": "fundedAmount",
              "type": "uint256"
            },
            {
              "internalType": "uint256",
              "name": "startDate",
              "type": "uint256"
            },
            {
              "internalType": "uint256",
              "name": "endDate",
              "type": "uint256"
            },
            {
              "internalType": "enum ProjectFactory.ProjectStatus",
              "name": "status",
              "type": "uint8"
            },
            {
              "internalType": "bool",
              "name": "isVerified",
              "type": "bool"
            }
          ],
          "internalType": "struct ProjectFactory.Project",
          "name": "",
          "type": "tuple"
        }
      ],
      "stateMutability": "view",
      "type": "function"
    },
    {
      "inputs": [
        {
          "internalType": "address",
          "name": "farmer",
          "type": "address"
        }
      ],
      "name": "getProjectsByFarmer",
      "outputs": [
        {
          "internalType": "uint256[]",
          "name": "",
          "type": "uint256[]"
        }
      ],
      "stateMutability": "view",
      "type": "function"
    },
    {
      "inputs": [
        {
          "internalType": "bytes32",
          "name": "role",
          "type": "bytes32"
        }
      ],
      "name": "getRoleAdmin",
      "outputs": [
        {
          "internalType": "bytes32",
          "name": "",
          "type": "bytes32"
        }
      ],
      "stateMutability": "view",
      "type": "function"
    },
    {
      "inputs": [
        {
          "internalType": "bytes32",
          "name": "role",
          "type": "bytes32"
        },
        {
          "internalType": "address",
          "name": "account",
          "type": "address"
        }
      ],
      "name": "grantRole",
      "outputs": [],
      "stateMutability": "nonpayable",
      "type": "function"
    },
    {
      "inputs": [
        {
          "internalType": "bytes32",
          "name": "role",
          "type": "bytes32"
        },
        {
          "internalType": "address",
          "name": "account",
          "type": "address"
        }
      ],
      "name": "hasRole",
      "outputs": [
        {
          "internalType": "bool",
          "name": "",
          "type": "bool"
        }
      ],
      "stateMutability": "view",
      "type": "function"
    },
    {
      "inputs": [
        {
          "internalType": "uint256",
          "name": "",
          "type": "uint256"
        }
      ],
      "name": "projects",
      "outputs": [
        {
          "internalType": "uint256",
          "name": "id",
          "type": "uint256"
        },
        {
          "internalType": "address",
          "name": "farmer",
          "type": "address"
        },
        {
          "internalType": "string",
          "name": "title",
          "type": "string"
        },
        {
          "internalType": "string",
          "name": "description",
          "type": "string"
        },
        {
          "internalType": "string",
          "name": "ipfsHash",
          "type": "string"
        },
        {
          "internalType": "uint256",
          "name": "targetAmount",
          "type": "uint256"
        },
        {
          "internalType": "uint256",
          "name": "fundedAmount",
          "type": "uint256"
        },
        {
          "internalType": "uint256",
          "name": "startDate",
          "type": "uint256"
        },
        {
          "internalType": "uint256",
          "name": "endDate",
          "type": "uint256"
        },
        {
          "internalType": "enum ProjectFactory.ProjectStatus",
          "name": "status",
          "type": "uint8"
        },
        {
          "internalType": "bool",
          "name": "isVerified",
          "type": "bool"
        }
      ],
      "stateMutability": "view",
      "type": "function"
    },
    {
      "inputs": [
        {
          "internalType": "bytes32",
          "name": "role",
          "type": "bytes32"
        },
        {
          "internalType": "address",
          "name": "account",
          "type": "address"
        }
      ],
      "name": "renounceRole",
      "outputs": [],
      "stateMutability": "nonpayable",
      "type": "function"
    },
    {
      "inputs": [
        {
          "internalType": "bytes32",
          "name": "role",
          "type": "bytes32"
        },
        {
          "internalType": "address",
          "name": "account",
          "type": "address"
        }
      ],
      "name": "revokeRole",
      "outputs": [],
      "stateMutability": "nonpayable",
      "type": "function"
    },
    {
      "inputs": [
        {
          "internalType": "bytes4",
          "name": "interfaceId",
          "type": "bytes4"
        }
      ],
      "name": "supportsInterface",
      "outputs": [
        {
          "internalType": "bool",
          "name": "",
          "type": "bool"
        }
      ],
      "stateMutability": "view",
      "type": "function"
    },
    {
      "inputs": [
        {
          "internalType": "uint256",
          "name": "projectId",
          "type": "uint256"
        },
        {
          "internalType": "bool",
          "name": "isApproved",
          "type": "bool"
        }
      ],
      "name": "verifyProject",
      "outputs": [],
      "stateMutability": "nonpayable",
      "type": "function"
    }
  ],
  "bytecode": "0x608060405234801561001057600080fd5b5061001c600033610021565b6100c0565b6000828152602081815260408083206001600160a01b038516845290915290205460ff166100bc576000828152602081815260408083206001600160a01b03851684529091529020805460ff1916600117905561007b3390565b6001600160a01b0316816001600160a01b0316837f2f8788117e7eff1d82e926ec794901d17c78024a50270940304540a733656f0d60405160405180910390a45b5050565b6117fd806100cf6000396000f3fe608060405234801561001057600080fd5b50600436106100f55760003560e01c8063671af11411610097578063d547741f11610066578063d547741f1461022d578063e683661714610240578063f0f3f2c814610253578063f39439701461027357600080fd5b8063671af114146101d857806391d14854146101eb578063a217fddf146101fe578063c49baebe1461020657600080fd5b80631c321b06116100d35780631c321b0614610161578063248a9ca3146101815780632f2ff15d146101b257806336568abe146101c557600080fd5b806301ffc9a7146100fa578063056c29ee14610122578063107046bd14610137575b600080fd5b61010d61010836600461110b565b61029a565b60405190151581526020015b60405180910390f35b6101356101303660046111d8565b6102d1565b005b61014a610145366004611272565b6105d3565b6040516101199b9a99989796959493929190611313565b61017461016f3660046113c5565b6107d0565b60405161011991906113e0565b6101a461018f366004611272565b60009081526020819052604090206001015490565b604051908152602001610119565b6101356101c0366004611424565b61083c565b6101356101d3366004611424565b610866565b6101a46101e6366004611450565b6108e4565b61010d6101f9366004611424565b610915565b6101a4600081565b6101a47f21702c8af46127c7fa207f89d0b0a8441bb32959a0ac7df790e9ab1a25c9892681565b61013561023b366004611424565b61093e565b61013561024e36600461147a565b610963565b610266610261366004611272565b610ad2565b60405161011991906114af565b6101a47f7c6181838a71a779e445600d4c6ecbe16bacf2b3c5bda69c29fada66d1b645d181565b60006001600160e01b03198216637965db0b60e01b14806102cb57506301ffc9a760e01b6001600160e01b03198316145b92915050565b7f7c6181838a71a779e445600d4c6ecbe16bacf2b3c5bda69c29fada66d1b645d16102fb81610d93565b60008651116103495760405162461bcd60e51b81526020600482015260156024820152745469746c652063616e6e6f7420626520656d70747960581b60448201526064015b60405180910390fd5b600083116103a55760405162461bcd60e51b8152602060048201526024808201527f54617267657420616d6f756e74206d75737420626520677265617465722074686044820152630616e20360e41b6064820152608401610340565b600082116103f55760405162461bcd60e51b815260206004820152601f60248201527f4475726174696f6e206d7573742062652067726561746572207468616e2030006044820152606401610340565b610403600180546001019055565b600061040e60015490565b9050604051806101600160405280828152602001336001600160a01b0316815260200188815260200187815260200186815260200185815260200160008152602001600081526020016000815260200160006005811115610471576104716112db565b815260006020918201819052838152600280835260409182902084518155928401516001840180546001600160a01b0319166001600160a01b0390921691909117905590830151908201906104c69082611612565b50606082015160038201906104db9082611612565b50608082015160048201906104f09082611612565b5060a0820151816005015560c0820151816006015560e0820151816007015561010082015181600801556101208201518160090160006101000a81548160ff02191690836005811115610545576105456112db565b02179055506101409190910151600990910180549115156101000261ff0019909216919091179055336000818152600360209081526040808320805460018101825590845291909220018390555182907f9d9ec461f162f3f4fdb9f6d189bfe13c59e48d8acd23a4c3bfcf7cc0fe4e84ed906105c29089906116d2565b60405180910390a350505050505050565b600260208190526000918252604090912080546001820154928201805491936001600160a01b031692916106069061158a565b80601f01602080910402602001604051908101604052809291908181526020018280546106329061158a565b801561067f5780601f106106545761010080835404028352916020019161067f565b820191906000526020600020905b81548152906001019060200180831161066257829003601f168201915b5050505050908060030180546106949061158a565b80601f01602080910402602001604051908101604052809291908181526020018280546106c09061158a565b801561070d5780601f106106e25761010080835404028352916020019161070d565b820191906000526020600020905b8154815290600101906020018083116106f057829003601f168201915b5050505050908060040180546107229061158a565b80601f016020809104026020016040519081016040528092919081815260200182805461074e9061158a565b801561079b5780601f106107705761010080835404028352916020019161079b565b820191906000526020600020905b81548152906001019060200180831161077e57829003601f168201915b505050600584015460068501546007860154600887015460099097015495969295919450925060ff808216916101009004168b565b6001600160a01b03811660009081526003602090815260409182902080548351818402810184019094528084526060939283018282801561083057602002820191906000526020600020905b81548152602001906001019080831161081c575b50505050509050919050565b60008281526020819052604090206001015461085781610d93565b6108618383610da0565b505050565b6001600160a01b03811633146108d65760405162461bcd60e51b815260206004820152602f60248201527f416363657373436f6e74726f6c3a2063616e206f6e6c792072656e6f756e636560448201526e103937b632b9903337b91039b2b63360891b6064820152608401610340565b6108e08282610e24565b5050565b6003602052816000526040600020818154811061090057600080fd5b90600052602060002001600091509150505481565b6000918252602082815260408084206001600160a01b0393909316845291905290205460ff1690565b60008281526020819052604090206001015461095981610d93565b6108618383610e24565b7f21702c8af46127c7fa207f89d0b0a8441bb32959a0ac7df790e9ab1a25c9892661098d81610d93565b600083815260026020526040812080549091036109e55760405162461bcd60e51b8152602060048201526016602482015275141c9bda9958dd08191bd95cc81b9bdd08195e1a5cdd60521b6044820152606401610340565b6000600982015460ff166005811115610a0057610a006112db565b14610a4d5760405162461bcd60e51b815260206004820152601960248201527f50726f6a65637420616c72656164792070726f636573736564000000000000006044820152606401610340565b8215610a835760098101805461ffff19166101011790554260078201819055610a79906276a7006116fb565b6008820155610a93565b60098101805460ff191660021790555b6040518315158152339085907f07af3a6578393ed19fd6f7264862c58e0c5b4869c616046607d6007476bb4a589060200160405180910390a350505050565b610ada611097565b6000828152600260205260408120549003610b305760405162461bcd60e51b8152602060048201526016602482015275141c9bda9958dd08191bd95cc81b9bdd08195e1a5cdd60521b6044820152606401610340565b6000828152600260208181526040928390208351610160810185528154815260018201546001600160a01b03169281019290925291820180549193840191610b779061158a565b80601f0160208091040260200160405190810160405280929190818152602001828054610ba39061158a565b8015610bf05780601f10610bc557610100808354040283529160200191610bf0565b820191906000526020600020905b815481529060010190602001808311610bd357829003601f168201915b50505050508152602001600382018054610c099061158a565b80601f0160208091040260200160405190810160405280929190818152602001828054610c359061158a565b8015610c825780601f10610c5757610100808354040283529160200191610c82565b820191906000526020600020905b815481529060010190602001808311610c6557829003601f168201915b50505050508152602001600482018054610c9b9061158a565b80601f0160208091040260200160405190810160405280929190818152602001828054610cc79061158a565b8015610d145780601f10610ce957610100808354040283529160200191610d14565b820191906000526020600020905b815481529060010190602001808311610cf757829003601f168201915b50505091835250506005828101546020830152600683015460408301526007830154606083015260088301546080830152600983015460a09092019160ff1690811115610d6357610d636112db565b6005811115610d7457610d746112db565b815260099190910154610100900460ff16151560209091015292915050565b610d9d8133610e89565b50565b610daa8282610915565b6108e0576000828152602081815260408083206001600160a01b03851684529091529020805460ff19166001179055610de03390565b6001600160a01b0316816001600160a01b0316837f2f8788117e7eff1d82e926ec794901d17c78024a50270940304540a733656f0d60405160405180910390a45050565b610e2e8282610915565b156108e0576000828152602081815260408083206001600160a01b0385168085529252808320805460ff1916905551339285917ff6391f5c32d9c69d2a47ea670b442974b53935d1edc7fd64eb21e047a839171b9190a45050565b610e938282610915565b6108e057610ea081610ee2565b610eab836020610ef4565b604051602001610ebc92919061170e565b60408051601f198184030181529082905262461bcd60e51b8252610340916004016116d2565b60606102cb6001600160a01b03831660145b60606000610f03836002611783565b610f0e9060026116fb565b67ffffffffffffffff811115610f2657610f26611135565b6040519080825280601f01601f191660200182016040528015610f50576020820181803683370190505b509050600360fc1b81600081518110610f6b57610f6b61179a565b60200101906001600160f81b031916908160001a905350600f60fb1b81600181518110610f9a57610f9a61179a565b60200101906001600160f81b031916908160001a9053506000610fbe846002611783565b610fc99060016116fb565b90505b6001811115611041576f181899199a1a9b1b9c1cb0b131b232b360811b85600f1660108110610ffd57610ffd61179a565b1a60f81b8282815181106110135761101361179a565b60200101906001600160f81b031916908160001a90535060049490941c9361103a816117b0565b9050610fcc565b5083156110905760405162461bcd60e51b815260206004820181905260248201527f537472696e67733a20686578206c656e67746820696e73756666696369656e746044820152606401610340565b9392505050565b6040518061016001604052806000815260200160006001600160a01b0316815260200160608152602001606081526020016060815260200160008152602001600081526020016000815260200160008152602001600060058111156110fe576110fe6112db565b8152600060209091015290565b60006020828403121561111d57600080fd5b81356001600160e01b03198116811461109057600080fd5b634e487b7160e01b600052604160045260246000fd5b600082601f83011261115c57600080fd5b813567ffffffffffffffff8082111561117757611177611135565b604051601f8301601f19908116603f0116810190828211818310171561119f5761119f611135565b816040528381528660208588010111156111b857600080fd5b836020870160208301376000602085830101528094505050505092915050565b600080600080600060a086880312156111f057600080fd5b853567ffffffffffffffff8082111561120857600080fd5b61121489838a0161114b565b9650602088013591508082111561122a57600080fd5b61123689838a0161114b565b9550604088013591508082111561124c57600080fd5b506112598882890161114b565b9598949750949560608101359550608001359392505050565b60006020828403121561128457600080fd5b5035919050565b60005b838110156112a657818101518382015260200161128e565b50506000910152565b600081518084526112c781602086016020860161128b565b601f01601f19169290920160200192915050565b634e487b7160e01b600052602160045260246000fd5b6006811061130f57634e487b7160e01b600052602160045260246000fd5b9052565b8b81526001600160a01b038b1660208201526101606040820181905260009061133e8382018d6112af565b90508281036060840152611352818c6112af565b90508281036080840152611366818b6112af565b9150508760a08301528660c08301528560e0830152846101008301526113906101208301856112f1565b8215156101408301529c9b505050505050505050505050565b80356001600160a01b03811681146113c057600080fd5b919050565b6000602082840312156113d757600080fd5b611090826113a9565b6020808252825182820181905260009190848201906040850190845b81811015611418578351835292840192918401916001016113fc565b50909695505050505050565b6000806040838503121561143757600080fd5b82359150611447602084016113a9565b90509250929050565b6000806040838503121561146357600080fd5b61146c836113a9565b946020939093013593505050565b6000806040838503121561148d57600080fd5b82359150602083013580151581146114a457600080fd5b809150509250929050565b6020815281516020820152600060208301516114d660408401826001600160a01b03169052565b5060408301516101608060608501526114f36101808501836112af565b91506060850151601f198086850301608087015261151184836112af565b935060808701519150808685030160a08701525061152f83826112af565b92505060a085015160c085015260c085015160e085015260e0850151610100818187015280870151915050610120818187015280870151915050610140611578818701836112f1565b90950151151593019290925250919050565b600181811c9082168061159e57607f821691505b6020821081036115be57634e487b7160e01b600052602260045260246000fd5b50919050565b601f82111561086157600081815260208120601f850160051c810160208610156115eb5750805b601f850160051c820191505b8181101561160a578281556001016115f7565b505050505050565b815167ffffffffffffffff81111561162c5761162c611135565b6116408161163a845461158a565b846115c4565b602080601f831160018114611675576000841561165d5750858301515b600019600386901b1c1916600185901b17855561160a565b600085815260208120601f198616915b828110156116a457888601518255948401946001909101908401611685565b50858210156116c25787850151600019600388901b60f8161c191681555b5050505050600190811b01905550565b60208152600061109060208301846112af565b634e487b7160e01b600052601160045260246000fd5b808201808211156102cb576102cb6116e5565b7f416363657373436f6e74726f6c3a206163636f756e742000000000000000000081526000835161174681601785016020880161128b565b7001034b99036b4b9b9b4b733903937b6329607d1b601791840191820152835161177781602884016020880161128b565b01602801949350505050565b80820281158282048414176102cb576102cb6116e5565b634e487b7160e01b600052603260045260246000fd5b6000816117bf576117bf6116e5565b50600019019056fea26469706673582212205ff34b47b7eb1a7a8dc12c4a9a83a191535263268e2a51e5d5428ffb4c7a08a164736f6c63430008140033",
  "linkReferences": {},
  "deployedLinkReferences": {}
}