{
  "_format": "hh-sol-artifact-1",
  "contractName": "ProjectFactory",
  "sourceName": "contracts/ProjectFactory.sol",
  "abi": [
    {
      "inputs": [
        {
          "internalType": "address",
          "name": "_usdcAddress",
          "type": "address"
        }
      ],
      "stateMutability": "nonpayable",
      "type": "constructor"
    },
    {
      "anonymous": false,
      "inputs": [
        {
          "indexed": true,
          "internalType": "uint256",
          "name": "projectId",
          "type": "uint256"
        },
        {
          "indexed": true,
          "internalType": "address",
          "name": "farmer",
          "type": "address"
        },
        {
          "indexed": false,
          "internalType": "string",
          "name": "ipfsHash",
          "type": "string"
        },
        {
          "indexed": false,
          "internalType": "uint256",
          "name": "targetAmountBDT",
          "type": "uint256"
        },
        {
          "indexed": false,
          "internalType": "uint256",
          "name": "targetAmountUSDC",
          "type": "uint256"
        }
      ],
      "name": "ProjectCreated",
      "type": "event"
    },
    {
      "anonymous": false,
      "inputs": [
        {
          "indexed": true,
          "internalType": "uint256",
          "name": "projectId",
          "type": "uint256"
        },
        {
          "indexed": false,
          "internalType": "uint256",
          "name": "amountUSDC",
          "type": "uint256"
        },
        {
          "indexed": false,
          "internalType": "uint256",
          "name": "totalFundedUSDC",
          "type": "uint256"
        }
      ],
      "name": "ProjectFunded",
      "type": "event"
    },
    {
      "anonymous": false,
      "inputs": [
        {
          "indexed": true,
          "internalType": "uint256",
          "name": "projectId",
          "type": "uint256"
        },
        {
          "indexed": true,
          "internalType": "address",
          "name": "validator",
          "type": "address"
        },
        {
          "indexed": false,
          "internalType": "bool",
          "name": "isApproved",
          "type": "bool"
        }
      ],
      "name": "ProjectVerified",
      "type": "event"
    },
    {
      "anonymous": false,
      "inputs": [
        {
          "indexed": true,
          "internalType": "bytes32",
          "name": "role",
          "type": "bytes32"
        },
        {
          "indexed": true,
          "internalType": "bytes32",
          "name": "previousAdminRole",
          "type": "bytes32"
        },
        {
          "indexed": true,
          "internalType": "bytes32",
          "name": "newAdminRole",
          "type": "bytes32"
        }
      ],
      "name": "RoleAdminChanged",
      "type": "event"
    },
    {
      "anonymous": false,
      "inputs": [
        {
          "indexed": true,
          "internalType": "bytes32",
          "name": "role",
          "type": "bytes32"
        },
        {
          "indexed": true,
          "internalType": "address",
          "name": "account",
          "type": "address"
        },
        {
          "indexed": true,
          "internalType": "address",
          "name": "sender",
          "type": "address"
        }
      ],
      "name": "RoleGranted",
      "type": "event"
    },
    {
      "anonymous": false,
      "inputs": [
        {
          "indexed": true,
          "internalType": "bytes32",
          "name": "role",
          "type": "bytes32"
        },
        {
          "indexed": true,
          "internalType": "address",
          "name": "account",
          "type": "address"
        },
        {
          "indexed": true,
          "internalType": "address",
          "name": "sender",
          "type": "address"
        }
      ],
      "name": "RoleRevoked",
      "type": "event"
    },
    {
      "inputs": [],
      "name": "BDT_DECIMALS",
      "outputs": [
        {
          "internalType": "uint256",
          "name": "",
          "type": "uint256"
        }
      ],
      "stateMutability": "view",
      "type": "function"
    },
    {
      "inputs": [],
      "name": "BDT_TO_USDC_RATE",
      "outputs": [
        {
          "internalType": "uint256",
          "name": "",
          "type": "uint256"
        }
      ],
      "stateMutability": "view",
      "type": "function"
    },
    {
      "inputs": [],
      "name": "DEFAULT_ADMIN_ROLE",
      "outputs": [
        {
          "internalType": "bytes32",
          "name": "",
          "type": "bytes32"
        }
      ],
      "stateMutability": "view",
      "type": "function"
    },
    {
      "inputs": [],
      "name": "FARMER_ROLE",
      "outputs": [
        {
          "internalType": "bytes32",
          "name": "",
          "type": "bytes32"
        }
      ],
      "stateMutability": "view",
      "type": "function"
    },
    {
      "inputs": [],
      "name": "USDC",
      "outputs": [
        {
          "internalType": "contract IERC20",
          "name": "",
          "type": "address"
        }
      ],
      "stateMutability": "view",
      "type": "function"
    },
    {
      "inputs": [],
      "name": "VALIDATOR_ROLE",
      "outputs": [
        {
          "internalType": "bytes32",
          "name": "",
          "type": "bytes32"
        }
      ],
      "stateMutability": "view",
      "type": "function"
    },
    {
      "inputs": [
        {
          "internalType": "uint256",
          "name": "amountBDT",
          "type": "uint256"
        }
      ],
      "name": "convertBDTToUSDC",
      "outputs": [
        {
          "internalType": "uint256",
          "name": "",
          "type": "uint256"
        }
      ],
      "stateMutability": "pure",
      "type": "function"
    },
    {
      "inputs": [
        {
          "internalType": "uint256",
          "name": "amountUSDC",
          "type": "uint256"
        }
      ],
      "name": "convertUSDCToBDT",
      "outputs": [
        {
          "internalType": "uint256",
          "name": "",
          "type": "uint256"
        }
      ],
      "stateMutability": "pure",
      "type": "function"
    },
    {
      "inputs": [
        {
          "internalType": "string",
          "name": "title",
          "type": "string"
        },
        {
          "internalType": "string",
          "name": "description",
          "type": "string"
        },
        {
          "internalType": "string",
          "name": "ipfsHash",
          "type": "string"
        },
        {
          "internalType": "uint256",
          "name": "targetAmountBDT",
          "type": "uint256"
        },
        {
          "internalType": "uint256",
          "name": "durationInDays",
          "type": "uint256"
        },
        {
          "internalType": "string",
          "name": "location",
          "type": "string"
        },
        {
          "internalType": "string",
          "name": "category",
          "type": "string"
        }
      ],
      "name": "createProject",
      "outputs": [],
      "stateMutability": "nonpayable",
      "type": "function"
    },
    {
      "inputs": [
        {
          "internalType": "address",
          "name": "",
          "type": "address"
        },
        {
          "internalType": "uint256",
          "name": "",
          "type": "uint256"
        }
      ],
      "name": "farmerProjects",
      "outputs": [
        {
          "internalType": "uint256",
          "name": "",
          "type": "uint256"
        }
      ],
      "stateMutability": "view",
      "type": "function"
    },
    {
      "inputs": [
        {
          "internalType": "uint256",
          "name": "projectId",
          "type": "uint256"
        }
      ],
      "name": "getFundingProgress",
      "outputs": [
        {
          "internalType": "uint256",
          "name": "",
          "type": "uint256"
        }
      ],
      "stateMutability": "view",
      "type": "function"
    },
    {
      "inputs": [
        {
          "internalType": "uint256",
          "name": "projectId",
          "type": "uint256"
        }
      ],
      "name": "getProject",
      "outputs": [
        {
          "components": [
            {
              "internalType": "uint256",
              "name": "id",
              "type": "uint256"
            },
            {
              "internalType": "address",
              "name": "farmer",
              "type": "address"
            },
            {
              "internalType": "string",
              "name": "title",
              "type": "string"
            },
            {
              "internalType": "string",
              "name": "description",
              "type": "string"
            },
            {
              "internalType": "string",
              "name": "ipfsHash",
              "type": "string"
            },
            {
              "internalType": "uint256",
              "name": "targetAmountBDT",
              "type": "uint256"
            },
            {
              "internalType": "uint256",
              "name": "targetAmountUSDC",
              "type": "uint256"
            },
            {
              "internalType": "uint256",
              "name": "fundedAmountUSDC",
              "type": "uint256"
            },
            {
              "internalType": "uint256",
              "name": "startDate",
              "type": "uint256"
            },
            {
              "internalType": "uint256",
              "name": "endDate",
              "type": "uint256"
            },
            {
              "internalType": "enum ProjectFactory.ProjectStatus",
              "name": "status",
              "type": "uint8"
            },
            {
              "internalType": "bool",
              "name": "isVerified",
              "type": "bool"
            },
            {
              "internalType": "string",
              "name": "location",
              "type": "string"
            },
            {
              "internalType": "string",
              "name": "category",
              "type": "string"
            }
          ],
          "internalType": "struct ProjectFactory.Project",
          "name": "",
          "type": "tuple"
        }
      ],
      "stateMutability": "view",
      "type": "function"
    },
    {
      "inputs": [
        {
          "internalType": "address",
          "name": "farmer",
          "type": "address"
        }
      ],
      "name": "getProjectsByFarmer",
      "outputs": [
        {
          "internalType": "uint256[]",
          "name": "",
          "type": "uint256[]"
        }
      ],
      "stateMutability": "view",
      "type": "function"
    },
    {
      "inputs": [
        {
          "internalType": "bytes32",
          "name": "role",
          "type": "bytes32"
        }
      ],
      "name": "getRoleAdmin",
      "outputs": [
        {
          "internalType": "bytes32",
          "name": "",
          "type": "bytes32"
        }
      ],
      "stateMutability": "view",
      "type": "function"
    },
    {
      "inputs": [],
      "name": "getTotalProjects",
      "outputs": [
        {
          "internalType": "uint256",
          "name": "",
          "type": "uint256"
        }
      ],
      "stateMutability": "view",
      "type": "function"
    },
    {
      "inputs": [
        {
          "internalType": "bytes32",
          "name": "role",
          "type": "bytes32"
        },
        {
          "internalType": "address",
          "name": "account",
          "type": "address"
        }
      ],
      "name": "grantRole",
      "outputs": [],
      "stateMutability": "nonpayable",
      "type": "function"
    },
    {
      "inputs": [
        {
          "internalType": "bytes32",
          "name": "role",
          "type": "bytes32"
        },
        {
          "internalType": "address",
          "name": "account",
          "type": "address"
        }
      ],
      "name": "hasRole",
      "outputs": [
        {
          "internalType": "bool",
          "name": "",
          "type": "bool"
        }
      ],
      "stateMutability": "view",
      "type": "function"
    },
    {
      "inputs": [
        {
          "internalType": "uint256",
          "name": "",
          "type": "uint256"
        }
      ],
      "name": "projects",
      "outputs": [
        {
          "internalType": "uint256",
          "name": "id",
          "type": "uint256"
        },
        {
          "internalType": "address",
          "name": "farmer",
          "type": "address"
        },
        {
          "internalType": "string",
          "name": "title",
          "type": "string"
        },
        {
          "internalType": "string",
          "name": "description",
          "type": "string"
        },
        {
          "internalType": "string",
          "name": "ipfsHash",
          "type": "string"
        },
        {
          "internalType": "uint256",
          "name": "targetAmountBDT",
          "type": "uint256"
        },
        {
          "internalType": "uint256",
          "name": "targetAmountUSDC",
          "type": "uint256"
        },
        {
          "internalType": "uint256",
          "name": "fundedAmountUSDC",
          "type": "uint256"
        },
        {
          "internalType": "uint256",
          "name": "startDate",
          "type": "uint256"
        },
        {
          "internalType": "uint256",
          "name": "endDate",
          "type": "uint256"
        },
        {
          "internalType": "enum ProjectFactory.ProjectStatus",
          "name": "status",
          "type": "uint8"
        },
        {
          "internalType": "bool",
          "name": "isVerified",
          "type": "bool"
        },
        {
          "internalType": "string",
          "name": "location",
          "type": "string"
        },
        {
          "internalType": "string",
          "name": "category",
          "type": "string"
        }
      ],
      "stateMutability": "view",
      "type": "function"
    },
    {
      "inputs": [
        {
          "internalType": "bytes32",
          "name": "role",
          "type": "bytes32"
        },
        {
          "internalType": "address",
          "name": "account",
          "type": "address"
        }
      ],
      "name": "renounceRole",
      "outputs": [],
      "stateMutability": "nonpayable",
      "type": "function"
    },
    {
      "inputs": [
        {
          "internalType": "bytes32",
          "name": "role",
          "type": "bytes32"
        },
        {
          "internalType": "address",
          "name": "account",
          "type": "address"
        }
      ],
      "name": "revokeRole",
      "outputs": [],
      "stateMutability": "nonpayable",
      "type": "function"
    },
    {
      "inputs": [
        {
          "internalType": "bytes4",
          "name": "interfaceId",
          "type": "bytes4"
        }
      ],
      "name": "supportsInterface",
      "outputs": [
        {
          "internalType": "bool",
          "name": "",
          "type": "bool"
        }
      ],
      "stateMutability": "view",
      "type": "function"
    },
    {
      "inputs": [
        {
          "internalType": "uint256",
          "name": "projectId",
          "type": "uint256"
        },
        {
          "internalType": "uint256",
          "name": "amountUSDC",
          "type": "uint256"
        }
      ],
      "name": "updateFunding",
      "outputs": [],
      "stateMutability": "nonpayable",
      "type": "function"
    },
    {
      "inputs": [
        {
          "internalType": "uint256",
          "name": "projectId",
          "type": "uint256"
        },
        {
          "internalType": "bool",
          "name": "isApproved",
          "type": "bool"
        }
      ],
      "name": "verifyProject",
      "outputs": [],
      "stateMutability": "nonpayable",
      "type": "function"
    }
  ],
  "bytecode": "0x60a06040523480156200001157600080fd5b506040516200236238038062002362833981016040819052620000349162000151565b6001600160a01b0381166200008f5760405162461bcd60e51b815260206004820152601460248201527f496e76616c696420555344432061646472657373000000000000000000000000604482015260640160405180910390fd5b6001600160a01b038116608052620000a9600033620000b0565b5062000183565b6000828152602081815260408083206001600160a01b038516845290915290205460ff166200014d576000828152602081815260408083206001600160a01b03851684529091529020805460ff191660011790556200010c3390565b6001600160a01b0316816001600160a01b0316837f2f8788117e7eff1d82e926ec794901d17c78024a50270940304540a733656f0d60405160405180910390a45b5050565b6000602082840312156200016457600080fd5b81516001600160a01b03811681146200017c57600080fd5b9392505050565b6080516121c36200019f600039600061027601526121c36000f3fe608060405234801561001057600080fd5b506004361061014d5760003560e01c806384144a44116100c3578063c49baebe1161007c578063c49baebe146102f1578063d547741f14610318578063e68366171461032b578063f0f3f2c81461033e578063f39439701461035e578063ff4c5f6b1461038557600080fd5b806384144a441461025e57806389a302711461027157806391d14854146102b057806395b304af146102c3578063a217fddf146102d6578063b7be61c1146102de57600080fd5b80632f2ff15d116101155780632f2ff15d1461020057806336568abe14610215578063671af114146102285780637598e5a41461023b5780637ac926d61461024e578063812739a21461025657600080fd5b806301ffc9a714610152578063107046bd1461017a5780631c321b06146101a7578063207c67f7146101c7578063248a9ca3146101dd575b600080fd5b610165610160366004611967565b610398565b60405190151581526020015b60405180910390f35b61018d610188366004611991565b6103cf565b6040516101719e9d9c9b9a99989796959493929190611a32565b6101ba6101b5366004611b15565b6106f4565b6040516101719190611b30565b6101cf606481565b604051908152602001610171565b6101cf6101eb366004611991565b60009081526020819052604090206001015490565b61021361020e366004611b74565b610760565b005b610213610223366004611b74565b61078a565b6101cf610236366004611ba0565b61080d565b610213610249366004611bca565b61083e565b6101cf607d81565b6101cf6108f1565b61021361026c366004611c8f565b610901565b6102987f000000000000000000000000000000000000000000000000000000000000000081565b6040516001600160a01b039091168152602001610171565b6101656102be366004611b74565b610c78565b6101cf6102d1366004611991565b610ca1565b6101cf600081565b6101cf6102ec366004611991565b610cc8565b6101cf7f21702c8af46127c7fa207f89d0b0a8441bb32959a0ac7df790e9ab1a25c9892681565b610213610326366004611b74565b610ce3565b610213610339366004611d74565b610d08565b61035161034c366004611991565b610e4e565b6040516101719190611da9565b6101cf7f7c6181838a71a779e445600d4c6ecbe16bacf2b3c5bda69c29fada66d1b645d181565b6101cf610393366004611991565b611217565b60006001600160e01b03198216637965db0b60e01b14806103c957506301ffc9a760e01b6001600160e01b03198316145b92915050565b600260208190526000918252604090912080546001820154928201805491936001600160a01b0316929161040290611ed9565b80601f016020809104026020016040519081016040528092919081815260200182805461042e90611ed9565b801561047b5780601f106104505761010080835404028352916020019161047b565b820191906000526020600020905b81548152906001019060200180831161045e57829003601f168201915b50505050509080600301805461049090611ed9565b80601f01602080910402602001604051908101604052809291908181526020018280546104bc90611ed9565b80156105095780601f106104de57610100808354040283529160200191610509565b820191906000526020600020905b8154815290600101906020018083116104ec57829003601f168201915b50505050509080600401805461051e90611ed9565b80601f016020809104026020016040519081016040528092919081815260200182805461054a90611ed9565b80156105975780601f1061056c57610100808354040283529160200191610597565b820191906000526020600020905b81548152906001019060200180831161057a57829003601f168201915b5050505060058301546006840154600785015460088601546009870154600a880154600b890180549899969895975093959294919360ff8083169461010090930416926105e390611ed9565b80601f016020809104026020016040519081016040528092919081815260200182805461060f90611ed9565b801561065c5780601f106106315761010080835404028352916020019161065c565b820191906000526020600020905b81548152906001019060200180831161063f57829003601f168201915b50505050509080600c01805461067190611ed9565b80601f016020809104026020016040519081016040528092919081815260200182805461069d90611ed9565b80156106ea5780601f106106bf576101008083540402835291602001916106ea565b820191906000526020600020905b8154815290600101906020018083116106cd57829003601f168201915b505050505090508e565b6001600160a01b03811660009081526003602090815260409182902080548351818402810184019094528084526060939283018282801561075457602002820191906000526020600020905b815481526020019060010190808311610740575b50505050509050919050565b60008281526020819052604090206001015461077b816115e3565b61078583836115f0565b505050565b6001600160a01b03811633146107ff5760405162461bcd60e51b815260206004820152602f60248201527f416363657373436f6e74726f6c3a2063616e206f6e6c792072656e6f756e636560448201526e103937b632b9903337b91039b2b63360891b60648201526084015b60405180910390fd5b6108098282611674565b5050565b6003602052816000526040600020818154811061082957600080fd5b90600052602060002001600091509150505481565b6000828152600260205260408120805490910361086d5760405162461bcd60e51b81526004016107f690611f13565b818160070160008282546108819190611f59565b909155505060068101546007820154106108a557600a8101805460ff191660031790555b827f88181227440faaf371d3e3b70380fb197eb7333aa03a236c4b81e4ebcc5c5c958383600701546040516108e4929190918252602082015260400190565b60405180910390a2505050565b60006108fc60015490565b905090565b7f7c6181838a71a779e445600d4c6ecbe16bacf2b3c5bda69c29fada66d1b645d161092b816115e3565b60008851116109745760405162461bcd60e51b81526020600482015260156024820152745469746c652063616e6e6f7420626520656d70747960581b60448201526064016107f6565b600085116109d05760405162461bcd60e51b8152602060048201526024808201527f54617267657420616d6f756e74206d75737420626520677265617465722074686044820152630616e20360e41b60648201526084016107f6565b60008411610a205760405162461bcd60e51b815260206004820152601f60248201527f4475726174696f6e206d7573742062652067726561746572207468616e20300060448201526064016107f6565b610a2e600180546001019055565b6000610a3960015490565b90506000610a496064607d611f6c565b610a5688620f4240611f6c565b610a609190611f83565b9050604051806101c00160405280838152602001336001600160a01b031681526020018b81526020018a815260200189815260200188815260200182815260200160008152602001600081526020016000815260200160006005811115610ac957610ac96119fa565b81526000602080830182905260408084018a9052606090930188905285825260028082529183902084518155908401516001820180546001600160a01b0319166001600160a01b039092169190911790559183015190820190610b2c9082611ff3565b5060608201516003820190610b419082611ff3565b5060808201516004820190610b569082611ff3565b5060a0820151816005015560c0820151816006015560e082015181600701556101008201518160080155610120820151816009015561014082015181600a0160006101000a81548160ff02191690836005811115610bb657610bb66119fa565b0217905550610160820151600a820180549115156101000261ff0019909216919091179055610180820151600b820190610bf09082611ff3565b506101a0820151600c820190610c069082611ff3565b5050336000818152600360209081526040808320805460018101825590845291909220018590555190915083907f483013d4a1d5e8ba43089bda8f1a92b959e32d6fc582556f800267dd809e589390610c64908c908c9087906120b3565b60405180910390a350505050505050505050565b6000918252602082815260408084206001600160a01b0393909316845291905290205460ff1690565b6000620f42406064610cb4607d85611f6c565b610cbe9190611f6c565b6103c99190611f83565b6000610cd66064607d611f6c565b610cbe83620f4240611f6c565b600082815260208190526040902060010154610cfe816115e3565b6107858383611674565b7f21702c8af46127c7fa207f89d0b0a8441bb32959a0ac7df790e9ab1a25c98926610d32816115e3565b60008381526002602052604081208054909103610d615760405162461bcd60e51b81526004016107f690611f13565b6000600a82015460ff166005811115610d7c57610d7c6119fa565b14610dc95760405162461bcd60e51b815260206004820152601960248201527f50726f6a65637420616c72656164792070726f6365737365640000000000000060448201526064016107f6565b8215610dff57600a8101805461ffff19166101011790554260088201819055610df5906276a700611f59565b6009820155610e0f565b600a8101805460ff191660021790555b6040518315158152339085907f07af3a6578393ed19fd6f7264862c58e0c5b4869c616046607d6007476bb4a589060200160405180910390a350505050565b610e566118e0565b6000828152600260205260408120549003610e835760405162461bcd60e51b81526004016107f690611f13565b60008281526002602081815260409283902083516101c0810185528154815260018201546001600160a01b03169281019290925291820180549193840191610eca90611ed9565b80601f0160208091040260200160405190810160405280929190818152602001828054610ef690611ed9565b8015610f435780601f10610f1857610100808354040283529160200191610f43565b820191906000526020600020905b815481529060010190602001808311610f2657829003601f168201915b50505050508152602001600382018054610f5c90611ed9565b80601f0160208091040260200160405190810160405280929190818152602001828054610f8890611ed9565b8015610fd55780601f10610faa57610100808354040283529160200191610fd5565b820191906000526020600020905b815481529060010190602001808311610fb857829003601f168201915b50505050508152602001600482018054610fee90611ed9565b80601f016020809104026020016040519081016040528092919081815260200182805461101a90611ed9565b80156110675780601f1061103c57610100808354040283529160200191611067565b820191906000526020600020905b81548152906001019060200180831161104a57829003601f168201915b50505091835250506005828101546020830152600683015460408301526007830154606083015260088301546080830152600983015460a0830152600a83015460c09092019160ff16908111156110c0576110c06119fa565b60058111156110d1576110d16119fa565b8152600a820154610100900460ff1615156020820152600b820180546040909201916110fc90611ed9565b80601f016020809104026020016040519081016040528092919081815260200182805461112890611ed9565b80156111755780601f1061114a57610100808354040283529160200191611175565b820191906000526020600020905b81548152906001019060200180831161115857829003601f168201915b50505050508152602001600c8201805461118e90611ed9565b80601f01602080910402602001604051908101604052809291908181526020018280546111ba90611ed9565b80156112075780601f106111dc57610100808354040283529160200191611207565b820191906000526020600020905b8154815290600101906020018083116111ea57829003601f168201915b5050505050815250509050919050565b600081815260026020818152604080842081516101c0810183528154815260018201546001600160a01b03169381019390935292830180548594928401919061125f90611ed9565b80601f016020809104026020016040519081016040528092919081815260200182805461128b90611ed9565b80156112d85780601f106112ad576101008083540402835291602001916112d8565b820191906000526020600020905b8154815290600101906020018083116112bb57829003601f168201915b505050505081526020016003820180546112f190611ed9565b80601f016020809104026020016040519081016040528092919081815260200182805461131d90611ed9565b801561136a5780601f1061133f5761010080835404028352916020019161136a565b820191906000526020600020905b81548152906001019060200180831161134d57829003601f168201915b5050505050815260200160048201805461138390611ed9565b80601f01602080910402602001604051908101604052809291908181526020018280546113af90611ed9565b80156113fc5780601f106113d1576101008083540402835291602001916113fc565b820191906000526020600020905b8154815290600101906020018083116113df57829003601f168201915b50505091835250506005828101546020830152600683015460408301526007830154606083015260088301546080830152600983015460a0830152600a83015460c09092019160ff1690811115611455576114556119fa565b6005811115611466576114666119fa565b8152600a820154610100900460ff1615156020820152600b8201805460409092019161149190611ed9565b80601f01602080910402602001604051908101604052809291908181526020018280546114bd90611ed9565b801561150a5780601f106114df5761010080835404028352916020019161150a565b820191906000526020600020905b8154815290600101906020018083116114ed57829003601f168201915b50505050508152602001600c8201805461152390611ed9565b80601f016020809104026020016040519081016040528092919081815260200182805461154f90611ed9565b801561159c5780601f106115715761010080835404028352916020019161159c565b820191906000526020600020905b81548152906001019060200180831161157f57829003601f168201915b50505050508152505090508060c001516000036115bc5750600092915050565b60c081015160e08201516115d290612710611f6c565b6115dc9190611f83565b9392505050565b6115ed81336116d9565b50565b6115fa8282610c78565b610809576000828152602081815260408083206001600160a01b03851684529091529020805460ff191660011790556116303390565b6001600160a01b0316816001600160a01b0316837f2f8788117e7eff1d82e926ec794901d17c78024a50270940304540a733656f0d60405160405180910390a45050565b61167e8282610c78565b15610809576000828152602081815260408083206001600160a01b0385168085529252808320805460ff1916905551339285917ff6391f5c32d9c69d2a47ea670b442974b53935d1edc7fd64eb21e047a839171b9190a45050565b6116e38282610c78565b610809576116f081611732565b6116fb836020611744565b60405160200161170c9291906120d8565b60408051601f198184030181529082905262461bcd60e51b82526107f69160040161214d565b60606103c96001600160a01b03831660145b60606000611753836002611f6c565b61175e906002611f59565b67ffffffffffffffff81111561177657611776611bec565b6040519080825280601f01601f1916602001820160405280156117a0576020820181803683370190505b509050600360fc1b816000815181106117bb576117bb612160565b60200101906001600160f81b031916908160001a905350600f60fb1b816001815181106117ea576117ea612160565b60200101906001600160f81b031916908160001a905350600061180e846002611f6c565b611819906001611f59565b90505b6001811115611891576f181899199a1a9b1b9c1cb0b131b232b360811b85600f166010811061184d5761184d612160565b1a60f81b82828151811061186357611863612160565b60200101906001600160f81b031916908160001a90535060049490941c9361188a81612176565b905061181c565b5083156115dc5760405162461bcd60e51b815260206004820181905260248201527f537472696e67733a20686578206c656e67746820696e73756666696369656e7460448201526064016107f6565b604051806101c001604052806000815260200160006001600160a01b0316815260200160608152602001606081526020016060815260200160008152602001600081526020016000815260200160008152602001600081526020016000600581111561194e5761194e6119fa565b8152600060208201526060604082018190529081015290565b60006020828403121561197957600080fd5b81356001600160e01b0319811681146115dc57600080fd5b6000602082840312156119a357600080fd5b5035919050565b60005b838110156119c55781810151838201526020016119ad565b50506000910152565b600081518084526119e68160208601602086016119aa565b601f01601f19169290920160200192915050565b634e487b7160e01b600052602160045260246000fd5b60068110611a2e57634e487b7160e01b600052602160045260246000fd5b9052565b8e81526001600160a01b038e1660208201526101c060408201526000611a5c6101c083018f6119ce565b8281036060840152611a6e818f6119ce565b90508281036080840152611a82818e6119ce565b90508b60a08401528a60c08401528960e08401528861010084015287610120840152611ab2610140840188611a10565b851515610160840152828103610180840152611ace81866119ce565b90508281036101a0840152611ae381856119ce565b9150509f9e505050505050505050505050505050565b80356001600160a01b0381168114611b1057600080fd5b919050565b600060208284031215611b2757600080fd5b6115dc82611af9565b6020808252825182820181905260009190848201906040850190845b81811015611b6857835183529284019291840191600101611b4c565b50909695505050505050565b60008060408385031215611b8757600080fd5b82359150611b9760208401611af9565b90509250929050565b60008060408385031215611bb357600080fd5b611bbc83611af9565b946020939093013593505050565b60008060408385031215611bdd57600080fd5b50508035926020909101359150565b634e487b7160e01b600052604160045260246000fd5b600082601f830112611c1357600080fd5b813567ffffffffffffffff80821115611c2e57611c2e611bec565b604051601f8301601f19908116603f01168101908282118183101715611c5657611c56611bec565b81604052838152866020858801011115611c6f57600080fd5b836020870160208301376000602085830101528094505050505092915050565b600080600080600080600060e0888a031215611caa57600080fd5b873567ffffffffffffffff80821115611cc257600080fd5b611cce8b838c01611c02565b985060208a0135915080821115611ce457600080fd5b611cf08b838c01611c02565b975060408a0135915080821115611d0657600080fd5b611d128b838c01611c02565b965060608a0135955060808a0135945060a08a0135915080821115611d3657600080fd5b611d428b838c01611c02565b935060c08a0135915080821115611d5857600080fd5b50611d658a828b01611c02565b91505092959891949750929550565b60008060408385031215611d8757600080fd5b8235915060208301358015158114611d9e57600080fd5b809150509250929050565b602081528151602082015260006020830151611dd060408401826001600160a01b03169052565b5060408301516101c0806060850152611ded6101e08501836119ce565b91506060850151601f1980868503016080870152611e0b84836119ce565b935060808701519150808685030160a0870152611e2884836119ce565b935060a087015160c087015260c087015160e087015260e08701519150610100828188015280880151925050610120828188015280880151925050610140828188015280880151925050610160611e8181880184611a10565b8701519150610180611e968782018415159052565b808801519250506101a0818786030181880152611eb385846119ce565b908801518782039092018488015293509050611ecf83826119ce565b9695505050505050565b600181811c90821680611eed57607f821691505b602082108103611f0d57634e487b7160e01b600052602260045260246000fd5b50919050565b602080825260169082015275141c9bda9958dd08191bd95cc81b9bdd08195e1a5cdd60521b604082015260600190565b634e487b7160e01b600052601160045260246000fd5b808201808211156103c9576103c9611f43565b80820281158282048414176103c9576103c9611f43565b600082611fa057634e487b7160e01b600052601260045260246000fd5b500490565b601f82111561078557600081815260208120601f850160051c81016020861015611fcc5750805b601f850160051c820191505b81811015611feb57828155600101611fd8565b505050505050565b815167ffffffffffffffff81111561200d5761200d611bec565b6120218161201b8454611ed9565b84611fa5565b602080601f831160018114612056576000841561203e5750858301515b600019600386901b1c1916600185901b178555611feb565b600085815260208120601f198616915b8281101561208557888601518255948401946001909101908401612066565b50858210156120a35787850151600019600388901b60f8161c191681555b5050505050600190811b01905550565b6060815260006120c660608301866119ce565b60208301949094525060400152919050565b7f416363657373436f6e74726f6c3a206163636f756e74200000000000000000008152600083516121108160178501602088016119aa565b7001034b99036b4b9b9b4b733903937b6329607d1b60179184019182015283516121418160288401602088016119aa565b01602801949350505050565b6020815260006115dc60208301846119ce565b634e487b7160e01b600052603260045260246000fd5b60008161218557612185611f43565b50600019019056fea26469706673582212203dc2cf45b2de8305913ac28c638bf28d5323e01ca6f126503d020eb92942b5e864736f6c63430008140033",
  "linkReferences": {},
  "deployedLinkReferences": {}
}